{
  "_format": "hh-sol-artifact-1",
  "contractName": "GameController",
  "sourceName": "contracts/GameController.sol",
  "abi": [
    {
      "anonymous": false,
      "inputs": [
        {
          "indexed": false,
          "internalType": "address",
          "name": "previousAdmin",
          "type": "address"
        },
        {
          "indexed": false,
          "internalType": "address",
          "name": "newAdmin",
          "type": "address"
        }
      ],
      "name": "AdminChanged",
      "type": "event"
    },
    {
      "anonymous": false,
      "inputs": [
        {
          "indexed": true,
          "internalType": "address",
          "name": "beacon",
          "type": "address"
        }
      ],
      "name": "BeaconUpgraded",
      "type": "event"
    },
    {
      "anonymous": false,
      "inputs": [
        {
          "indexed": false,
          "internalType": "uint256",
          "name": "gameid",
          "type": "uint256"
        },
        {
          "indexed": false,
          "internalType": "address[]",
          "name": "players",
          "type": "address[]"
        },
        {
          "indexed": false,
          "internalType": "bool",
          "name": "isActive",
          "type": "bool"
        }
      ],
      "name": "GameStarted",
      "type": "event"
    },
    {
      "anonymous": false,
      "inputs": [
        {
          "indexed": true,
          "internalType": "address",
          "name": "previousOwner",
          "type": "address"
        },
        {
          "indexed": true,
          "internalType": "address",
          "name": "newOwner",
          "type": "address"
        }
      ],
      "name": "OwnershipTransferred",
      "type": "event"
    },
    {
      "anonymous": false,
      "inputs": [
        {
          "indexed": false,
          "internalType": "address",
          "name": "gameMaster",
          "type": "address"
        },
        {
          "indexed": false,
          "internalType": "address",
          "name": "player",
          "type": "address"
        },
        {
          "indexed": false,
          "internalType": "uint256",
          "name": "rank",
          "type": "uint256"
        },
        {
          "indexed": false,
          "internalType": "uint256",
          "name": "token",
          "type": "uint256"
        },
        {
          "indexed": false,
          "internalType": "uint256",
          "name": "point",
          "type": "uint256"
        },
        {
          "indexed": false,
          "internalType": "uint256",
          "name": "time",
          "type": "uint256"
        }
      ],
      "name": "PvERewarded",
      "type": "event"
    },
    {
      "anonymous": false,
      "inputs": [
        {
          "indexed": false,
          "internalType": "address",
          "name": "gameMaster",
          "type": "address"
        },
        {
          "indexed": false,
          "internalType": "address",
          "name": "player",
          "type": "address"
        },
        {
          "indexed": false,
          "internalType": "uint256",
          "name": "rank",
          "type": "uint256"
        },
        {
          "indexed": false,
          "internalType": "uint256",
          "name": "token",
          "type": "uint256"
        },
        {
          "indexed": false,
          "internalType": "uint256",
          "name": "point",
          "type": "uint256"
        },
        {
          "indexed": false,
          "internalType": "uint256",
          "name": "time",
          "type": "uint256"
        }
      ],
      "name": "PvPRewarded",
      "type": "event"
    },
    {
      "anonymous": false,
      "inputs": [
        {
          "indexed": true,
          "internalType": "address",
          "name": "implementation",
          "type": "address"
        }
      ],
      "name": "Upgraded",
      "type": "event"
    },
    {
      "inputs": [],
      "name": "gameId",
      "outputs": [
        {
          "internalType": "uint256",
          "name": "_value",
          "type": "uint256"
        }
      ],
      "stateMutability": "view",
      "type": "function"
    },
    {
      "inputs": [],
      "name": "gameMaster",
      "outputs": [
        {
          "internalType": "address",
          "name": "",
          "type": "address"
        }
      ],
      "stateMutability": "view",
      "type": "function"
    },
    {
      "inputs": [],
      "name": "gameitem",
      "outputs": [
        {
          "internalType": "address",
          "name": "",
          "type": "address"
        }
      ],
      "stateMutability": "view",
      "type": "function"
    },
    {
      "inputs": [
        {
          "internalType": "uint256",
          "name": "",
          "type": "uint256"
        }
      ],
      "name": "games",
      "outputs": [
        {
          "internalType": "uint256",
          "name": "id",
          "type": "uint256"
        },
        {
          "internalType": "bool",
          "name": "isActive",
          "type": "bool"
        }
      ],
      "stateMutability": "view",
      "type": "function"
    },
    {
      "inputs": [
        {
          "internalType": "address[]",
          "name": "addresses",
          "type": "address[]"
        }
      ],
      "name": "getGame",
      "outputs": [
        {
          "internalType": "bool[]",
          "name": "",
          "type": "bool[]"
        }
      ],
      "stateMutability": "view",
      "type": "function"
    },
    {
      "inputs": [
        {
          "internalType": "address",
          "name": "player",
          "type": "address"
        }
      ],
      "name": "getGameItems",
      "outputs": [
        {
          "components": [
            {
              "internalType": "uint256",
              "name": "tokenId",
              "type": "uint256"
            },
            {
              "internalType": "uint256",
              "name": "itemId",
              "type": "uint256"
            },
            {
              "internalType": "uint256",
              "name": "star",
              "type": "uint256"
            }
          ],
          "internalType": "struct GameController.ItemInfo[]",
          "name": "",
          "type": "tuple[]"
        }
      ],
      "stateMutability": "view",
      "type": "function"
    },
    {
      "inputs": [],
      "name": "hostingFeeX10",
      "outputs": [
        {
          "internalType": "uint256",
          "name": "",
          "type": "uint256"
        }
      ],
      "stateMutability": "view",
      "type": "function"
    },
    {
      "inputs": [],
      "name": "howl",
      "outputs": [
        {
          "internalType": "address",
          "name": "",
          "type": "address"
        }
      ],
      "stateMutability": "view",
      "type": "function"
    },
    {
      "inputs": [
        {
          "internalType": "address",
          "name": "erc20",
          "type": "address"
        },
        {
          "internalType": "address",
          "name": "erc721",
          "type": "address"
        }
      ],
      "name": "initialize",
      "outputs": [],
      "stateMutability": "nonpayable",
      "type": "function"
    },
    {
      "inputs": [],
      "name": "owner",
      "outputs": [
        {
          "internalType": "address",
          "name": "",
          "type": "address"
        }
      ],
      "stateMutability": "view",
      "type": "function"
    },
    {
      "inputs": [
        {
          "internalType": "address",
          "name": "",
          "type": "address"
        }
      ],
      "name": "playerToGameId",
      "outputs": [
        {
          "internalType": "uint256",
          "name": "",
          "type": "uint256"
        }
      ],
      "stateMutability": "view",
      "type": "function"
    },
    {
      "inputs": [
        {
          "internalType": "address",
          "name": "",
          "type": "address"
        }
      ],
      "name": "players",
      "outputs": [
        {
          "internalType": "uint256",
          "name": "ticket",
          "type": "uint256"
        },
        {
          "internalType": "uint256",
          "name": "point",
          "type": "uint256"
        }
      ],
      "stateMutability": "view",
      "type": "function"
    },
    {
      "inputs": [
        {
          "internalType": "uint256",
          "name": "",
          "type": "uint256"
        },
        {
          "internalType": "uint256",
          "name": "",
          "type": "uint256"
        }
      ],
      "name": "points",
      "outputs": [
        {
          "internalType": "uint256",
          "name": "",
          "type": "uint256"
        }
      ],
      "stateMutability": "view",
      "type": "function"
    },
    {
      "inputs": [
        {
          "internalType": "uint256",
          "name": "",
          "type": "uint256"
        },
        {
          "internalType": "uint256",
          "name": "",
          "type": "uint256"
        }
      ],
      "name": "prizePercentX10",
      "outputs": [
        {
          "internalType": "uint256",
          "name": "",
          "type": "uint256"
        }
      ],
      "stateMutability": "view",
      "type": "function"
    },
    {
      "inputs": [
        {
          "internalType": "uint256",
          "name": "",
          "type": "uint256"
        }
      ],
      "name": "pvepoints",
      "outputs": [
        {
          "internalType": "uint256",
          "name": "",
          "type": "uint256"
        }
      ],
      "stateMutability": "view",
      "type": "function"
    },
    {
      "inputs": [
        {
          "internalType": "uint256",
          "name": "",
          "type": "uint256"
        }
      ],
      "name": "pveprizes",
      "outputs": [
        {
          "internalType": "uint256",
          "name": "",
          "type": "uint256"
        }
      ],
      "stateMutability": "view",
      "type": "function"
    },
    {
      "inputs": [],
      "name": "renounceOwnership",
      "outputs": [],
      "stateMutability": "nonpayable",
      "type": "function"
    },
    {
      "inputs": [
        {
          "internalType": "address",
          "name": "player",
          "type": "address"
        },
        {
          "internalType": "uint256",
          "name": "rank",
          "type": "uint256"
        },
        {
          "internalType": "uint256",
          "name": "room",
          "type": "uint256"
        }
      ],
      "name": "rewardAddressPvP",
      "outputs": [],
      "stateMutability": "nonpayable",
      "type": "function"
    },
    {
      "inputs": [
        {
          "internalType": "address",
          "name": "player",
          "type": "address"
        },
        {
          "internalType": "uint256",
          "name": "rank",
          "type": "uint256"
        }
      ],
      "name": "rewardPvE",
      "outputs": [],
      "stateMutability": "nonpayable",
      "type": "function"
    },
    {
      "inputs": [
        {
          "internalType": "address[]",
          "name": "addresses",
          "type": "address[]"
        }
      ],
      "name": "rewardPvP",
      "outputs": [],
      "stateMutability": "nonpayable",
      "type": "function"
    },
    {
      "inputs": [
        {
          "internalType": "address",
          "name": "newGameMaster",
          "type": "address"
        }
      ],
      "name": "setGameMaster",
      "outputs": [],
      "stateMutability": "nonpayable",
      "type": "function"
    },
    {
      "inputs": [
        {
          "internalType": "uint256",
          "name": "room",
          "type": "uint256"
        },
        {
          "internalType": "uint256[]",
          "name": "point",
          "type": "uint256[]"
        }
      ],
      "name": "setPoint",
      "outputs": [],
      "stateMutability": "nonpayable",
      "type": "function"
    },
    {
      "inputs": [
        {
          "internalType": "uint256",
          "name": "room",
          "type": "uint256"
        },
        {
          "internalType": "uint256[]",
          "name": "percentX10",
          "type": "uint256[]"
        }
      ],
      "name": "setPrizePercent",
      "outputs": [],
      "stateMutability": "nonpayable",
      "type": "function"
    },
    {
      "inputs": [
        {
          "internalType": "uint256[]",
          "name": "point",
          "type": "uint256[]"
        }
      ],
      "name": "setPvEPoint",
      "outputs": [],
      "stateMutability": "nonpayable",
      "type": "function"
    },
    {
      "inputs": [
        {
          "internalType": "uint256[]",
          "name": "prizes",
          "type": "uint256[]"
        }
      ],
      "name": "setPvEPrizes",
      "outputs": [],
      "stateMutability": "nonpayable",
      "type": "function"
    },
    {
      "inputs": [
        {
          "internalType": "address",
          "name": "storeAddress",
          "type": "address"
        }
      ],
      "name": "setStore",
      "outputs": [],
      "stateMutability": "nonpayable",
      "type": "function"
    },
    {
      "inputs": [
        {
          "internalType": "address",
          "name": "player",
          "type": "address"
        },
        {
          "internalType": "uint256",
          "name": "numTicket",
          "type": "uint256"
        }
      ],
      "name": "setTicket",
      "outputs": [],
      "stateMutability": "nonpayable",
      "type": "function"
    },
    {
      "inputs": [
        {
          "internalType": "address[]",
          "name": "addresses",
          "type": "address[]"
        }
      ],
      "name": "startGame",
      "outputs": [],
      "stateMutability": "nonpayable",
      "type": "function"
    },
    {
      "inputs": [],
      "name": "store",
      "outputs": [
        {
          "internalType": "address",
          "name": "",
          "type": "address"
        }
      ],
      "stateMutability": "view",
      "type": "function"
    },
    {
      "inputs": [
        {
          "internalType": "address",
          "name": "newOwner",
          "type": "address"
        }
      ],
      "name": "transferOwnership",
      "outputs": [],
      "stateMutability": "nonpayable",
      "type": "function"
    },
    {
      "inputs": [
        {
          "internalType": "address",
          "name": "newImplementation",
          "type": "address"
        }
      ],
      "name": "upgradeTo",
      "outputs": [],
      "stateMutability": "nonpayable",
      "type": "function"
    },
    {
      "inputs": [
        {
          "internalType": "address",
          "name": "newImplementation",
          "type": "address"
        },
        {
          "internalType": "bytes",
          "name": "data",
          "type": "bytes"
        }
      ],
      "name": "upgradeToAndCall",
      "outputs": [],
      "stateMutability": "payable",
      "type": "function"
    }
  ],
  "bytecode": "0x60a06040523073ffffffffffffffffffffffffffffffffffffffff1660809073ffffffffffffffffffffffffffffffffffffffff1660601b81525034801561004657600080fd5b5060805160601c6151ef61007a60003960008181610b8f01528181610c1e015281816116fd015261178c01526151ef6000f3fe6080604052600436106101e35760003560e01c8063747821f011610102578063d7c81b5511610095578063e3cdda3911610064578063e3cdda39146106f3578063f2fde38b14610730578063f4883ca814610759578063fbd84cd614610784576101e3565b8063d7c81b5514610638578063d98255db14610663578063e04392a41461068c578063e2eb41ff146106b5576101e3565b8063975057e7116100d1578063975057e714610590578063bdf84ae7146105bb578063c2e94927146105e6578063c9e71b921461060f576101e3565b8063747821f0146104d65780638da5cb5b146104ff57806390c94e5d1461052a578063925dee3814610553576101e3565b8063482f5d821161017a5780636803c78d116101495780636803c78d1461042e5780636b3cd1da146104595780636cc8c38914610496578063715018a6146104bf576101e3565b8063482f5d8214610397578063485cc955146103c05780634f1ef286146103e95780635d9aeaaa14610405576101e3565b8063117a5b90116101b6578063117a5b90146102c85780633659cfe614610306578063383644ab1461032f5780633d6447ea1461035a576101e3565b8063038c2026146101e8578063087cbd40146102255780630a875b671461024e5780630bc254701461028b575b600080fd5b3480156101f457600080fd5b5061020f600480360381019061020a9190613d9a565b6107ad565b60405161021c9190614856565b60405180910390f35b34801561023157600080fd5b5061024c60048036038101906102479190613d9a565b6107c5565b005b34801561025a57600080fd5b5061027560048036038101906102709190613ede565b610885565b60405161028291906145d0565b60405180910390f35b34801561029757600080fd5b506102b260048036038101906102ad9190613f89565b610b38565b6040516102bf9190614856565b60405180910390f35b3480156102d457600080fd5b506102ef60048036038101906102ea9190613f89565b610b5c565b6040516102fd929190614871565b60405180910390f35b34801561031257600080fd5b5061032d60048036038101906103289190613d9a565b610b8d565b005b34801561033b57600080fd5b50610344610d3c565b60405161035191906144f4565b60405180910390f35b34801561036657600080fd5b50610381600480360381019061037c9190613d9a565b610d62565b60405161038e91906145f2565b60405180910390f35b3480156103a357600080fd5b506103be60048036038101906103b99190613f1f565b61107e565b005b3480156103cc57600080fd5b506103e760048036038101906103e29190613dc3565b611114565b005b61040360048036038101906103fe9190613dff565b6116fb565b005b34801561041157600080fd5b5061042c60048036038101906104279190613e53565b611838565b005b34801561043a57600080fd5b50610443611925565b60405161045091906144f4565b60405180910390f35b34801561046557600080fd5b50610480600480360381019061047b9190613f89565b61194b565b60405161048d9190614856565b60405180910390f35b3480156104a257600080fd5b506104bd60048036038101906104b89190613e8f565b61196f565b005b3480156104cb57600080fd5b506104d4611e4a565b005b3480156104e257600080fd5b506104fd60048036038101906104f89190613ede565b611ed2565b005b34801561050b57600080fd5b50610514612074565b60405161052191906144f4565b60405180910390f35b34801561053657600080fd5b50610551600480360381019061054c9190613fdb565b61209e565b005b34801561055f57600080fd5b5061057a6004803603810190610575919061402f565b612146565b6040516105879190614856565b60405180910390f35b34801561059c57600080fd5b506105a5612177565b6040516105b291906144f4565b60405180910390f35b3480156105c757600080fd5b506105d061219d565b6040516105dd91906144f4565b60405180910390f35b3480156105f257600080fd5b5061060d60048036038101906106089190613d9a565b6121c3565b005b34801561061b57600080fd5b5061063660048036038101906106319190613e53565b612283565b005b34801561064457600080fd5b5061064d61239c565b60405161065a9190614856565b60405180910390f35b34801561066f57600080fd5b5061068a60048036038101906106859190613fdb565b6123a8565b005b34801561069857600080fd5b506106b360048036038101906106ae9190613f1f565b612450565b005b3480156106c157600080fd5b506106dc60048036038101906106d79190613d9a565b6124e6565b6040516106ea92919061489a565b60405180910390f35b3480156106ff57600080fd5b5061071a6004803603810190610715919061402f565b61250a565b6040516107279190614856565b60405180910390f35b34801561073c57600080fd5b5061075760048036038101906107529190613d9a565b61253b565b005b34801561076557600080fd5b5061076e612633565b60405161077b9190614856565b60405180910390f35b34801561079057600080fd5b506107ab60048036038101906107a69190613ede565b612639565b005b60d26020528060005260406000206000915090505481565b6107cd612983565b73ffffffffffffffffffffffffffffffffffffffff166107eb612074565b73ffffffffffffffffffffffffffffffffffffffff1614610841576040517f08c379a0000000000000000000000000000000000000000000000000000000008152600401610838906147b6565b60405180910390fd5b8060d360006101000a81548173ffffffffffffffffffffffffffffffffffffffff021916908373ffffffffffffffffffffffffffffffffffffffff16021790555050565b60606000600c67ffffffffffffffff8111156108ca577f4e487b7100000000000000000000000000000000000000000000000000000000600052604160045260246000fd5b6040519080825280602002602001820160405280156108f85781602001602082028036833780820191505090505b5090506000805b8451811015610a145760d5600060018152602001908152602001600020600301600086838151811061095a577f4e487b7100000000000000000000000000000000000000000000000000000000600052603260045260246000fd5b602002602001015173ffffffffffffffffffffffffffffffffffffffff1673ffffffffffffffffffffffffffffffffffffffff16815260200190815260200160002060009054906101000a900460ff168383806109b690614be5565b9450815181106109ef577f4e487b7100000000000000000000000000000000000000000000000000000000600052603260045260246000fd5b6020026020010190151590811515815250508080610a0c90614be5565b9150506108ff565b5060005b8451811015610b2d5760d56000600281526020019081526020016000206003016000868381518110610a73577f4e487b7100000000000000000000000000000000000000000000000000000000600052603260045260246000fd5b602002602001015173ffffffffffffffffffffffffffffffffffffffff1673ffffffffffffffffffffffffffffffffffffffff16815260200190815260200160002060009054906101000a900460ff16838380610acf90614be5565b945081518110610b08577f4e487b7100000000000000000000000000000000000000000000000000000000600052603260045260246000fd5b6020026020010190151590811515815250508080610b2590614be5565b915050610a18565b508192505050919050565b60cf8181548110610b4857600080fd5b906000526020600020016000915090505481565b60d56020528060005260406000206000915090508060000154908060020160009054906101000a900460ff16905082565b7f000000000000000000000000000000000000000000000000000000000000000073ffffffffffffffffffffffffffffffffffffffff163073ffffffffffffffffffffffffffffffffffffffff161415610c1c576040517f08c379a0000000000000000000000000000000000000000000000000000000008152600401610c1390614676565b60405180910390fd5b7f000000000000000000000000000000000000000000000000000000000000000073ffffffffffffffffffffffffffffffffffffffff16610c5b61298b565b73ffffffffffffffffffffffffffffffffffffffff1614610cb1576040517f08c379a0000000000000000000000000000000000000000000000000000000008152600401610ca8906146f6565b60405180910390fd5b610cba816129e2565b610d3981600067ffffffffffffffff811115610cff577f4e487b7100000000000000000000000000000000000000000000000000000000600052604160045260246000fd5b6040519080825280601f01601f191660200182016040528015610d315781602001600182028036833780820191505090505b506000612a61565b50565b60cb60009054906101000a900473ffffffffffffffffffffffffffffffffffffffff1681565b6060600060cb60009054906101000a900473ffffffffffffffffffffffffffffffffffffffff1673ffffffffffffffffffffffffffffffffffffffff166370a08231846040518263ffffffff1660e01b8152600401610dc191906144f4565b60206040518083038186803b158015610dd957600080fd5b505afa158015610ded573d6000803e3d6000fd5b505050506040513d601f19601f82011682018060405250810190610e119190613fb2565b905060008167ffffffffffffffff811115610e55577f4e487b7100000000000000000000000000000000000000000000000000000000600052604160045260246000fd5b604051908082528060200260200182016040528015610e8e57816020015b610e7b6138ac565b815260200190600190039081610e735790505b50905060005b8281101561107357600060cb60009054906101000a900473ffffffffffffffffffffffffffffffffffffffff1673ffffffffffffffffffffffffffffffffffffffff16632f745c5987846040518363ffffffff1660e01b8152600401610efb9291906145a7565b60206040518083038186803b158015610f1357600080fd5b505afa158015610f27573d6000803e3d6000fd5b505050506040513d601f19601f82011682018060405250810190610f4b9190613fb2565b905060008060cb60009054906101000a900473ffffffffffffffffffffffffffffffffffffffff1673ffffffffffffffffffffffffffffffffffffffff166394f13f4a846040518263ffffffff1660e01b8152600401610fab9190614856565b604080518083038186803b158015610fc257600080fd5b505afa158015610fd6573d6000803e3d6000fd5b505050506040513d601f19601f82011682018060405250810190610ffa919061406b565b91509150604051806060016040528084815260200183815260200182815250858581518110611052577f4e487b7100000000000000000000000000000000000000000000000000000000600052603260045260246000fd5b6020026020010181905250505050808061106b90614be5565b915050610e94565b508092505050919050565b611086612983565b73ffffffffffffffffffffffffffffffffffffffff166110a4612074565b73ffffffffffffffffffffffffffffffffffffffff16146110fa576040517f08c379a00000000000000000000000000000000000000000000000000000000081526004016110f1906147b6565b60405180910390fd5b8060ce90805190602001906111109291906138cd565b5050565b600060019054906101000a900460ff168061113a575060008054906101000a900460ff16155b611179576040517f08c379a000000000000000000000000000000000000000000000000000000000815260040161117090614776565b60405180910390fd5b60008060019054906101000a900460ff1615905080156111c9576001600060016101000a81548160ff02191690831515021790555060016000806101000a81548160ff0219169083151502179055505b6111d1612c32565b8260ca60006101000a81548173ffffffffffffffffffffffffffffffffffffffff021916908373ffffffffffffffffffffffffffffffffffffffff1602179055508160cb60006101000a81548173ffffffffffffffffffffffffffffffffffffffff021916908373ffffffffffffffffffffffffffffffffffffffff1602179055503360cc60006101000a81548173ffffffffffffffffffffffffffffffffffffffff021916908373ffffffffffffffffffffffffffffffffffffffff160217905550603260cd8190555060405180604001604052806103b661ffff168152602001600061ffff1681525060d06000600281526020019081526020016000209060026112de92919061391a565b5060405180606001604052806101c261ffff16815260200161012c61ffff16815260200160c861ffff1681525060d060006003815260200190815260200160002090600361132d92919061396d565b5060405180608001604052806101c261ffff16815260200161012c61ffff16815260200160c861ffff168152602001600061ffff1681525060d06000600481526020019081526020016000209060046113879291906139c0565b506040518060a001604052806101c261ffff16815260200161012c61ffff16815260200160c861ffff168152602001600061ffff168152602001600061ffff1681525060d06000600581526020019081526020016000209060056113ec929190613a13565b506040518060c001604052806101c261ffff16815260200161012c61ffff16815260200160c861ffff168152602001600061ffff168152602001600061ffff168152602001600061ffff1681525060d060006006815260200190815260200160002090600661145c929190613a66565b506040518060400160405280600061ffff1681526020016103e861ffff1681525060d160006002815260200190815260200160002090600261149f92919061391a565b506040518060600160405280600061ffff1681526020016107d061ffff1681526020016103e861ffff1681525060d16000600381526020019081526020016000209060036114ee92919061396d565b506040518060800160405280600061ffff168152602001600061ffff1681526020016107d061ffff1681526020016103e861ffff1681525060d16000600481526020019081526020016000209060046115489291906139c0565b506040518060a00160405280600061ffff168152602001600061ffff168152602001600061ffff1681526020016107d061ffff1681526020016103e861ffff1681525060d16000600581526020019081526020016000209060056115ad929190613a13565b506040518060c00160405280600061ffff168152602001600061ffff168152602001600061ffff168152602001610bb861ffff1681526020016107d061ffff1681526020016103e861ffff1681525060d160006006815260200190815260200160002090600661161e929190613a66565b506040518060c001604052806103e861ffff16815260200161032061ffff1681526020016101f461ffff16815260200161012c61ffff168152602001606461ffff168152602001603261ffff1681525060ce90600661167e929190613a66565b506040518060c00160405280600a60ff168152602001600060ff168152602001600060ff168152602001600060ff168152602001600060ff168152602001600060ff1681525060cf9060066116d4929190613ab9565b5080156116f65760008060016101000a81548160ff0219169083151502179055505b505050565b7f000000000000000000000000000000000000000000000000000000000000000073ffffffffffffffffffffffffffffffffffffffff163073ffffffffffffffffffffffffffffffffffffffff16141561178a576040517f08c379a000000000000000000000000000000000000000000000000000000000815260040161178190614676565b60405180910390fd5b7f000000000000000000000000000000000000000000000000000000000000000073ffffffffffffffffffffffffffffffffffffffff166117c961298b565b73ffffffffffffffffffffffffffffffffffffffff161461181f576040517f08c379a0000000000000000000000000000000000000000000000000000000008152600401611816906146f6565b60405180910390fd5b611828826129e2565b61183482826001612a61565b5050565b60d360009054906101000a900473ffffffffffffffffffffffffffffffffffffffff1673ffffffffffffffffffffffffffffffffffffffff163373ffffffffffffffffffffffffffffffffffffffff16146118c8576040517f08c379a00000000000000000000000000000000000000000000000000000000081526004016118bf90614736565b60405180910390fd5b8060d460008473ffffffffffffffffffffffffffffffffffffffff1673ffffffffffffffffffffffffffffffffffffffff168152602001908152602001600020600001600082825461191a9190614a15565b925050819055505050565b60ca60009054906101000a900473ffffffffffffffffffffffffffffffffffffffff1681565b60ce818154811061195b57600080fd5b906000526020600020016000915090505481565b60018111801561197f5750600781105b6119be576040517f08c379a00000000000000000000000000000000000000000000000000000000081526004016119b5906146d6565b60405180910390fd5b80821115611a01576040517f08c379a00000000000000000000000000000000000000000000000000000000081526004016119f890614696565b60405180910390fd5b600060d360009054906101000a900473ffffffffffffffffffffffffffffffffffffffff1673ffffffffffffffffffffffffffffffffffffffff166387bb7ae06040518163ffffffff1660e01b815260040160206040518083038186803b158015611a6b57600080fd5b505afa158015611a7f573d6000803e3d6000fd5b505050506040513d601f19601f82011682018060405250810190611aa39190613fb2565b90506000611aba8383612d1b90919063ffffffff16565b90506000611b466103e8611b3860d06000888152602001908152602001600020600189611ae79190614af6565b81548110611b1e577f4e487b7100000000000000000000000000000000000000000000000000000000600052603260045260246000fd5b906000526020600020015485612d1b90919063ffffffff16565b612d3190919063ffffffff16565b90506000811115611c6a57600060ca60009054906101000a900473ffffffffffffffffffffffffffffffffffffffff1673ffffffffffffffffffffffffffffffffffffffff166323b872dd60cc60009054906101000a900473ffffffffffffffffffffffffffffffffffffffff1689856040518463ffffffff1660e01b8152600401611bd49392919061450f565b602060405180830381600087803b158015611bee57600080fd5b505af1158015611c02573d6000803e3d6000fd5b505050506040513d601f19601f82011682018060405250810190611c269190613f60565b905080611c68576040517f08c379a0000000000000000000000000000000000000000000000000000000008152600401611c5f906147d6565b60405180910390fd5b505b60d16000858152602001908152602001600020600186611c8a9190614af6565b81548110611cc1577f4e487b7100000000000000000000000000000000000000000000000000000000600052603260045260246000fd5b906000526020600020015460d460008873ffffffffffffffffffffffffffffffffffffffff1673ffffffffffffffffffffffffffffffffffffffff1681526020019081526020016000206001016000828254611d1d9190614a15565b92505081905550600160d460008873ffffffffffffffffffffffffffffffffffffffff1673ffffffffffffffffffffffffffffffffffffffff1681526020019081526020016000206000016000828254611d779190614af6565b925050819055507fdce512682fc110dd577116429cce62979da37e07b71929a3a0a978054d14756e60cc60009054906101000a900473ffffffffffffffffffffffffffffffffffffffff1687878460d160008a815260200190815260200160002060018b611de59190614af6565b81548110611e1c577f4e487b7100000000000000000000000000000000000000000000000000000000600052603260045260246000fd5b906000526020600020015442604051611e3a96959493929190614546565b60405180910390a1505050505050565b611e52612983565b73ffffffffffffffffffffffffffffffffffffffff16611e70612074565b73ffffffffffffffffffffffffffffffffffffffff1614611ec6576040517f08c379a0000000000000000000000000000000000000000000000000000000008152600401611ebd906147b6565b60405180910390fd5b611ed06000612d47565b565b611eda612983565b73ffffffffffffffffffffffffffffffffffffffff16611ef8612074565b73ffffffffffffffffffffffffffffffffffffffff1614611f4e576040517f08c379a0000000000000000000000000000000000000000000000000000000008152600401611f45906147b6565b60405180910390fd5b600081519050600181118015611f645750600781105b611fa3576040517f08c379a0000000000000000000000000000000000000000000000000000000008152600401611f9a90614836565b60405180910390fd5b6120708260d0600084815260200190815260200160002080548060200260200160405190810160405280929190818152602001828054801561200457602002820191906000526020600020905b815481526020019060010190808311611ff0575b505050505060d1600085815260200190815260200160002080548060200260200160405190810160405280929190818152602001828054801561206657602002820191906000526020600020905b815481526020019060010190808311612052575b5050505050612e0d565b5050565b6000609760009054906101000a900473ffffffffffffffffffffffffffffffffffffffff16905090565b6120a6612983565b73ffffffffffffffffffffffffffffffffffffffff166120c4612074565b73ffffffffffffffffffffffffffffffffffffffff161461211a576040517f08c379a0000000000000000000000000000000000000000000000000000000008152600401612111906147b6565b60405180910390fd5b8060d0600084815260200190815260200160002090805190602001906121419291906138cd565b505050565b60d0602052816000526040600020818154811061216257600080fd5b90600052602060002001600091509150505481565b60d360009054906101000a900473ffffffffffffffffffffffffffffffffffffffff1681565b60cc60009054906101000a900473ffffffffffffffffffffffffffffffffffffffff1681565b6121cb612983565b73ffffffffffffffffffffffffffffffffffffffff166121e9612074565b73ffffffffffffffffffffffffffffffffffffffff161461223f576040517f08c379a0000000000000000000000000000000000000000000000000000000008152600401612236906147b6565b60405180910390fd5b8060cc60006101000a81548173ffffffffffffffffffffffffffffffffffffffff021916908373ffffffffffffffffffffffffffffffffffffffff16021790555050565b6000811180156122935750600781105b6122d2576040517f08c379a00000000000000000000000000000000000000000000000000000000081526004016122c990614756565b60405180910390fd5b6123988282612342670de0b6b3a764000060cf6001876122f29190614af6565b81548110612329577f4e487b7100000000000000000000000000000000000000000000000000000000600052603260045260246000fd5b9060005260206000200154612d1b90919063ffffffff16565b60ce6001866123519190614af6565b81548110612388577f4e487b7100000000000000000000000000000000000000000000000000000000600052603260045260246000fd5b906000526020600020015461328c565b5050565b60c98060000154905081565b6123b0612983565b73ffffffffffffffffffffffffffffffffffffffff166123ce612074565b73ffffffffffffffffffffffffffffffffffffffff1614612424576040517f08c379a000000000000000000000000000000000000000000000000000000000815260040161241b906147b6565b60405180910390fd5b8060d16000848152602001908152602001600020908051906020019061244b9291906138cd565b505050565b612458612983565b73ffffffffffffffffffffffffffffffffffffffff16612476612074565b73ffffffffffffffffffffffffffffffffffffffff16146124cc576040517f08c379a00000000000000000000000000000000000000000000000000000000081526004016124c3906147b6565b60405180910390fd5b8060cf90805190602001906124e29291906138cd565b5050565b60d46020528060005260406000206000915090508060000154908060010154905082565b60d1602052816000526040600020818154811061252657600080fd5b90600052602060002001600091509150505481565b612543612983565b73ffffffffffffffffffffffffffffffffffffffff16612561612074565b73ffffffffffffffffffffffffffffffffffffffff16146125b7576040517f08c379a00000000000000000000000000000000000000000000000000000000081526004016125ae906147b6565b60405180910390fd5b600073ffffffffffffffffffffffffffffffffffffffff168173ffffffffffffffffffffffffffffffffffffffff161415612627576040517f08c379a000000000000000000000000000000000000000000000000000000000815260040161261e90614656565b60405180910390fd5b61263081612d47565b50565b60cd5481565b612641612983565b73ffffffffffffffffffffffffffffffffffffffff1661265f612074565b73ffffffffffffffffffffffffffffffffffffffff16146126b5576040517f08c379a00000000000000000000000000000000000000000000000000000000081526004016126ac906147b6565b60405180910390fd5b60005b815181101561275957600060d460003373ffffffffffffffffffffffffffffffffffffffff1673ffffffffffffffffffffffffffffffffffffffff1681526020019081526020016000206000015411612746576040517f08c379a000000000000000000000000000000000000000000000000000000000815260040161273d906146b6565b60405180910390fd5b808061275190614be5565b9150506126b8565b50600060d560006001815260200190815260200160002090506001816000018190555081816001019080519060200190612794929190613b0b565b5060018160020160006101000a81548160ff02191690831515021790555060005b825181101561286b5760008260030160008584815181106127ff577f4e487b7100000000000000000000000000000000000000000000000000000000600052603260045260246000fd5b602002602001015173ffffffffffffffffffffffffffffffffffffffff1673ffffffffffffffffffffffffffffffffffffffff16815260200190815260200160002060006101000a81548160ff021916908315150217905550808061286390614be5565b9150506127b5565b50600060d5600060028152602001908152602001600020905060028160000181905550828160010190805190602001906128a6929190613b0b565b5060018160020160006101000a81548160ff02191690831515021790555060005b835181101561297d576001826003016000868481518110612911577f4e487b7100000000000000000000000000000000000000000000000000000000600052603260045260246000fd5b602002602001015173ffffffffffffffffffffffffffffffffffffffff1673ffffffffffffffffffffffffffffffffffffffff16815260200190815260200160002060006101000a81548160ff021916908315150217905550808061297590614be5565b9150506128c7565b50505050565b600033905090565b60006129b97f360894a13ba1a3210667c828492db98dca3e2076cc3735a920a3ca505d382bbc60001b613470565b60000160009054906101000a900473ffffffffffffffffffffffffffffffffffffffff16905090565b6129ea612983565b73ffffffffffffffffffffffffffffffffffffffff16612a08612074565b73ffffffffffffffffffffffffffffffffffffffff1614612a5e576040517f08c379a0000000000000000000000000000000000000000000000000000000008152600401612a55906147b6565b60405180910390fd5b50565b6000612a6b61298b565b9050612a768461347a565b600083511180612a835750815b15612a9457612a928484613533565b505b6000612ac27f4910fdfa16fed3260ed0e7147f7cc6da11a60208b5b9406d12a635614ffd914360001b613617565b90508060000160009054906101000a900460ff16612c2b5760018160000160006101000a81548160ff021916908315150217905550612b8e8583604051602401612b0c91906144f4565b6040516020818303038152906040527f3659cfe6000000000000000000000000000000000000000000000000000000007bffffffffffffffffffffffffffffffffffffffffffffffffffffffff19166020820180517bffffffffffffffffffffffffffffffffffffffffffffffffffffffff8381831617835250505050613533565b5060008160000160006101000a81548160ff021916908315150217905550612bb461298b565b73ffffffffffffffffffffffffffffffffffffffff168273ffffffffffffffffffffffffffffffffffffffff1614612c21576040517f08c379a0000000000000000000000000000000000000000000000000000000008152600401612c1890614636565b60405180910390fd5b612c2a85613621565b5b5050505050565b600060019054906101000a900460ff1680612c58575060008054906101000a900460ff16155b612c97576040517f08c379a0000000000000000000000000000000000000000000000000000000008152600401612c8e90614776565b60405180910390fd5b60008060019054906101000a900460ff161590508015612ce7576001600060016101000a81548160ff02191690831515021790555060016000806101000a81548160ff0219169083151502179055505b612cef613670565b612cf7613749565b8015612d185760008060016101000a81548160ff0219169083151502179055505b50565b60008183612d299190614a9c565b905092915050565b60008183612d3f9190614a6b565b905092915050565b6000609760009054906101000a900473ffffffffffffffffffffffffffffffffffffffff16905081609760006101000a81548173ffffffffffffffffffffffffffffffffffffffff021916908373ffffffffffffffffffffffffffffffffffffffff1602179055508173ffffffffffffffffffffffffffffffffffffffff168173ffffffffffffffffffffffffffffffffffffffff167f8be0079c531659141344cd1fd0a4f28419497f9722a3daafe3b4186f6b6457e060405160405180910390a35050565b600083519050600060d360009054906101000a900473ffffffffffffffffffffffffffffffffffffffff1673ffffffffffffffffffffffffffffffffffffffff166387bb7ae06040518163ffffffff1660e01b815260040160206040518083038186803b158015612e7d57600080fd5b505afa158015612e91573d6000803e3d6000fd5b505050506040513d601f19601f82011682018060405250810190612eb59190613fb2565b90506000612ecc8383612d1b90919063ffffffff16565b905060005b8651811015613283576000612f436103e8612f35898581518110612f1e577f4e487b7100000000000000000000000000000000000000000000000000000000600052603260045260246000fd5b602002602001015186612d1b90919063ffffffff16565b612d3190919063ffffffff16565b905060008111156130a757600060ca60009054906101000a900473ffffffffffffffffffffffffffffffffffffffff1673ffffffffffffffffffffffffffffffffffffffff166323b872dd60cc60009054906101000a900473ffffffffffffffffffffffffffffffffffffffff168b8681518110612fea577f4e487b7100000000000000000000000000000000000000000000000000000000600052603260045260246000fd5b6020026020010151856040518463ffffffff1660e01b81526004016130119392919061450f565b602060405180830381600087803b15801561302b57600080fd5b505af115801561303f573d6000803e3d6000fd5b505050506040513d601f19601f820116820180604052508101906130639190613f60565b9050806130a5576040517f08c379a000000000000000000000000000000000000000000000000000000000815260040161309c90614816565b60405180910390fd5b505b8582815181106130e0577f4e487b7100000000000000000000000000000000000000000000000000000000600052603260045260246000fd5b602002602001015160d460008a8581518110613125577f4e487b7100000000000000000000000000000000000000000000000000000000600052603260045260246000fd5b602002602001015173ffffffffffffffffffffffffffffffffffffffff1673ffffffffffffffffffffffffffffffffffffffff16815260200190815260200160002060010160008282546131799190614a15565b925050819055507fdce512682fc110dd577116429cce62979da37e07b71929a3a0a978054d14756e60cc60009054906101000a900473ffffffffffffffffffffffffffffffffffffffff168984815181106131fd577f4e487b7100000000000000000000000000000000000000000000000000000000600052603260045260246000fd5b60200260200101516001856132129190614a15565b848a878151811061324c577f4e487b7100000000000000000000000000000000000000000000000000000000600052603260045260246000fd5b60200260200101514260405161326796959493929190614546565b60405180910390a150808061327b90614be5565b915050612ed1565b50505050505050565b60018314156133ae57600060ca60009054906101000a900473ffffffffffffffffffffffffffffffffffffffff1673ffffffffffffffffffffffffffffffffffffffff166323b872dd60cc60009054906101000a900473ffffffffffffffffffffffffffffffffffffffff1687866040518463ffffffff1660e01b81526004016133189392919061450f565b602060405180830381600087803b15801561333257600080fd5b505af1158015613346573d6000803e3d6000fd5b505050506040513d601f19601f8201168201806040525081019061336a9190613f60565b9050806133ac576040517f08c379a00000000000000000000000000000000000000000000000000000000081526004016133a390614716565b60405180910390fd5b505b8060d460008673ffffffffffffffffffffffffffffffffffffffff1673ffffffffffffffffffffffffffffffffffffffff16815260200190815260200160002060010160008282546134009190614a15565b925050819055507ffd15fe9ec3d9a7aef6aff4bddcb734adc03b3860d5fcf447a1259f05ec0d04f960cc60009054906101000a900473ffffffffffffffffffffffffffffffffffffffff16858585854260405161346296959493929190614546565b60405180910390a150505050565b6000819050919050565b61348381613832565b6134c2576040517f08c379a00000000000000000000000000000000000000000000000000000000081526004016134b990614796565b60405180910390fd5b806134ef7f360894a13ba1a3210667c828492db98dca3e2076cc3735a920a3ca505d382bbc60001b613470565b60000160006101000a81548173ffffffffffffffffffffffffffffffffffffffff021916908373ffffffffffffffffffffffffffffffffffffffff16021790555050565b606061353e83613832565b61357d576040517f08c379a0000000000000000000000000000000000000000000000000000000008152600401613574906147f6565b60405180910390fd5b6000808473ffffffffffffffffffffffffffffffffffffffff16846040516135a591906144dd565b600060405180830381855af49150503d80600081146135e0576040519150601f19603f3d011682016040523d82523d6000602084013e6135e5565b606091505b509150915061360d828260405180606001604052806027815260200161519360279139613845565b9250505092915050565b6000819050919050565b61362a8161347a565b8073ffffffffffffffffffffffffffffffffffffffff167fbc7cd75a20ee27fd9adebab32041f755214dbc6bffa90cc0225b39da2e5c2d3b60405160405180910390a250565b600060019054906101000a900460ff1680613696575060008054906101000a900460ff16155b6136d5576040517f08c379a00000000000000000000000000000000000000000000000000000000081526004016136cc90614776565b60405180910390fd5b60008060019054906101000a900460ff161590508015613725576001600060016101000a81548160ff02191690831515021790555060016000806101000a81548160ff0219169083151502179055505b80156137465760008060016101000a81548160ff0219169083151502179055505b50565b600060019054906101000a900460ff168061376f575060008054906101000a900460ff16155b6137ae576040517f08c379a00000000000000000000000000000000000000000000000000000000081526004016137a590614776565b60405180910390fd5b60008060019054906101000a900460ff1615905080156137fe576001600060016101000a81548160ff02191690831515021790555060016000806101000a81548160ff0219169083151502179055505b61380e613809612983565b612d47565b801561382f5760008060016101000a81548160ff0219169083151502179055505b50565b600080823b905060008111915050919050565b60608315613855578290506138a5565b6000835111156138685782518084602001fd5b816040517f08c379a000000000000000000000000000000000000000000000000000000000815260040161389c9190614614565b60405180910390fd5b9392505050565b60405180606001604052806000815260200160008152602001600081525090565b828054828255906000526020600020908101928215613909579160200282015b828111156139085782518255916020019190600101906138ed565b5b5090506139169190613b95565b5090565b82805482825590600052602060002090810192821561395c579160200282015b8281111561395b578251829061ffff1690559160200191906001019061393a565b5b5090506139699190613b95565b5090565b8280548282559060005260206000209081019282156139af579160200282015b828111156139ae578251829061ffff1690559160200191906001019061398d565b5b5090506139bc9190613b95565b5090565b828054828255906000526020600020908101928215613a02579160200282015b82811115613a01578251829061ffff169055916020019190600101906139e0565b5b509050613a0f9190613b95565b5090565b828054828255906000526020600020908101928215613a55579160200282015b82811115613a54578251829061ffff16905591602001919060010190613a33565b5b509050613a629190613b95565b5090565b828054828255906000526020600020908101928215613aa8579160200282015b82811115613aa7578251829061ffff16905591602001919060010190613a86565b5b509050613ab59190613b95565b5090565b828054828255906000526020600020908101928215613afa579160200282015b82811115613af9578251829060ff16905591602001919060010190613ad9565b5b509050613b079190613b95565b5090565b828054828255906000526020600020908101928215613b84579160200282015b82811115613b835782518260006101000a81548173ffffffffffffffffffffffffffffffffffffffff021916908373ffffffffffffffffffffffffffffffffffffffff16021790555091602001919060010190613b2b565b5b509050613b919190613b95565b5090565b5b80821115613bae576000816000905550600101613b96565b5090565b6000613bc5613bc0846148e8565b6148c3565b90508083825260208201905082856020860282011115613be457600080fd5b60005b85811015613c145781613bfa8882613cc8565b845260208401935060208301925050600181019050613be7565b5050509392505050565b6000613c31613c2c84614914565b6148c3565b90508083825260208201905082856020860282011115613c5057600080fd5b60005b85811015613c805781613c668882613d70565b845260208401935060208301925050600181019050613c53565b5050509392505050565b6000613c9d613c9884614940565b6148c3565b905082815260208101848484011115613cb557600080fd5b613cc0848285614b72565b509392505050565b600081359050613cd78161514d565b92915050565b600082601f830112613cee57600080fd5b8135613cfe848260208601613bb2565b91505092915050565b600082601f830112613d1857600080fd5b8135613d28848260208601613c1e565b91505092915050565b600081519050613d4081615164565b92915050565b600082601f830112613d5757600080fd5b8135613d67848260208601613c8a565b91505092915050565b600081359050613d7f8161517b565b92915050565b600081519050613d948161517b565b92915050565b600060208284031215613dac57600080fd5b6000613dba84828501613cc8565b91505092915050565b60008060408385031215613dd657600080fd5b6000613de485828601613cc8565b9250506020613df585828601613cc8565b9150509250929050565b60008060408385031215613e1257600080fd5b6000613e2085828601613cc8565b925050602083013567ffffffffffffffff811115613e3d57600080fd5b613e4985828601613d46565b9150509250929050565b60008060408385031215613e6657600080fd5b6000613e7485828601613cc8565b9250506020613e8585828601613d70565b9150509250929050565b600080600060608486031215613ea457600080fd5b6000613eb286828701613cc8565b9350506020613ec386828701613d70565b9250506040613ed486828701613d70565b9150509250925092565b600060208284031215613ef057600080fd5b600082013567ffffffffffffffff811115613f0a57600080fd5b613f1684828501613cdd565b91505092915050565b600060208284031215613f3157600080fd5b600082013567ffffffffffffffff811115613f4b57600080fd5b613f5784828501613d07565b91505092915050565b600060208284031215613f7257600080fd5b6000613f8084828501613d31565b91505092915050565b600060208284031215613f9b57600080fd5b6000613fa984828501613d70565b91505092915050565b600060208284031215613fc457600080fd5b6000613fd284828501613d85565b91505092915050565b60008060408385031215613fee57600080fd5b6000613ffc85828601613d70565b925050602083013567ffffffffffffffff81111561401957600080fd5b61402585828601613d07565b9150509250929050565b6000806040838503121561404257600080fd5b600061405085828601613d70565b925050602061406185828601613d70565b9150509250929050565b6000806040838503121561407e57600080fd5b600061408c85828601613d85565b925050602061409d85828601613d85565b9150509250929050565b60006140b383836141a2565b60208301905092915050565b60006140cb838361447d565b60608301905092915050565b6140e081614b2a565b82525050565b60006140f182614991565b6140fb81856149d7565b935061410683614971565b8060005b8381101561413757815161411e88826140a7565b9750614129836149bd565b92505060018101905061410a565b5085935050505092915050565b600061414f8261499c565b61415981856149e8565b935061416483614981565b8060005b8381101561419557815161417c88826140bf565b9750614187836149ca565b925050600181019050614168565b5085935050505092915050565b6141ab81614b3c565b82525050565b6141ba81614b3c565b82525050565b60006141cb826149a7565b6141d581856149f9565b93506141e5818560208601614b81565b80840191505092915050565b60006141fc826149b2565b6142068185614a04565b9350614216818560208601614b81565b61421f81614cbb565b840191505092915050565b6000614237602f83614a04565b915061424282614ccc565b604082019050919050565b600061425a602683614a04565b915061426582614d1b565b604082019050919050565b600061427d602c83614a04565b915061428882614d6a565b604082019050919050565b60006142a0603483614a04565b91506142ab82614db9565b604082019050919050565b60006142c3601c83614a04565b91506142ce82614e08565b602082019050919050565b60006142e6602e83614a04565b91506142f182614e31565b604082019050919050565b6000614309602c83614a04565b915061431482614e80565b604082019050919050565b600061432c601e83614a04565b915061433782614ecf565b602082019050919050565b600061434f601e83614a04565b915061435a82614ef8565b602082019050919050565b6000614372603983614a04565b915061437d82614f21565b604082019050919050565b6000614395602e83614a04565b91506143a082614f70565b604082019050919050565b60006143b8602d83614a04565b91506143c382614fbf565b604082019050919050565b60006143db602083614a04565b91506143e68261500e565b602082019050919050565b60006143fe602483614a04565b915061440982615037565b604082019050919050565b6000614421602683614a04565b915061442c82615086565b604082019050919050565b6000614444601e83614a04565b915061444f826150d5565b602082019050919050565b6000614467602683614a04565b9150614472826150fe565b604082019050919050565b60608201600082015161449360008501826144bf565b5060208201516144a660208501826144bf565b5060408201516144b960408501826144bf565b50505050565b6144c881614b68565b82525050565b6144d781614b68565b82525050565b60006144e982846141c0565b915081905092915050565b600060208201905061450960008301846140d7565b92915050565b600060608201905061452460008301866140d7565b61453160208301856140d7565b61453e60408301846144ce565b949350505050565b600060c08201905061455b60008301896140d7565b61456860208301886140d7565b61457560408301876144ce565b61458260608301866144ce565b61458f60808301856144ce565b61459c60a08301846144ce565b979650505050505050565b60006040820190506145bc60008301856140d7565b6145c960208301846144ce565b9392505050565b600060208201905081810360008301526145ea81846140e6565b905092915050565b6000602082019050818103600083015261460c8184614144565b905092915050565b6000602082019050818103600083015261462e81846141f1565b905092915050565b6000602082019050818103600083015261464f8161422a565b9050919050565b6000602082019050818103600083015261466f8161424d565b9050919050565b6000602082019050818103600083015261468f81614270565b9050919050565b600060208201905081810360008301526146af81614293565b9050919050565b600060208201905081810360008301526146cf816142b6565b9050919050565b600060208201905081810360008301526146ef816142d9565b9050919050565b6000602082019050818103600083015261470f816142fc565b9050919050565b6000602082019050818103600083015261472f8161431f565b9050919050565b6000602082019050818103600083015261474f81614342565b9050919050565b6000602082019050818103600083015261476f81614365565b9050919050565b6000602082019050818103600083015261478f81614388565b9050919050565b600060208201905081810360008301526147af816143ab565b9050919050565b600060208201905081810360008301526147cf816143ce565b9050919050565b600060208201905081810360008301526147ef816143f1565b9050919050565b6000602082019050818103600083015261480f81614414565b9050919050565b6000602082019050818103600083015261482f81614437565b9050919050565b6000602082019050818103600083015261484f8161445a565b9050919050565b600060208201905061486b60008301846144ce565b92915050565b600060408201905061488660008301856144ce565b61489360208301846141b1565b9392505050565b60006040820190506148af60008301856144ce565b6148bc60208301846144ce565b9392505050565b60006148cd6148de565b90506148d98282614bb4565b919050565b6000604051905090565b600067ffffffffffffffff82111561490357614902614c8c565b5b602082029050602081019050919050565b600067ffffffffffffffff82111561492f5761492e614c8c565b5b602082029050602081019050919050565b600067ffffffffffffffff82111561495b5761495a614c8c565b5b61496482614cbb565b9050602081019050919050565b6000819050602082019050919050565b6000819050602082019050919050565b600081519050919050565b600081519050919050565b600081519050919050565b600081519050919050565b6000602082019050919050565b6000602082019050919050565b600082825260208201905092915050565b600082825260208201905092915050565b600081905092915050565b600082825260208201905092915050565b6000614a2082614b68565b9150614a2b83614b68565b9250827fffffffffffffffffffffffffffffffffffffffffffffffffffffffffffffffff03821115614a6057614a5f614c2e565b5b828201905092915050565b6000614a7682614b68565b9150614a8183614b68565b925082614a9157614a90614c5d565b5b828204905092915050565b6000614aa782614b68565b9150614ab283614b68565b9250817fffffffffffffffffffffffffffffffffffffffffffffffffffffffffffffffff0483118215151615614aeb57614aea614c2e565b5b828202905092915050565b6000614b0182614b68565b9150614b0c83614b68565b925082821015614b1f57614b1e614c2e565b5b828203905092915050565b6000614b3582614b48565b9050919050565b60008115159050919050565b600073ffffffffffffffffffffffffffffffffffffffff82169050919050565b6000819050919050565b82818337600083830152505050565b60005b83811015614b9f578082015181840152602081019050614b84565b83811115614bae576000848401525b50505050565b614bbd82614cbb565b810181811067ffffffffffffffff82111715614bdc57614bdb614c8c565b5b80604052505050565b6000614bf082614b68565b91507fffffffffffffffffffffffffffffffffffffffffffffffffffffffffffffffff821415614c2357614c22614c2e565b5b600182019050919050565b7f4e487b7100000000000000000000000000000000000000000000000000000000600052601160045260246000fd5b7f4e487b7100000000000000000000000000000000000000000000000000000000600052601260045260246000fd5b7f4e487b7100000000000000000000000000000000000000000000000000000000600052604160045260246000fd5b6000601f19601f8301169050919050565b7f45524331393637557067726164653a207570677261646520627265616b73206660008201527f7572746865722075706772616465730000000000000000000000000000000000602082015250565b7f4f776e61626c653a206e6577206f776e657220697320746865207a65726f206160008201527f6464726573730000000000000000000000000000000000000000000000000000602082015250565b7f46756e6374696f6e206d7573742062652063616c6c6564207468726f7567682060008201527f64656c656761746563616c6c0000000000000000000000000000000000000000602082015250565b7f72616e6b206d75737420626520736d616c6c6572207468616e206e756d62657260008201527f206f6620706c6179657220696e206120726f6f6d000000000000000000000000602082015250565b7f737461727447616d653a204e6f7420656e6f756768207469636b657400000000600082015250565b7f726f6f6d206d7573742062652067726561746572207468616e203120616e642060008201527f736d616c6c6572207468616e2037000000000000000000000000000000000000602082015250565b7f46756e6374696f6e206d7573742062652063616c6c6564207468726f7567682060008201527f6163746976652070726f78790000000000000000000000000000000000000000602082015250565b7f5f7265776172645076453a204661696c656420746f207472616e736665720000600082015250565b7f6f6e6c7953746f72653a2063616c6c6572206973206e6f742073746f72650000600082015250565b7f7265776172645076453a2052616e6b206d75737420626520677265617465722060008201527f7468616e203020616e6420736d616c6c6572207468616e203700000000000000602082015250565b7f496e697469616c697a61626c653a20636f6e747261637420697320616c72656160008201527f647920696e697469616c697a6564000000000000000000000000000000000000602082015250565b7f455243313936373a206e657720696d706c656d656e746174696f6e206973206e60008201527f6f74206120636f6e747261637400000000000000000000000000000000000000602082015250565b7f4f776e61626c653a2063616c6c6572206973206e6f7420746865206f776e6572600082015250565b7f726577617264416464726573735076503a204661696c656420746f207472616e60008201527f7366657200000000000000000000000000000000000000000000000000000000602082015250565b7f416464726573733a2064656c65676174652063616c6c20746f206e6f6e2d636f60008201527f6e74726163740000000000000000000000000000000000000000000000000000602082015250565b7f5f7265776172645076503a204661696c656420746f207472616e736665720000600082015250565b7f7265776172645076503a20526f6f6d206d75737420626520677265617465722060008201527f7468616e20310000000000000000000000000000000000000000000000000000602082015250565b61515681614b2a565b811461516157600080fd5b50565b61516d81614b3c565b811461517857600080fd5b50565b61518481614b68565b811461518f57600080fd5b5056fe416464726573733a206c6f772d6c6576656c2064656c65676174652063616c6c206661696c6564a2646970667358221220c0b5fd9e8e440ef684eb4c8ab000d96581b1ea40b1ec0f3075f4c4844197762164736f6c63430008020033",
  "linkReferences": {},
  "deployedLinkReferences": {}
}