{
  "_format": "hh-sol-artifact-1",
  "contractName": "GameItem",
  "sourceName": "contracts/GameItem.sol",
  "abi": [
    {
      "inputs": [],
      "stateMutability": "nonpayable",
      "type": "constructor"
    },
    {
      "anonymous": false,
      "inputs": [
        {
          "indexed": true,
          "internalType": "address",
          "name": "owner",
          "type": "address"
        },
        {
          "indexed": true,
          "internalType": "address",
          "name": "approved",
          "type": "address"
        },
        {
          "indexed": true,
          "internalType": "uint256",
          "name": "tokenId",
          "type": "uint256"
        }
      ],
      "name": "Approval",
      "type": "event"
    },
    {
      "anonymous": false,
      "inputs": [
        {
          "indexed": true,
          "internalType": "address",
          "name": "owner",
          "type": "address"
        },
        {
          "indexed": true,
          "internalType": "address",
          "name": "operator",
          "type": "address"
        },
        {
          "indexed": false,
          "internalType": "bool",
          "name": "approved",
          "type": "bool"
        }
      ],
      "name": "ApprovalForAll",
      "type": "event"
    },
    {
      "anonymous": false,
      "inputs": [
        {
          "indexed": false,
          "internalType": "uint256",
          "name": "tokenId",
          "type": "uint256"
        },
        {
          "indexed": false,
          "internalType": "uint256",
          "name": "itemId",
          "type": "uint256"
        },
        {
          "indexed": false,
          "internalType": "uint256",
          "name": "oldStar",
          "type": "uint256"
        },
        {
          "indexed": false,
          "internalType": "uint256",
          "name": "newStar",
          "type": "uint256"
        }
      ],
      "name": "ItemUpgraded",
      "type": "event"
    },
    {
      "anonymous": false,
      "inputs": [
        {
          "indexed": true,
          "internalType": "address",
          "name": "previousOwner",
          "type": "address"
        },
        {
          "indexed": true,
          "internalType": "address",
          "name": "newOwner",
          "type": "address"
        }
      ],
      "name": "OwnershipTransferred",
      "type": "event"
    },
    {
      "anonymous": false,
      "inputs": [
        {
          "indexed": false,
          "internalType": "address",
          "name": "account",
          "type": "address"
        }
      ],
      "name": "Paused",
      "type": "event"
    },
    {
      "anonymous": false,
      "inputs": [
        {
          "indexed": true,
          "internalType": "address",
          "name": "from",
          "type": "address"
        },
        {
          "indexed": true,
          "internalType": "address",
          "name": "to",
          "type": "address"
        },
        {
          "indexed": true,
          "internalType": "uint256",
          "name": "tokenId",
          "type": "uint256"
        }
      ],
      "name": "Transfer",
      "type": "event"
    },
    {
      "anonymous": false,
      "inputs": [
        {
          "indexed": false,
          "internalType": "address",
          "name": "account",
          "type": "address"
        }
      ],
      "name": "Unpaused",
      "type": "event"
    },
    {
      "inputs": [
        {
          "internalType": "address",
          "name": "to",
          "type": "address"
        },
        {
          "internalType": "uint256",
          "name": "tokenId",
          "type": "uint256"
        }
      ],
      "name": "approve",
      "outputs": [],
      "stateMutability": "nonpayable",
      "type": "function"
    },
    {
      "inputs": [
        {
          "internalType": "address",
          "name": "addr",
          "type": "address"
        }
      ],
      "name": "approveAddress",
      "outputs": [],
      "stateMutability": "nonpayable",
      "type": "function"
    },
    {
      "inputs": [
        {
          "internalType": "address",
          "name": "owner",
          "type": "address"
        }
      ],
      "name": "balanceOf",
      "outputs": [
        {
          "internalType": "uint256",
          "name": "",
          "type": "uint256"
        }
      ],
      "stateMutability": "view",
      "type": "function"
    },
    {
      "inputs": [
        {
          "internalType": "uint256",
          "name": "tokenId",
          "type": "uint256"
        }
      ],
      "name": "burn",
      "outputs": [],
      "stateMutability": "nonpayable",
      "type": "function"
    },
    {
      "inputs": [
        {
          "internalType": "address",
          "name": "user",
          "type": "address"
        },
        {
          "internalType": "string",
          "name": "uri",
          "type": "string"
        },
        {
          "internalType": "uint256",
          "name": "itemId",
          "type": "uint256"
        },
        {
          "internalType": "uint8",
          "name": "star",
          "type": "uint8"
        }
      ],
      "name": "createGameItem",
      "outputs": [],
      "stateMutability": "nonpayable",
      "type": "function"
    },
    {
      "inputs": [
        {
          "internalType": "uint256",
          "name": "",
          "type": "uint256"
        }
      ],
      "name": "gameItems",
      "outputs": [
        {
          "internalType": "uint256",
          "name": "itemId",
          "type": "uint256"
        },
        {
          "internalType": "uint256",
          "name": "star",
          "type": "uint256"
        }
      ],
      "stateMutability": "view",
      "type": "function"
    },
    {
      "inputs": [
        {
          "internalType": "uint256",
          "name": "tokenId",
          "type": "uint256"
        }
      ],
      "name": "getApproved",
      "outputs": [
        {
          "internalType": "address",
          "name": "",
          "type": "address"
        }
      ],
      "stateMutability": "view",
      "type": "function"
    },
    {
      "inputs": [
        {
          "internalType": "uint256",
          "name": "tokenId",
          "type": "uint256"
        }
      ],
      "name": "getGameItem",
      "outputs": [
        {
          "internalType": "uint256",
          "name": "",
          "type": "uint256"
        },
        {
          "internalType": "uint256",
          "name": "",
          "type": "uint256"
        }
      ],
      "stateMutability": "view",
      "type": "function"
    },
    {
      "inputs": [
        {
          "internalType": "address",
          "name": "owner",
          "type": "address"
        },
        {
          "internalType": "address",
          "name": "operator",
          "type": "address"
        }
      ],
      "name": "isApprovedForAll",
      "outputs": [
        {
          "internalType": "bool",
          "name": "",
          "type": "bool"
        }
      ],
      "stateMutability": "view",
      "type": "function"
    },
    {
      "inputs": [],
      "name": "name",
      "outputs": [
        {
          "internalType": "string",
          "name": "",
          "type": "string"
        }
      ],
      "stateMutability": "view",
      "type": "function"
    },
    {
      "inputs": [],
      "name": "owner",
      "outputs": [
        {
          "internalType": "address",
          "name": "",
          "type": "address"
        }
      ],
      "stateMutability": "view",
      "type": "function"
    },
    {
      "inputs": [
        {
          "internalType": "uint256",
          "name": "tokenId",
          "type": "uint256"
        }
      ],
      "name": "ownerOf",
      "outputs": [
        {
          "internalType": "address",
          "name": "",
          "type": "address"
        }
      ],
      "stateMutability": "view",
      "type": "function"
    },
    {
      "inputs": [],
      "name": "pause",
      "outputs": [],
      "stateMutability": "nonpayable",
      "type": "function"
    },
    {
      "inputs": [],
      "name": "paused",
      "outputs": [
        {
          "internalType": "bool",
          "name": "",
          "type": "bool"
        }
      ],
      "stateMutability": "view",
      "type": "function"
    },
    {
      "inputs": [],
      "name": "renounceOwnership",
      "outputs": [],
      "stateMutability": "nonpayable",
      "type": "function"
    },
    {
      "inputs": [
        {
          "internalType": "address",
          "name": "to",
          "type": "address"
        }
      ],
      "name": "safeMint",
      "outputs": [],
      "stateMutability": "nonpayable",
      "type": "function"
    },
    {
      "inputs": [
        {
          "internalType": "address",
          "name": "from",
          "type": "address"
        },
        {
          "internalType": "address",
          "name": "to",
          "type": "address"
        },
        {
          "internalType": "uint256",
          "name": "tokenId",
          "type": "uint256"
        }
      ],
      "name": "safeTransferFrom",
      "outputs": [],
      "stateMutability": "nonpayable",
      "type": "function"
    },
    {
      "inputs": [
        {
          "internalType": "address",
          "name": "from",
          "type": "address"
        },
        {
          "internalType": "address",
          "name": "to",
          "type": "address"
        },
        {
          "internalType": "uint256",
          "name": "tokenId",
          "type": "uint256"
        },
        {
          "internalType": "bytes",
          "name": "_data",
          "type": "bytes"
        }
      ],
      "name": "safeTransferFrom",
      "outputs": [],
      "stateMutability": "nonpayable",
      "type": "function"
    },
    {
      "inputs": [
        {
          "internalType": "address",
          "name": "operator",
          "type": "address"
        },
        {
          "internalType": "bool",
          "name": "approved",
          "type": "bool"
        }
      ],
      "name": "setApprovalForAll",
      "outputs": [],
      "stateMutability": "nonpayable",
      "type": "function"
    },
    {
      "inputs": [
        {
          "internalType": "address",
          "name": "storeAddress",
          "type": "address"
        }
      ],
      "name": "setStore",
      "outputs": [],
      "stateMutability": "nonpayable",
      "type": "function"
    },
    {
      "inputs": [],
      "name": "store",
      "outputs": [
        {
          "internalType": "address",
          "name": "",
          "type": "address"
        }
      ],
      "stateMutability": "view",
      "type": "function"
    },
    {
      "inputs": [
        {
          "internalType": "address",
          "name": "user",
          "type": "address"
        },
        {
          "internalType": "string",
          "name": "uri",
          "type": "string"
        },
        {
          "internalType": "uint256",
          "name": "itemId",
          "type": "uint256"
        },
        {
          "internalType": "uint8",
          "name": "star",
          "type": "uint8"
        }
      ],
      "name": "storeCreateGameItem",
      "outputs": [],
      "stateMutability": "nonpayable",
      "type": "function"
    },
    {
      "inputs": [
        {
          "internalType": "bytes4",
          "name": "interfaceId",
          "type": "bytes4"
        }
      ],
      "name": "supportsInterface",
      "outputs": [
        {
          "internalType": "bool",
          "name": "",
          "type": "bool"
        }
      ],
      "stateMutability": "view",
      "type": "function"
    },
    {
      "inputs": [],
      "name": "symbol",
      "outputs": [
        {
          "internalType": "string",
          "name": "",
          "type": "string"
        }
      ],
      "stateMutability": "view",
      "type": "function"
    },
    {
      "inputs": [
        {
          "internalType": "uint256",
          "name": "index",
          "type": "uint256"
        }
      ],
      "name": "tokenByIndex",
      "outputs": [
        {
          "internalType": "uint256",
          "name": "",
          "type": "uint256"
        }
      ],
      "stateMutability": "view",
      "type": "function"
    },
    {
      "inputs": [
        {
          "internalType": "address",
          "name": "owner",
          "type": "address"
        },
        {
          "internalType": "uint256",
          "name": "index",
          "type": "uint256"
        }
      ],
      "name": "tokenOfOwnerByIndex",
      "outputs": [
        {
          "internalType": "uint256",
          "name": "",
          "type": "uint256"
        }
      ],
      "stateMutability": "view",
      "type": "function"
    },
    {
      "inputs": [
        {
          "internalType": "uint256",
          "name": "tokenId",
          "type": "uint256"
        }
      ],
      "name": "tokenURI",
      "outputs": [
        {
          "internalType": "string",
          "name": "",
          "type": "string"
        }
      ],
      "stateMutability": "view",
      "type": "function"
    },
    {
      "inputs": [],
      "name": "totalSupply",
      "outputs": [
        {
          "internalType": "uint256",
          "name": "",
          "type": "uint256"
        }
      ],
      "stateMutability": "view",
      "type": "function"
    },
    {
      "inputs": [
        {
          "internalType": "address",
          "name": "from",
          "type": "address"
        },
        {
          "internalType": "address",
          "name": "to",
          "type": "address"
        },
        {
          "internalType": "uint256",
          "name": "tokenId",
          "type": "uint256"
        }
      ],
      "name": "transferFrom",
      "outputs": [],
      "stateMutability": "nonpayable",
      "type": "function"
    },
    {
      "inputs": [
        {
          "internalType": "address",
          "name": "newOwner",
          "type": "address"
        }
      ],
      "name": "transferOwnership",
      "outputs": [],
      "stateMutability": "nonpayable",
      "type": "function"
    },
    {
      "inputs": [],
      "name": "unpause",
      "outputs": [],
      "stateMutability": "nonpayable",
      "type": "function"
    },
    {
      "inputs": [
        {
          "internalType": "uint256",
          "name": "tokenId",
          "type": "uint256"
        }
      ],
      "name": "upgradeGameItem",
      "outputs": [],
      "stateMutability": "nonpayable",
      "type": "function"
    }
  ],
  "bytecode": "0x60806040523480156200001157600080fd5b506040518060400160405280600881526020017f47616d654974656d0000000000000000000000000000000000000000000000008152506040518060400160405280600381526020017f4749540000000000000000000000000000000000000000000000000000000000815250816000908051906020019062000096929190620001c1565b508060019080519060200190620000af929190620001c1565b5050506000600b60006101000a81548160ff021916908315150217905550620000ed620000e1620000f360201b60201c565b620000fb60201b60201c565b620002d6565b600033905090565b6000600b60019054906101000a900473ffffffffffffffffffffffffffffffffffffffff16905081600b60016101000a81548173ffffffffffffffffffffffffffffffffffffffff021916908373ffffffffffffffffffffffffffffffffffffffff1602179055508173ffffffffffffffffffffffffffffffffffffffff168173ffffffffffffffffffffffffffffffffffffffff167f8be0079c531659141344cd1fd0a4f28419497f9722a3daafe3b4186f6b6457e060405160405180910390a35050565b828054620001cf9062000271565b90600052602060002090601f016020900481019282620001f357600085556200023f565b82601f106200020e57805160ff19168380011785556200023f565b828001600101855582156200023f579182015b828111156200023e57825182559160200191906001019062000221565b5b5090506200024e919062000252565b5090565b5b808211156200026d57600081600090555060010162000253565b5090565b600060028204905060018216806200028a57607f821691505b60208210811415620002a157620002a0620002a7565b5b50919050565b7f4e487b7100000000000000000000000000000000000000000000000000000000600052602260045260246000fd5b6146a280620002e66000396000f3fe608060405234801561001057600080fd5b50600436106101f05760003560e01c80635c975abb1161010f578063975057e7116100a2578063e985e9c511610071578063e985e9c514610591578063e9acfeaf146105c1578063f2fde38b146105dd578063fabf657a146105f9576101f0565b8063975057e71461050b578063a22cb46514610529578063b88d4fde14610545578063c87b56dd14610561576101f0565b80638456cb59116100de5780638456cb59146104945780638da5cb5b1461049e57806394f13f4a146104bc57806395d89b41146104ed576101f0565b80635c975abb1461040c5780636352211e1461042a57806370a082311461045a578063715018a61461048a576101f0565b80633b4770bc1161018757806342966c681161015657806342966c6814610373578063430074c21461038f5780634f6ccce7146103c05780635a1b3427146103f0576101f0565b80633b4770bc146103155780633f4ba83a1461033157806340d097c31461033b57806342842e0e14610357576101f0565b8063095ea7b3116101c3578063095ea7b31461028f57806318160ddd146102ab57806323b872dd146102c95780632f745c59146102e5576101f0565b806301ffc9a7146101f557806306fdde0314610225578063081812fc14610243578063087cbd4014610273575b600080fd5b61020f600480360381019061020a9190613259565b610615565b60405161021c919061379a565b60405180910390f35b61022d610627565b60405161023a91906137b5565b60405180910390f35b61025d600480360381019061025891906132ab565b6106b9565b60405161026a9190613733565b60405180910390f35b61028d60048036038101906102889190613037565b61073e565b005b6102a960048036038101906102a4919061321d565b6107fe565b005b6102b3610916565b6040516102c09190613af7565b60405180910390f35b6102e360048036038101906102de919061309c565b610923565b005b6102ff60048036038101906102fa919061321d565b610983565b60405161030c9190613af7565b60405180910390f35b61032f600480360381019061032a91906131a2565b610a28565b005b610339610aca565b005b61035560048036038101906103509190613037565b610b50565b005b610371600480360381019061036c919061309c565b610bec565b005b61038d600480360381019061038891906132ab565b610c0c565b005b6103a960048036038101906103a491906132ab565b610c68565b6040516103b7929190613b12565b60405180910390f35b6103da60048036038101906103d591906132ab565b610c8c565b6040516103e79190613af7565b60405180910390f35b61040a600480360381019061040591906132ab565b610d23565b005b610414610e86565b604051610421919061379a565b60405180910390f35b610444600480360381019061043f91906132ab565b610e9d565b6040516104519190613733565b60405180910390f35b610474600480360381019061046f9190613037565b610f4f565b6040516104819190613af7565b60405180910390f35b610492611007565b005b61049c61108f565b005b6104a6611115565b6040516104b39190613733565b60405180910390f35b6104d660048036038101906104d191906132ab565b61113f565b6040516104e4929190613b12565b60405180910390f35b6104f5611179565b60405161050291906137b5565b60405180910390f35b61051361120b565b6040516105209190613733565b60405180910390f35b610543600480360381019061053e9190613166565b611231565b005b61055f600480360381019061055a91906130eb565b6113b2565b005b61057b600480360381019061057691906132ab565b611414565b60405161058891906137b5565b60405180910390f35b6105ab60048036038101906105a69190613060565b611426565b6040516105b8919061379a565b60405180910390f35b6105db60048036038101906105d691906131a2565b6114ba565b005b6105f760048036038101906105f29190613037565b611548565b005b610613600480360381019061060e9190613037565b611640565b005b60006106208261164e565b9050919050565b60606000805461063690613dc8565b80601f016020809104026020016040519081016040528092919081815260200182805461066290613dc8565b80156106af5780601f10610684576101008083540402835291602001916106af565b820191906000526020600020905b81548152906001019060200180831161069257829003601f168201915b5050505050905090565b60006106c4826116c8565b610703576040517f08c379a00000000000000000000000000000000000000000000000000000000081526004016106fa906139d7565b60405180910390fd5b6004600083815260200190815260200160002060009054906101000a900473ffffffffffffffffffffffffffffffffffffffff169050919050565b610746611734565b73ffffffffffffffffffffffffffffffffffffffff16610764611115565b73ffffffffffffffffffffffffffffffffffffffff16146107ba576040517f08c379a00000000000000000000000000000000000000000000000000000000081526004016107b1906139f7565b60405180910390fd5b80600d60006101000a81548173ffffffffffffffffffffffffffffffffffffffff021916908373ffffffffffffffffffffffffffffffffffffffff16021790555050565b600061080982610e9d565b90508073ffffffffffffffffffffffffffffffffffffffff168373ffffffffffffffffffffffffffffffffffffffff16141561087a576040517f08c379a000000000000000000000000000000000000000000000000000000000815260040161087190613a77565b60405180910390fd5b8073ffffffffffffffffffffffffffffffffffffffff16610899611734565b73ffffffffffffffffffffffffffffffffffffffff1614806108c857506108c7816108c2611734565b611426565b5b610907576040517f08c379a00000000000000000000000000000000000000000000000000000000081526004016108fe90613917565b60405180910390fd5b610911838361173c565b505050565b6000600880549050905090565b61093461092e611734565b826117f5565b610973576040517f08c379a000000000000000000000000000000000000000000000000000000000815260040161096a90613a97565b60405180910390fd5b61097e8383836118d3565b505050565b600061098e83610f4f565b82106109cf576040517f08c379a00000000000000000000000000000000000000000000000000000000081526004016109c6906137f7565b60405180910390fd5b600660008473ffffffffffffffffffffffffffffffffffffffff1673ffffffffffffffffffffffffffffffffffffffff168152602001908152602001600020600083815260200190815260200160002054905092915050565b600d60009054906101000a900473ffffffffffffffffffffffffffffffffffffffff1673ffffffffffffffffffffffffffffffffffffffff163373ffffffffffffffffffffffffffffffffffffffff1614610ab8576040517f08c379a0000000000000000000000000000000000000000000000000000000008152600401610aaf906138f7565b60405180910390fd5b610ac484848484611b2f565b50505050565b610ad2611734565b73ffffffffffffffffffffffffffffffffffffffff16610af0611115565b73ffffffffffffffffffffffffffffffffffffffff1614610b46576040517f08c379a0000000000000000000000000000000000000000000000000000000008152600401610b3d906139f7565b60405180910390fd5b610b4e611b70565b565b610b58611734565b73ffffffffffffffffffffffffffffffffffffffff16610b76611115565b73ffffffffffffffffffffffffffffffffffffffff1614610bcc576040517f08c379a0000000000000000000000000000000000000000000000000000000008152600401610bc3906139f7565b60405180910390fd5b610bdf81610bda600c611c12565b611c20565b610be9600c611c3e565b50565b610c07838383604051806020016040528060008152506113b2565b505050565b610c1d610c17611734565b826117f5565b610c5c576040517f08c379a0000000000000000000000000000000000000000000000000000000008152600401610c5390613ad7565b60405180910390fd5b610c6581611c54565b50565b600e6020528060005260406000206000915090508060000154908060010154905082565b6000610c96610916565b8210610cd7576040517f08c379a0000000000000000000000000000000000000000000000000000000008152600401610cce90613ab7565b60405180910390fd5b60088281548110610d11577f4e487b7100000000000000000000000000000000000000000000000000000000600052603260045260246000fd5b90600052602060002001549050919050565b600d60009054906101000a900473ffffffffffffffffffffffffffffffffffffffff1673ffffffffffffffffffffffffffffffffffffffff163373ffffffffffffffffffffffffffffffffffffffff1614610db3576040517f08c379a0000000000000000000000000000000000000000000000000000000008152600401610daa906138f7565b60405180910390fd5b6000600e600083815260200190815260200160002090506005816001015410610e11576040517f08c379a0000000000000000000000000000000000000000000000000000000008152600401610e0890613a57565b60405180910390fd5b6001816001016000828254610e269190613c4a565b925050819055507fb2edb4acfaacdcfc6aaf5f27fb2c4e92fa0ae26e8316e9725f116f88f8af393982826000015460018460010154610e659190613cd1565b8460010154604051610e7a9493929190613b3b565b60405180910390a15050565b6000600b60009054906101000a900460ff16905090565b6000806002600084815260200190815260200160002060009054906101000a900473ffffffffffffffffffffffffffffffffffffffff169050600073ffffffffffffffffffffffffffffffffffffffff168173ffffffffffffffffffffffffffffffffffffffff161415610f46576040517f08c379a0000000000000000000000000000000000000000000000000000000008152600401610f3d90613957565b60405180910390fd5b80915050919050565b60008073ffffffffffffffffffffffffffffffffffffffff168273ffffffffffffffffffffffffffffffffffffffff161415610fc0576040517f08c379a0000000000000000000000000000000000000000000000000000000008152600401610fb790613937565b60405180910390fd5b600360008373ffffffffffffffffffffffffffffffffffffffff1673ffffffffffffffffffffffffffffffffffffffff168152602001908152602001600020549050919050565b61100f611734565b73ffffffffffffffffffffffffffffffffffffffff1661102d611115565b73ffffffffffffffffffffffffffffffffffffffff1614611083576040517f08c379a000000000000000000000000000000000000000000000000000000000815260040161107a906139f7565b60405180910390fd5b61108d6000611c60565b565b611097611734565b73ffffffffffffffffffffffffffffffffffffffff166110b5611115565b73ffffffffffffffffffffffffffffffffffffffff161461110b576040517f08c379a0000000000000000000000000000000000000000000000000000000008152600401611102906139f7565b60405180910390fd5b611113611d26565b565b6000600b60019054906101000a900473ffffffffffffffffffffffffffffffffffffffff16905090565b600080600e600084815260200190815260200160002060000154600e60008581526020019081526020016000206001015491509150915091565b60606001805461118890613dc8565b80601f01602080910402602001604051908101604052809291908181526020018280546111b490613dc8565b80156112015780601f106111d657610100808354040283529160200191611201565b820191906000526020600020905b8154815290600101906020018083116111e457829003601f168201915b5050505050905090565b600d60009054906101000a900473ffffffffffffffffffffffffffffffffffffffff1681565b611239611734565b73ffffffffffffffffffffffffffffffffffffffff168273ffffffffffffffffffffffffffffffffffffffff1614156112a7576040517f08c379a000000000000000000000000000000000000000000000000000000000815260040161129e90613897565b60405180910390fd5b80600560006112b4611734565b73ffffffffffffffffffffffffffffffffffffffff1673ffffffffffffffffffffffffffffffffffffffff16815260200190815260200160002060008473ffffffffffffffffffffffffffffffffffffffff1673ffffffffffffffffffffffffffffffffffffffff16815260200190815260200160002060006101000a81548160ff0219169083151502179055508173ffffffffffffffffffffffffffffffffffffffff16611361611734565b73ffffffffffffffffffffffffffffffffffffffff167f17307eab39ab6107e8899845ad3d59bd9653f200f220920489ca2b5937696c31836040516113a6919061379a565b60405180910390a35050565b6113c36113bd611734565b836117f5565b611402576040517f08c379a00000000000000000000000000000000000000000000000000000000081526004016113f990613a97565b60405180910390fd5b61140e84848484611dc9565b50505050565b606061141f82611e25565b9050919050565b6000600560008473ffffffffffffffffffffffffffffffffffffffff1673ffffffffffffffffffffffffffffffffffffffff16815260200190815260200160002060008373ffffffffffffffffffffffffffffffffffffffff1673ffffffffffffffffffffffffffffffffffffffff16815260200190815260200160002060009054906101000a900460ff16905092915050565b6114c2611734565b73ffffffffffffffffffffffffffffffffffffffff166114e0611115565b73ffffffffffffffffffffffffffffffffffffffff1614611536576040517f08c379a000000000000000000000000000000000000000000000000000000000815260040161152d906139f7565b60405180910390fd5b61154284848484611b2f565b50505050565b611550611734565b73ffffffffffffffffffffffffffffffffffffffff1661156e611115565b73ffffffffffffffffffffffffffffffffffffffff16146115c4576040517f08c379a00000000000000000000000000000000000000000000000000000000081526004016115bb906139f7565b60405180910390fd5b600073ffffffffffffffffffffffffffffffffffffffff168173ffffffffffffffffffffffffffffffffffffffff161415611634576040517f08c379a000000000000000000000000000000000000000000000000000000000815260040161162b90613837565b60405180910390fd5b61163d81611c60565b50565b61164b816001611231565b50565b60007f780e9d63000000000000000000000000000000000000000000000000000000007bffffffffffffffffffffffffffffffffffffffffffffffffffffffff1916827bffffffffffffffffffffffffffffffffffffffffffffffffffffffff191614806116c157506116c082611f77565b5b9050919050565b60008073ffffffffffffffffffffffffffffffffffffffff166002600084815260200190815260200160002060009054906101000a900473ffffffffffffffffffffffffffffffffffffffff1673ffffffffffffffffffffffffffffffffffffffff1614159050919050565b600033905090565b816004600083815260200190815260200160002060006101000a81548173ffffffffffffffffffffffffffffffffffffffff021916908373ffffffffffffffffffffffffffffffffffffffff160217905550808273ffffffffffffffffffffffffffffffffffffffff166117af83610e9d565b73ffffffffffffffffffffffffffffffffffffffff167f8c5be1e5ebec7d5bd14f71427d1e84f3dd0314c0f7b2291e5b200ac8c7c3b92560405160405180910390a45050565b6000611800826116c8565b61183f576040517f08c379a0000000000000000000000000000000000000000000000000000000008152600401611836906138b7565b60405180910390fd5b600061184a83610e9d565b90508073ffffffffffffffffffffffffffffffffffffffff168473ffffffffffffffffffffffffffffffffffffffff1614806118b957508373ffffffffffffffffffffffffffffffffffffffff166118a1846106b9565b73ffffffffffffffffffffffffffffffffffffffff16145b806118ca57506118c98185611426565b5b91505092915050565b8273ffffffffffffffffffffffffffffffffffffffff166118f382610e9d565b73ffffffffffffffffffffffffffffffffffffffff1614611949576040517f08c379a000000000000000000000000000000000000000000000000000000000815260040161194090613a17565b60405180910390fd5b600073ffffffffffffffffffffffffffffffffffffffff168273ffffffffffffffffffffffffffffffffffffffff1614156119b9576040517f08c379a00000000000000000000000000000000000000000000000000000000081526004016119b090613877565b60405180910390fd5b6119c4838383612059565b6119cf60008261173c565b6001600360008573ffffffffffffffffffffffffffffffffffffffff1673ffffffffffffffffffffffffffffffffffffffff1681526020019081526020016000206000828254611a1f9190613cd1565b925050819055506001600360008473ffffffffffffffffffffffffffffffffffffffff1673ffffffffffffffffffffffffffffffffffffffff1681526020019081526020016000206000828254611a769190613c4a565b92505081905550816002600083815260200190815260200160002060006101000a81548173ffffffffffffffffffffffffffffffffffffffff021916908373ffffffffffffffffffffffffffffffffffffffff160217905550808273ffffffffffffffffffffffffffffffffffffffff168473ffffffffffffffffffffffffffffffffffffffff167fddf252ad1be2c89b69c2b068fc378daa952ba7f163c4a11628f55a4df523b3ef60405160405180910390a4505050565b611b39600c611c3e565b6000611b45600c611c12565b9050611b5581848460ff166120b1565b611b5f8582611c20565b611b6981856120f5565b5050505050565b611b78610e86565b611bb7576040517f08c379a0000000000000000000000000000000000000000000000000000000008152600401611bae906137d7565b60405180910390fd5b6000600b60006101000a81548160ff0219169083151502179055507f5db9ee0a495bf2e6ff9c91a7834c1ba4fdd244a5e8aa4e537bd38aeae4b073aa611bfb611734565b604051611c089190613733565b60405180910390a1565b600081600001549050919050565b611c3a828260405180602001604052806000815250612169565b5050565b6001816000016000828254019250508190555050565b611c5d816121c4565b50565b6000600b60019054906101000a900473ffffffffffffffffffffffffffffffffffffffff16905081600b60016101000a81548173ffffffffffffffffffffffffffffffffffffffff021916908373ffffffffffffffffffffffffffffffffffffffff1602179055508173ffffffffffffffffffffffffffffffffffffffff168173ffffffffffffffffffffffffffffffffffffffff167f8be0079c531659141344cd1fd0a4f28419497f9722a3daafe3b4186f6b6457e060405160405180910390a35050565b611d2e610e86565b15611d6e576040517f08c379a0000000000000000000000000000000000000000000000000000000008152600401611d65906138d7565b60405180910390fd5b6001600b60006101000a81548160ff0219169083151502179055507f62e78cea01bee320cd4e420270b5ea74000d11b0c9f74754ebdbfc544b05a258611db2611734565b604051611dbf9190613733565b60405180910390a1565b611dd48484846118d3565b611de084848484612217565b611e1f576040517f08c379a0000000000000000000000000000000000000000000000000000000008152600401611e1690613817565b60405180910390fd5b50505050565b6060611e30826116c8565b611e6f576040517f08c379a0000000000000000000000000000000000000000000000000000000008152600401611e66906139b7565b60405180910390fd5b6000600a60008481526020019081526020016000208054611e8f90613dc8565b80601f0160208091040260200160405190810160405280929190818152602001828054611ebb90613dc8565b8015611f085780601f10611edd57610100808354040283529160200191611f08565b820191906000526020600020905b815481529060010190602001808311611eeb57829003601f168201915b505050505090506000611f196123ae565b9050600081511415611f2f578192505050611f72565b600082511115611f64578082604051602001611f4c92919061370f565b60405160208183030381529060405292505050611f72565b611f6d846123c5565b925050505b919050565b60007f80ac58cd000000000000000000000000000000000000000000000000000000007bffffffffffffffffffffffffffffffffffffffffffffffffffffffff1916827bffffffffffffffffffffffffffffffffffffffffffffffffffffffff1916148061204257507f5b5e139f000000000000000000000000000000000000000000000000000000007bffffffffffffffffffffffffffffffffffffffffffffffffffffffff1916827bffffffffffffffffffffffffffffffffffffffffffffffffffffffff1916145b8061205257506120518261246c565b5b9050919050565b612061610e86565b156120a1576040517f08c379a0000000000000000000000000000000000000000000000000000000008152600401612098906138d7565b60405180910390fd5b6120ac8383836124d6565b505050565b604051806040016040528083815260200182815250600e60008581526020019081526020016000206000820151816000015560208201518160010155905050505050565b6120fe826116c8565b61213d576040517f08c379a000000000000000000000000000000000000000000000000000000000815260040161213490613977565b60405180910390fd5b80600a60008481526020019081526020016000209080519060200190612164929190612e06565b505050565b61217383836125ea565b6121806000848484612217565b6121bf576040517f08c379a00000000000000000000000000000000000000000000000000000000081526004016121b690613817565b60405180910390fd5b505050565b6121cd816127b8565b6000600a600083815260200190815260200160002080546121ed90613dc8565b90501461221457600a600082815260200190815260200160002060006122139190612e8c565b5b50565b60006122388473ffffffffffffffffffffffffffffffffffffffff166128c9565b156123a1578373ffffffffffffffffffffffffffffffffffffffff1663150b7a02612261611734565b8786866040518563ffffffff1660e01b8152600401612283949392919061374e565b602060405180830381600087803b15801561229d57600080fd5b505af19250505080156122ce57506040513d601f19601f820116820180604052508101906122cb9190613282565b60015b612351573d80600081146122fe576040519150601f19603f3d011682016040523d82523d6000602084013e612303565b606091505b50600081511415612349576040517f08c379a000000000000000000000000000000000000000000000000000000000815260040161234090613817565b60405180910390fd5b805181602001fd5b63150b7a0260e01b7bffffffffffffffffffffffffffffffffffffffffffffffffffffffff1916817bffffffffffffffffffffffffffffffffffffffffffffffffffffffff1916149150506123a6565b600190505b949350505050565b606060405180602001604052806000815250905090565b60606123d0826116c8565b61240f576040517f08c379a000000000000000000000000000000000000000000000000000000000815260040161240690613a37565b60405180910390fd5b60006124196123ae565b905060008151116124395760405180602001604052806000815250612464565b80612443846128dc565b60405160200161245492919061370f565b6040516020818303038152906040525b915050919050565b60007f01ffc9a7000000000000000000000000000000000000000000000000000000007bffffffffffffffffffffffffffffffffffffffffffffffffffffffff1916827bffffffffffffffffffffffffffffffffffffffffffffffffffffffff1916149050919050565b6124e1838383612a89565b600073ffffffffffffffffffffffffffffffffffffffff168373ffffffffffffffffffffffffffffffffffffffff1614156125245761251f81612a8e565b612563565b8173ffffffffffffffffffffffffffffffffffffffff168373ffffffffffffffffffffffffffffffffffffffff1614612562576125618382612ad7565b5b5b600073ffffffffffffffffffffffffffffffffffffffff168273ffffffffffffffffffffffffffffffffffffffff1614156125a6576125a181612c44565b6125e5565b8273ffffffffffffffffffffffffffffffffffffffff168273ffffffffffffffffffffffffffffffffffffffff16146125e4576125e38282612d87565b5b5b505050565b600073ffffffffffffffffffffffffffffffffffffffff168273ffffffffffffffffffffffffffffffffffffffff16141561265a576040517f08c379a000000000000000000000000000000000000000000000000000000000815260040161265190613997565b60405180910390fd5b612663816116c8565b156126a3576040517f08c379a000000000000000000000000000000000000000000000000000000000815260040161269a90613857565b60405180910390fd5b6126af60008383612059565b6001600360008473ffffffffffffffffffffffffffffffffffffffff1673ffffffffffffffffffffffffffffffffffffffff16815260200190815260200160002060008282546126ff9190613c4a565b92505081905550816002600083815260200190815260200160002060006101000a81548173ffffffffffffffffffffffffffffffffffffffff021916908373ffffffffffffffffffffffffffffffffffffffff160217905550808273ffffffffffffffffffffffffffffffffffffffff16600073ffffffffffffffffffffffffffffffffffffffff167fddf252ad1be2c89b69c2b068fc378daa952ba7f163c4a11628f55a4df523b3ef60405160405180910390a45050565b60006127c382610e9d565b90506127d181600084612059565b6127dc60008361173c565b6001600360008373ffffffffffffffffffffffffffffffffffffffff1673ffffffffffffffffffffffffffffffffffffffff168152602001908152602001600020600082825461282c9190613cd1565b925050819055506002600083815260200190815260200160002060006101000a81549073ffffffffffffffffffffffffffffffffffffffff021916905581600073ffffffffffffffffffffffffffffffffffffffff168273ffffffffffffffffffffffffffffffffffffffff167fddf252ad1be2c89b69c2b068fc378daa952ba7f163c4a11628f55a4df523b3ef60405160405180910390a45050565b600080823b905060008111915050919050565b60606000821415612924576040518060400160405280600181526020017f30000000000000000000000000000000000000000000000000000000000000008152509050612a84565b600082905060005b6000821461295657808061293f90613e2b565b915050600a8261294f9190613ca0565b915061292c565b60008167ffffffffffffffff811115612998577f4e487b7100000000000000000000000000000000000000000000000000000000600052604160045260246000fd5b6040519080825280601f01601f1916602001820160405280156129ca5781602001600182028036833780820191505090505b5090505b60008514612a7d576001826129e39190613cd1565b9150600a856129f29190613e74565b60306129fe9190613c4a565b60f81b818381518110612a3a577f4e487b7100000000000000000000000000000000000000000000000000000000600052603260045260246000fd5b60200101907effffffffffffffffffffffffffffffffffffffffffffffffffffffffffffff1916908160001a905350600a85612a769190613ca0565b94506129ce565b8093505050505b919050565b505050565b6008805490506009600083815260200190815260200160002081905550600881908060018154018082558091505060019003906000526020600020016000909190919091505550565b60006001612ae484610f4f565b612aee9190613cd1565b9050600060076000848152602001908152602001600020549050818114612bd3576000600660008673ffffffffffffffffffffffffffffffffffffffff1673ffffffffffffffffffffffffffffffffffffffff168152602001908152602001600020600084815260200190815260200160002054905080600660008773ffffffffffffffffffffffffffffffffffffffff1673ffffffffffffffffffffffffffffffffffffffff168152602001908152602001600020600084815260200190815260200160002081905550816007600083815260200190815260200160002081905550505b6007600084815260200190815260200160002060009055600660008573ffffffffffffffffffffffffffffffffffffffff1673ffffffffffffffffffffffffffffffffffffffff16815260200190815260200160002060008381526020019081526020016000206000905550505050565b60006001600880549050612c589190613cd1565b9050600060096000848152602001908152602001600020549050600060088381548110612cae577f4e487b7100000000000000000000000000000000000000000000000000000000600052603260045260246000fd5b906000526020600020015490508060088381548110612cf6577f4e487b7100000000000000000000000000000000000000000000000000000000600052603260045260246000fd5b906000526020600020018190555081600960008381526020019081526020016000208190555060096000858152602001908152602001600020600090556008805480612d6b577f4e487b7100000000000000000000000000000000000000000000000000000000600052603160045260246000fd5b6001900381819060005260206000200160009055905550505050565b6000612d9283610f4f565b905081600660008573ffffffffffffffffffffffffffffffffffffffff1673ffffffffffffffffffffffffffffffffffffffff168152602001908152602001600020600083815260200190815260200160002081905550806007600084815260200190815260200160002081905550505050565b828054612e1290613dc8565b90600052602060002090601f016020900481019282612e345760008555612e7b565b82601f10612e4d57805160ff1916838001178555612e7b565b82800160010185558215612e7b579182015b82811115612e7a578251825591602001919060010190612e5f565b5b509050612e889190612ecc565b5090565b508054612e9890613dc8565b6000825580601f10612eaa5750612ec9565b601f016020900490600052602060002090810190612ec89190612ecc565b5b50565b5b80821115612ee5576000816000905550600101612ecd565b5090565b6000612efc612ef784613ba5565b613b80565b905082815260208101848484011115612f1457600080fd5b612f1f848285613d86565b509392505050565b6000612f3a612f3584613bd6565b613b80565b905082815260208101848484011115612f5257600080fd5b612f5d848285613d86565b509392505050565b600081359050612f74816145f9565b92915050565b600081359050612f8981614610565b92915050565b600081359050612f9e81614627565b92915050565b600081519050612fb381614627565b92915050565b600082601f830112612fca57600080fd5b8135612fda848260208601612ee9565b91505092915050565b600082601f830112612ff457600080fd5b8135613004848260208601612f27565b91505092915050565b60008135905061301c8161463e565b92915050565b60008135905061303181614655565b92915050565b60006020828403121561304957600080fd5b600061305784828501612f65565b91505092915050565b6000806040838503121561307357600080fd5b600061308185828601612f65565b925050602061309285828601612f65565b9150509250929050565b6000806000606084860312156130b157600080fd5b60006130bf86828701612f65565b93505060206130d086828701612f65565b92505060406130e18682870161300d565b9150509250925092565b6000806000806080858703121561310157600080fd5b600061310f87828801612f65565b945050602061312087828801612f65565b93505060406131318782880161300d565b925050606085013567ffffffffffffffff81111561314e57600080fd5b61315a87828801612fb9565b91505092959194509250565b6000806040838503121561317957600080fd5b600061318785828601612f65565b925050602061319885828601612f7a565b9150509250929050565b600080600080608085870312156131b857600080fd5b60006131c687828801612f65565b945050602085013567ffffffffffffffff8111156131e357600080fd5b6131ef87828801612fe3565b93505060406132008782880161300d565b925050606061321187828801613022565b91505092959194509250565b6000806040838503121561323057600080fd5b600061323e85828601612f65565b925050602061324f8582860161300d565b9150509250929050565b60006020828403121561326b57600080fd5b600061327984828501612f8f565b91505092915050565b60006020828403121561329457600080fd5b60006132a284828501612fa4565b91505092915050565b6000602082840312156132bd57600080fd5b60006132cb8482850161300d565b91505092915050565b6132dd81613d05565b82525050565b6132ec81613d17565b82525050565b60006132fd82613c07565b6133078185613c1d565b9350613317818560208601613d95565b61332081613f61565b840191505092915050565b600061333682613c12565b6133408185613c2e565b9350613350818560208601613d95565b61335981613f61565b840191505092915050565b600061336f82613c12565b6133798185613c3f565b9350613389818560208601613d95565b80840191505092915050565b60006133a2601483613c2e565b91506133ad82613f72565b602082019050919050565b60006133c5602b83613c2e565b91506133d082613f9b565b604082019050919050565b60006133e8603283613c2e565b91506133f382613fea565b604082019050919050565b600061340b602683613c2e565b915061341682614039565b604082019050919050565b600061342e601c83613c2e565b915061343982614088565b602082019050919050565b6000613451602483613c2e565b915061345c826140b1565b604082019050919050565b6000613474601983613c2e565b915061347f82614100565b602082019050919050565b6000613497602c83613c2e565b91506134a282614129565b604082019050919050565b60006134ba601083613c2e565b91506134c582614178565b602082019050919050565b60006134dd601e83613c2e565b91506134e8826141a1565b602082019050919050565b6000613500603883613c2e565b915061350b826141ca565b604082019050919050565b6000613523602a83613c2e565b915061352e82614219565b604082019050919050565b6000613546602983613c2e565b915061355182614268565b604082019050919050565b6000613569602e83613c2e565b9150613574826142b7565b604082019050919050565b600061358c602083613c2e565b915061359782614306565b602082019050919050565b60006135af603183613c2e565b91506135ba8261432f565b604082019050919050565b60006135d2602c83613c2e565b91506135dd8261437e565b604082019050919050565b60006135f5602083613c2e565b9150613600826143cd565b602082019050919050565b6000613618602983613c2e565b9150613623826143f6565b604082019050919050565b600061363b602f83613c2e565b915061364682614445565b604082019050919050565b600061365e601d83613c2e565b915061366982614494565b602082019050919050565b6000613681602183613c2e565b915061368c826144bd565b604082019050919050565b60006136a4603183613c2e565b91506136af8261450c565b604082019050919050565b60006136c7602c83613c2e565b91506136d28261455b565b604082019050919050565b60006136ea603083613c2e565b91506136f5826145aa565b604082019050919050565b61370981613d6f565b82525050565b600061371b8285613364565b91506137278284613364565b91508190509392505050565b600060208201905061374860008301846132d4565b92915050565b600060808201905061376360008301876132d4565b61377060208301866132d4565b61377d6040830185613700565b818103606083015261378f81846132f2565b905095945050505050565b60006020820190506137af60008301846132e3565b92915050565b600060208201905081810360008301526137cf818461332b565b905092915050565b600060208201905081810360008301526137f081613395565b9050919050565b60006020820190508181036000830152613810816133b8565b9050919050565b60006020820190508181036000830152613830816133db565b9050919050565b60006020820190508181036000830152613850816133fe565b9050919050565b6000602082019050818103600083015261387081613421565b9050919050565b6000602082019050818103600083015261389081613444565b9050919050565b600060208201905081810360008301526138b081613467565b9050919050565b600060208201905081810360008301526138d08161348a565b9050919050565b600060208201905081810360008301526138f0816134ad565b9050919050565b60006020820190508181036000830152613910816134d0565b9050919050565b60006020820190508181036000830152613930816134f3565b9050919050565b6000602082019050818103600083015261395081613516565b9050919050565b6000602082019050818103600083015261397081613539565b9050919050565b600060208201905081810360008301526139908161355c565b9050919050565b600060208201905081810360008301526139b08161357f565b9050919050565b600060208201905081810360008301526139d0816135a2565b9050919050565b600060208201905081810360008301526139f0816135c5565b9050919050565b60006020820190508181036000830152613a10816135e8565b9050919050565b60006020820190508181036000830152613a308161360b565b9050919050565b60006020820190508181036000830152613a508161362e565b9050919050565b60006020820190508181036000830152613a7081613651565b9050919050565b60006020820190508181036000830152613a9081613674565b9050919050565b60006020820190508181036000830152613ab081613697565b9050919050565b60006020820190508181036000830152613ad0816136ba565b9050919050565b60006020820190508181036000830152613af0816136dd565b9050919050565b6000602082019050613b0c6000830184613700565b92915050565b6000604082019050613b276000830185613700565b613b346020830184613700565b9392505050565b6000608082019050613b506000830187613700565b613b5d6020830186613700565b613b6a6040830185613700565b613b776060830184613700565b95945050505050565b6000613b8a613b9b565b9050613b968282613dfa565b919050565b6000604051905090565b600067ffffffffffffffff821115613bc057613bbf613f32565b5b613bc982613f61565b9050602081019050919050565b600067ffffffffffffffff821115613bf157613bf0613f32565b5b613bfa82613f61565b9050602081019050919050565b600081519050919050565b600081519050919050565b600082825260208201905092915050565b600082825260208201905092915050565b600081905092915050565b6000613c5582613d6f565b9150613c6083613d6f565b9250827fffffffffffffffffffffffffffffffffffffffffffffffffffffffffffffffff03821115613c9557613c94613ea5565b5b828201905092915050565b6000613cab82613d6f565b9150613cb683613d6f565b925082613cc657613cc5613ed4565b5b828204905092915050565b6000613cdc82613d6f565b9150613ce783613d6f565b925082821015613cfa57613cf9613ea5565b5b828203905092915050565b6000613d1082613d4f565b9050919050565b60008115159050919050565b60007fffffffff0000000000000000000000000000000000000000000000000000000082169050919050565b600073ffffffffffffffffffffffffffffffffffffffff82169050919050565b6000819050919050565b600060ff82169050919050565b82818337600083830152505050565b60005b83811015613db3578082015181840152602081019050613d98565b83811115613dc2576000848401525b50505050565b60006002820490506001821680613de057607f821691505b60208210811415613df457613df3613f03565b5b50919050565b613e0382613f61565b810181811067ffffffffffffffff82111715613e2257613e21613f32565b5b80604052505050565b6000613e3682613d6f565b91507fffffffffffffffffffffffffffffffffffffffffffffffffffffffffffffffff821415613e6957613e68613ea5565b5b600182019050919050565b6000613e7f82613d6f565b9150613e8a83613d6f565b925082613e9a57613e99613ed4565b5b828206905092915050565b7f4e487b7100000000000000000000000000000000000000000000000000000000600052601160045260246000fd5b7f4e487b7100000000000000000000000000000000000000000000000000000000600052601260045260246000fd5b7f4e487b7100000000000000000000000000000000000000000000000000000000600052602260045260246000fd5b7f4e487b7100000000000000000000000000000000000000000000000000000000600052604160045260246000fd5b6000601f19601f8301169050919050565b7f5061757361626c653a206e6f7420706175736564000000000000000000000000600082015250565b7f455243373231456e756d657261626c653a206f776e657220696e646578206f7560008201527f74206f6620626f756e6473000000000000000000000000000000000000000000602082015250565b7f4552433732313a207472616e7366657220746f206e6f6e20455243373231526560008201527f63656976657220696d706c656d656e7465720000000000000000000000000000602082015250565b7f4f776e61626c653a206e6577206f776e657220697320746865207a65726f206160008201527f6464726573730000000000000000000000000000000000000000000000000000602082015250565b7f4552433732313a20746f6b656e20616c7265616479206d696e74656400000000600082015250565b7f4552433732313a207472616e7366657220746f20746865207a65726f2061646460008201527f7265737300000000000000000000000000000000000000000000000000000000602082015250565b7f4552433732313a20617070726f766520746f2063616c6c657200000000000000600082015250565b7f4552433732313a206f70657261746f7220717565727920666f72206e6f6e657860008201527f697374656e7420746f6b656e0000000000000000000000000000000000000000602082015250565b7f5061757361626c653a2070617573656400000000000000000000000000000000600082015250565b7f6f6e6c7953746f72653a2063616c6c6572206973206e6f742073746f72650000600082015250565b7f4552433732313a20617070726f76652063616c6c6572206973206e6f74206f7760008201527f6e6572206e6f7220617070726f76656420666f7220616c6c0000000000000000602082015250565b7f4552433732313a2062616c616e636520717565727920666f7220746865207a6560008201527f726f206164647265737300000000000000000000000000000000000000000000602082015250565b7f4552433732313a206f776e657220717565727920666f72206e6f6e657869737460008201527f656e7420746f6b656e0000000000000000000000000000000000000000000000602082015250565b7f45524337323155524953746f726167653a2055524920736574206f66206e6f6e60008201527f6578697374656e7420746f6b656e000000000000000000000000000000000000602082015250565b7f4552433732313a206d696e7420746f20746865207a65726f2061646472657373600082015250565b7f45524337323155524953746f726167653a2055524920717565727920666f722060008201527f6e6f6e6578697374656e7420746f6b656e000000000000000000000000000000602082015250565b7f4552433732313a20617070726f76656420717565727920666f72206e6f6e657860008201527f697374656e7420746f6b656e0000000000000000000000000000000000000000602082015250565b7f4f776e61626c653a2063616c6c6572206973206e6f7420746865206f776e6572600082015250565b7f4552433732313a207472616e73666572206f6620746f6b656e2074686174206960008201527f73206e6f74206f776e0000000000000000000000000000000000000000000000602082015250565b7f4552433732314d657461646174613a2055524920717565727920666f72206e6f60008201527f6e6578697374656e7420746f6b656e0000000000000000000000000000000000602082015250565b7f4e756d626572206f66207374617220697320616c7265616479206d6178000000600082015250565b7f4552433732313a20617070726f76616c20746f2063757272656e74206f776e6560008201527f7200000000000000000000000000000000000000000000000000000000000000602082015250565b7f4552433732313a207472616e736665722063616c6c6572206973206e6f74206f60008201527f776e6572206e6f7220617070726f766564000000000000000000000000000000602082015250565b7f455243373231456e756d657261626c653a20676c6f62616c20696e646578206f60008201527f7574206f6620626f756e64730000000000000000000000000000000000000000602082015250565b7f4552433732314275726e61626c653a2063616c6c6572206973206e6f74206f7760008201527f6e6572206e6f7220617070726f76656400000000000000000000000000000000602082015250565b61460281613d05565b811461460d57600080fd5b50565b61461981613d17565b811461462457600080fd5b50565b61463081613d23565b811461463b57600080fd5b50565b61464781613d6f565b811461465257600080fd5b50565b61465e81613d79565b811461466957600080fd5b5056fea2646970667358221220a41885fe0fac4e5fa8a121110c20a9eaaed1bc36bd238fbb279e47f20507acac64736f6c63430008020033",
  "linkReferences": {},
  "deployedLinkReferences": {}
}