{
  "_format": "hh-sol-artifact-1",
  "contractName": "MarketplaceUUPSV1",
  "sourceName": "contracts/MarketplaceUpgradeable.sol",
  "abi": [
    {
      "anonymous": false,
      "inputs": [
        {
          "indexed": false,
          "internalType": "address",
          "name": "previousAdmin",
          "type": "address"
        },
        {
          "indexed": false,
          "internalType": "address",
          "name": "newAdmin",
          "type": "address"
        }
      ],
      "name": "AdminChanged",
      "type": "event"
    },
    {
      "anonymous": false,
      "inputs": [
        {
          "indexed": true,
          "internalType": "address",
          "name": "beacon",
          "type": "address"
        }
      ],
      "name": "BeaconUpgraded",
      "type": "event"
    },
    {
      "anonymous": false,
      "inputs": [
        {
          "indexed": true,
          "internalType": "address",
          "name": "previousOwner",
          "type": "address"
        },
        {
          "indexed": true,
          "internalType": "address",
          "name": "newOwner",
          "type": "address"
        }
      ],
      "name": "OwnershipTransferred",
      "type": "event"
    },
    {
      "anonymous": false,
      "inputs": [
        {
          "indexed": true,
          "internalType": "address",
          "name": "implementation",
          "type": "address"
        }
      ],
      "name": "Upgraded",
      "type": "event"
    },
    {
      "inputs": [],
      "name": "initialize",
      "outputs": [],
      "stateMutability": "nonpayable",
      "type": "function"
    },
    {
      "inputs": [],
      "name": "owner",
      "outputs": [
        {
          "internalType": "address",
          "name": "",
          "type": "address"
        }
      ],
      "stateMutability": "view",
      "type": "function"
    },
    {
      "inputs": [],
      "name": "renounceOwnership",
      "outputs": [],
      "stateMutability": "nonpayable",
      "type": "function"
    },
    {
      "inputs": [],
      "name": "test",
      "outputs": [
        {
          "internalType": "uint256",
          "name": "",
          "type": "uint256"
        }
      ],
      "stateMutability": "view",
      "type": "function"
    },
    {
      "inputs": [
        {
          "internalType": "address",
          "name": "newOwner",
          "type": "address"
        }
      ],
      "name": "transferOwnership",
      "outputs": [],
      "stateMutability": "nonpayable",
      "type": "function"
    },
    {
      "inputs": [
        {
          "internalType": "address",
          "name": "newImplementation",
          "type": "address"
        }
      ],
      "name": "upgradeTo",
      "outputs": [],
      "stateMutability": "nonpayable",
      "type": "function"
    },
    {
      "inputs": [
        {
          "internalType": "address",
          "name": "newImplementation",
          "type": "address"
        },
        {
          "internalType": "bytes",
          "name": "data",
          "type": "bytes"
        }
      ],
      "name": "upgradeToAndCall",
      "outputs": [],
      "stateMutability": "payable",
      "type": "function"
    },
    {
      "inputs": [],
      "name": "version",
      "outputs": [
        {
          "internalType": "string",
          "name": "",
          "type": "string"
        }
      ],
      "stateMutability": "pure",
      "type": "function"
    }
  ],
  "bytecode": "0x60a06040523073ffffffffffffffffffffffffffffffffffffffff1660809073ffffffffffffffffffffffffffffffffffffffff1660601b81525034801561004657600080fd5b5060805160601c61184361007a6000396000818161019f0152818161022e0152818161034e01526103dd01526118436000f3fe60806040526004361061007b5760003560e01c80638129fc1c1161004e5780638129fc1c146101075780638da5cb5b1461011e578063f2fde38b14610149578063f8a8fd6d146101725761007b565b80633659cfe6146100805780634f1ef286146100a957806354fd4d50146100c5578063715018a6146100f0575b600080fd5b34801561008c57600080fd5b506100a760048036038101906100a2919061107a565b61019d565b005b6100c360048036038101906100be91906110a3565b61034c565b005b3480156100d157600080fd5b506100da610489565b6040516100e791906112c9565b60405180910390f35b3480156100fc57600080fd5b506101056104c6565b005b34801561011357600080fd5b5061011c61054e565b005b34801561012a57600080fd5b50610133610637565b60405161014091906112ae565b60405180910390f35b34801561015557600080fd5b50610170600480360381019061016b919061107a565b610661565b005b34801561017e57600080fd5b50610187610759565b60405161019491906113eb565b60405180910390f35b7f000000000000000000000000000000000000000000000000000000000000000073ffffffffffffffffffffffffffffffffffffffff163073ffffffffffffffffffffffffffffffffffffffff16141561022c576040517f08c379a00000000000000000000000000000000000000000000000000000000081526004016102239061132b565b60405180910390fd5b7f000000000000000000000000000000000000000000000000000000000000000073ffffffffffffffffffffffffffffffffffffffff1661026b610763565b73ffffffffffffffffffffffffffffffffffffffff16146102c1576040517f08c379a00000000000000000000000000000000000000000000000000000000081526004016102b89061134b565b60405180910390fd5b6102ca816107ba565b61034981600067ffffffffffffffff81111561030f577f4e487b7100000000000000000000000000000000000000000000000000000000600052604160045260246000fd5b6040519080825280601f01601f1916602001820160405280156103415781602001600182028036833780820191505090505b506000610839565b50565b7f000000000000000000000000000000000000000000000000000000000000000073ffffffffffffffffffffffffffffffffffffffff163073ffffffffffffffffffffffffffffffffffffffff1614156103db576040517f08c379a00000000000000000000000000000000000000000000000000000000081526004016103d29061132b565b60405180910390fd5b7f000000000000000000000000000000000000000000000000000000000000000073ffffffffffffffffffffffffffffffffffffffff1661041a610763565b73ffffffffffffffffffffffffffffffffffffffff1614610470576040517f08c379a00000000000000000000000000000000000000000000000000000000081526004016104679061134b565b60405180910390fd5b610479826107ba565b61048582826001610839565b5050565b60606040518060400160405280601181526020017f4d61726b6574706c616365555550535631000000000000000000000000000000815250905090565b6104ce610a0a565b73ffffffffffffffffffffffffffffffffffffffff166104ec610637565b73ffffffffffffffffffffffffffffffffffffffff1614610542576040517f08c379a0000000000000000000000000000000000000000000000000000000008152600401610539906113ab565b60405180910390fd5b61054c6000610a12565b565b600060019054906101000a900460ff1680610574575060008054906101000a900460ff16155b6105b3576040517f08c379a00000000000000000000000000000000000000000000000000000000081526004016105aa9061136b565b60405180910390fd5b60008060019054906101000a900460ff161590508015610603576001600060016101000a81548160ff02191690831515021790555060016000806101000a81548160ff0219169083151502179055505b61060b610ad8565b600a60c98190555080156106345760008060016101000a81548160ff0219169083151502179055505b50565b6000609760009054906101000a900473ffffffffffffffffffffffffffffffffffffffff16905090565b610669610a0a565b73ffffffffffffffffffffffffffffffffffffffff16610687610637565b73ffffffffffffffffffffffffffffffffffffffff16146106dd576040517f08c379a00000000000000000000000000000000000000000000000000000000081526004016106d4906113ab565b60405180910390fd5b600073ffffffffffffffffffffffffffffffffffffffff168173ffffffffffffffffffffffffffffffffffffffff16141561074d576040517f08c379a00000000000000000000000000000000000000000000000000000000081526004016107449061130b565b60405180910390fd5b61075681610a12565b50565b600060c954905090565b60006107917f360894a13ba1a3210667c828492db98dca3e2076cc3735a920a3ca505d382bbc60001b610bc1565b60000160009054906101000a900473ffffffffffffffffffffffffffffffffffffffff16905090565b6107c2610a0a565b73ffffffffffffffffffffffffffffffffffffffff166107e0610637565b73ffffffffffffffffffffffffffffffffffffffff1614610836576040517f08c379a000000000000000000000000000000000000000000000000000000000815260040161082d906113ab565b60405180910390fd5b50565b6000610843610763565b905061084e84610bcb565b60008351118061085b5750815b1561086c5761086a8484610c84565b505b600061089a7f4910fdfa16fed3260ed0e7147f7cc6da11a60208b5b9406d12a635614ffd914360001b610d68565b90508060000160009054906101000a900460ff16610a035760018160000160006101000a81548160ff02191690831515021790555061096685836040516024016108e491906112ae565b6040516020818303038152906040527f3659cfe6000000000000000000000000000000000000000000000000000000007bffffffffffffffffffffffffffffffffffffffffffffffffffffffff19166020820180517bffffffffffffffffffffffffffffffffffffffffffffffffffffffff8381831617835250505050610c84565b5060008160000160006101000a81548160ff02191690831515021790555061098c610763565b73ffffffffffffffffffffffffffffffffffffffff168273ffffffffffffffffffffffffffffffffffffffff16146109f9576040517f08c379a00000000000000000000000000000000000000000000000000000000081526004016109f0906112eb565b60405180910390fd5b610a0285610d72565b5b5050505050565b600033905090565b6000609760009054906101000a900473ffffffffffffffffffffffffffffffffffffffff16905081609760006101000a81548173ffffffffffffffffffffffffffffffffffffffff021916908373ffffffffffffffffffffffffffffffffffffffff1602179055508173ffffffffffffffffffffffffffffffffffffffff168173ffffffffffffffffffffffffffffffffffffffff167f8be0079c531659141344cd1fd0a4f28419497f9722a3daafe3b4186f6b6457e060405160405180910390a35050565b600060019054906101000a900460ff1680610afe575060008054906101000a900460ff16155b610b3d576040517f08c379a0000000000000000000000000000000000000000000000000000000008152600401610b349061136b565b60405180910390fd5b60008060019054906101000a900460ff161590508015610b8d576001600060016101000a81548160ff02191690831515021790555060016000806101000a81548160ff0219169083151502179055505b610b95610dc1565b610b9d610e9a565b8015610bbe5760008060016101000a81548160ff0219169083151502179055505b50565b6000819050919050565b610bd481610f83565b610c13576040517f08c379a0000000000000000000000000000000000000000000000000000000008152600401610c0a9061138b565b60405180910390fd5b80610c407f360894a13ba1a3210667c828492db98dca3e2076cc3735a920a3ca505d382bbc60001b610bc1565b60000160006101000a81548173ffffffffffffffffffffffffffffffffffffffff021916908373ffffffffffffffffffffffffffffffffffffffff16021790555050565b6060610c8f83610f83565b610cce576040517f08c379a0000000000000000000000000000000000000000000000000000000008152600401610cc5906113cb565b60405180910390fd5b6000808473ffffffffffffffffffffffffffffffffffffffff1684604051610cf69190611297565b600060405180830381855af49150503d8060008114610d31576040519150601f19603f3d011682016040523d82523d6000602084013e610d36565b606091505b5091509150610d5e82826040518060600160405280602781526020016117e760279139610f96565b9250505092915050565b6000819050919050565b610d7b81610bcb565b8073ffffffffffffffffffffffffffffffffffffffff167fbc7cd75a20ee27fd9adebab32041f755214dbc6bffa90cc0225b39da2e5c2d3b60405160405180910390a250565b600060019054906101000a900460ff1680610de7575060008054906101000a900460ff16155b610e26576040517f08c379a0000000000000000000000000000000000000000000000000000000008152600401610e1d9061136b565b60405180910390fd5b60008060019054906101000a900460ff161590508015610e76576001600060016101000a81548160ff02191690831515021790555060016000806101000a81548160ff0219169083151502179055505b8015610e975760008060016101000a81548160ff0219169083151502179055505b50565b600060019054906101000a900460ff1680610ec0575060008054906101000a900460ff16155b610eff576040517f08c379a0000000000000000000000000000000000000000000000000000000008152600401610ef69061136b565b60405180910390fd5b60008060019054906101000a900460ff161590508015610f4f576001600060016101000a81548160ff02191690831515021790555060016000806101000a81548160ff0219169083151502179055505b610f5f610f5a610a0a565b610a12565b8015610f805760008060016101000a81548160ff0219169083151502179055505b50565b600080823b905060008111915050919050565b60608315610fa657829050610ff6565b600083511115610fb95782518084602001fd5b816040517f08c379a0000000000000000000000000000000000000000000000000000000008152600401610fed91906112c9565b60405180910390fd5b9392505050565b600061101061100b8461142b565b611406565b90508281526020810184848401111561102857600080fd5b6110338482856114ca565b509392505050565b60008135905061104a816117cf565b92915050565b600082601f83011261106157600080fd5b8135611071848260208601610ffd565b91505092915050565b60006020828403121561108c57600080fd5b600061109a8482850161103b565b91505092915050565b600080604083850312156110b657600080fd5b60006110c48582860161103b565b925050602083013567ffffffffffffffff8111156110e157600080fd5b6110ed85828601611050565b9150509250929050565b6111008161148e565b82525050565b60006111118261145c565b61111b8185611472565b935061112b8185602086016114d9565b80840191505092915050565b600061114282611467565b61114c818561147d565b935061115c8185602086016114d9565b6111658161156c565b840191505092915050565b600061117d602f8361147d565b91506111888261157d565b604082019050919050565b60006111a060268361147d565b91506111ab826115cc565b604082019050919050565b60006111c3602c8361147d565b91506111ce8261161b565b604082019050919050565b60006111e6602c8361147d565b91506111f18261166a565b604082019050919050565b6000611209602e8361147d565b9150611214826116b9565b604082019050919050565b600061122c602d8361147d565b915061123782611708565b604082019050919050565b600061124f60208361147d565b915061125a82611757565b602082019050919050565b600061127260268361147d565b915061127d82611780565b604082019050919050565b611291816114c0565b82525050565b60006112a38284611106565b915081905092915050565b60006020820190506112c360008301846110f7565b92915050565b600060208201905081810360008301526112e38184611137565b905092915050565b6000602082019050818103600083015261130481611170565b9050919050565b6000602082019050818103600083015261132481611193565b9050919050565b60006020820190508181036000830152611344816111b6565b9050919050565b60006020820190508181036000830152611364816111d9565b9050919050565b60006020820190508181036000830152611384816111fc565b9050919050565b600060208201905081810360008301526113a48161121f565b9050919050565b600060208201905081810360008301526113c481611242565b9050919050565b600060208201905081810360008301526113e481611265565b9050919050565b60006020820190506114006000830184611288565b92915050565b6000611410611421565b905061141c828261150c565b919050565b6000604051905090565b600067ffffffffffffffff8211156114465761144561153d565b5b61144f8261156c565b9050602081019050919050565b600081519050919050565b600081519050919050565b600081905092915050565b600082825260208201905092915050565b6000611499826114a0565b9050919050565b600073ffffffffffffffffffffffffffffffffffffffff82169050919050565b6000819050919050565b82818337600083830152505050565b60005b838110156114f75780820151818401526020810190506114dc565b83811115611506576000848401525b50505050565b6115158261156c565b810181811067ffffffffffffffff821117156115345761153361153d565b5b80604052505050565b7f4e487b7100000000000000000000000000000000000000000000000000000000600052604160045260246000fd5b6000601f19601f8301169050919050565b7f45524331393637557067726164653a207570677261646520627265616b73206660008201527f7572746865722075706772616465730000000000000000000000000000000000602082015250565b7f4f776e61626c653a206e6577206f776e657220697320746865207a65726f206160008201527f6464726573730000000000000000000000000000000000000000000000000000602082015250565b7f46756e6374696f6e206d7573742062652063616c6c6564207468726f7567682060008201527f64656c656761746563616c6c0000000000000000000000000000000000000000602082015250565b7f46756e6374696f6e206d7573742062652063616c6c6564207468726f7567682060008201527f6163746976652070726f78790000000000000000000000000000000000000000602082015250565b7f496e697469616c697a61626c653a20636f6e747261637420697320616c72656160008201527f647920696e697469616c697a6564000000000000000000000000000000000000602082015250565b7f455243313936373a206e657720696d706c656d656e746174696f6e206973206e60008201527f6f74206120636f6e747261637400000000000000000000000000000000000000602082015250565b7f4f776e61626c653a2063616c6c6572206973206e6f7420746865206f776e6572600082015250565b7f416464726573733a2064656c65676174652063616c6c20746f206e6f6e2d636f60008201527f6e74726163740000000000000000000000000000000000000000000000000000602082015250565b6117d88161148e565b81146117e357600080fd5b5056fe416464726573733a206c6f772d6c6576656c2064656c65676174652063616c6c206661696c6564a2646970667358221220ffe82d5e173fb0e9429d4a4e634b36b08cc77e069088cd05e68937cdc297ac7e64736f6c63430008020033",
  "linkReferences": {},
  "deployedLinkReferences": {}
}