{
  "_format": "hh-sol-artifact-1",
  "contractName": "MasterChef",
  "sourceName": "contracts/MasterChef.sol",
  "abi": [
    {
      "anonymous": false,
      "inputs": [
        {
          "indexed": false,
          "internalType": "address",
          "name": "previousAdmin",
          "type": "address"
        },
        {
          "indexed": false,
          "internalType": "address",
          "name": "newAdmin",
          "type": "address"
        }
      ],
      "name": "AdminChanged",
      "type": "event"
    },
    {
      "anonymous": false,
      "inputs": [
        {
          "indexed": true,
          "internalType": "address",
          "name": "beacon",
          "type": "address"
        }
      ],
      "name": "BeaconUpgraded",
      "type": "event"
    },
    {
      "anonymous": false,
      "inputs": [
        {
          "indexed": true,
          "internalType": "address",
          "name": "user",
          "type": "address"
        },
        {
          "indexed": true,
          "internalType": "uint256",
          "name": "pid",
          "type": "uint256"
        },
        {
          "indexed": false,
          "internalType": "uint256",
          "name": "amount",
          "type": "uint256"
        },
        {
          "indexed": false,
          "internalType": "uint256",
          "name": "timestamp",
          "type": "uint256"
        }
      ],
      "name": "Deposit",
      "type": "event"
    },
    {
      "anonymous": false,
      "inputs": [
        {
          "indexed": true,
          "internalType": "address",
          "name": "user",
          "type": "address"
        },
        {
          "indexed": true,
          "internalType": "uint256",
          "name": "pid",
          "type": "uint256"
        },
        {
          "indexed": false,
          "internalType": "uint256",
          "name": "amount",
          "type": "uint256"
        }
      ],
      "name": "EmergencyWithdraw",
      "type": "event"
    },
    {
      "anonymous": false,
      "inputs": [
        {
          "indexed": true,
          "internalType": "address",
          "name": "previousOwner",
          "type": "address"
        },
        {
          "indexed": true,
          "internalType": "address",
          "name": "newOwner",
          "type": "address"
        }
      ],
      "name": "OwnershipTransferred",
      "type": "event"
    },
    {
      "anonymous": false,
      "inputs": [
        {
          "indexed": true,
          "internalType": "address",
          "name": "implementation",
          "type": "address"
        }
      ],
      "name": "Upgraded",
      "type": "event"
    },
    {
      "anonymous": false,
      "inputs": [
        {
          "indexed": true,
          "internalType": "address",
          "name": "user",
          "type": "address"
        },
        {
          "indexed": true,
          "internalType": "uint256",
          "name": "pid",
          "type": "uint256"
        },
        {
          "indexed": false,
          "internalType": "uint256",
          "name": "amount",
          "type": "uint256"
        }
      ],
      "name": "Withdraw",
      "type": "event"
    },
    {
      "inputs": [],
      "name": "BONUS_MULTIPLIER",
      "outputs": [
        {
          "internalType": "uint256",
          "name": "",
          "type": "uint256"
        }
      ],
      "stateMutability": "view",
      "type": "function"
    },
    {
      "inputs": [
        {
          "internalType": "uint256",
          "name": "_allocPoint",
          "type": "uint256"
        },
        {
          "internalType": "contract IERC20Upgradeable",
          "name": "_lpToken",
          "type": "address"
        },
        {
          "internalType": "bool",
          "name": "_withUpdate",
          "type": "bool"
        }
      ],
      "name": "add",
      "outputs": [],
      "stateMutability": "nonpayable",
      "type": "function"
    },
    {
      "inputs": [
        {
          "internalType": "address",
          "name": "",
          "type": "address"
        }
      ],
      "name": "addedAddress",
      "outputs": [
        {
          "internalType": "bool",
          "name": "",
          "type": "bool"
        }
      ],
      "stateMutability": "view",
      "type": "function"
    },
    {
      "inputs": [
        {
          "internalType": "uint256",
          "name": "_pid",
          "type": "uint256"
        },
        {
          "internalType": "uint256",
          "name": "_amount",
          "type": "uint256"
        }
      ],
      "name": "deposit",
      "outputs": [],
      "stateMutability": "nonpayable",
      "type": "function"
    },
    {
      "inputs": [
        {
          "internalType": "address",
          "name": "_devaddr",
          "type": "address"
        }
      ],
      "name": "dev",
      "outputs": [],
      "stateMutability": "nonpayable",
      "type": "function"
    },
    {
      "inputs": [],
      "name": "devaddr",
      "outputs": [
        {
          "internalType": "address",
          "name": "",
          "type": "address"
        }
      ],
      "stateMutability": "view",
      "type": "function"
    },
    {
      "inputs": [
        {
          "internalType": "uint256",
          "name": "_pid",
          "type": "uint256"
        }
      ],
      "name": "emergencyWithdraw",
      "outputs": [],
      "stateMutability": "nonpayable",
      "type": "function"
    },
    {
      "inputs": [
        {
          "internalType": "uint256",
          "name": "_from",
          "type": "uint256"
        },
        {
          "internalType": "uint256",
          "name": "_to",
          "type": "uint256"
        }
      ],
      "name": "getMultiplier",
      "outputs": [
        {
          "internalType": "uint256",
          "name": "",
          "type": "uint256"
        }
      ],
      "stateMutability": "view",
      "type": "function"
    },
    {
      "inputs": [],
      "name": "howl",
      "outputs": [
        {
          "internalType": "contract IERC20Upgradeable",
          "name": "",
          "type": "address"
        }
      ],
      "stateMutability": "view",
      "type": "function"
    },
    {
      "inputs": [],
      "name": "howlPerBlock",
      "outputs": [
        {
          "internalType": "uint256",
          "name": "",
          "type": "uint256"
        }
      ],
      "stateMutability": "view",
      "type": "function"
    },
    {
      "inputs": [
        {
          "internalType": "address",
          "name": "_howl",
          "type": "address"
        },
        {
          "internalType": "address",
          "name": "_devaddr",
          "type": "address"
        },
        {
          "internalType": "uint256",
          "name": "_howlPerBlock",
          "type": "uint256"
        },
        {
          "internalType": "uint256",
          "name": "_startBlock",
          "type": "uint256"
        }
      ],
      "name": "initialize",
      "outputs": [],
      "stateMutability": "nonpayable",
      "type": "function"
    },
    {
      "inputs": [],
      "name": "lockTime",
      "outputs": [
        {
          "internalType": "uint256",
          "name": "",
          "type": "uint256"
        }
      ],
      "stateMutability": "view",
      "type": "function"
    },
    {
      "inputs": [],
      "name": "massUpdatePools",
      "outputs": [],
      "stateMutability": "nonpayable",
      "type": "function"
    },
    {
      "inputs": [],
      "name": "minter",
      "outputs": [
        {
          "internalType": "address",
          "name": "",
          "type": "address"
        }
      ],
      "stateMutability": "view",
      "type": "function"
    },
    {
      "inputs": [],
      "name": "owner",
      "outputs": [
        {
          "internalType": "address",
          "name": "",
          "type": "address"
        }
      ],
      "stateMutability": "view",
      "type": "function"
    },
    {
      "inputs": [
        {
          "internalType": "uint256",
          "name": "_pid",
          "type": "uint256"
        },
        {
          "internalType": "address",
          "name": "_user",
          "type": "address"
        }
      ],
      "name": "pendingHowl",
      "outputs": [
        {
          "internalType": "uint256",
          "name": "",
          "type": "uint256"
        }
      ],
      "stateMutability": "view",
      "type": "function"
    },
    {
      "inputs": [
        {
          "internalType": "uint256",
          "name": "",
          "type": "uint256"
        }
      ],
      "name": "poolInfo",
      "outputs": [
        {
          "internalType": "contract IERC20Upgradeable",
          "name": "lpToken",
          "type": "address"
        },
        {
          "internalType": "uint256",
          "name": "allocPoint",
          "type": "uint256"
        },
        {
          "internalType": "uint256",
          "name": "lastRewardBlock",
          "type": "uint256"
        },
        {
          "internalType": "uint256",
          "name": "accHowlPerShare",
          "type": "uint256"
        }
      ],
      "stateMutability": "view",
      "type": "function"
    },
    {
      "inputs": [],
      "name": "poolLength",
      "outputs": [
        {
          "internalType": "uint256",
          "name": "",
          "type": "uint256"
        }
      ],
      "stateMutability": "view",
      "type": "function"
    },
    {
      "inputs": [],
      "name": "renounceOwnership",
      "outputs": [],
      "stateMutability": "nonpayable",
      "type": "function"
    },
    {
      "inputs": [
        {
          "internalType": "uint256",
          "name": "_pid",
          "type": "uint256"
        },
        {
          "internalType": "uint256",
          "name": "_allocPoint",
          "type": "uint256"
        },
        {
          "internalType": "bool",
          "name": "_withUpdate",
          "type": "bool"
        }
      ],
      "name": "set",
      "outputs": [],
      "stateMutability": "nonpayable",
      "type": "function"
    },
    {
      "inputs": [
        {
          "internalType": "uint256",
          "name": "_howlPerBlock",
          "type": "uint256"
        }
      ],
      "name": "setHowlPerBlock",
      "outputs": [],
      "stateMutability": "nonpayable",
      "type": "function"
    },
    {
      "inputs": [
        {
          "internalType": "uint256",
          "name": "_lockTime",
          "type": "uint256"
        }
      ],
      "name": "setLockTime",
      "outputs": [],
      "stateMutability": "nonpayable",
      "type": "function"
    },
    {
      "inputs": [
        {
          "internalType": "address",
          "name": "_minter",
          "type": "address"
        }
      ],
      "name": "setMinter",
      "outputs": [],
      "stateMutability": "nonpayable",
      "type": "function"
    },
    {
      "inputs": [],
      "name": "startBlock",
      "outputs": [
        {
          "internalType": "uint256",
          "name": "",
          "type": "uint256"
        }
      ],
      "stateMutability": "view",
      "type": "function"
    },
    {
      "inputs": [],
      "name": "totalAllocPoint",
      "outputs": [
        {
          "internalType": "uint256",
          "name": "",
          "type": "uint256"
        }
      ],
      "stateMutability": "view",
      "type": "function"
    },
    {
      "inputs": [],
      "name": "totalStakedHWL",
      "outputs": [
        {
          "internalType": "uint256",
          "name": "",
          "type": "uint256"
        }
      ],
      "stateMutability": "view",
      "type": "function"
    },
    {
      "inputs": [
        {
          "internalType": "address",
          "name": "newOwner",
          "type": "address"
        }
      ],
      "name": "transferOwnership",
      "outputs": [],
      "stateMutability": "nonpayable",
      "type": "function"
    },
    {
      "inputs": [
        {
          "internalType": "uint256",
          "name": "multiplierNumber",
          "type": "uint256"
        }
      ],
      "name": "updateMultiplier",
      "outputs": [],
      "stateMutability": "nonpayable",
      "type": "function"
    },
    {
      "inputs": [
        {
          "internalType": "uint256",
          "name": "_pid",
          "type": "uint256"
        }
      ],
      "name": "updatePool",
      "outputs": [],
      "stateMutability": "nonpayable",
      "type": "function"
    },
    {
      "inputs": [
        {
          "internalType": "address",
          "name": "newImplementation",
          "type": "address"
        }
      ],
      "name": "upgradeTo",
      "outputs": [],
      "stateMutability": "nonpayable",
      "type": "function"
    },
    {
      "inputs": [
        {
          "internalType": "address",
          "name": "newImplementation",
          "type": "address"
        },
        {
          "internalType": "bytes",
          "name": "data",
          "type": "bytes"
        }
      ],
      "name": "upgradeToAndCall",
      "outputs": [],
      "stateMutability": "payable",
      "type": "function"
    },
    {
      "inputs": [
        {
          "internalType": "uint256",
          "name": "",
          "type": "uint256"
        },
        {
          "internalType": "address",
          "name": "",
          "type": "address"
        }
      ],
      "name": "userInfo",
      "outputs": [
        {
          "internalType": "uint256",
          "name": "amount",
          "type": "uint256"
        },
        {
          "internalType": "uint256",
          "name": "rewardDebt",
          "type": "uint256"
        },
        {
          "internalType": "uint256",
          "name": "lastDepositTimestamp",
          "type": "uint256"
        }
      ],
      "stateMutability": "view",
      "type": "function"
    },
    {
      "inputs": [
        {
          "internalType": "uint256",
          "name": "_pid",
          "type": "uint256"
        },
        {
          "internalType": "uint256",
          "name": "_amount",
          "type": "uint256"
        }
      ],
      "name": "withdraw",
      "outputs": [],
      "stateMutability": "nonpayable",
      "type": "function"
    }
  ],
  "bytecode": "0x60a06040523073ffffffffffffffffffffffffffffffffffffffff1660809073ffffffffffffffffffffffffffffffffffffffff1660601b81525034801561004657600080fd5b5060805160601c61441161007a60003960008181610aa901528181610b3801528181610f360152610fc501526144116000f3fe6080604052600436106101ee5760003560e01c80636803c78d1161010d578063a5b2ca6b116100a0578063d49e77cd1161006f578063d49e77cd146106bb578063e2bbb158146106e6578063eb990c591461070f578063f2fde38b14610738578063fca3b5aa14610761576101ee565b8063a5b2ca6b146105ef578063ae04d45d14610618578063c7cbb70e14610641578063d3cfc55b1461067e576101ee565b80638d88a90e116100dc5780638d88a90e1461051f5780638da5cb5b146105485780638dbb1e3a1461057357806393f1a40b146105b0576101ee565b80636803c78d14610487578063715018a6146104b25780638650d1db146104c95780638aa28550146104f4576101ee565b8063441a3e70116101855780635312ea8e116101545780635312ea8e146103f55780635ffe61461461041e578063630b5ba11461044757806364482f791461045e576101ee565b8063441a3e701461035c57806348cd4cb1146103855780634f1ef286146103b057806351eb05a6146103cc576101ee565b80631526fe27116101c15780631526fe271461029f57806317caf6f1146102df5780631eaaa0451461030a5780633659cfe614610333576101ee565b806305e5fd9c146101f3578063075461721461021e578063081e3eda146102495780630d66808714610274575b600080fd5b3480156101ff57600080fd5b5061020861078a565b6040516102159190613b10565b60405180910390f35b34801561022a57600080fd5b50610233610790565b60405161024091906137f8565b60405180910390f35b34801561025557600080fd5b5061025e6107b6565b60405161026b9190613b10565b60405180910390f35b34801561028057600080fd5b506102896107c3565b6040516102969190613b10565b60405180910390f35b3480156102ab57600080fd5b506102c660048036038101906102c191906133a3565b6107c9565b6040516102d694939291906138a9565b60405180910390f35b3480156102eb57600080fd5b506102f4610829565b6040516103019190613b10565b60405180910390f35b34801561031657600080fd5b50610331600480360381019061032c9190613431565b61082f565b005b34801561033f57600080fd5b5061035a6004803603810190610355919061329a565b610aa7565b005b34801561036857600080fd5b50610383600480360381019061037e9190613480565b610c56565b005b34801561039157600080fd5b5061039a610f2e565b6040516103a79190613b10565b60405180910390f35b6103ca60048036038101906103c59190613326565b610f34565b005b3480156103d857600080fd5b506103f360048036038101906103ee91906133a3565b611071565b005b34801561040157600080fd5b5061041c600480360381019061041791906133a3565b6112c7565b005b34801561042a57600080fd5b50610445600480360381019061044091906133a3565b61144f565b005b34801561045357600080fd5b5061045c6114d5565b005b34801561046a57600080fd5b50610485600480360381019061048091906134bc565b611508565b005b34801561049357600080fd5b5061049c61166e565b6040516104a9919061388e565b60405180910390f35b3480156104be57600080fd5b506104c7611694565b005b3480156104d557600080fd5b506104de61171c565b6040516104eb9190613b10565b60405180910390f35b34801561050057600080fd5b50610509611722565b6040516105169190613b10565b60405180910390f35b34801561052b57600080fd5b506105466004803603810190610541919061329a565b611728565b005b34801561055457600080fd5b5061055d6117fc565b60405161056a91906137f8565b60405180910390f35b34801561057f57600080fd5b5061059a60048036038101906105959190613480565b611826565b6040516105a79190613b10565b60405180910390f35b3480156105bc57600080fd5b506105d760048036038101906105d291906133f5565b611857565b6040516105e693929190613b54565b60405180910390f35b3480156105fb57600080fd5b50610616600480360381019061061191906133a3565b61188e565b005b34801561062457600080fd5b5061063f600480360381019061063a91906133a3565b611957565b005b34801561064d57600080fd5b506106686004803603810190610663919061329a565b6119dd565b6040516106759190613873565b60405180910390f35b34801561068a57600080fd5b506106a560048036038101906106a091906133f5565b6119fd565b6040516106b29190613b10565b60405180910390f35b3480156106c757600080fd5b506106d0611c67565b6040516106dd91906137f8565b60405180910390f35b3480156106f257600080fd5b5061070d60048036038101906107089190613480565b611c8d565b005b34801561071b57600080fd5b50610736600480360381019061073191906132c3565b611ee2565b005b34801561074457600080fd5b5061075f600480360381019061075a919061329a565b6121e6565b005b34801561076d57600080fd5b506107886004803603810190610783919061329a565b6122de565b005b60cb5481565b60ce60009054906101000a900473ffffffffffffffffffffffffffffffffffffffff1681565b600060d180549050905090565b60cd5481565b60d181815481106107d957600080fd5b90600052602060002090600402016000915090508060000160009054906101000a900473ffffffffffffffffffffffffffffffffffffffff16908060010154908060020154908060030154905084565b60d35481565b61083761239e565b73ffffffffffffffffffffffffffffffffffffffff166108556117fc565b73ffffffffffffffffffffffffffffffffffffffff16146108ab576040517f08c379a00000000000000000000000000000000000000000000000000000000081526004016108a290613a50565b60405180910390fd5b6000151560d060008473ffffffffffffffffffffffffffffffffffffffff1673ffffffffffffffffffffffffffffffffffffffff16815260200190815260200160002060009054906101000a900460ff1615151461093e576040517f08c379a000000000000000000000000000000000000000000000000000000000815260040161093590613970565b60405180910390fd5b801561094d5761094c6114d5565b5b600060d45443116109605760d454610962565b435b90506109798460d3546123a690919063ffffffff16565b60d38190555060d160405180608001604052808573ffffffffffffffffffffffffffffffffffffffff1681526020018681526020018381526020016000815250908060018154018082558091505060019003906000526020600020906004020160009091909190915060008201518160000160006101000a81548173ffffffffffffffffffffffffffffffffffffffff021916908373ffffffffffffffffffffffffffffffffffffffff1602179055506020820151816001015560408201518160020155606082015181600301555050600160d060008573ffffffffffffffffffffffffffffffffffffffff1673ffffffffffffffffffffffffffffffffffffffff16815260200190815260200160002060006101000a81548160ff02191690831515021790555050505050565b7f000000000000000000000000000000000000000000000000000000000000000073ffffffffffffffffffffffffffffffffffffffff163073ffffffffffffffffffffffffffffffffffffffff161415610b36576040517f08c379a0000000000000000000000000000000000000000000000000000000008152600401610b2d90613950565b60405180910390fd5b7f000000000000000000000000000000000000000000000000000000000000000073ffffffffffffffffffffffffffffffffffffffff16610b756123bc565b73ffffffffffffffffffffffffffffffffffffffff1614610bcb576040517f08c379a0000000000000000000000000000000000000000000000000000000008152600401610bc290613990565b60405180910390fd5b610bd481612413565b610c5381600067ffffffffffffffff811115610c19577f4e487b7100000000000000000000000000000000000000000000000000000000600052604160045260246000fd5b6040519080825280601f01601f191660200182016040528015610c4b5781602001600182028036833780820191505090505b506000612492565b50565b600060d18381548110610c92577f4e487b7100000000000000000000000000000000000000000000000000000000600052603260045260246000fd5b90600052602060002090600402019050600060d2600085815260200190815260200160002060003373ffffffffffffffffffffffffffffffffffffffff1673ffffffffffffffffffffffffffffffffffffffff168152602001908152602001600020905042610d1060cd5483600201546123a690919063ffffffff16565b1115610d51576040517f08c379a0000000000000000000000000000000000000000000000000000000008152600401610d4890613af0565b60405180910390fd5b8281600001541015610d98576040517f08c379a0000000000000000000000000000000000000000000000000000000008152600401610d8f90613ab0565b60405180910390fd5b610da184611071565b6000610deb8260010154610ddd64e8d4a51000610dcf8760030154876000015461266390919063ffffffff16565b61267990919063ffffffff16565b61268f90919063ffffffff16565b90506000811115610e0157610e0033826126a5565b5b6000841115610e9e576000851415610e2f57610e288460cf5461268f90919063ffffffff16565b60cf819055505b610e4684836000015461268f90919063ffffffff16565b8260000181905550610e9d33858560000160009054906101000a900473ffffffffffffffffffffffffffffffffffffffff1673ffffffffffffffffffffffffffffffffffffffff166128c79092919063ffffffff16565b5b610ed064e8d4a51000610ec28560030154856000015461266390919063ffffffff16565b61267990919063ffffffff16565b8260010181905550843373ffffffffffffffffffffffffffffffffffffffff167ff279e6a1f5e320cca91135676d9cb6e44ca8a08c0b88342bcdb1144f6511b56886604051610f1f9190613b10565b60405180910390a35050505050565b60d45481565b7f000000000000000000000000000000000000000000000000000000000000000073ffffffffffffffffffffffffffffffffffffffff163073ffffffffffffffffffffffffffffffffffffffff161415610fc3576040517f08c379a0000000000000000000000000000000000000000000000000000000008152600401610fba90613950565b60405180910390fd5b7f000000000000000000000000000000000000000000000000000000000000000073ffffffffffffffffffffffffffffffffffffffff166110026123bc565b73ffffffffffffffffffffffffffffffffffffffff1614611058576040517f08c379a000000000000000000000000000000000000000000000000000000000815260040161104f90613990565b60405180910390fd5b61106182612413565b61106d82826001612492565b5050565b600060d182815481106110ad577f4e487b7100000000000000000000000000000000000000000000000000000000600052603260045260246000fd5b90600052602060002090600402019050806002015443116110ce57506112c4565b6000808314611189578160000160009054906101000a900473ffffffffffffffffffffffffffffffffffffffff1673ffffffffffffffffffffffffffffffffffffffff166370a08231306040518263ffffffff1660e01b815260040161113491906137f8565b60206040518083038186803b15801561114c57600080fd5b505afa158015611160573d6000803e3d6000fd5b505050506040513d601f19601f8201168201806040525081019061118491906133cc565b61118d565b60cf545b905060008114156111a85743826002018190555050506112c4565b60006111b8836002015443611826565b905060006111fb60d3546111ed86600101546111df60cb548761266390919063ffffffff16565b61266390919063ffffffff16565b61267990919063ffffffff16565b905061126e60ce60009054906101000a900473ffffffffffffffffffffffffffffffffffffffff16308360c960009054906101000a900473ffffffffffffffffffffffffffffffffffffffff1673ffffffffffffffffffffffffffffffffffffffff1661294d909392919063ffffffff16565b6112ae61129b8461128d64e8d4a510008561266390919063ffffffff16565b61267990919063ffffffff16565b85600301546123a690919063ffffffff16565b8460030181905550438460020181905550505050505b50565b600060d18281548110611303577f4e487b7100000000000000000000000000000000000000000000000000000000600052603260045260246000fd5b90600052602060002090600402019050600060d2600084815260200190815260200160002060003373ffffffffffffffffffffffffffffffffffffffff1673ffffffffffffffffffffffffffffffffffffffff1681526020019081526020016000209050600083141561139057611389816000015460cf5461268f90919063ffffffff16565b60cf819055505b6113e33382600001548460000160009054906101000a900473ffffffffffffffffffffffffffffffffffffffff1673ffffffffffffffffffffffffffffffffffffffff166128c79092919063ffffffff16565b823373ffffffffffffffffffffffffffffffffffffffff167fbb757047c2b5f3974fe26b7c10f732e7bce710b0952a71082702781e62ae0595836000015460405161142e9190613b10565b60405180910390a36000816000018190555060008160010181905550505050565b61145761239e565b73ffffffffffffffffffffffffffffffffffffffff166114756117fc565b73ffffffffffffffffffffffffffffffffffffffff16146114cb576040517f08c379a00000000000000000000000000000000000000000000000000000000081526004016114c290613a50565b60405180910390fd5b8060cc8190555050565b600060d180549050905060005b81811015611504576114f381611071565b806114fd90613e19565b90506114e2565b5050565b61151061239e565b73ffffffffffffffffffffffffffffffffffffffff1661152e6117fc565b73ffffffffffffffffffffffffffffffffffffffff1614611584576040517f08c379a000000000000000000000000000000000000000000000000000000000815260040161157b90613a50565b60405180910390fd5b8015611593576115926114d5565b5b600060d184815481106115cf577f4e487b7100000000000000000000000000000000000000000000000000000000600052603260045260246000fd5b90600052602060002090600402016001015490508260d1858154811061161e577f4e487b7100000000000000000000000000000000000000000000000000000000600052603260045260246000fd5b90600052602060002090600402016001018190555082811461166857611661836116538360d35461268f90919063ffffffff16565b6123a690919063ffffffff16565b60d3819055505b50505050565b60c960009054906101000a900473ffffffffffffffffffffffffffffffffffffffff1681565b61169c61239e565b73ffffffffffffffffffffffffffffffffffffffff166116ba6117fc565b73ffffffffffffffffffffffffffffffffffffffff1614611710576040517f08c379a000000000000000000000000000000000000000000000000000000000815260040161170790613a50565b60405180910390fd5b61171a60006129d6565b565b60cf5481565b60cc5481565b60ca60009054906101000a900473ffffffffffffffffffffffffffffffffffffffff1673ffffffffffffffffffffffffffffffffffffffff163373ffffffffffffffffffffffffffffffffffffffff16146117b8576040517f08c379a00000000000000000000000000000000000000000000000000000000081526004016117af906139f0565b60405180910390fd5b8060ca60006101000a81548173ffffffffffffffffffffffffffffffffffffffff021916908373ffffffffffffffffffffffffffffffffffffffff16021790555050565b6000609760009054906101000a900473ffffffffffffffffffffffffffffffffffffffff16905090565b600061184f60cc54611841858561268f90919063ffffffff16565b61266390919063ffffffff16565b905092915050565b60d2602052816000526040600020602052806000526040600020600091509150508060000154908060010154908060020154905083565b61189661239e565b73ffffffffffffffffffffffffffffffffffffffff166118b46117fc565b73ffffffffffffffffffffffffffffffffffffffff161461190a576040517f08c379a000000000000000000000000000000000000000000000000000000000815260040161190190613a50565b60405180910390fd5b6000811161194d576040517f08c379a000000000000000000000000000000000000000000000000000000000815260040161194490613a10565b60405180910390fd5b8060cb8190555050565b61195f61239e565b73ffffffffffffffffffffffffffffffffffffffff1661197d6117fc565b73ffffffffffffffffffffffffffffffffffffffff16146119d3576040517f08c379a00000000000000000000000000000000000000000000000000000000081526004016119ca90613a50565b60405180910390fd5b8060cd8190555050565b60d06020528060005260406000206000915054906101000a900460ff1681565b60008060d18481548110611a3a577f4e487b7100000000000000000000000000000000000000000000000000000000600052603260045260246000fd5b90600052602060002090600402019050600060d2600086815260200190815260200160002060008573ffffffffffffffffffffffffffffffffffffffff1673ffffffffffffffffffffffffffffffffffffffff16815260200190815260200160002090506000826003015490506000808714611b62578360000160009054906101000a900473ffffffffffffffffffffffffffffffffffffffff1673ffffffffffffffffffffffffffffffffffffffff166370a08231306040518263ffffffff1660e01b8152600401611b0d91906137f8565b60206040518083038186803b158015611b2557600080fd5b505afa158015611b39573d6000803e3d6000fd5b505050506040513d601f19601f82011682018060405250810190611b5d91906133cc565b611b66565b60cf545b9050836002015443118015611b7c575060008114155b15611c17576000611b91856002015443611826565b90506000611bd460d354611bc68860010154611bb860cb548761266390919063ffffffff16565b61266390919063ffffffff16565b61267990919063ffffffff16565b9050611c12611c0384611bf564e8d4a510008561266390919063ffffffff16565b61267990919063ffffffff16565b856123a690919063ffffffff16565b935050505b611c5b8360010154611c4d64e8d4a51000611c3f86886000015461266390919063ffffffff16565b61267990919063ffffffff16565b61268f90919063ffffffff16565b94505050505092915050565b60ca60009054906101000a900473ffffffffffffffffffffffffffffffffffffffff1681565b600060d18381548110611cc9577f4e487b7100000000000000000000000000000000000000000000000000000000600052603260045260246000fd5b90600052602060002090600402019050600060d2600085815260200190815260200160002060003373ffffffffffffffffffffffffffffffffffffffff1673ffffffffffffffffffffffffffffffffffffffff1681526020019081526020016000209050611d3684611071565b600081600001541115611da5576000611d8d8260010154611d7f64e8d4a51000611d718760030154876000015461266390919063ffffffff16565b61267990919063ffffffff16565b61268f90919063ffffffff16565b90506000811115611da357611da233826126a5565b5b505b6000831115611e4457611dff3330858560000160009054906101000a900473ffffffffffffffffffffffffffffffffffffffff1673ffffffffffffffffffffffffffffffffffffffff1661294d909392919063ffffffff16565b6000841415611e2457611e1d8360cf546123a690919063ffffffff16565b60cf819055505b611e3b8382600001546123a690919063ffffffff16565b81600001819055505b611e7664e8d4a51000611e688460030154846000015461266390919063ffffffff16565b61267990919063ffffffff16565b8160010181905550428160020181905550833373ffffffffffffffffffffffffffffffffffffffff167f36af321ec8d3c75236829c5317affd40ddb308863a1236d2d277a4025cccee1e858460020154604051611ed4929190613b2b565b60405180910390a350505050565b600060019054906101000a900460ff1680611f08575060008054906101000a900460ff16155b611f47576040517f08c379a0000000000000000000000000000000000000000000000000000000008152600401611f3e906139d0565b60405180910390fd5b60008060019054906101000a900460ff161590508015611f97576001600060016101000a81548160ff02191690831515021790555060016000806101000a81548160ff0219169083151502179055505b611f9f612a9c565b8460c960006101000a81548173ffffffffffffffffffffffffffffffffffffffff021916908373ffffffffffffffffffffffffffffffffffffffff1602179055508360ca60006101000a81548173ffffffffffffffffffffffffffffffffffffffff021916908373ffffffffffffffffffffffffffffffffffffffff1602179055508260cb819055508160d481905550600160cc819055506276a70060cd81905550600060d3819055506120516117fc565b60ce60006101000a81548173ffffffffffffffffffffffffffffffffffffffff021916908373ffffffffffffffffffffffffffffffffffffffff16021790555060d160405180608001604052808773ffffffffffffffffffffffffffffffffffffffff1681526020016103e881526020018481526020016000815250908060018154018082558091505060019003906000526020600020906004020160009091909190915060008201518160000160006101000a81548173ffffffffffffffffffffffffffffffffffffffff021916908373ffffffffffffffffffffffffffffffffffffffff16021790555060208201518160010155604082015181600201556060820151816003015550506103e860d381905550600160d060008773ffffffffffffffffffffffffffffffffffffffff1673ffffffffffffffffffffffffffffffffffffffff16815260200190815260200160002060006101000a81548160ff02191690831515021790555080156121df5760008060016101000a81548160ff0219169083151502179055505b5050505050565b6121ee61239e565b73ffffffffffffffffffffffffffffffffffffffff1661220c6117fc565b73ffffffffffffffffffffffffffffffffffffffff1614612262576040517f08c379a000000000000000000000000000000000000000000000000000000000815260040161225990613a50565b60405180910390fd5b600073ffffffffffffffffffffffffffffffffffffffff168173ffffffffffffffffffffffffffffffffffffffff1614156122d2576040517f08c379a00000000000000000000000000000000000000000000000000000000081526004016122c990613930565b60405180910390fd5b6122db816129d6565b50565b6122e661239e565b73ffffffffffffffffffffffffffffffffffffffff166123046117fc565b73ffffffffffffffffffffffffffffffffffffffff161461235a576040517f08c379a000000000000000000000000000000000000000000000000000000000815260040161235190613a50565b60405180910390fd5b8060ce60006101000a81548173ffffffffffffffffffffffffffffffffffffffff021916908373ffffffffffffffffffffffffffffffffffffffff16021790555050565b600033905090565b600081836123b49190613c13565b905092915050565b60006123ea7f360894a13ba1a3210667c828492db98dca3e2076cc3735a920a3ca505d382bbc60001b612b85565b60000160009054906101000a900473ffffffffffffffffffffffffffffffffffffffff16905090565b61241b61239e565b73ffffffffffffffffffffffffffffffffffffffff166124396117fc565b73ffffffffffffffffffffffffffffffffffffffff161461248f576040517f08c379a000000000000000000000000000000000000000000000000000000000815260040161248690613a50565b60405180910390fd5b50565b600061249c6123bc565b90506124a784612b8f565b6000835111806124b45750815b156124c5576124c38484612c48565b505b60006124f37f4910fdfa16fed3260ed0e7147f7cc6da11a60208b5b9406d12a635614ffd914360001b612d2c565b90508060000160009054906101000a900460ff1661265c5760018160000160006101000a81548160ff0219169083151502179055506125bf858360405160240161253d91906137f8565b6040516020818303038152906040527f3659cfe6000000000000000000000000000000000000000000000000000000007bffffffffffffffffffffffffffffffffffffffffffffffffffffffff19166020820180517bffffffffffffffffffffffffffffffffffffffffffffffffffffffff8381831617835250505050612c48565b5060008160000160006101000a81548160ff0219169083151502179055506125e56123bc565b73ffffffffffffffffffffffffffffffffffffffff168273ffffffffffffffffffffffffffffffffffffffff1614612652576040517f08c379a000000000000000000000000000000000000000000000000000000000815260040161264990613910565b60405180910390fd5b61265b85612d36565b5b5050505050565b600081836126719190613c9a565b905092915050565b600081836126879190613c69565b905092915050565b6000818361269d9190613cf4565b905092915050565b600060c960009054906101000a900473ffffffffffffffffffffffffffffffffffffffff1673ffffffffffffffffffffffffffffffffffffffff166370a08231306040518263ffffffff1660e01b815260040161270291906137f8565b60206040518083038186803b15801561271a57600080fd5b505afa15801561272e573d6000803e3d6000fd5b505050506040513d601f19601f8201168201806040525081019061275291906133cc565b9050808211156128115760c960009054906101000a900473ffffffffffffffffffffffffffffffffffffffff1673ffffffffffffffffffffffffffffffffffffffff1663a9059cbb84836040518363ffffffff1660e01b81526004016127b992919061384a565b602060405180830381600087803b1580156127d357600080fd5b505af11580156127e7573d6000803e3d6000fd5b505050506040513d601f19601f8201168201806040525081019061280b919061337a565b506128c2565b60c960009054906101000a900473ffffffffffffffffffffffffffffffffffffffff1673ffffffffffffffffffffffffffffffffffffffff1663a9059cbb84846040518363ffffffff1660e01b815260040161286e92919061384a565b602060405180830381600087803b15801561288857600080fd5b505af115801561289c573d6000803e3d6000fd5b505050506040513d601f19601f820116820180604052508101906128c0919061337a565b505b505050565b6129488363a9059cbb60e01b84846040516024016128e692919061384a565b604051602081830303815290604052907bffffffffffffffffffffffffffffffffffffffffffffffffffffffff19166020820180517bffffffffffffffffffffffffffffffffffffffffffffffffffffffff8381831617835250505050612d85565b505050565b6129d0846323b872dd60e01b85858560405160240161296e93929190613813565b604051602081830303815290604052907bffffffffffffffffffffffffffffffffffffffffffffffffffffffff19166020820180517bffffffffffffffffffffffffffffffffffffffffffffffffffffffff8381831617835250505050612d85565b50505050565b6000609760009054906101000a900473ffffffffffffffffffffffffffffffffffffffff16905081609760006101000a81548173ffffffffffffffffffffffffffffffffffffffff021916908373ffffffffffffffffffffffffffffffffffffffff1602179055508173ffffffffffffffffffffffffffffffffffffffff168173ffffffffffffffffffffffffffffffffffffffff167f8be0079c531659141344cd1fd0a4f28419497f9722a3daafe3b4186f6b6457e060405160405180910390a35050565b600060019054906101000a900460ff1680612ac2575060008054906101000a900460ff16155b612b01576040517f08c379a0000000000000000000000000000000000000000000000000000000008152600401612af8906139d0565b60405180910390fd5b60008060019054906101000a900460ff161590508015612b51576001600060016101000a81548160ff02191690831515021790555060016000806101000a81548160ff0219169083151502179055505b612b59612e4c565b612b61612f25565b8015612b825760008060016101000a81548160ff0219169083151502179055505b50565b6000819050919050565b612b988161300e565b612bd7576040517f08c379a0000000000000000000000000000000000000000000000000000000008152600401612bce90613a30565b60405180910390fd5b80612c047f360894a13ba1a3210667c828492db98dca3e2076cc3735a920a3ca505d382bbc60001b612b85565b60000160006101000a81548173ffffffffffffffffffffffffffffffffffffffff021916908373ffffffffffffffffffffffffffffffffffffffff16021790555050565b6060612c538361300e565b612c92576040517f08c379a0000000000000000000000000000000000000000000000000000000008152600401612c8990613a70565b60405180910390fd5b6000808473ffffffffffffffffffffffffffffffffffffffff1684604051612cba91906137e1565b600060405180830381855af49150503d8060008114612cf5576040519150601f19603f3d011682016040523d82523d6000602084013e612cfa565b606091505b5091509150612d2282826040518060600160405280602781526020016143b560279139613021565b9250505092915050565b6000819050919050565b612d3f81612b8f565b8073ffffffffffffffffffffffffffffffffffffffff167fbc7cd75a20ee27fd9adebab32041f755214dbc6bffa90cc0225b39da2e5c2d3b60405160405180910390a250565b6000612de7826040518060400160405280602081526020017f5361666545524332303a206c6f772d6c6576656c2063616c6c206661696c65648152508573ffffffffffffffffffffffffffffffffffffffff166130889092919063ffffffff16565b9050600081511115612e475780806020019051810190612e07919061337a565b612e46576040517f08c379a0000000000000000000000000000000000000000000000000000000008152600401612e3d90613ad0565b60405180910390fd5b5b505050565b600060019054906101000a900460ff1680612e72575060008054906101000a900460ff16155b612eb1576040517f08c379a0000000000000000000000000000000000000000000000000000000008152600401612ea8906139d0565b60405180910390fd5b60008060019054906101000a900460ff161590508015612f01576001600060016101000a81548160ff02191690831515021790555060016000806101000a81548160ff0219169083151502179055505b8015612f225760008060016101000a81548160ff0219169083151502179055505b50565b600060019054906101000a900460ff1680612f4b575060008054906101000a900460ff16155b612f8a576040517f08c379a0000000000000000000000000000000000000000000000000000000008152600401612f81906139d0565b60405180910390fd5b60008060019054906101000a900460ff161590508015612fda576001600060016101000a81548160ff02191690831515021790555060016000806101000a81548160ff0219169083151502179055505b612fea612fe561239e565b6129d6565b801561300b5760008060016101000a81548160ff0219169083151502179055505b50565b600080823b905060008111915050919050565b6060831561303157829050613081565b6000835111156130445782518084602001fd5b816040517f08c379a000000000000000000000000000000000000000000000000000000000815260040161307891906138ee565b60405180910390fd5b9392505050565b606061309784846000856130a0565b90509392505050565b6060824710156130e5576040517f08c379a00000000000000000000000000000000000000000000000000000000081526004016130dc906139b0565b60405180910390fd5b6130ee8561300e565b61312d576040517f08c379a000000000000000000000000000000000000000000000000000000000815260040161312490613a90565b60405180910390fd5b6000808673ffffffffffffffffffffffffffffffffffffffff16858760405161315691906137e1565b60006040518083038185875af1925050503d8060008114613193576040519150601f19603f3d011682016040523d82523d6000602084013e613198565b606091505b50915091506131a8828286613021565b92505050949350505050565b60006131c76131c284613bb0565b613b8b565b9050828152602081018484840111156131df57600080fd5b6131ea848285613da6565b509392505050565b60008135905061320181614358565b92915050565b6000813590506132168161436f565b92915050565b60008151905061322b8161436f565b92915050565b600082601f83011261324257600080fd5b81356132528482602086016131b4565b91505092915050565b60008135905061326a81614386565b92915050565b60008135905061327f8161439d565b92915050565b6000815190506132948161439d565b92915050565b6000602082840312156132ac57600080fd5b60006132ba848285016131f2565b91505092915050565b600080600080608085870312156132d957600080fd5b60006132e7878288016131f2565b94505060206132f8878288016131f2565b935050604061330987828801613270565b925050606061331a87828801613270565b91505092959194509250565b6000806040838503121561333957600080fd5b6000613347858286016131f2565b925050602083013567ffffffffffffffff81111561336457600080fd5b61337085828601613231565b9150509250929050565b60006020828403121561338c57600080fd5b600061339a8482850161321c565b91505092915050565b6000602082840312156133b557600080fd5b60006133c384828501613270565b91505092915050565b6000602082840312156133de57600080fd5b60006133ec84828501613285565b91505092915050565b6000806040838503121561340857600080fd5b600061341685828601613270565b9250506020613427858286016131f2565b9150509250929050565b60008060006060848603121561344657600080fd5b600061345486828701613270565b93505060206134658682870161325b565b925050604061347686828701613207565b9150509250925092565b6000806040838503121561349357600080fd5b60006134a185828601613270565b92505060206134b285828601613270565b9150509250929050565b6000806000606084860312156134d157600080fd5b60006134df86828701613270565b93505060206134f086828701613270565b925050604061350186828701613207565b9150509250925092565b61351481613d28565b82525050565b61352381613d3a565b82525050565b600061353482613be1565b61353e8185613bf7565b935061354e818560208601613db5565b80840191505092915050565b61356381613d82565b82525050565b600061357482613bec565b61357e8185613c02565b935061358e818560208601613db5565b61359781613eef565b840191505092915050565b60006135af602f83613c02565b91506135ba82613f00565b604082019050919050565b60006135d2602683613c02565b91506135dd82613f4f565b604082019050919050565b60006135f5602c83613c02565b915061360082613f9e565b604082019050919050565b6000613618602683613c02565b915061362382613fed565b604082019050919050565b600061363b602c83613c02565b91506136468261403c565b604082019050919050565b600061365e602683613c02565b91506136698261408b565b604082019050919050565b6000613681602e83613c02565b915061368c826140da565b604082019050919050565b60006136a4600983613c02565b91506136af82614129565b602082019050919050565b60006136c7603283613c02565b91506136d282614152565b604082019050919050565b60006136ea602d83613c02565b91506136f5826141a1565b604082019050919050565b600061370d602083613c02565b9150613718826141f0565b602082019050919050565b6000613730602683613c02565b915061373b82614219565b604082019050919050565b6000613753601d83613c02565b915061375e82614268565b602082019050919050565b6000613776601283613c02565b915061378182614291565b602082019050919050565b6000613799602a83613c02565b91506137a4826142ba565b604082019050919050565b60006137bc603683613c02565b91506137c782614309565b604082019050919050565b6137db81613d78565b82525050565b60006137ed8284613529565b915081905092915050565b600060208201905061380d600083018461350b565b92915050565b6000606082019050613828600083018661350b565b613835602083018561350b565b61384260408301846137d2565b949350505050565b600060408201905061385f600083018561350b565b61386c60208301846137d2565b9392505050565b6000602082019050613888600083018461351a565b92915050565b60006020820190506138a3600083018461355a565b92915050565b60006080820190506138be600083018761355a565b6138cb60208301866137d2565b6138d860408301856137d2565b6138e560608301846137d2565b95945050505050565b600060208201905081810360008301526139088184613569565b905092915050565b60006020820190508181036000830152613929816135a2565b9050919050565b60006020820190508181036000830152613949816135c5565b9050919050565b60006020820190508181036000830152613969816135e8565b9050919050565b600060208201905081810360008301526139898161360b565b9050919050565b600060208201905081810360008301526139a98161362e565b9050919050565b600060208201905081810360008301526139c981613651565b9050919050565b600060208201905081810360008301526139e981613674565b9050919050565b60006020820190508181036000830152613a0981613697565b9050919050565b60006020820190508181036000830152613a29816136ba565b9050919050565b60006020820190508181036000830152613a49816136dd565b9050919050565b60006020820190508181036000830152613a6981613700565b9050919050565b60006020820190508181036000830152613a8981613723565b9050919050565b60006020820190508181036000830152613aa981613746565b9050919050565b60006020820190508181036000830152613ac981613769565b9050919050565b60006020820190508181036000830152613ae98161378c565b9050919050565b60006020820190508181036000830152613b09816137af565b9050919050565b6000602082019050613b2560008301846137d2565b92915050565b6000604082019050613b4060008301856137d2565b613b4d60208301846137d2565b9392505050565b6000606082019050613b6960008301866137d2565b613b7660208301856137d2565b613b8360408301846137d2565b949350505050565b6000613b95613ba6565b9050613ba18282613de8565b919050565b6000604051905090565b600067ffffffffffffffff821115613bcb57613bca613ec0565b5b613bd482613eef565b9050602081019050919050565b600081519050919050565b600081519050919050565b600081905092915050565b600082825260208201905092915050565b6000613c1e82613d78565b9150613c2983613d78565b9250827fffffffffffffffffffffffffffffffffffffffffffffffffffffffffffffffff03821115613c5e57613c5d613e62565b5b828201905092915050565b6000613c7482613d78565b9150613c7f83613d78565b925082613c8f57613c8e613e91565b5b828204905092915050565b6000613ca582613d78565b9150613cb083613d78565b9250817fffffffffffffffffffffffffffffffffffffffffffffffffffffffffffffffff0483118215151615613ce957613ce8613e62565b5b828202905092915050565b6000613cff82613d78565b9150613d0a83613d78565b925082821015613d1d57613d1c613e62565b5b828203905092915050565b6000613d3382613d58565b9050919050565b60008115159050919050565b6000613d5182613d28565b9050919050565b600073ffffffffffffffffffffffffffffffffffffffff82169050919050565b6000819050919050565b6000613d8d82613d94565b9050919050565b6000613d9f82613d58565b9050919050565b82818337600083830152505050565b60005b83811015613dd3578082015181840152602081019050613db8565b83811115613de2576000848401525b50505050565b613df182613eef565b810181811067ffffffffffffffff82111715613e1057613e0f613ec0565b5b80604052505050565b6000613e2482613d78565b91507fffffffffffffffffffffffffffffffffffffffffffffffffffffffffffffffff821415613e5757613e56613e62565b5b600182019050919050565b7f4e487b7100000000000000000000000000000000000000000000000000000000600052601160045260246000fd5b7f4e487b7100000000000000000000000000000000000000000000000000000000600052601260045260246000fd5b7f4e487b7100000000000000000000000000000000000000000000000000000000600052604160045260246000fd5b6000601f19601f8301169050919050565b7f45524331393637557067726164653a207570677261646520627265616b73206660008201527f7572746865722075706772616465730000000000000000000000000000000000602082015250565b7f4f776e61626c653a206e6577206f776e657220697320746865207a65726f206160008201527f6464726573730000000000000000000000000000000000000000000000000000602082015250565b7f46756e6374696f6e206d7573742062652063616c6c6564207468726f7567682060008201527f64656c656761746563616c6c0000000000000000000000000000000000000000602082015250565b7f6164643a205468697320746f6b656e206164647265737320686173206265656e60008201527f2061646465640000000000000000000000000000000000000000000000000000602082015250565b7f46756e6374696f6e206d7573742062652063616c6c6564207468726f7567682060008201527f6163746976652070726f78790000000000000000000000000000000000000000602082015250565b7f416464726573733a20696e73756666696369656e742062616c616e636520666f60008201527f722063616c6c0000000000000000000000000000000000000000000000000000602082015250565b7f496e697469616c697a61626c653a20636f6e747261637420697320616c72656160008201527f647920696e697469616c697a6564000000000000000000000000000000000000602082015250565b7f6465763a207775743f0000000000000000000000000000000000000000000000600082015250565b7f736574486f776c506572426c6f636b3a20616d6f756e74206d7573742062652060008201527f67726561746572207468616e2031207765690000000000000000000000000000602082015250565b7f455243313936373a206e657720696d706c656d656e746174696f6e206973206e60008201527f6f74206120636f6e747261637400000000000000000000000000000000000000602082015250565b7f4f776e61626c653a2063616c6c6572206973206e6f7420746865206f776e6572600082015250565b7f416464726573733a2064656c65676174652063616c6c20746f206e6f6e2d636f60008201527f6e74726163740000000000000000000000000000000000000000000000000000602082015250565b7f416464726573733a2063616c6c20746f206e6f6e2d636f6e7472616374000000600082015250565b7f77697468647261773a206e6f7420676f6f640000000000000000000000000000600082015250565b7f5361666545524332303a204552433230206f7065726174696f6e20646964206e60008201527f6f74207375636365656400000000000000000000000000000000000000000000602082015250565b7f77697468647261773a207769746864726177616c206973206f6e6c792061766160008201527f696c61626c65206166746572206c6f636b2074696d6500000000000000000000602082015250565b61436181613d28565b811461436c57600080fd5b50565b61437881613d3a565b811461438357600080fd5b50565b61438f81613d46565b811461439a57600080fd5b50565b6143a681613d78565b81146143b157600080fd5b5056fe416464726573733a206c6f772d6c6576656c2064656c65676174652063616c6c206661696c6564a2646970667358221220241b93235b5774d8775fbe4d5e6955f98d8a38968f6ef08539582dec6560edb564736f6c63430008020033",
  "linkReferences": {},
  "deployedLinkReferences": {}
}