{
  "_format": "hh-sol-artifact-1",
  "contractName": "MasterChef",
  "sourceName": "contracts/MasterChef.sol",
  "abi": [
    {
      "anonymous": false,
      "inputs": [
        {
          "indexed": false,
          "internalType": "address",
          "name": "previousAdmin",
          "type": "address"
        },
        {
          "indexed": false,
          "internalType": "address",
          "name": "newAdmin",
          "type": "address"
        }
      ],
      "name": "AdminChanged",
      "type": "event"
    },
    {
      "anonymous": false,
      "inputs": [
        {
          "indexed": true,
          "internalType": "address",
          "name": "beacon",
          "type": "address"
        }
      ],
      "name": "BeaconUpgraded",
      "type": "event"
    },
    {
      "anonymous": false,
      "inputs": [
        {
          "indexed": true,
          "internalType": "address",
          "name": "user",
          "type": "address"
        },
        {
          "indexed": true,
          "internalType": "uint256",
          "name": "pid",
          "type": "uint256"
        },
        {
          "indexed": false,
          "internalType": "uint256",
          "name": "amount",
          "type": "uint256"
        },
        {
          "indexed": false,
          "internalType": "uint256",
          "name": "timestamp",
          "type": "uint256"
        }
      ],
      "name": "Deposit",
      "type": "event"
    },
    {
      "anonymous": false,
      "inputs": [
        {
          "indexed": true,
          "internalType": "address",
          "name": "user",
          "type": "address"
        },
        {
          "indexed": true,
          "internalType": "uint256",
          "name": "pid",
          "type": "uint256"
        },
        {
          "indexed": false,
          "internalType": "uint256",
          "name": "amount",
          "type": "uint256"
        }
      ],
      "name": "EmergencyWithdraw",
      "type": "event"
    },
    {
      "anonymous": false,
      "inputs": [
        {
          "indexed": true,
          "internalType": "address",
          "name": "previousOwner",
          "type": "address"
        },
        {
          "indexed": true,
          "internalType": "address",
          "name": "newOwner",
          "type": "address"
        }
      ],
      "name": "OwnershipTransferred",
      "type": "event"
    },
    {
      "anonymous": false,
      "inputs": [
        {
          "indexed": true,
          "internalType": "address",
          "name": "implementation",
          "type": "address"
        }
      ],
      "name": "Upgraded",
      "type": "event"
    },
    {
      "anonymous": false,
      "inputs": [
        {
          "indexed": true,
          "internalType": "address",
          "name": "user",
          "type": "address"
        },
        {
          "indexed": true,
          "internalType": "uint256",
          "name": "pid",
          "type": "uint256"
        },
        {
          "indexed": false,
          "internalType": "uint256",
          "name": "amount",
          "type": "uint256"
        }
      ],
      "name": "Withdraw",
      "type": "event"
    },
    {
      "inputs": [],
      "name": "BONUS_MULTIPLIER",
      "outputs": [
        {
          "internalType": "uint256",
          "name": "",
          "type": "uint256"
        }
      ],
      "stateMutability": "view",
      "type": "function"
    },
    {
      "inputs": [
        {
          "internalType": "uint256",
          "name": "_allocPoint",
          "type": "uint256"
        },
        {
          "internalType": "contract IERC20Upgradeable",
          "name": "_lpToken",
          "type": "address"
        },
        {
          "internalType": "bool",
          "name": "_withUpdate",
          "type": "bool"
        }
      ],
      "name": "add",
      "outputs": [],
      "stateMutability": "nonpayable",
      "type": "function"
    },
    {
      "inputs": [
        {
          "internalType": "uint256",
          "name": "_pid",
          "type": "uint256"
        },
        {
          "internalType": "uint256",
          "name": "_amount",
          "type": "uint256"
        }
      ],
      "name": "deposit",
      "outputs": [],
      "stateMutability": "nonpayable",
      "type": "function"
    },
    {
      "inputs": [
        {
          "internalType": "address",
          "name": "_devaddr",
          "type": "address"
        }
      ],
      "name": "dev",
      "outputs": [],
      "stateMutability": "nonpayable",
      "type": "function"
    },
    {
      "inputs": [],
      "name": "devaddr",
      "outputs": [
        {
          "internalType": "address",
          "name": "",
          "type": "address"
        }
      ],
      "stateMutability": "view",
      "type": "function"
    },
    {
      "inputs": [
        {
          "internalType": "uint256",
          "name": "_pid",
          "type": "uint256"
        }
      ],
      "name": "emergencyWithdraw",
      "outputs": [],
      "stateMutability": "nonpayable",
      "type": "function"
    },
    {
      "inputs": [
        {
          "internalType": "uint256",
          "name": "_from",
          "type": "uint256"
        },
        {
          "internalType": "uint256",
          "name": "_to",
          "type": "uint256"
        }
      ],
      "name": "getMultiplier",
      "outputs": [
        {
          "internalType": "uint256",
          "name": "",
          "type": "uint256"
        }
      ],
      "stateMutability": "view",
      "type": "function"
    },
    {
      "inputs": [],
      "name": "howl",
      "outputs": [
        {
          "internalType": "contract IERC20Upgradeable",
          "name": "",
          "type": "address"
        }
      ],
      "stateMutability": "view",
      "type": "function"
    },
    {
      "inputs": [],
      "name": "howlPerBlock",
      "outputs": [
        {
          "internalType": "uint256",
          "name": "",
          "type": "uint256"
        }
      ],
      "stateMutability": "view",
      "type": "function"
    },
    {
      "inputs": [
        {
          "internalType": "address",
          "name": "_howl",
          "type": "address"
        },
        {
          "internalType": "address",
          "name": "_devaddr",
          "type": "address"
        },
        {
          "internalType": "uint256",
          "name": "_howlPerBlock",
          "type": "uint256"
        },
        {
          "internalType": "uint256",
          "name": "_startBlock",
          "type": "uint256"
        }
      ],
      "name": "initialize",
      "outputs": [],
      "stateMutability": "nonpayable",
      "type": "function"
    },
    {
      "inputs": [],
      "name": "lockTime",
      "outputs": [
        {
          "internalType": "uint256",
          "name": "",
          "type": "uint256"
        }
      ],
      "stateMutability": "view",
      "type": "function"
    },
    {
      "inputs": [],
      "name": "massUpdatePools",
      "outputs": [],
      "stateMutability": "nonpayable",
      "type": "function"
    },
    {
      "inputs": [],
      "name": "minter",
      "outputs": [
        {
          "internalType": "address",
          "name": "",
          "type": "address"
        }
      ],
      "stateMutability": "view",
      "type": "function"
    },
    {
      "inputs": [],
      "name": "owner",
      "outputs": [
        {
          "internalType": "address",
          "name": "",
          "type": "address"
        }
      ],
      "stateMutability": "view",
      "type": "function"
    },
    {
      "inputs": [
        {
          "internalType": "uint256",
          "name": "_pid",
          "type": "uint256"
        },
        {
          "internalType": "address",
          "name": "_user",
          "type": "address"
        }
      ],
      "name": "pendingHowl",
      "outputs": [
        {
          "internalType": "uint256",
          "name": "",
          "type": "uint256"
        }
      ],
      "stateMutability": "view",
      "type": "function"
    },
    {
      "inputs": [
        {
          "internalType": "uint256",
          "name": "",
          "type": "uint256"
        }
      ],
      "name": "poolInfo",
      "outputs": [
        {
          "internalType": "contract IERC20Upgradeable",
          "name": "lpToken",
          "type": "address"
        },
        {
          "internalType": "uint256",
          "name": "allocPoint",
          "type": "uint256"
        },
        {
          "internalType": "uint256",
          "name": "lastRewardBlock",
          "type": "uint256"
        },
        {
          "internalType": "uint256",
          "name": "accHowlPerShare",
          "type": "uint256"
        }
      ],
      "stateMutability": "view",
      "type": "function"
    },
    {
      "inputs": [],
      "name": "poolLength",
      "outputs": [
        {
          "internalType": "uint256",
          "name": "",
          "type": "uint256"
        }
      ],
      "stateMutability": "view",
      "type": "function"
    },
    {
      "inputs": [],
      "name": "renounceOwnership",
      "outputs": [],
      "stateMutability": "nonpayable",
      "type": "function"
    },
    {
      "inputs": [
        {
          "internalType": "uint256",
          "name": "_pid",
          "type": "uint256"
        },
        {
          "internalType": "uint256",
          "name": "_allocPoint",
          "type": "uint256"
        },
        {
          "internalType": "bool",
          "name": "_withUpdate",
          "type": "bool"
        }
      ],
      "name": "set",
      "outputs": [],
      "stateMutability": "nonpayable",
      "type": "function"
    },
    {
      "inputs": [
        {
          "internalType": "uint256",
          "name": "_howlPerBlock",
          "type": "uint256"
        }
      ],
      "name": "setHowlPerBlock",
      "outputs": [],
      "stateMutability": "nonpayable",
      "type": "function"
    },
    {
      "inputs": [
        {
          "internalType": "uint256",
          "name": "_lockTime",
          "type": "uint256"
        }
      ],
      "name": "setLockTime",
      "outputs": [],
      "stateMutability": "nonpayable",
      "type": "function"
    },
    {
      "inputs": [
        {
          "internalType": "address",
          "name": "_minter",
          "type": "address"
        }
      ],
      "name": "setMinter",
      "outputs": [],
      "stateMutability": "nonpayable",
      "type": "function"
    },
    {
      "inputs": [
        {
          "internalType": "uint256",
          "name": "_threshold",
          "type": "uint256"
        }
      ],
      "name": "setStakeThreshold",
      "outputs": [],
      "stateMutability": "nonpayable",
      "type": "function"
    },
    {
      "inputs": [],
      "name": "stakeThreshold",
      "outputs": [
        {
          "internalType": "uint256",
          "name": "",
          "type": "uint256"
        }
      ],
      "stateMutability": "view",
      "type": "function"
    },
    {
      "inputs": [],
      "name": "startBlock",
      "outputs": [
        {
          "internalType": "uint256",
          "name": "",
          "type": "uint256"
        }
      ],
      "stateMutability": "view",
      "type": "function"
    },
    {
      "inputs": [],
      "name": "totalAllocPoint",
      "outputs": [
        {
          "internalType": "uint256",
          "name": "",
          "type": "uint256"
        }
      ],
      "stateMutability": "view",
      "type": "function"
    },
    {
      "inputs": [
        {
          "internalType": "address",
          "name": "newOwner",
          "type": "address"
        }
      ],
      "name": "transferOwnership",
      "outputs": [],
      "stateMutability": "nonpayable",
      "type": "function"
    },
    {
      "inputs": [
        {
          "internalType": "uint256",
          "name": "multiplierNumber",
          "type": "uint256"
        }
      ],
      "name": "updateMultiplier",
      "outputs": [],
      "stateMutability": "nonpayable",
      "type": "function"
    },
    {
      "inputs": [
        {
          "internalType": "uint256",
          "name": "_pid",
          "type": "uint256"
        }
      ],
      "name": "updatePool",
      "outputs": [],
      "stateMutability": "nonpayable",
      "type": "function"
    },
    {
      "inputs": [
        {
          "internalType": "address",
          "name": "newImplementation",
          "type": "address"
        }
      ],
      "name": "upgradeTo",
      "outputs": [],
      "stateMutability": "nonpayable",
      "type": "function"
    },
    {
      "inputs": [
        {
          "internalType": "address",
          "name": "newImplementation",
          "type": "address"
        },
        {
          "internalType": "bytes",
          "name": "data",
          "type": "bytes"
        }
      ],
      "name": "upgradeToAndCall",
      "outputs": [],
      "stateMutability": "payable",
      "type": "function"
    },
    {
      "inputs": [
        {
          "internalType": "uint256",
          "name": "",
          "type": "uint256"
        },
        {
          "internalType": "address",
          "name": "",
          "type": "address"
        }
      ],
      "name": "userInfo",
      "outputs": [
        {
          "internalType": "uint256",
          "name": "amount",
          "type": "uint256"
        },
        {
          "internalType": "uint256",
          "name": "rewardDebt",
          "type": "uint256"
        },
        {
          "internalType": "uint256",
          "name": "lastDepositTimestamp",
          "type": "uint256"
        },
        {
          "internalType": "bool",
          "name": "staked",
          "type": "bool"
        }
      ],
      "stateMutability": "view",
      "type": "function"
    },
    {
      "inputs": [
        {
          "internalType": "uint256",
          "name": "_pid",
          "type": "uint256"
        },
        {
          "internalType": "uint256",
          "name": "_amount",
          "type": "uint256"
        }
      ],
      "name": "withdraw",
      "outputs": [],
      "stateMutability": "nonpayable",
      "type": "function"
    }
  ],
  "bytecode": "0x60a06040523073ffffffffffffffffffffffffffffffffffffffff1660809073ffffffffffffffffffffffffffffffffffffffff1660601b81525034801561004657600080fd5b5060805160601c61423861007a600039600081816109ab01528181610a3a01528181610e3f0152610ece01526142386000f3fe6080604052600436106101ee5760003560e01c80636803c78d1161010d578063ae04d45d116100a0578063e2bbb1581161006f578063e2bbb158146106a8578063eb990c59146106d1578063f11f77f9146106fa578063f2fde38b14610725578063fca3b5aa1461074e576101ee565b8063ae04d45d146105ee578063b6a9a33414610617578063d3cfc55b14610640578063d49e77cd1461067d576101ee565b80638da5cb5b116100dc5780638da5cb5b1461051d5780638dbb1e3a1461054857806393f1a40b14610585578063a5b2ca6b146105c5576101ee565b80636803c78d14610487578063715018a6146104b25780638aa28550146104c95780638d88a90e146104f4576101ee565b8063441a3e70116101855780635312ea8e116101545780635312ea8e146103f55780635ffe61461461041e578063630b5ba11461044757806364482f791461045e576101ee565b8063441a3e701461035c57806348cd4cb1146103855780634f1ef286146103b057806351eb05a6146103cc576101ee565b80631526fe27116101c15780631526fe271461029f57806317caf6f1146102df5780631eaaa0451461030a5780633659cfe614610333576101ee565b806305e5fd9c146101f3578063075461721461021e578063081e3eda146102495780630d66808714610274575b600080fd5b3480156101ff57600080fd5b50610208610777565b6040516102159190613978565b60405180910390f35b34801561022a57600080fd5b5061023361077d565b604051610240919061369b565b60405180910390f35b34801561025557600080fd5b5061025e6107a3565b60405161026b9190613978565b60405180910390f35b34801561028057600080fd5b506102896107b0565b6040516102969190613978565b60405180910390f35b3480156102ab57600080fd5b506102c660048036038101906102c19190613269565b6107b6565b6040516102d69493929190613731565b60405180910390f35b3480156102eb57600080fd5b506102f4610816565b6040516103019190613978565b60405180910390f35b34801561031657600080fd5b50610331600480360381019061032c91906132f7565b61081c565b005b34801561033f57600080fd5b5061035a60048036038101906103559190613160565b6109a9565b005b34801561036857600080fd5b50610383600480360381019061037e9190613346565b610b58565b005b34801561039157600080fd5b5061039a610e37565b6040516103a79190613978565b60405180910390f35b6103ca60048036038101906103c591906131ec565b610e3d565b005b3480156103d857600080fd5b506103f360048036038101906103ee9190613269565b610f7a565b005b34801561040157600080fd5b5061041c60048036038101906104179190613269565b611266565b005b34801561042a57600080fd5b5061044560048036038101906104409190613269565b6113c5565b005b34801561045357600080fd5b5061045c61144b565b005b34801561046a57600080fd5b5061048560048036038101906104809190613382565b61147e565b005b34801561049357600080fd5b5061049c6115e4565b6040516104a99190613716565b60405180910390f35b3480156104be57600080fd5b506104c761160a565b005b3480156104d557600080fd5b506104de611692565b6040516104eb9190613978565b60405180910390f35b34801561050057600080fd5b5061051b60048036038101906105169190613160565b611698565b005b34801561052957600080fd5b5061053261176c565b60405161053f919061369b565b60405180910390f35b34801561055457600080fd5b5061056f600480360381019061056a9190613346565b611796565b60405161057c9190613978565b60405180910390f35b34801561059157600080fd5b506105ac60048036038101906105a791906132bb565b6117c7565b6040516105bc94939291906139bc565b60405180910390f35b3480156105d157600080fd5b506105ec60048036038101906105e79190613269565b611811565b005b3480156105fa57600080fd5b5061061560048036038101906106109190613269565b6118da565b005b34801561062357600080fd5b5061063e60048036038101906106399190613269565b611960565b005b34801561064c57600080fd5b50610667600480360381019061066291906132bb565b6119e6565b6040516106749190613978565b60405180910390f35b34801561068957600080fd5b50610692611c40565b60405161069f919061369b565b60405180910390f35b3480156106b457600080fd5b506106cf60048036038101906106ca9190613346565b611c66565b005b3480156106dd57600080fd5b506106f860048036038101906106f39190613189565b611ec1565b005b34801561070657600080fd5b5061070f6120a6565b60405161071c9190613978565b60405180910390f35b34801561073157600080fd5b5061074c60048036038101906107479190613160565b6120ac565b005b34801561075a57600080fd5b5061077560048036038101906107709190613160565b6121a4565b005b60cb5481565b60cf60009054906101000a900473ffffffffffffffffffffffffffffffffffffffff1681565b600060d080549050905090565b60cd5481565b60d081815481106107c657600080fd5b90600052602060002090600402016000915090508060000160009054906101000a900473ffffffffffffffffffffffffffffffffffffffff16908060010154908060020154908060030154905084565b60d25481565b610824612264565b73ffffffffffffffffffffffffffffffffffffffff1661084261176c565b73ffffffffffffffffffffffffffffffffffffffff1614610898576040517f08c379a000000000000000000000000000000000000000000000000000000000815260040161088f906138b8565b60405180910390fd5b80156108a7576108a661144b565b5b600060d35443116108ba5760d3546108bc565b435b90506108d38460d25461226c90919063ffffffff16565b60d28190555060d060405180608001604052808573ffffffffffffffffffffffffffffffffffffffff1681526020018681526020018381526020016000815250908060018154018082558091505060019003906000526020600020906004020160009091909190915060008201518160000160006101000a81548173ffffffffffffffffffffffffffffffffffffffff021916908373ffffffffffffffffffffffffffffffffffffffff160217905550602082015181600101556040820151816002015560608201518160030155505050505050565b7f000000000000000000000000000000000000000000000000000000000000000073ffffffffffffffffffffffffffffffffffffffff163073ffffffffffffffffffffffffffffffffffffffff161415610a38576040517f08c379a0000000000000000000000000000000000000000000000000000000008152600401610a2f906137d8565b60405180910390fd5b7f000000000000000000000000000000000000000000000000000000000000000073ffffffffffffffffffffffffffffffffffffffff16610a77612282565b73ffffffffffffffffffffffffffffffffffffffff1614610acd576040517f08c379a0000000000000000000000000000000000000000000000000000000008152600401610ac4906137f8565b60405180910390fd5b610ad6816122d9565b610b5581600067ffffffffffffffff811115610b1b577f4e487b7100000000000000000000000000000000000000000000000000000000600052604160045260246000fd5b6040519080825280601f01601f191660200182016040528015610b4d5781602001600182028036833780820191505090505b506000612358565b50565b600060d08381548110610b94577f4e487b7100000000000000000000000000000000000000000000000000000000600052603260045260246000fd5b90600052602060002090600402019050600060d1600085815260200190815260200160002060003373ffffffffffffffffffffffffffffffffffffffff1673ffffffffffffffffffffffffffffffffffffffff168152602001908152602001600020905042610c1260cd54836002015461226c90919063ffffffff16565b1115610c53576040517f08c379a0000000000000000000000000000000000000000000000000000000008152600401610c4a90613958565b60405180910390fd5b8281600001541015610c9a576040517f08c379a0000000000000000000000000000000000000000000000000000000008152600401610c9190613918565b60405180910390fd5b610ca384610f7a565b6000610ced8260010154610cdf64e8d4a51000610cd18760030154876000015461252990919063ffffffff16565b61253f90919063ffffffff16565b61255590919063ffffffff16565b90506000811115610d0357610d02338261256b565b5b6000841115610d7b57610d2384836000015461255590919063ffffffff16565b8260000181905550610d7a33858560000160009054906101000a900473ffffffffffffffffffffffffffffffffffffffff1673ffffffffffffffffffffffffffffffffffffffff1661278d9092919063ffffffff16565b5b60ce5482600001541015610da75760008260030160006101000a81548160ff0219169083151502179055505b610dd964e8d4a51000610dcb8560030154856000015461252990919063ffffffff16565b61253f90919063ffffffff16565b8260010181905550843373ffffffffffffffffffffffffffffffffffffffff167ff279e6a1f5e320cca91135676d9cb6e44ca8a08c0b88342bcdb1144f6511b56886604051610e289190613978565b60405180910390a35050505050565b60d35481565b7f000000000000000000000000000000000000000000000000000000000000000073ffffffffffffffffffffffffffffffffffffffff163073ffffffffffffffffffffffffffffffffffffffff161415610ecc576040517f08c379a0000000000000000000000000000000000000000000000000000000008152600401610ec3906137d8565b60405180910390fd5b7f000000000000000000000000000000000000000000000000000000000000000073ffffffffffffffffffffffffffffffffffffffff16610f0b612282565b73ffffffffffffffffffffffffffffffffffffffff1614610f61576040517f08c379a0000000000000000000000000000000000000000000000000000000008152600401610f58906137f8565b60405180910390fd5b610f6a826122d9565b610f7682826001612358565b5050565b600060d08281548110610fb6577f4e487b7100000000000000000000000000000000000000000000000000000000600052603260045260246000fd5b9060005260206000209060040201905080600201544311610fd75750611263565b60008160000160009054906101000a900473ffffffffffffffffffffffffffffffffffffffff1673ffffffffffffffffffffffffffffffffffffffff166370a08231306040518263ffffffff1660e01b8152600401611036919061369b565b60206040518083038186803b15801561104e57600080fd5b505afa158015611062573d6000803e3d6000fd5b505050506040513d601f19601f820116820180604052508101906110869190613292565b905060008114156110a1574382600201819055505050611263565b60006110b1836002015443611796565b905060006110f460d2546110e686600101546110d860cb548761252990919063ffffffff16565b61252990919063ffffffff16565b61253f90919063ffffffff16565b905061119c60cf60009054906101000a900473ffffffffffffffffffffffffffffffffffffffff1660ca60009054906101000a900473ffffffffffffffffffffffffffffffffffffffff16611153600a8561253f90919063ffffffff16565b60c960009054906101000a900473ffffffffffffffffffffffffffffffffffffffff1673ffffffffffffffffffffffffffffffffffffffff16612813909392919063ffffffff16565b61120d60cf60009054906101000a900473ffffffffffffffffffffffffffffffffffffffff16308360c960009054906101000a900473ffffffffffffffffffffffffffffffffffffffff1673ffffffffffffffffffffffffffffffffffffffff16612813909392919063ffffffff16565b61124d61123a8461122c64e8d4a510008561252990919063ffffffff16565b61253f90919063ffffffff16565b856003015461226c90919063ffffffff16565b8460030181905550438460020181905550505050505b50565b600060d082815481106112a2577f4e487b7100000000000000000000000000000000000000000000000000000000600052603260045260246000fd5b90600052602060002090600402019050600060d1600084815260200190815260200160002060003373ffffffffffffffffffffffffffffffffffffffff1673ffffffffffffffffffffffffffffffffffffffff16815260200190815260200160002090506113593382600001548460000160009054906101000a900473ffffffffffffffffffffffffffffffffffffffff1673ffffffffffffffffffffffffffffffffffffffff1661278d9092919063ffffffff16565b823373ffffffffffffffffffffffffffffffffffffffff167fbb757047c2b5f3974fe26b7c10f732e7bce710b0952a71082702781e62ae059583600001546040516113a49190613978565b60405180910390a36000816000018190555060008160010181905550505050565b6113cd612264565b73ffffffffffffffffffffffffffffffffffffffff166113eb61176c565b73ffffffffffffffffffffffffffffffffffffffff1614611441576040517f08c379a0000000000000000000000000000000000000000000000000000000008152600401611438906138b8565b60405180910390fd5b8060cc8190555050565b600060d080549050905060005b8181101561147a5761146981610f7a565b8061147390613c8f565b9050611458565b5050565b611486612264565b73ffffffffffffffffffffffffffffffffffffffff166114a461176c565b73ffffffffffffffffffffffffffffffffffffffff16146114fa576040517f08c379a00000000000000000000000000000000000000000000000000000000081526004016114f1906138b8565b60405180910390fd5b80156115095761150861144b565b5b600060d08481548110611545577f4e487b7100000000000000000000000000000000000000000000000000000000600052603260045260246000fd5b90600052602060002090600402016001015490508260d08581548110611594577f4e487b7100000000000000000000000000000000000000000000000000000000600052603260045260246000fd5b9060005260206000209060040201600101819055508281146115de576115d7836115c98360d25461255590919063ffffffff16565b61226c90919063ffffffff16565b60d2819055505b50505050565b60c960009054906101000a900473ffffffffffffffffffffffffffffffffffffffff1681565b611612612264565b73ffffffffffffffffffffffffffffffffffffffff1661163061176c565b73ffffffffffffffffffffffffffffffffffffffff1614611686576040517f08c379a000000000000000000000000000000000000000000000000000000000815260040161167d906138b8565b60405180910390fd5b611690600061289c565b565b60cc5481565b60ca60009054906101000a900473ffffffffffffffffffffffffffffffffffffffff1673ffffffffffffffffffffffffffffffffffffffff163373ffffffffffffffffffffffffffffffffffffffff1614611728576040517f08c379a000000000000000000000000000000000000000000000000000000000815260040161171f90613858565b60405180910390fd5b8060ca60006101000a81548173ffffffffffffffffffffffffffffffffffffffff021916908373ffffffffffffffffffffffffffffffffffffffff16021790555050565b6000609760009054906101000a900473ffffffffffffffffffffffffffffffffffffffff16905090565b60006117bf60cc546117b1858561255590919063ffffffff16565b61252990919063ffffffff16565b905092915050565b60d1602052816000526040600020602052806000526040600020600091509150508060000154908060010154908060020154908060030160009054906101000a900460ff16905084565b611819612264565b73ffffffffffffffffffffffffffffffffffffffff1661183761176c565b73ffffffffffffffffffffffffffffffffffffffff161461188d576040517f08c379a0000000000000000000000000000000000000000000000000000000008152600401611884906138b8565b60405180910390fd5b600081116118d0576040517f08c379a00000000000000000000000000000000000000000000000000000000081526004016118c790613878565b60405180910390fd5b8060cb8190555050565b6118e2612264565b73ffffffffffffffffffffffffffffffffffffffff1661190061176c565b73ffffffffffffffffffffffffffffffffffffffff1614611956576040517f08c379a000000000000000000000000000000000000000000000000000000000815260040161194d906138b8565b60405180910390fd5b8060cd8190555050565b611968612264565b73ffffffffffffffffffffffffffffffffffffffff1661198661176c565b73ffffffffffffffffffffffffffffffffffffffff16146119dc576040517f08c379a00000000000000000000000000000000000000000000000000000000081526004016119d3906138b8565b60405180910390fd5b8060ce8190555050565b60008060d08481548110611a23577f4e487b7100000000000000000000000000000000000000000000000000000000600052603260045260246000fd5b90600052602060002090600402019050600060d1600086815260200190815260200160002060008573ffffffffffffffffffffffffffffffffffffffff1673ffffffffffffffffffffffffffffffffffffffff168152602001908152602001600020905060008260030154905060008360000160009054906101000a900473ffffffffffffffffffffffffffffffffffffffff1673ffffffffffffffffffffffffffffffffffffffff166370a08231306040518263ffffffff1660e01b8152600401611aef919061369b565b60206040518083038186803b158015611b0757600080fd5b505afa158015611b1b573d6000803e3d6000fd5b505050506040513d601f19601f82011682018060405250810190611b3f9190613292565b9050836002015443118015611b55575060008114155b15611bf0576000611b6a856002015443611796565b90506000611bad60d254611b9f8860010154611b9160cb548761252990919063ffffffff16565b61252990919063ffffffff16565b61253f90919063ffffffff16565b9050611beb611bdc84611bce64e8d4a510008561252990919063ffffffff16565b61253f90919063ffffffff16565b8561226c90919063ffffffff16565b935050505b611c348360010154611c2664e8d4a51000611c1886886000015461252990919063ffffffff16565b61253f90919063ffffffff16565b61255590919063ffffffff16565b94505050505092915050565b60ca60009054906101000a900473ffffffffffffffffffffffffffffffffffffffff1681565b600060d08381548110611ca2577f4e487b7100000000000000000000000000000000000000000000000000000000600052603260045260246000fd5b90600052602060002090600402019050600060d1600085815260200190815260200160002060003373ffffffffffffffffffffffffffffffffffffffff1673ffffffffffffffffffffffffffffffffffffffff1681526020019081526020016000209050611d0f84610f7a565b600081600001541115611d7e576000611d668260010154611d5864e8d4a51000611d4a8760030154876000015461252990919063ffffffff16565b61253f90919063ffffffff16565b61255590919063ffffffff16565b90506000811115611d7c57611d7b338261256b565b5b505b6000831115611df857611dd83330858560000160009054906101000a900473ffffffffffffffffffffffffffffffffffffffff1673ffffffffffffffffffffffffffffffffffffffff16612813909392919063ffffffff16565b611def83826000015461226c90919063ffffffff16565b81600001819055505b60ce54816000015410611e235760018160030160006101000a81548160ff0219169083151502179055505b611e5564e8d4a51000611e478460030154846000015461252990919063ffffffff16565b61253f90919063ffffffff16565b8160010181905550428160020181905550833373ffffffffffffffffffffffffffffffffffffffff167f36af321ec8d3c75236829c5317affd40ddb308863a1236d2d277a4025cccee1e858460020154604051611eb3929190613993565b60405180910390a350505050565b600060019054906101000a900460ff1680611ee7575060008054906101000a900460ff16155b611f26576040517f08c379a0000000000000000000000000000000000000000000000000000000008152600401611f1d90613838565b60405180910390fd5b60008060019054906101000a900460ff161590508015611f76576001600060016101000a81548160ff02191690831515021790555060016000806101000a81548160ff0219169083151502179055505b611f7e612962565b8460c960006101000a81548173ffffffffffffffffffffffffffffffffffffffff021916908373ffffffffffffffffffffffffffffffffffffffff1602179055508360ca60006101000a81548173ffffffffffffffffffffffffffffffffffffffff021916908373ffffffffffffffffffffffffffffffffffffffff1602179055508260cb819055508160d381905550600160cc81905550600060cd81905550600060d281905550680340aad21b3b70000060ce8190555061203e61176c565b60cf60006101000a81548173ffffffffffffffffffffffffffffffffffffffff021916908373ffffffffffffffffffffffffffffffffffffffff160217905550801561209f5760008060016101000a81548160ff0219169083151502179055505b5050505050565b60ce5481565b6120b4612264565b73ffffffffffffffffffffffffffffffffffffffff166120d261176c565b73ffffffffffffffffffffffffffffffffffffffff1614612128576040517f08c379a000000000000000000000000000000000000000000000000000000000815260040161211f906138b8565b60405180910390fd5b600073ffffffffffffffffffffffffffffffffffffffff168173ffffffffffffffffffffffffffffffffffffffff161415612198576040517f08c379a000000000000000000000000000000000000000000000000000000000815260040161218f906137b8565b60405180910390fd5b6121a18161289c565b50565b6121ac612264565b73ffffffffffffffffffffffffffffffffffffffff166121ca61176c565b73ffffffffffffffffffffffffffffffffffffffff1614612220576040517f08c379a0000000000000000000000000000000000000000000000000000000008152600401612217906138b8565b60405180910390fd5b8060cf60006101000a81548173ffffffffffffffffffffffffffffffffffffffff021916908373ffffffffffffffffffffffffffffffffffffffff16021790555050565b600033905090565b6000818361227a9190613a89565b905092915050565b60006122b07f360894a13ba1a3210667c828492db98dca3e2076cc3735a920a3ca505d382bbc60001b612a4b565b60000160009054906101000a900473ffffffffffffffffffffffffffffffffffffffff16905090565b6122e1612264565b73ffffffffffffffffffffffffffffffffffffffff166122ff61176c565b73ffffffffffffffffffffffffffffffffffffffff1614612355576040517f08c379a000000000000000000000000000000000000000000000000000000000815260040161234c906138b8565b60405180910390fd5b50565b6000612362612282565b905061236d84612a55565b60008351118061237a5750815b1561238b576123898484612b0e565b505b60006123b97f4910fdfa16fed3260ed0e7147f7cc6da11a60208b5b9406d12a635614ffd914360001b612bf2565b90508060000160009054906101000a900460ff166125225760018160000160006101000a81548160ff0219169083151502179055506124858583604051602401612403919061369b565b6040516020818303038152906040527f3659cfe6000000000000000000000000000000000000000000000000000000007bffffffffffffffffffffffffffffffffffffffffffffffffffffffff19166020820180517bffffffffffffffffffffffffffffffffffffffffffffffffffffffff8381831617835250505050612b0e565b5060008160000160006101000a81548160ff0219169083151502179055506124ab612282565b73ffffffffffffffffffffffffffffffffffffffff168273ffffffffffffffffffffffffffffffffffffffff1614612518576040517f08c379a000000000000000000000000000000000000000000000000000000000815260040161250f90613798565b60405180910390fd5b61252185612bfc565b5b5050505050565b600081836125379190613b10565b905092915050565b6000818361254d9190613adf565b905092915050565b600081836125639190613b6a565b905092915050565b600060c960009054906101000a900473ffffffffffffffffffffffffffffffffffffffff1673ffffffffffffffffffffffffffffffffffffffff166370a08231306040518263ffffffff1660e01b81526004016125c8919061369b565b60206040518083038186803b1580156125e057600080fd5b505afa1580156125f4573d6000803e3d6000fd5b505050506040513d601f19601f820116820180604052508101906126189190613292565b9050808211156126d75760c960009054906101000a900473ffffffffffffffffffffffffffffffffffffffff1673ffffffffffffffffffffffffffffffffffffffff1663a9059cbb84836040518363ffffffff1660e01b815260040161267f9291906136ed565b602060405180830381600087803b15801561269957600080fd5b505af11580156126ad573d6000803e3d6000fd5b505050506040513d601f19601f820116820180604052508101906126d19190613240565b50612788565b60c960009054906101000a900473ffffffffffffffffffffffffffffffffffffffff1673ffffffffffffffffffffffffffffffffffffffff1663a9059cbb84846040518363ffffffff1660e01b81526004016127349291906136ed565b602060405180830381600087803b15801561274e57600080fd5b505af1158015612762573d6000803e3d6000fd5b505050506040513d601f19601f820116820180604052508101906127869190613240565b505b505050565b61280e8363a9059cbb60e01b84846040516024016127ac9291906136ed565b604051602081830303815290604052907bffffffffffffffffffffffffffffffffffffffffffffffffffffffff19166020820180517bffffffffffffffffffffffffffffffffffffffffffffffffffffffff8381831617835250505050612c4b565b505050565b612896846323b872dd60e01b858585604051602401612834939291906136b6565b604051602081830303815290604052907bffffffffffffffffffffffffffffffffffffffffffffffffffffffff19166020820180517bffffffffffffffffffffffffffffffffffffffffffffffffffffffff8381831617835250505050612c4b565b50505050565b6000609760009054906101000a900473ffffffffffffffffffffffffffffffffffffffff16905081609760006101000a81548173ffffffffffffffffffffffffffffffffffffffff021916908373ffffffffffffffffffffffffffffffffffffffff1602179055508173ffffffffffffffffffffffffffffffffffffffff168173ffffffffffffffffffffffffffffffffffffffff167f8be0079c531659141344cd1fd0a4f28419497f9722a3daafe3b4186f6b6457e060405160405180910390a35050565b600060019054906101000a900460ff1680612988575060008054906101000a900460ff16155b6129c7576040517f08c379a00000000000000000000000000000000000000000000000000000000081526004016129be90613838565b60405180910390fd5b60008060019054906101000a900460ff161590508015612a17576001600060016101000a81548160ff02191690831515021790555060016000806101000a81548160ff0219169083151502179055505b612a1f612d12565b612a27612deb565b8015612a485760008060016101000a81548160ff0219169083151502179055505b50565b6000819050919050565b612a5e81612ed4565b612a9d576040517f08c379a0000000000000000000000000000000000000000000000000000000008152600401612a9490613898565b60405180910390fd5b80612aca7f360894a13ba1a3210667c828492db98dca3e2076cc3735a920a3ca505d382bbc60001b612a4b565b60000160006101000a81548173ffffffffffffffffffffffffffffffffffffffff021916908373ffffffffffffffffffffffffffffffffffffffff16021790555050565b6060612b1983612ed4565b612b58576040517f08c379a0000000000000000000000000000000000000000000000000000000008152600401612b4f906138d8565b60405180910390fd5b6000808473ffffffffffffffffffffffffffffffffffffffff1684604051612b809190613684565b600060405180830381855af49150503d8060008114612bbb576040519150601f19603f3d011682016040523d82523d6000602084013e612bc0565b606091505b5091509150612be882826040518060600160405280602781526020016141dc60279139612ee7565b9250505092915050565b6000819050919050565b612c0581612a55565b8073ffffffffffffffffffffffffffffffffffffffff167fbc7cd75a20ee27fd9adebab32041f755214dbc6bffa90cc0225b39da2e5c2d3b60405160405180910390a250565b6000612cad826040518060400160405280602081526020017f5361666545524332303a206c6f772d6c6576656c2063616c6c206661696c65648152508573ffffffffffffffffffffffffffffffffffffffff16612f4e9092919063ffffffff16565b9050600081511115612d0d5780806020019051810190612ccd9190613240565b612d0c576040517f08c379a0000000000000000000000000000000000000000000000000000000008152600401612d0390613938565b60405180910390fd5b5b505050565b600060019054906101000a900460ff1680612d38575060008054906101000a900460ff16155b612d77576040517f08c379a0000000000000000000000000000000000000000000000000000000008152600401612d6e90613838565b60405180910390fd5b60008060019054906101000a900460ff161590508015612dc7576001600060016101000a81548160ff02191690831515021790555060016000806101000a81548160ff0219169083151502179055505b8015612de85760008060016101000a81548160ff0219169083151502179055505b50565b600060019054906101000a900460ff1680612e11575060008054906101000a900460ff16155b612e50576040517f08c379a0000000000000000000000000000000000000000000000000000000008152600401612e4790613838565b60405180910390fd5b60008060019054906101000a900460ff161590508015612ea0576001600060016101000a81548160ff02191690831515021790555060016000806101000a81548160ff0219169083151502179055505b612eb0612eab612264565b61289c565b8015612ed15760008060016101000a81548160ff0219169083151502179055505b50565b600080823b905060008111915050919050565b60608315612ef757829050612f47565b600083511115612f0a5782518084602001fd5b816040517f08c379a0000000000000000000000000000000000000000000000000000000008152600401612f3e9190613776565b60405180910390fd5b9392505050565b6060612f5d8484600085612f66565b90509392505050565b606082471015612fab576040517f08c379a0000000000000000000000000000000000000000000000000000000008152600401612fa290613818565b60405180910390fd5b612fb485612ed4565b612ff3576040517f08c379a0000000000000000000000000000000000000000000000000000000008152600401612fea906138f8565b60405180910390fd5b6000808673ffffffffffffffffffffffffffffffffffffffff16858760405161301c9190613684565b60006040518083038185875af1925050503d8060008114613059576040519150601f19603f3d011682016040523d82523d6000602084013e61305e565b606091505b509150915061306e828286612ee7565b92505050949350505050565b600061308d61308884613a26565b613a01565b9050828152602081018484840111156130a557600080fd5b6130b0848285613c1c565b509392505050565b6000813590506130c78161417f565b92915050565b6000813590506130dc81614196565b92915050565b6000815190506130f181614196565b92915050565b600082601f83011261310857600080fd5b813561311884826020860161307a565b91505092915050565b600081359050613130816141ad565b92915050565b600081359050613145816141c4565b92915050565b60008151905061315a816141c4565b92915050565b60006020828403121561317257600080fd5b6000613180848285016130b8565b91505092915050565b6000806000806080858703121561319f57600080fd5b60006131ad878288016130b8565b94505060206131be878288016130b8565b93505060406131cf87828801613136565b92505060606131e087828801613136565b91505092959194509250565b600080604083850312156131ff57600080fd5b600061320d858286016130b8565b925050602083013567ffffffffffffffff81111561322a57600080fd5b613236858286016130f7565b9150509250929050565b60006020828403121561325257600080fd5b6000613260848285016130e2565b91505092915050565b60006020828403121561327b57600080fd5b600061328984828501613136565b91505092915050565b6000602082840312156132a457600080fd5b60006132b28482850161314b565b91505092915050565b600080604083850312156132ce57600080fd5b60006132dc85828601613136565b92505060206132ed858286016130b8565b9150509250929050565b60008060006060848603121561330c57600080fd5b600061331a86828701613136565b935050602061332b86828701613121565b925050604061333c868287016130cd565b9150509250925092565b6000806040838503121561335957600080fd5b600061336785828601613136565b925050602061337885828601613136565b9150509250929050565b60008060006060848603121561339757600080fd5b60006133a586828701613136565b93505060206133b686828701613136565b92505060406133c7868287016130cd565b9150509250925092565b6133da81613b9e565b82525050565b6133e981613bb0565b82525050565b60006133fa82613a57565b6134048185613a6d565b9350613414818560208601613c2b565b80840191505092915050565b61342981613bf8565b82525050565b600061343a82613a62565b6134448185613a78565b9350613454818560208601613c2b565b61345d81613d65565b840191505092915050565b6000613475602f83613a78565b915061348082613d76565b604082019050919050565b6000613498602683613a78565b91506134a382613dc5565b604082019050919050565b60006134bb602c83613a78565b91506134c682613e14565b604082019050919050565b60006134de602c83613a78565b91506134e982613e63565b604082019050919050565b6000613501602683613a78565b915061350c82613eb2565b604082019050919050565b6000613524602e83613a78565b915061352f82613f01565b604082019050919050565b6000613547600983613a78565b915061355282613f50565b602082019050919050565b600061356a603283613a78565b915061357582613f79565b604082019050919050565b600061358d602d83613a78565b915061359882613fc8565b604082019050919050565b60006135b0602083613a78565b91506135bb82614017565b602082019050919050565b60006135d3602683613a78565b91506135de82614040565b604082019050919050565b60006135f6601d83613a78565b91506136018261408f565b602082019050919050565b6000613619601283613a78565b9150613624826140b8565b602082019050919050565b600061363c602a83613a78565b9150613647826140e1565b604082019050919050565b600061365f603683613a78565b915061366a82614130565b604082019050919050565b61367e81613bee565b82525050565b600061369082846133ef565b915081905092915050565b60006020820190506136b060008301846133d1565b92915050565b60006060820190506136cb60008301866133d1565b6136d860208301856133d1565b6136e56040830184613675565b949350505050565b600060408201905061370260008301856133d1565b61370f6020830184613675565b9392505050565b600060208201905061372b6000830184613420565b92915050565b60006080820190506137466000830187613420565b6137536020830186613675565b6137606040830185613675565b61376d6060830184613675565b95945050505050565b60006020820190508181036000830152613790818461342f565b905092915050565b600060208201905081810360008301526137b181613468565b9050919050565b600060208201905081810360008301526137d18161348b565b9050919050565b600060208201905081810360008301526137f1816134ae565b9050919050565b60006020820190508181036000830152613811816134d1565b9050919050565b60006020820190508181036000830152613831816134f4565b9050919050565b6000602082019050818103600083015261385181613517565b9050919050565b600060208201905081810360008301526138718161353a565b9050919050565b600060208201905081810360008301526138918161355d565b9050919050565b600060208201905081810360008301526138b181613580565b9050919050565b600060208201905081810360008301526138d1816135a3565b9050919050565b600060208201905081810360008301526138f1816135c6565b9050919050565b60006020820190508181036000830152613911816135e9565b9050919050565b600060208201905081810360008301526139318161360c565b9050919050565b600060208201905081810360008301526139518161362f565b9050919050565b6000602082019050818103600083015261397181613652565b9050919050565b600060208201905061398d6000830184613675565b92915050565b60006040820190506139a86000830185613675565b6139b56020830184613675565b9392505050565b60006080820190506139d16000830187613675565b6139de6020830186613675565b6139eb6040830185613675565b6139f860608301846133e0565b95945050505050565b6000613a0b613a1c565b9050613a178282613c5e565b919050565b6000604051905090565b600067ffffffffffffffff821115613a4157613a40613d36565b5b613a4a82613d65565b9050602081019050919050565b600081519050919050565b600081519050919050565b600081905092915050565b600082825260208201905092915050565b6000613a9482613bee565b9150613a9f83613bee565b9250827fffffffffffffffffffffffffffffffffffffffffffffffffffffffffffffffff03821115613ad457613ad3613cd8565b5b828201905092915050565b6000613aea82613bee565b9150613af583613bee565b925082613b0557613b04613d07565b5b828204905092915050565b6000613b1b82613bee565b9150613b2683613bee565b9250817fffffffffffffffffffffffffffffffffffffffffffffffffffffffffffffffff0483118215151615613b5f57613b5e613cd8565b5b828202905092915050565b6000613b7582613bee565b9150613b8083613bee565b925082821015613b9357613b92613cd8565b5b828203905092915050565b6000613ba982613bce565b9050919050565b60008115159050919050565b6000613bc782613b9e565b9050919050565b600073ffffffffffffffffffffffffffffffffffffffff82169050919050565b6000819050919050565b6000613c0382613c0a565b9050919050565b6000613c1582613bce565b9050919050565b82818337600083830152505050565b60005b83811015613c49578082015181840152602081019050613c2e565b83811115613c58576000848401525b50505050565b613c6782613d65565b810181811067ffffffffffffffff82111715613c8657613c85613d36565b5b80604052505050565b6000613c9a82613bee565b91507fffffffffffffffffffffffffffffffffffffffffffffffffffffffffffffffff821415613ccd57613ccc613cd8565b5b600182019050919050565b7f4e487b7100000000000000000000000000000000000000000000000000000000600052601160045260246000fd5b7f4e487b7100000000000000000000000000000000000000000000000000000000600052601260045260246000fd5b7f4e487b7100000000000000000000000000000000000000000000000000000000600052604160045260246000fd5b6000601f19601f8301169050919050565b7f45524331393637557067726164653a207570677261646520627265616b73206660008201527f7572746865722075706772616465730000000000000000000000000000000000602082015250565b7f4f776e61626c653a206e6577206f776e657220697320746865207a65726f206160008201527f6464726573730000000000000000000000000000000000000000000000000000602082015250565b7f46756e6374696f6e206d7573742062652063616c6c6564207468726f7567682060008201527f64656c656761746563616c6c0000000000000000000000000000000000000000602082015250565b7f46756e6374696f6e206d7573742062652063616c6c6564207468726f7567682060008201527f6163746976652070726f78790000000000000000000000000000000000000000602082015250565b7f416464726573733a20696e73756666696369656e742062616c616e636520666f60008201527f722063616c6c0000000000000000000000000000000000000000000000000000602082015250565b7f496e697469616c697a61626c653a20636f6e747261637420697320616c72656160008201527f647920696e697469616c697a6564000000000000000000000000000000000000602082015250565b7f6465763a207775743f0000000000000000000000000000000000000000000000600082015250565b7f736574486f776c506572426c6f636b3a20616d6f756e74206d7573742062652060008201527f67726561746572207468616e2031207765690000000000000000000000000000602082015250565b7f455243313936373a206e657720696d706c656d656e746174696f6e206973206e60008201527f6f74206120636f6e747261637400000000000000000000000000000000000000602082015250565b7f4f776e61626c653a2063616c6c6572206973206e6f7420746865206f776e6572600082015250565b7f416464726573733a2064656c65676174652063616c6c20746f206e6f6e2d636f60008201527f6e74726163740000000000000000000000000000000000000000000000000000602082015250565b7f416464726573733a2063616c6c20746f206e6f6e2d636f6e7472616374000000600082015250565b7f77697468647261773a206e6f7420676f6f640000000000000000000000000000600082015250565b7f5361666545524332303a204552433230206f7065726174696f6e20646964206e60008201527f6f74207375636365656400000000000000000000000000000000000000000000602082015250565b7f77697468647261773a207769746864726177616c206973206f6e6c792061766160008201527f696c61626c65206166746572206c6f636b2074696d6500000000000000000000602082015250565b61418881613b9e565b811461419357600080fd5b50565b61419f81613bb0565b81146141aa57600080fd5b50565b6141b681613bbc565b81146141c157600080fd5b50565b6141cd81613bee565b81146141d857600080fd5b5056fe416464726573733a206c6f772d6c6576656c2064656c65676174652063616c6c206661696c6564a26469706673582212204f28addfff333047ddf7b93b6763d74ab4c6144abb2786f3e92147fa1029a11264736f6c63430008020033",
  "linkReferences": {},
  "deployedLinkReferences": {}
}