{
  "_format": "hh-sol-artifact-1",
  "contractName": "Store",
  "sourceName": "contracts/Store.sol",
  "abi": [
    {
      "anonymous": false,
      "inputs": [
        {
          "indexed": false,
          "internalType": "address",
          "name": "previousAdmin",
          "type": "address"
        },
        {
          "indexed": false,
          "internalType": "address",
          "name": "newAdmin",
          "type": "address"
        }
      ],
      "name": "AdminChanged",
      "type": "event"
    },
    {
      "anonymous": false,
      "inputs": [
        {
          "indexed": true,
          "internalType": "address",
          "name": "beacon",
          "type": "address"
        }
      ],
      "name": "BeaconUpgraded",
      "type": "event"
    },
    {
      "anonymous": false,
      "inputs": [
        {
          "indexed": true,
          "internalType": "address",
          "name": "previousOwner",
          "type": "address"
        },
        {
          "indexed": true,
          "internalType": "address",
          "name": "newOwner",
          "type": "address"
        }
      ],
      "name": "OwnershipTransferred",
      "type": "event"
    },
    {
      "anonymous": false,
      "inputs": [
        {
          "indexed": false,
          "internalType": "uint256",
          "name": "itemId",
          "type": "uint256"
        },
        {
          "indexed": false,
          "internalType": "uint256",
          "name": "quantity",
          "type": "uint256"
        }
      ],
      "name": "QuantitySet",
      "type": "event"
    },
    {
      "anonymous": false,
      "inputs": [
        {
          "indexed": false,
          "internalType": "address",
          "name": "player",
          "type": "address"
        },
        {
          "indexed": false,
          "internalType": "uint256",
          "name": "numTicket",
          "type": "uint256"
        },
        {
          "indexed": false,
          "internalType": "uint256",
          "name": "price",
          "type": "uint256"
        }
      ],
      "name": "TicketBought",
      "type": "event"
    },
    {
      "anonymous": false,
      "inputs": [
        {
          "indexed": true,
          "internalType": "address",
          "name": "implementation",
          "type": "address"
        }
      ],
      "name": "Upgraded",
      "type": "event"
    },
    {
      "inputs": [
        {
          "internalType": "uint256",
          "name": "",
          "type": "uint256"
        }
      ],
      "name": "availableQuantity",
      "outputs": [
        {
          "internalType": "uint256",
          "name": "",
          "type": "uint256"
        }
      ],
      "stateMutability": "view",
      "type": "function"
    },
    {
      "inputs": [
        {
          "internalType": "string",
          "name": "uri",
          "type": "string"
        },
        {
          "internalType": "uint256",
          "name": "itemId",
          "type": "uint256"
        }
      ],
      "name": "buyGameItem",
      "outputs": [],
      "stateMutability": "nonpayable",
      "type": "function"
    },
    {
      "inputs": [
        {
          "internalType": "uint256",
          "name": "numTicket",
          "type": "uint256"
        }
      ],
      "name": "buyTicket",
      "outputs": [],
      "stateMutability": "nonpayable",
      "type": "function"
    },
    {
      "inputs": [],
      "name": "feeReceiver",
      "outputs": [
        {
          "internalType": "address",
          "name": "",
          "type": "address"
        }
      ],
      "stateMutability": "view",
      "type": "function"
    },
    {
      "inputs": [],
      "name": "gameController",
      "outputs": [
        {
          "internalType": "contract IGameController",
          "name": "",
          "type": "address"
        }
      ],
      "stateMutability": "view",
      "type": "function"
    },
    {
      "inputs": [],
      "name": "gameitem",
      "outputs": [
        {
          "internalType": "address",
          "name": "",
          "type": "address"
        }
      ],
      "stateMutability": "view",
      "type": "function"
    },
    {
      "inputs": [],
      "name": "getTicketPrice",
      "outputs": [
        {
          "internalType": "uint256",
          "name": "",
          "type": "uint256"
        }
      ],
      "stateMutability": "view",
      "type": "function"
    },
    {
      "inputs": [],
      "name": "howl",
      "outputs": [
        {
          "internalType": "address",
          "name": "",
          "type": "address"
        }
      ],
      "stateMutability": "view",
      "type": "function"
    },
    {
      "inputs": [
        {
          "internalType": "address",
          "name": "erc20",
          "type": "address"
        },
        {
          "internalType": "address",
          "name": "erc721",
          "type": "address"
        }
      ],
      "name": "initialize",
      "outputs": [],
      "stateMutability": "nonpayable",
      "type": "function"
    },
    {
      "inputs": [],
      "name": "owner",
      "outputs": [
        {
          "internalType": "address",
          "name": "",
          "type": "address"
        }
      ],
      "stateMutability": "view",
      "type": "function"
    },
    {
      "inputs": [],
      "name": "renounceOwnership",
      "outputs": [],
      "stateMutability": "nonpayable",
      "type": "function"
    },
    {
      "inputs": [
        {
          "internalType": "address",
          "name": "newFeeReceiver",
          "type": "address"
        }
      ],
      "name": "setFeeReceiver",
      "outputs": [],
      "stateMutability": "nonpayable",
      "type": "function"
    },
    {
      "inputs": [
        {
          "internalType": "address",
          "name": "controllerAddress",
          "type": "address"
        }
      ],
      "name": "setGameController",
      "outputs": [],
      "stateMutability": "nonpayable",
      "type": "function"
    },
    {
      "inputs": [
        {
          "internalType": "uint256",
          "name": "itemId",
          "type": "uint256"
        },
        {
          "internalType": "uint256",
          "name": "quantity",
          "type": "uint256"
        }
      ],
      "name": "setItemQuantity",
      "outputs": [],
      "stateMutability": "nonpayable",
      "type": "function"
    },
    {
      "inputs": [
        {
          "internalType": "uint256",
          "name": "itemId",
          "type": "uint256"
        },
        {
          "internalType": "uint256",
          "name": "newStorePrice",
          "type": "uint256"
        }
      ],
      "name": "setStorePrice",
      "outputs": [],
      "stateMutability": "nonpayable",
      "type": "function"
    },
    {
      "inputs": [
        {
          "internalType": "uint256",
          "name": "newTicketPrice",
          "type": "uint256"
        }
      ],
      "name": "setTicketPrice",
      "outputs": [],
      "stateMutability": "nonpayable",
      "type": "function"
    },
    {
      "inputs": [
        {
          "internalType": "uint256",
          "name": "",
          "type": "uint256"
        }
      ],
      "name": "storePrice",
      "outputs": [
        {
          "internalType": "uint256",
          "name": "",
          "type": "uint256"
        }
      ],
      "stateMutability": "view",
      "type": "function"
    },
    {
      "inputs": [],
      "name": "ticketPrice",
      "outputs": [
        {
          "internalType": "uint256",
          "name": "",
          "type": "uint256"
        }
      ],
      "stateMutability": "view",
      "type": "function"
    },
    {
      "inputs": [
        {
          "internalType": "address",
          "name": "newOwner",
          "type": "address"
        }
      ],
      "name": "transferOwnership",
      "outputs": [],
      "stateMutability": "nonpayable",
      "type": "function"
    },
    {
      "inputs": [
        {
          "internalType": "address",
          "name": "newImplementation",
          "type": "address"
        }
      ],
      "name": "upgradeTo",
      "outputs": [],
      "stateMutability": "nonpayable",
      "type": "function"
    },
    {
      "inputs": [
        {
          "internalType": "address",
          "name": "newImplementation",
          "type": "address"
        },
        {
          "internalType": "bytes",
          "name": "data",
          "type": "bytes"
        }
      ],
      "name": "upgradeToAndCall",
      "outputs": [],
      "stateMutability": "payable",
      "type": "function"
    }
  ],
  "bytecode": "0x60a06040523073ffffffffffffffffffffffffffffffffffffffff1660809073ffffffffffffffffffffffffffffffffffffffff1660601b81525034801561004657600080fd5b5060805160601c612ce461007a6000396000818161058c0152818161061b0152818161092901526109b80152612ce46000f3fe60806040526004361061012a5760003560e01c8063715018a6116100ab578063a56d63401161006f578063a56d6340146103a9578063b3f00674146103d2578063bb784776146103fd578063efdcd97414610426578063f2fde38b1461044f578063f68256a8146104785761012a565b8063715018a6146102ea57806387bb7ae0146103015780638da5cb5b1461032c5780638eaa62e8146103575780639a321caf146103805761012a565b8063485cc955116100f2578063485cc955146102145780634f1ef2861461023d57806364a613d91461025957806367dd74ca146102965780636803c78d146102bf5761012a565b80631209b1f61461012f578063159816501461015a578063344d0f4f146101835780633659cfe6146101c0578063383644ab146101e9575b600080fd5b34801561013b57600080fd5b506101446104a3565b6040516101519190612574565b60405180910390f35b34801561016657600080fd5b50610181600480360381019061017c9190611f6d565b6104a9565b005b34801561018f57600080fd5b506101aa60048036038101906101a59190611f6d565b610572565b6040516101b79190612574565b60405180910390f35b3480156101cc57600080fd5b506101e760048036038101906101e29190611e37565b61058a565b005b3480156101f557600080fd5b506101fe610739565b60405161020b9190612279565b60405180910390f35b34801561022057600080fd5b5061023b60048036038101906102369190611e60565b61075f565b005b61025760048036038101906102529190611e9c565b610927565b005b34801561026557600080fd5b50610280600480360381019061027b9190611f6d565b610a64565b60405161028d9190612574565b60405180910390f35b3480156102a257600080fd5b506102bd60048036038101906102b89190611f6d565b610a7c565b005b3480156102cb57600080fd5b506102d4610cb7565b6040516102e19190612279565b60405180910390f35b3480156102f657600080fd5b506102ff610cdd565b005b34801561030d57600080fd5b50610316610d65565b6040516103239190612574565b60405180910390f35b34801561033857600080fd5b50610341610d6f565b60405161034e9190612279565b60405180910390f35b34801561036357600080fd5b5061037e60048036038101906103799190611f19565b610d99565b005b34801561038c57600080fd5b506103a760048036038101906103a29190611f96565b610fdb565b005b3480156103b557600080fd5b506103d060048036038101906103cb9190611e37565b611073565b005b3480156103de57600080fd5b506103e7611133565b6040516103f49190612279565b60405180910390f35b34801561040957600080fd5b50610424600480360381019061041f9190611f96565b611159565b005b34801561043257600080fd5b5061044d60048036038101906104489190611e37565b61122a565b005b34801561045b57600080fd5b5061047660048036038101906104719190611e37565b61135a565b005b34801561048457600080fd5b5061048d611452565b60405161049a9190612377565b60405180910390f35b60c95481565b6104b1611478565b73ffffffffffffffffffffffffffffffffffffffff166104cf610d6f565b73ffffffffffffffffffffffffffffffffffffffff1614610525576040517f08c379a000000000000000000000000000000000000000000000000000000000815260040161051c906124d4565b60405180910390fd5b60008111610568576040517f08c379a000000000000000000000000000000000000000000000000000000000815260040161055f90612554565b60405180910390fd5b8060c98190555050565b60ce6020528060005260406000206000915090505481565b7f000000000000000000000000000000000000000000000000000000000000000073ffffffffffffffffffffffffffffffffffffffff163073ffffffffffffffffffffffffffffffffffffffff161415610619576040517f08c379a0000000000000000000000000000000000000000000000000000000008152600401610610906123f4565b60405180910390fd5b7f000000000000000000000000000000000000000000000000000000000000000073ffffffffffffffffffffffffffffffffffffffff16610658611480565b73ffffffffffffffffffffffffffffffffffffffff16146106ae576040517f08c379a00000000000000000000000000000000000000000000000000000000081526004016106a590612454565b60405180910390fd5b6106b7816114d7565b61073681600067ffffffffffffffff8111156106fc577f4e487b7100000000000000000000000000000000000000000000000000000000600052604160045260246000fd5b6040519080825280601f01601f19166020018201604052801561072e5781602001600182028036833780820191505090505b506000611556565b50565b60cc60009054906101000a900473ffffffffffffffffffffffffffffffffffffffff1681565b600060019054906101000a900460ff1680610785575060008054906101000a900460ff16155b6107c4576040517f08c379a00000000000000000000000000000000000000000000000000000000081526004016107bb90612494565b60405180910390fd5b60008060019054906101000a900460ff161590508015610814576001600060016101000a81548160ff02191690831515021790555060016000806101000a81548160ff0219169083151502179055505b61081c611727565b8260cb60006101000a81548173ffffffffffffffffffffffffffffffffffffffff021916908373ffffffffffffffffffffffffffffffffffffffff1602179055508160cc60006101000a81548173ffffffffffffffffffffffffffffffffffffffff021916908373ffffffffffffffffffffffffffffffffffffffff1602179055506108ba670de0b6b3a7640000600a61181090919063ffffffff16565b60c9819055503360ca60006101000a81548173ffffffffffffffffffffffffffffffffffffffff021916908373ffffffffffffffffffffffffffffffffffffffff16021790555080156109225760008060016101000a81548160ff0219169083151502179055505b505050565b7f000000000000000000000000000000000000000000000000000000000000000073ffffffffffffffffffffffffffffffffffffffff163073ffffffffffffffffffffffffffffffffffffffff1614156109b6576040517f08c379a00000000000000000000000000000000000000000000000000000000081526004016109ad906123f4565b60405180910390fd5b7f000000000000000000000000000000000000000000000000000000000000000073ffffffffffffffffffffffffffffffffffffffff166109f5611480565b73ffffffffffffffffffffffffffffffffffffffff1614610a4b576040517f08c379a0000000000000000000000000000000000000000000000000000000008152600401610a4290612454565b60405180910390fd5b610a54826114d7565b610a6082826001611556565b5050565b60cf6020528060005260406000206000915090505481565b60008111610abf576040517f08c379a0000000000000000000000000000000000000000000000000000000008152600401610ab690612434565b60405180910390fd5b600060c95482610acf9190612671565b9050600060cb60009054906101000a900473ffffffffffffffffffffffffffffffffffffffff1673ffffffffffffffffffffffffffffffffffffffff166323b872dd3360ca60009054906101000a900473ffffffffffffffffffffffffffffffffffffffff16856040518463ffffffff1660e01b8152600401610b5493929190612294565b602060405180830381600087803b158015610b6e57600080fd5b505af1158015610b82573d6000803e3d6000fd5b505050506040513d601f19601f82011682018060405250810190610ba69190611ef0565b905080610be8576040517f08c379a0000000000000000000000000000000000000000000000000000000008152600401610bdf90612474565b60405180910390fd5b60cd60009054906101000a900473ffffffffffffffffffffffffffffffffffffffff1673ffffffffffffffffffffffffffffffffffffffff16635d9aeaaa33856040518363ffffffff1660e01b8152600401610c45929190612317565b600060405180830381600087803b158015610c5f57600080fd5b505af1158015610c73573d6000803e3d6000fd5b505050507f97fac0ce6558f4accbb4696915809c0ef7023ffe7ba9454e94d49fb652aae1d5338484604051610caa93929190612340565b60405180910390a1505050565b60cb60009054906101000a900473ffffffffffffffffffffffffffffffffffffffff1681565b610ce5611478565b73ffffffffffffffffffffffffffffffffffffffff16610d03610d6f565b73ffffffffffffffffffffffffffffffffffffffff1614610d59576040517f08c379a0000000000000000000000000000000000000000000000000000000008152600401610d50906124d4565b60405180910390fd5b610d636000611826565b565b600060c954905090565b6000609760009054906101000a900473ffffffffffffffffffffffffffffffffffffffff16905090565b600060cf60008381526020019081526020016000205411610def576040517f08c379a0000000000000000000000000000000000000000000000000000000008152600401610de690612514565b60405180910390fd5b600060cb60009054906101000a900473ffffffffffffffffffffffffffffffffffffffff1673ffffffffffffffffffffffffffffffffffffffff166323b872dd3360ca60009054906101000a900473ffffffffffffffffffffffffffffffffffffffff1660ce6000878152602001908152602001600020546040518463ffffffff1660e01b8152600401610e8593929190612294565b602060405180830381600087803b158015610e9f57600080fd5b505af1158015610eb3573d6000803e3d6000fd5b505050506040513d601f19601f82011682018060405250810190610ed79190611ef0565b905080610f19576040517f08c379a0000000000000000000000000000000000000000000000000000000008152600401610f1090612414565b60405180910390fd5b60cc60009054906101000a900473ffffffffffffffffffffffffffffffffffffffff1673ffffffffffffffffffffffffffffffffffffffff16633b4770bc33858560036040518563ffffffff1660e01b8152600401610f7b94939291906122cb565b600060405180830381600087803b158015610f9557600080fd5b505af1158015610fa9573d6000803e3d6000fd5b5050505060cf60008381526020019081526020016000206000815480929190610fd190612798565b9190505550505050565b610fe3611478565b73ffffffffffffffffffffffffffffffffffffffff16611001610d6f565b73ffffffffffffffffffffffffffffffffffffffff1614611057576040517f08c379a000000000000000000000000000000000000000000000000000000000815260040161104e906124d4565b60405180910390fd5b8060ce6000848152602001908152602001600020819055505050565b61107b611478565b73ffffffffffffffffffffffffffffffffffffffff16611099610d6f565b73ffffffffffffffffffffffffffffffffffffffff16146110ef576040517f08c379a00000000000000000000000000000000000000000000000000000000081526004016110e6906124d4565b60405180910390fd5b8060cd60006101000a81548173ffffffffffffffffffffffffffffffffffffffff021916908373ffffffffffffffffffffffffffffffffffffffff16021790555050565b60ca60009054906101000a900473ffffffffffffffffffffffffffffffffffffffff1681565b611161611478565b73ffffffffffffffffffffffffffffffffffffffff1661117f610d6f565b73ffffffffffffffffffffffffffffffffffffffff16146111d5576040517f08c379a00000000000000000000000000000000000000000000000000000000081526004016111cc906124d4565b60405180910390fd5b8060cf6000848152602001908152602001600020819055507ff66209169e22f4f59dad29f7c4fb1aebcbc5e0081f9dad5775461c3cdcd030cc828260405161121e92919061258f565b60405180910390a15050565b611232611478565b73ffffffffffffffffffffffffffffffffffffffff16611250610d6f565b73ffffffffffffffffffffffffffffffffffffffff16146112a6576040517f08c379a000000000000000000000000000000000000000000000000000000000815260040161129d906124d4565b60405180910390fd5b600073ffffffffffffffffffffffffffffffffffffffff168173ffffffffffffffffffffffffffffffffffffffff161415611316576040517f08c379a000000000000000000000000000000000000000000000000000000000815260040161130d90612534565b60405180910390fd5b8060ca60006101000a81548173ffffffffffffffffffffffffffffffffffffffff021916908373ffffffffffffffffffffffffffffffffffffffff16021790555050565b611362611478565b73ffffffffffffffffffffffffffffffffffffffff16611380610d6f565b73ffffffffffffffffffffffffffffffffffffffff16146113d6576040517f08c379a00000000000000000000000000000000000000000000000000000000081526004016113cd906124d4565b60405180910390fd5b600073ffffffffffffffffffffffffffffffffffffffff168173ffffffffffffffffffffffffffffffffffffffff161415611446576040517f08c379a000000000000000000000000000000000000000000000000000000000815260040161143d906123d4565b60405180910390fd5b61144f81611826565b50565b60cd60009054906101000a900473ffffffffffffffffffffffffffffffffffffffff1681565b600033905090565b60006114ae7f360894a13ba1a3210667c828492db98dca3e2076cc3735a920a3ca505d382bbc60001b6118ec565b60000160009054906101000a900473ffffffffffffffffffffffffffffffffffffffff16905090565b6114df611478565b73ffffffffffffffffffffffffffffffffffffffff166114fd610d6f565b73ffffffffffffffffffffffffffffffffffffffff1614611553576040517f08c379a000000000000000000000000000000000000000000000000000000000815260040161154a906124d4565b60405180910390fd5b50565b6000611560611480565b905061156b846118f6565b6000835111806115785750815b156115895761158784846119af565b505b60006115b77f4910fdfa16fed3260ed0e7147f7cc6da11a60208b5b9406d12a635614ffd914360001b611a93565b90508060000160009054906101000a900460ff166117205760018160000160006101000a81548160ff02191690831515021790555061168385836040516024016116019190612279565b6040516020818303038152906040527f3659cfe6000000000000000000000000000000000000000000000000000000007bffffffffffffffffffffffffffffffffffffffffffffffffffffffff19166020820180517bffffffffffffffffffffffffffffffffffffffffffffffffffffffff83818316178352505050506119af565b5060008160000160006101000a81548160ff0219169083151502179055506116a9611480565b73ffffffffffffffffffffffffffffffffffffffff168273ffffffffffffffffffffffffffffffffffffffff1614611716576040517f08c379a000000000000000000000000000000000000000000000000000000000815260040161170d906123b4565b60405180910390fd5b61171f85611a9d565b5b5050505050565b600060019054906101000a900460ff168061174d575060008054906101000a900460ff16155b61178c576040517f08c379a000000000000000000000000000000000000000000000000000000000815260040161178390612494565b60405180910390fd5b60008060019054906101000a900460ff1615905080156117dc576001600060016101000a81548160ff02191690831515021790555060016000806101000a81548160ff0219169083151502179055505b6117e4611aec565b6117ec611bc5565b801561180d5760008060016101000a81548160ff0219169083151502179055505b50565b6000818361181e9190612671565b905092915050565b6000609760009054906101000a900473ffffffffffffffffffffffffffffffffffffffff16905081609760006101000a81548173ffffffffffffffffffffffffffffffffffffffff021916908373ffffffffffffffffffffffffffffffffffffffff1602179055508173ffffffffffffffffffffffffffffffffffffffff168173ffffffffffffffffffffffffffffffffffffffff167f8be0079c531659141344cd1fd0a4f28419497f9722a3daafe3b4186f6b6457e060405160405180910390a35050565b6000819050919050565b6118ff81611cae565b61193e576040517f08c379a0000000000000000000000000000000000000000000000000000000008152600401611935906124b4565b60405180910390fd5b8061196b7f360894a13ba1a3210667c828492db98dca3e2076cc3735a920a3ca505d382bbc60001b6118ec565b60000160006101000a81548173ffffffffffffffffffffffffffffffffffffffff021916908373ffffffffffffffffffffffffffffffffffffffff16021790555050565b60606119ba83611cae565b6119f9576040517f08c379a00000000000000000000000000000000000000000000000000000000081526004016119f0906124f4565b60405180910390fd5b6000808473ffffffffffffffffffffffffffffffffffffffff1684604051611a219190612262565b600060405180830381855af49150503d8060008114611a5c576040519150601f19603f3d011682016040523d82523d6000602084013e611a61565b606091505b5091509150611a898282604051806060016040528060278152602001612c8860279139611cc1565b9250505092915050565b6000819050919050565b611aa6816118f6565b8073ffffffffffffffffffffffffffffffffffffffff167fbc7cd75a20ee27fd9adebab32041f755214dbc6bffa90cc0225b39da2e5c2d3b60405160405180910390a250565b600060019054906101000a900460ff1680611b12575060008054906101000a900460ff16155b611b51576040517f08c379a0000000000000000000000000000000000000000000000000000000008152600401611b4890612494565b60405180910390fd5b60008060019054906101000a900460ff161590508015611ba1576001600060016101000a81548160ff02191690831515021790555060016000806101000a81548160ff0219169083151502179055505b8015611bc25760008060016101000a81548160ff0219169083151502179055505b50565b600060019054906101000a900460ff1680611beb575060008054906101000a900460ff16155b611c2a576040517f08c379a0000000000000000000000000000000000000000000000000000000008152600401611c2190612494565b60405180910390fd5b60008060019054906101000a900460ff161590508015611c7a576001600060016101000a81548160ff02191690831515021790555060016000806101000a81548160ff0219169083151502179055505b611c8a611c85611478565b611826565b8015611cab5760008060016101000a81548160ff0219169083151502179055505b50565b600080823b905060008111915050919050565b60608315611cd157829050611d21565b600083511115611ce45782518084602001fd5b816040517f08c379a0000000000000000000000000000000000000000000000000000000008152600401611d189190612392565b60405180910390fd5b9392505050565b6000611d3b611d36846125dd565b6125b8565b905082815260208101848484011115611d5357600080fd5b611d5e848285612756565b509392505050565b6000611d79611d748461260e565b6125b8565b905082815260208101848484011115611d9157600080fd5b611d9c848285612756565b509392505050565b600081359050611db381612c42565b92915050565b600081519050611dc881612c59565b92915050565b600082601f830112611ddf57600080fd5b8135611def848260208601611d28565b91505092915050565b600082601f830112611e0957600080fd5b8135611e19848260208601611d66565b91505092915050565b600081359050611e3181612c70565b92915050565b600060208284031215611e4957600080fd5b6000611e5784828501611da4565b91505092915050565b60008060408385031215611e7357600080fd5b6000611e8185828601611da4565b9250506020611e9285828601611da4565b9150509250929050565b60008060408385031215611eaf57600080fd5b6000611ebd85828601611da4565b925050602083013567ffffffffffffffff811115611eda57600080fd5b611ee685828601611dce565b9150509250929050565b600060208284031215611f0257600080fd5b6000611f1084828501611db9565b91505092915050565b60008060408385031215611f2c57600080fd5b600083013567ffffffffffffffff811115611f4657600080fd5b611f5285828601611df8565b9250506020611f6385828601611e22565b9150509250929050565b600060208284031215611f7f57600080fd5b6000611f8d84828501611e22565b91505092915050565b60008060408385031215611fa957600080fd5b6000611fb785828601611e22565b9250506020611fc885828601611e22565b9150509250929050565b611fdb816126cb565b82525050565b6000611fec8261263f565b611ff68185612655565b9350612006818560208601612765565b80840191505092915050565b61201b81612720565b82525050565b61202a81612744565b82525050565b600061203b8261264a565b6120458185612660565b9350612055818560208601612765565b61205e81612851565b840191505092915050565b6000612076602f83612660565b915061208182612862565b604082019050919050565b6000612099602683612660565b91506120a4826128b1565b604082019050919050565b60006120bc602c83612660565b91506120c782612900565b604082019050919050565b60006120df602383612660565b91506120ea8261294f565b604082019050919050565b6000612102603983612660565b915061210d8261299e565b604082019050919050565b6000612125602c83612660565b9150612130826129ed565b604082019050919050565b6000612148601d83612660565b915061215382612a3c565b602082019050919050565b600061216b602e83612660565b915061217682612a65565b604082019050919050565b600061218e602d83612660565b915061219982612ab4565b604082019050919050565b60006121b1602083612660565b91506121bc82612b03565b602082019050919050565b60006121d4602683612660565b91506121df82612b2c565b604082019050919050565b60006121f7602783612660565b915061220282612b7b565b604082019050919050565b600061221a601c83612660565b915061222582612bca565b602082019050919050565b600061223d602c83612660565b915061224882612bf3565b604082019050919050565b61225c81612709565b82525050565b600061226e8284611fe1565b915081905092915050565b600060208201905061228e6000830184611fd2565b92915050565b60006060820190506122a96000830186611fd2565b6122b66020830185611fd2565b6122c36040830184612253565b949350505050565b60006080820190506122e06000830187611fd2565b81810360208301526122f28186612030565b90506123016040830185612253565b61230e6060830184612021565b95945050505050565b600060408201905061232c6000830185611fd2565b6123396020830184612253565b9392505050565b60006060820190506123556000830186611fd2565b6123626020830185612253565b61236f6040830184612253565b949350505050565b600060208201905061238c6000830184612012565b92915050565b600060208201905081810360008301526123ac8184612030565b905092915050565b600060208201905081810360008301526123cd81612069565b9050919050565b600060208201905081810360008301526123ed8161208c565b9050919050565b6000602082019050818103600083015261240d816120af565b9050919050565b6000602082019050818103600083015261242d816120d2565b9050919050565b6000602082019050818103600083015261244d816120f5565b9050919050565b6000602082019050818103600083015261246d81612118565b9050919050565b6000602082019050818103600083015261248d8161213b565b9050919050565b600060208201905081810360008301526124ad8161215e565b9050919050565b600060208201905081810360008301526124cd81612181565b9050919050565b600060208201905081810360008301526124ed816121a4565b9050919050565b6000602082019050818103600083015261250d816121c7565b9050919050565b6000602082019050818103600083015261252d816121ea565b9050919050565b6000602082019050818103600083015261254d8161220d565b9050919050565b6000602082019050818103600083015261256d81612230565b9050919050565b60006020820190506125896000830184612253565b92915050565b60006040820190506125a46000830185612253565b6125b16020830184612253565b9392505050565b60006125c26125d3565b90506125ce82826127c2565b919050565b6000604051905090565b600067ffffffffffffffff8211156125f8576125f7612822565b5b61260182612851565b9050602081019050919050565b600067ffffffffffffffff82111561262957612628612822565b5b61263282612851565b9050602081019050919050565b600081519050919050565b600081519050919050565b600081905092915050565b600082825260208201905092915050565b600061267c82612709565b915061268783612709565b9250817fffffffffffffffffffffffffffffffffffffffffffffffffffffffffffffffff04831182151516156126c0576126bf6127f3565b5b828202905092915050565b60006126d6826126e9565b9050919050565b60008115159050919050565b600073ffffffffffffffffffffffffffffffffffffffff82169050919050565b6000819050919050565b600060ff82169050919050565b600061272b82612732565b9050919050565b600061273d826126e9565b9050919050565b600061274f82612713565b9050919050565b82818337600083830152505050565b60005b83811015612783578082015181840152602081019050612768565b83811115612792576000848401525b50505050565b60006127a382612709565b915060008214156127b7576127b66127f3565b5b600182039050919050565b6127cb82612851565b810181811067ffffffffffffffff821117156127ea576127e9612822565b5b80604052505050565b7f4e487b7100000000000000000000000000000000000000000000000000000000600052601160045260246000fd5b7f4e487b7100000000000000000000000000000000000000000000000000000000600052604160045260246000fd5b6000601f19601f8301169050919050565b7f45524331393637557067726164653a207570677261646520627265616b73206660008201527f7572746865722075706772616465730000000000000000000000000000000000602082015250565b7f4f776e61626c653a206e6577206f776e657220697320746865207a65726f206160008201527f6464726573730000000000000000000000000000000000000000000000000000602082015250565b7f46756e6374696f6e206d7573742062652063616c6c6564207468726f7567682060008201527f64656c656761746563616c6c0000000000000000000000000000000000000000602082015250565b7f62757947616d654974656d3a204661696c656420746f207472616e736665722060008201527f6665650000000000000000000000000000000000000000000000000000000000602082015250565b7f6275795469636b65743a204e756d626572206f66207469636b657420746f206260008201527f7579206d7573742062652067726561746572207468616e203000000000000000602082015250565b7f46756e6374696f6e206d7573742062652063616c6c6564207468726f7567682060008201527f6163746976652070726f78790000000000000000000000000000000000000000602082015250565b7f6275795469636b65743a204661696c656420746f207472616e73666572000000600082015250565b7f496e697469616c697a61626c653a20636f6e747261637420697320616c72656160008201527f647920696e697469616c697a6564000000000000000000000000000000000000602082015250565b7f455243313936373a206e657720696d706c656d656e746174696f6e206973206e60008201527f6f74206120636f6e747261637400000000000000000000000000000000000000602082015250565b7f4f776e61626c653a2063616c6c6572206973206e6f7420746865206f776e6572600082015250565b7f416464726573733a2064656c65676174652063616c6c20746f206e6f6e2d636f60008201527f6e74726163740000000000000000000000000000000000000000000000000000602082015250565b7f62757947616d654974656d3a2074686973206974656d206973206e6f7420617660008201527f61696c61626c6500000000000000000000000000000000000000000000000000602082015250565b7f73657446656552656365697665723a206e756c6c206164647265737300000000600082015250565b7f7365745469636b657450726963653a205072696365206d75737420626520617460008201527f206c656173742031207765690000000000000000000000000000000000000000602082015250565b612c4b816126cb565b8114612c5657600080fd5b50565b612c62816126dd565b8114612c6d57600080fd5b50565b612c7981612709565b8114612c8457600080fd5b5056fe416464726573733a206c6f772d6c6576656c2064656c65676174652063616c6c206661696c6564a26469706673582212203f26349f0463bceeb302961c6cc585427d96e3604b708b05b1a0faeccfd2137564736f6c63430008020033",
  "linkReferences": {},
  "deployedLinkReferences": {}
}