{
  "_format": "hh-sol-artifact-1",
  "contractName": "HowlToken",
  "sourceName": "contracts/HowlToken.sol",
  "abi": [
    {
      "inputs": [],
      "stateMutability": "nonpayable",
      "type": "constructor"
    },
    {
      "anonymous": false,
      "inputs": [
        {
          "indexed": true,
          "internalType": "address",
          "name": "owner",
          "type": "address"
        },
        {
          "indexed": true,
          "internalType": "address",
          "name": "spender",
          "type": "address"
        },
        {
          "indexed": false,
          "internalType": "uint256",
          "name": "value",
          "type": "uint256"
        }
      ],
      "name": "Approval",
      "type": "event"
    },
    {
      "anonymous": false,
      "inputs": [
        {
          "indexed": false,
          "internalType": "address",
          "name": "account",
          "type": "address"
        }
      ],
      "name": "Paused",
      "type": "event"
    },
    {
      "anonymous": false,
      "inputs": [
        {
          "indexed": true,
          "internalType": "bytes32",
          "name": "role",
          "type": "bytes32"
        },
        {
          "indexed": true,
          "internalType": "bytes32",
          "name": "previousAdminRole",
          "type": "bytes32"
        },
        {
          "indexed": true,
          "internalType": "bytes32",
          "name": "newAdminRole",
          "type": "bytes32"
        }
      ],
      "name": "RoleAdminChanged",
      "type": "event"
    },
    {
      "anonymous": false,
      "inputs": [
        {
          "indexed": true,
          "internalType": "bytes32",
          "name": "role",
          "type": "bytes32"
        },
        {
          "indexed": true,
          "internalType": "address",
          "name": "account",
          "type": "address"
        },
        {
          "indexed": true,
          "internalType": "address",
          "name": "sender",
          "type": "address"
        }
      ],
      "name": "RoleGranted",
      "type": "event"
    },
    {
      "anonymous": false,
      "inputs": [
        {
          "indexed": true,
          "internalType": "bytes32",
          "name": "role",
          "type": "bytes32"
        },
        {
          "indexed": true,
          "internalType": "address",
          "name": "account",
          "type": "address"
        },
        {
          "indexed": true,
          "internalType": "address",
          "name": "sender",
          "type": "address"
        }
      ],
      "name": "RoleRevoked",
      "type": "event"
    },
    {
      "anonymous": false,
      "inputs": [
        {
          "indexed": true,
          "internalType": "address",
          "name": "from",
          "type": "address"
        },
        {
          "indexed": true,
          "internalType": "address",
          "name": "to",
          "type": "address"
        },
        {
          "indexed": false,
          "internalType": "uint256",
          "name": "value",
          "type": "uint256"
        }
      ],
      "name": "Transfer",
      "type": "event"
    },
    {
      "anonymous": false,
      "inputs": [
        {
          "indexed": false,
          "internalType": "address",
          "name": "account",
          "type": "address"
        }
      ],
      "name": "Unpaused",
      "type": "event"
    },
    {
      "inputs": [],
      "name": "DEFAULT_ADMIN_ROLE",
      "outputs": [
        {
          "internalType": "bytes32",
          "name": "",
          "type": "bytes32"
        }
      ],
      "stateMutability": "view",
      "type": "function"
    },
    {
      "inputs": [],
      "name": "MINTER_ROLE",
      "outputs": [
        {
          "internalType": "bytes32",
          "name": "",
          "type": "bytes32"
        }
      ],
      "stateMutability": "view",
      "type": "function"
    },
    {
      "inputs": [],
      "name": "PAUSER_ROLE",
      "outputs": [
        {
          "internalType": "bytes32",
          "name": "",
          "type": "bytes32"
        }
      ],
      "stateMutability": "view",
      "type": "function"
    },
    {
      "inputs": [
        {
          "internalType": "address",
          "name": "owner",
          "type": "address"
        },
        {
          "internalType": "address",
          "name": "spender",
          "type": "address"
        }
      ],
      "name": "allowance",
      "outputs": [
        {
          "internalType": "uint256",
          "name": "",
          "type": "uint256"
        }
      ],
      "stateMutability": "view",
      "type": "function"
    },
    {
      "inputs": [
        {
          "internalType": "address",
          "name": "spender",
          "type": "address"
        },
        {
          "internalType": "uint256",
          "name": "amount",
          "type": "uint256"
        }
      ],
      "name": "approve",
      "outputs": [
        {
          "internalType": "bool",
          "name": "",
          "type": "bool"
        }
      ],
      "stateMutability": "nonpayable",
      "type": "function"
    },
    {
      "inputs": [
        {
          "internalType": "address",
          "name": "account",
          "type": "address"
        }
      ],
      "name": "balanceOf",
      "outputs": [
        {
          "internalType": "uint256",
          "name": "",
          "type": "uint256"
        }
      ],
      "stateMutability": "view",
      "type": "function"
    },
    {
      "inputs": [
        {
          "internalType": "uint256",
          "name": "amount",
          "type": "uint256"
        }
      ],
      "name": "burn",
      "outputs": [],
      "stateMutability": "nonpayable",
      "type": "function"
    },
    {
      "inputs": [
        {
          "internalType": "address",
          "name": "account",
          "type": "address"
        },
        {
          "internalType": "uint256",
          "name": "amount",
          "type": "uint256"
        }
      ],
      "name": "burnFrom",
      "outputs": [],
      "stateMutability": "nonpayable",
      "type": "function"
    },
    {
      "inputs": [],
      "name": "decimals",
      "outputs": [
        {
          "internalType": "uint8",
          "name": "",
          "type": "uint8"
        }
      ],
      "stateMutability": "view",
      "type": "function"
    },
    {
      "inputs": [
        {
          "internalType": "address",
          "name": "spender",
          "type": "address"
        },
        {
          "internalType": "uint256",
          "name": "subtractedValue",
          "type": "uint256"
        }
      ],
      "name": "decreaseAllowance",
      "outputs": [
        {
          "internalType": "bool",
          "name": "",
          "type": "bool"
        }
      ],
      "stateMutability": "nonpayable",
      "type": "function"
    },
    {
      "inputs": [
        {
          "internalType": "bytes32",
          "name": "role",
          "type": "bytes32"
        }
      ],
      "name": "getRoleAdmin",
      "outputs": [
        {
          "internalType": "bytes32",
          "name": "",
          "type": "bytes32"
        }
      ],
      "stateMutability": "view",
      "type": "function"
    },
    {
      "inputs": [
        {
          "internalType": "bytes32",
          "name": "role",
          "type": "bytes32"
        },
        {
          "internalType": "address",
          "name": "account",
          "type": "address"
        }
      ],
      "name": "grantRole",
      "outputs": [],
      "stateMutability": "nonpayable",
      "type": "function"
    },
    {
      "inputs": [
        {
          "internalType": "bytes32",
          "name": "role",
          "type": "bytes32"
        },
        {
          "internalType": "address",
          "name": "account",
          "type": "address"
        }
      ],
      "name": "hasRole",
      "outputs": [
        {
          "internalType": "bool",
          "name": "",
          "type": "bool"
        }
      ],
      "stateMutability": "view",
      "type": "function"
    },
    {
      "inputs": [
        {
          "internalType": "address",
          "name": "spender",
          "type": "address"
        },
        {
          "internalType": "uint256",
          "name": "addedValue",
          "type": "uint256"
        }
      ],
      "name": "increaseAllowance",
      "outputs": [
        {
          "internalType": "bool",
          "name": "",
          "type": "bool"
        }
      ],
      "stateMutability": "nonpayable",
      "type": "function"
    },
    {
      "inputs": [
        {
          "internalType": "address",
          "name": "to",
          "type": "address"
        },
        {
          "internalType": "uint256",
          "name": "amount",
          "type": "uint256"
        }
      ],
      "name": "mint",
      "outputs": [],
      "stateMutability": "nonpayable",
      "type": "function"
    },
    {
      "inputs": [],
      "name": "name",
      "outputs": [
        {
          "internalType": "string",
          "name": "",
          "type": "string"
        }
      ],
      "stateMutability": "view",
      "type": "function"
    },
    {
      "inputs": [],
      "name": "pause",
      "outputs": [],
      "stateMutability": "nonpayable",
      "type": "function"
    },
    {
      "inputs": [],
      "name": "paused",
      "outputs": [
        {
          "internalType": "bool",
          "name": "",
          "type": "bool"
        }
      ],
      "stateMutability": "view",
      "type": "function"
    },
    {
      "inputs": [
        {
          "internalType": "bytes32",
          "name": "role",
          "type": "bytes32"
        },
        {
          "internalType": "address",
          "name": "account",
          "type": "address"
        }
      ],
      "name": "renounceRole",
      "outputs": [],
      "stateMutability": "nonpayable",
      "type": "function"
    },
    {
      "inputs": [
        {
          "internalType": "bytes32",
          "name": "role",
          "type": "bytes32"
        },
        {
          "internalType": "address",
          "name": "account",
          "type": "address"
        }
      ],
      "name": "revokeRole",
      "outputs": [],
      "stateMutability": "nonpayable",
      "type": "function"
    },
    {
      "inputs": [
        {
          "internalType": "bytes4",
          "name": "interfaceId",
          "type": "bytes4"
        }
      ],
      "name": "supportsInterface",
      "outputs": [
        {
          "internalType": "bool",
          "name": "",
          "type": "bool"
        }
      ],
      "stateMutability": "view",
      "type": "function"
    },
    {
      "inputs": [],
      "name": "symbol",
      "outputs": [
        {
          "internalType": "string",
          "name": "",
          "type": "string"
        }
      ],
      "stateMutability": "view",
      "type": "function"
    },
    {
      "inputs": [],
      "name": "totalSupply",
      "outputs": [
        {
          "internalType": "uint256",
          "name": "",
          "type": "uint256"
        }
      ],
      "stateMutability": "view",
      "type": "function"
    },
    {
      "inputs": [
        {
          "internalType": "address",
          "name": "recipient",
          "type": "address"
        },
        {
          "internalType": "uint256",
          "name": "amount",
          "type": "uint256"
        }
      ],
      "name": "transfer",
      "outputs": [
        {
          "internalType": "bool",
          "name": "",
          "type": "bool"
        }
      ],
      "stateMutability": "nonpayable",
      "type": "function"
    },
    {
      "inputs": [
        {
          "internalType": "address",
          "name": "sender",
          "type": "address"
        },
        {
          "internalType": "address",
          "name": "recipient",
          "type": "address"
        },
        {
          "internalType": "uint256",
          "name": "amount",
          "type": "uint256"
        }
      ],
      "name": "transferFrom",
      "outputs": [
        {
          "internalType": "bool",
          "name": "",
          "type": "bool"
        }
      ],
      "stateMutability": "nonpayable",
      "type": "function"
    },
    {
      "inputs": [],
      "name": "unpause",
      "outputs": [],
      "stateMutability": "nonpayable",
      "type": "function"
    }
  ],
  "bytecode": "0x60806040523480156200001157600080fd5b506040518060400160405280600981526020017f486f776c546f6b656e00000000000000000000000000000000000000000000008152506040518060400160405280600381526020017f48574c00000000000000000000000000000000000000000000000000000000008152508160039080519060200190620000969291906200051a565b508060049080519060200190620000af9291906200051a565b5050506000600560006101000a81548160ff021916908315150217905550620000e26000801b336200018c60201b60201c565b620001147f65d7a28e3265b37a6474929f336521b332c1681b933f6cb9f3376673440d862a336200018c60201b60201c565b620001467f9f2df0fed2c77648de5860a4cc508cd0818c85b8b8a1ab4ceeef8d981c8956a6336200018c60201b60201c565b62000186336200015b620001a260201b60201c565b600a62000169919062000753565b631dcd65006200017a919062000890565b620001ab60201b60201c565b620009fb565b6200019e82826200032460201b60201c565b5050565b60006012905090565b600073ffffffffffffffffffffffffffffffffffffffff168273ffffffffffffffffffffffffffffffffffffffff1614156200021e576040517f08c379a000000000000000000000000000000000000000000000000000000000815260040162000215906200064b565b60405180910390fd5b62000232600083836200041660201b60201c565b80600260008282546200024691906200069b565b92505081905550806000808473ffffffffffffffffffffffffffffffffffffffff1673ffffffffffffffffffffffffffffffffffffffff16815260200190815260200160002060008282546200029d91906200069b565b925050819055508173ffffffffffffffffffffffffffffffffffffffff16600073ffffffffffffffffffffffffffffffffffffffff167fddf252ad1be2c89b69c2b068fc378daa952ba7f163c4a11628f55a4df523b3ef836040516200030491906200066d565b60405180910390a362000320600083836200048660201b60201c565b5050565b6200033682826200048b60201b60201c565b620004125760016006600084815260200190815260200160002060000160008373ffffffffffffffffffffffffffffffffffffffff1673ffffffffffffffffffffffffffffffffffffffff16815260200190815260200160002060006101000a81548160ff021916908315150217905550620003b7620004f660201b60201c565b73ffffffffffffffffffffffffffffffffffffffff168173ffffffffffffffffffffffffffffffffffffffff16837f2f8788117e7eff1d82e926ec794901d17c78024a50270940304540a733656f0d60405160405180910390a45b5050565b62000426620004fe60201b60201c565b1562000469576040517f08c379a0000000000000000000000000000000000000000000000000000000008152600401620004609062000629565b60405180910390fd5b620004818383836200051560201b62000d7a1760201c565b505050565b505050565b60006006600084815260200190815260200160002060000160008373ffffffffffffffffffffffffffffffffffffffff1673ffffffffffffffffffffffffffffffffffffffff16815260200190815260200160002060009054906101000a900460ff16905092915050565b600033905090565b6000600560009054906101000a900460ff16905090565b505050565b828054620005289062000908565b90600052602060002090601f0160209004810192826200054c576000855562000598565b82601f106200056757805160ff191683800117855562000598565b8280016001018555821562000598579182015b82811115620005975782518255916020019190600101906200057a565b5b509050620005a79190620005ab565b5090565b5b80821115620005c6576000816000905550600101620005ac565b5090565b6000620005d96010836200068a565b9150620005e682620009a9565b602082019050919050565b600062000600601f836200068a565b91506200060d82620009d2565b602082019050919050565b6200062381620008f1565b82525050565b600060208201905081810360008301526200064481620005ca565b9050919050565b600060208201905081810360008301526200066681620005f1565b9050919050565b600060208201905062000684600083018462000618565b92915050565b600082825260208201905092915050565b6000620006a882620008f1565b9150620006b583620008f1565b9250827fffffffffffffffffffffffffffffffffffffffffffffffffffffffffffffffff03821115620006ed57620006ec6200093e565b5b828201905092915050565b6000808291508390505b60018511156200074a578086048111156200072257620007216200093e565b5b6001851615620007325780820291505b808102905062000742856200099c565b945062000702565b94509492505050565b60006200076082620008f1565b91506200076d83620008fb565b92506200079c7fffffffffffffffffffffffffffffffffffffffffffffffffffffffffffffffff8484620007a4565b905092915050565b600082620007b6576001905062000889565b81620007c6576000905062000889565b8160018114620007df5760028114620007ea5762000820565b600191505062000889565b60ff841115620007ff57620007fe6200093e565b5b8360020a9150848211156200081957620008186200093e565b5b5062000889565b5060208310610133831016604e8410600b84101617156200085a5782820a9050838111156200085457620008536200093e565b5b62000889565b620008698484846001620006f8565b925090508184048111156200088357620008826200093e565b5b81810290505b9392505050565b60006200089d82620008f1565b9150620008aa83620008f1565b9250817fffffffffffffffffffffffffffffffffffffffffffffffffffffffffffffffff0483118215151615620008e657620008e56200093e565b5b828202905092915050565b6000819050919050565b600060ff82169050919050565b600060028204905060018216806200092157607f821691505b602082108114156200093857620009376200096d565b5b50919050565b7f4e487b7100000000000000000000000000000000000000000000000000000000600052601160045260246000fd5b7f4e487b7100000000000000000000000000000000000000000000000000000000600052602260045260246000fd5b60008160011c9050919050565b7f5061757361626c653a2070617573656400000000000000000000000000000000600082015250565b7f45524332303a206d696e7420746f20746865207a65726f206164647265737300600082015250565b612bb78062000a0b6000396000f3fe608060405234801561001057600080fd5b506004361061018e5760003560e01c80635c975abb116100de578063a217fddf11610097578063d539139311610071578063d539139314610497578063d547741f146104b5578063dd62ed3e146104d1578063e63ab1e9146105015761018e565b8063a217fddf14610419578063a457c2d714610437578063a9059cbb146104675761018e565b80635c975abb1461035757806370a082311461037557806379cc6790146103a55780638456cb59146103c157806391d14854146103cb57806395d89b41146103fb5761018e565b80632f2ff15d1161014b578063395093511161012557806339509351146102e55780633f4ba83a1461031557806340c10f191461031f57806342966c681461033b5761018e565b80632f2ff15d1461028f578063313ce567146102ab57806336568abe146102c95761018e565b806301ffc9a71461019357806306fdde03146101c3578063095ea7b3146101e157806318160ddd1461021157806323b872dd1461022f578063248a9ca31461025f575b600080fd5b6101ad60048036038101906101a89190611e19565b61051f565b6040516101ba91906121c8565b60405180910390f35b6101cb610599565b6040516101d891906121fe565b60405180910390f35b6101fb60048036038101906101f69190611d78565b61062b565b60405161020891906121c8565b60405180910390f35b610219610649565b6040516102269190612400565b60405180910390f35b61024960048036038101906102449190611d29565b610653565b60405161025691906121c8565b60405180910390f35b61027960048036038101906102749190611db4565b61074b565b60405161028691906121e3565b60405180910390f35b6102a960048036038101906102a49190611ddd565b61076b565b005b6102b3610794565b6040516102c0919061241b565b60405180910390f35b6102e360048036038101906102de9190611ddd565b61079d565b005b6102ff60048036038101906102fa9190611d78565b610820565b60405161030c91906121c8565b60405180910390f35b61031d6108cc565b005b61033960048036038101906103349190611d78565b610909565b005b61035560048036038101906103509190611e42565b61094a565b005b61035f61095e565b60405161036c91906121c8565b60405180910390f35b61038f600480360381019061038a9190611cc4565b610975565b60405161039c9190612400565b60405180910390f35b6103bf60048036038101906103ba9190611d78565b6109bd565b005b6103c9610a38565b005b6103e560048036038101906103e09190611ddd565b610a75565b6040516103f291906121c8565b60405180910390f35b610403610ae0565b60405161041091906121fe565b60405180910390f35b610421610b72565b60405161042e91906121e3565b60405180910390f35b610451600480360381019061044c9190611d78565b610b79565b60405161045e91906121c8565b60405180910390f35b610481600480360381019061047c9190611d78565b610c64565b60405161048e91906121c8565b60405180910390f35b61049f610c82565b6040516104ac91906121e3565b60405180910390f35b6104cf60048036038101906104ca9190611ddd565b610ca6565b005b6104eb60048036038101906104e69190611ced565b610ccf565b6040516104f89190612400565b60405180910390f35b610509610d56565b60405161051691906121e3565b60405180910390f35b60007f7965db0b000000000000000000000000000000000000000000000000000000007bffffffffffffffffffffffffffffffffffffffffffffffffffffffff1916827bffffffffffffffffffffffffffffffffffffffffffffffffffffffff19161480610592575061059182610d7f565b5b9050919050565b6060600380546105a890612629565b80601f01602080910402602001604051908101604052809291908181526020018280546105d490612629565b80156106215780601f106105f657610100808354040283529160200191610621565b820191906000526020600020905b81548152906001019060200180831161060457829003601f168201915b5050505050905090565b600061063f610638610de9565b8484610df1565b6001905092915050565b6000600254905090565b6000610660848484610fbc565b6000600160008673ffffffffffffffffffffffffffffffffffffffff1673ffffffffffffffffffffffffffffffffffffffff16815260200190815260200160002060006106ab610de9565b73ffffffffffffffffffffffffffffffffffffffff1673ffffffffffffffffffffffffffffffffffffffff1681526020019081526020016000205490508281101561072b576040517f08c379a000000000000000000000000000000000000000000000000000000000815260040161072290612300565b60405180910390fd5b61073f85610737610de9565b858403610df1565b60019150509392505050565b600060066000838152602001908152602001600020600101549050919050565b6107748261074b565b61078581610780610de9565b61123d565b61078f83836112da565b505050565b60006012905090565b6107a5610de9565b73ffffffffffffffffffffffffffffffffffffffff168173ffffffffffffffffffffffffffffffffffffffff1614610812576040517f08c379a0000000000000000000000000000000000000000000000000000000008152600401610809906123c0565b60405180910390fd5b61081c82826113bb565b5050565b60006108c261082d610de9565b84846001600061083b610de9565b73ffffffffffffffffffffffffffffffffffffffff1673ffffffffffffffffffffffffffffffffffffffff16815260200190815260200160002060008873ffffffffffffffffffffffffffffffffffffffff1673ffffffffffffffffffffffffffffffffffffffff168152602001908152602001600020546108bd919061245d565b610df1565b6001905092915050565b7f65d7a28e3265b37a6474929f336521b332c1681b933f6cb9f3376673440d862a6108fe816108f9610de9565b61123d565b61090661149d565b50565b7f9f2df0fed2c77648de5860a4cc508cd0818c85b8b8a1ab4ceeef8d981c8956a661093b81610936610de9565b61123d565b610945838361153f565b505050565b61095b610955610de9565b8261169f565b50565b6000600560009054906101000a900460ff16905090565b60008060008373ffffffffffffffffffffffffffffffffffffffff1673ffffffffffffffffffffffffffffffffffffffff168152602001908152602001600020549050919050565b60006109d0836109cb610de9565b610ccf565b905081811015610a15576040517f08c379a0000000000000000000000000000000000000000000000000000000008152600401610a0c90612320565b60405180910390fd5b610a2983610a21610de9565b848403610df1565b610a33838361169f565b505050565b7f65d7a28e3265b37a6474929f336521b332c1681b933f6cb9f3376673440d862a610a6a81610a65610de9565b61123d565b610a72611876565b50565b60006006600084815260200190815260200160002060000160008373ffffffffffffffffffffffffffffffffffffffff1673ffffffffffffffffffffffffffffffffffffffff16815260200190815260200160002060009054906101000a900460ff16905092915050565b606060048054610aef90612629565b80601f0160208091040260200160405190810160405280929190818152602001828054610b1b90612629565b8015610b685780601f10610b3d57610100808354040283529160200191610b68565b820191906000526020600020905b815481529060010190602001808311610b4b57829003601f168201915b5050505050905090565b6000801b81565b60008060016000610b88610de9565b73ffffffffffffffffffffffffffffffffffffffff1673ffffffffffffffffffffffffffffffffffffffff16815260200190815260200160002060008573ffffffffffffffffffffffffffffffffffffffff1673ffffffffffffffffffffffffffffffffffffffff16815260200190815260200160002054905082811015610c45576040517f08c379a0000000000000000000000000000000000000000000000000000000008152600401610c3c906123a0565b60405180910390fd5b610c59610c50610de9565b85858403610df1565b600191505092915050565b6000610c78610c71610de9565b8484610fbc565b6001905092915050565b7f9f2df0fed2c77648de5860a4cc508cd0818c85b8b8a1ab4ceeef8d981c8956a681565b610caf8261074b565b610cc081610cbb610de9565b61123d565b610cca83836113bb565b505050565b6000600160008473ffffffffffffffffffffffffffffffffffffffff1673ffffffffffffffffffffffffffffffffffffffff16815260200190815260200160002060008373ffffffffffffffffffffffffffffffffffffffff1673ffffffffffffffffffffffffffffffffffffffff16815260200190815260200160002054905092915050565b7f65d7a28e3265b37a6474929f336521b332c1681b933f6cb9f3376673440d862a81565b505050565b60007f01ffc9a7000000000000000000000000000000000000000000000000000000007bffffffffffffffffffffffffffffffffffffffffffffffffffffffff1916827bffffffffffffffffffffffffffffffffffffffffffffffffffffffff1916149050919050565b600033905090565b600073ffffffffffffffffffffffffffffffffffffffff168373ffffffffffffffffffffffffffffffffffffffff161415610e61576040517f08c379a0000000000000000000000000000000000000000000000000000000008152600401610e5890612380565b60405180910390fd5b600073ffffffffffffffffffffffffffffffffffffffff168273ffffffffffffffffffffffffffffffffffffffff161415610ed1576040517f08c379a0000000000000000000000000000000000000000000000000000000008152600401610ec8906122a0565b60405180910390fd5b80600160008573ffffffffffffffffffffffffffffffffffffffff1673ffffffffffffffffffffffffffffffffffffffff16815260200190815260200160002060008473ffffffffffffffffffffffffffffffffffffffff1673ffffffffffffffffffffffffffffffffffffffff168152602001908152602001600020819055508173ffffffffffffffffffffffffffffffffffffffff168373ffffffffffffffffffffffffffffffffffffffff167f8c5be1e5ebec7d5bd14f71427d1e84f3dd0314c0f7b2291e5b200ac8c7c3b92583604051610faf9190612400565b60405180910390a3505050565b600073ffffffffffffffffffffffffffffffffffffffff168373ffffffffffffffffffffffffffffffffffffffff16141561102c576040517f08c379a000000000000000000000000000000000000000000000000000000000815260040161102390612360565b60405180910390fd5b600073ffffffffffffffffffffffffffffffffffffffff168273ffffffffffffffffffffffffffffffffffffffff16141561109c576040517f08c379a000000000000000000000000000000000000000000000000000000000815260040161109390612240565b60405180910390fd5b6110a7838383611919565b60008060008573ffffffffffffffffffffffffffffffffffffffff1673ffffffffffffffffffffffffffffffffffffffff1681526020019081526020016000205490508181101561112d576040517f08c379a0000000000000000000000000000000000000000000000000000000008152600401611124906122c0565b60405180910390fd5b8181036000808673ffffffffffffffffffffffffffffffffffffffff1673ffffffffffffffffffffffffffffffffffffffff16815260200190815260200160002081905550816000808573ffffffffffffffffffffffffffffffffffffffff1673ffffffffffffffffffffffffffffffffffffffff16815260200190815260200160002060008282546111c0919061245d565b925050819055508273ffffffffffffffffffffffffffffffffffffffff168473ffffffffffffffffffffffffffffffffffffffff167fddf252ad1be2c89b69c2b068fc378daa952ba7f163c4a11628f55a4df523b3ef846040516112249190612400565b60405180910390a3611237848484611971565b50505050565b6112478282610a75565b6112d65761126c8173ffffffffffffffffffffffffffffffffffffffff166014611976565b61127a8360001c6020611976565b60405160200161128b929190612173565b6040516020818303038152906040526040517f08c379a00000000000000000000000000000000000000000000000000000000081526004016112cd91906121fe565b60405180910390fd5b5050565b6112e48282610a75565b6113b75760016006600084815260200190815260200160002060000160008373ffffffffffffffffffffffffffffffffffffffff1673ffffffffffffffffffffffffffffffffffffffff16815260200190815260200160002060006101000a81548160ff02191690831515021790555061135c610de9565b73ffffffffffffffffffffffffffffffffffffffff168173ffffffffffffffffffffffffffffffffffffffff16837f2f8788117e7eff1d82e926ec794901d17c78024a50270940304540a733656f0d60405160405180910390a45b5050565b6113c58282610a75565b156114995760006006600084815260200190815260200160002060000160008373ffffffffffffffffffffffffffffffffffffffff1673ffffffffffffffffffffffffffffffffffffffff16815260200190815260200160002060006101000a81548160ff02191690831515021790555061143e610de9565b73ffffffffffffffffffffffffffffffffffffffff168173ffffffffffffffffffffffffffffffffffffffff16837ff6391f5c32d9c69d2a47ea670b442974b53935d1edc7fd64eb21e047a839171b60405160405180910390a45b5050565b6114a561095e565b6114e4576040517f08c379a00000000000000000000000000000000000000000000000000000000081526004016114db90612260565b60405180910390fd5b6000600560006101000a81548160ff0219169083151502179055507f5db9ee0a495bf2e6ff9c91a7834c1ba4fdd244a5e8aa4e537bd38aeae4b073aa611528610de9565b60405161153591906121ad565b60405180910390a1565b600073ffffffffffffffffffffffffffffffffffffffff168273ffffffffffffffffffffffffffffffffffffffff1614156115af576040517f08c379a00000000000000000000000000000000000000000000000000000000081526004016115a6906123e0565b60405180910390fd5b6115bb60008383611919565b80600260008282546115cd919061245d565b92505081905550806000808473ffffffffffffffffffffffffffffffffffffffff1673ffffffffffffffffffffffffffffffffffffffff1681526020019081526020016000206000828254611622919061245d565b925050819055508173ffffffffffffffffffffffffffffffffffffffff16600073ffffffffffffffffffffffffffffffffffffffff167fddf252ad1be2c89b69c2b068fc378daa952ba7f163c4a11628f55a4df523b3ef836040516116879190612400565b60405180910390a361169b60008383611971565b5050565b600073ffffffffffffffffffffffffffffffffffffffff168273ffffffffffffffffffffffffffffffffffffffff16141561170f576040517f08c379a000000000000000000000000000000000000000000000000000000000815260040161170690612340565b60405180910390fd5b61171b82600083611919565b60008060008473ffffffffffffffffffffffffffffffffffffffff1673ffffffffffffffffffffffffffffffffffffffff168152602001908152602001600020549050818110156117a1576040517f08c379a000000000000000000000000000000000000000000000000000000000815260040161179890612280565b60405180910390fd5b8181036000808573ffffffffffffffffffffffffffffffffffffffff1673ffffffffffffffffffffffffffffffffffffffff1681526020019081526020016000208190555081600260008282546117f8919061250d565b92505081905550600073ffffffffffffffffffffffffffffffffffffffff168373ffffffffffffffffffffffffffffffffffffffff167fddf252ad1be2c89b69c2b068fc378daa952ba7f163c4a11628f55a4df523b3ef8460405161185d9190612400565b60405180910390a361187183600084611971565b505050565b61187e61095e565b156118be576040517f08c379a00000000000000000000000000000000000000000000000000000000081526004016118b5906122e0565b60405180910390fd5b6001600560006101000a81548160ff0219169083151502179055507f62e78cea01bee320cd4e420270b5ea74000d11b0c9f74754ebdbfc544b05a258611902610de9565b60405161190f91906121ad565b60405180910390a1565b61192161095e565b15611961576040517f08c379a0000000000000000000000000000000000000000000000000000000008152600401611958906122e0565b60405180910390fd5b61196c838383610d7a565b505050565b505050565b60606000600283600261198991906124b3565b611993919061245d565b67ffffffffffffffff8111156119d2577f4e487b7100000000000000000000000000000000000000000000000000000000600052604160045260246000fd5b6040519080825280601f01601f191660200182016040528015611a045781602001600182028036833780820191505090505b5090507f300000000000000000000000000000000000000000000000000000000000000081600081518110611a62577f4e487b7100000000000000000000000000000000000000000000000000000000600052603260045260246000fd5b60200101907effffffffffffffffffffffffffffffffffffffffffffffffffffffffffffff1916908160001a9053507f780000000000000000000000000000000000000000000000000000000000000081600181518110611aec577f4e487b7100000000000000000000000000000000000000000000000000000000600052603260045260246000fd5b60200101907effffffffffffffffffffffffffffffffffffffffffffffffffffffffffffff1916908160001a90535060006001846002611b2c91906124b3565b611b36919061245d565b90505b6001811115611c22577f3031323334353637383961626364656600000000000000000000000000000000600f861660108110611b9e577f4e487b7100000000000000000000000000000000000000000000000000000000600052603260045260246000fd5b1a60f81b828281518110611bdb577f4e487b7100000000000000000000000000000000000000000000000000000000600052603260045260246000fd5b60200101907effffffffffffffffffffffffffffffffffffffffffffffffffffffffffffff1916908160001a905350600485901c945080611c1b906125ff565b9050611b39565b5060008414611c66576040517f08c379a0000000000000000000000000000000000000000000000000000000008152600401611c5d90612220565b60405180910390fd5b8091505092915050565b600081359050611c7f81612b25565b92915050565b600081359050611c9481612b3c565b92915050565b600081359050611ca981612b53565b92915050565b600081359050611cbe81612b6a565b92915050565b600060208284031215611cd657600080fd5b6000611ce484828501611c70565b91505092915050565b60008060408385031215611d0057600080fd5b6000611d0e85828601611c70565b9250506020611d1f85828601611c70565b9150509250929050565b600080600060608486031215611d3e57600080fd5b6000611d4c86828701611c70565b9350506020611d5d86828701611c70565b9250506040611d6e86828701611caf565b9150509250925092565b60008060408385031215611d8b57600080fd5b6000611d9985828601611c70565b9250506020611daa85828601611caf565b9150509250929050565b600060208284031215611dc657600080fd5b6000611dd484828501611c85565b91505092915050565b60008060408385031215611df057600080fd5b6000611dfe85828601611c85565b9250506020611e0f85828601611c70565b9150509250929050565b600060208284031215611e2b57600080fd5b6000611e3984828501611c9a565b91505092915050565b600060208284031215611e5457600080fd5b6000611e6284828501611caf565b91505092915050565b611e7481612541565b82525050565b611e8381612553565b82525050565b611e928161255f565b82525050565b6000611ea382612436565b611ead8185612441565b9350611ebd8185602086016125cc565b611ec6816126b9565b840191505092915050565b6000611edc82612436565b611ee68185612452565b9350611ef68185602086016125cc565b80840191505092915050565b6000611f0f602083612441565b9150611f1a826126ca565b602082019050919050565b6000611f32602383612441565b9150611f3d826126f3565b604082019050919050565b6000611f55601483612441565b9150611f6082612742565b602082019050919050565b6000611f78602283612441565b9150611f838261276b565b604082019050919050565b6000611f9b602283612441565b9150611fa6826127ba565b604082019050919050565b6000611fbe602683612441565b9150611fc982612809565b604082019050919050565b6000611fe1601083612441565b9150611fec82612858565b602082019050919050565b6000612004602883612441565b915061200f82612881565b604082019050919050565b6000612027602483612441565b9150612032826128d0565b604082019050919050565b600061204a602183612441565b91506120558261291f565b604082019050919050565b600061206d602583612441565b91506120788261296e565b604082019050919050565b6000612090602483612441565b915061209b826129bd565b604082019050919050565b60006120b3601783612452565b91506120be82612a0c565b601782019050919050565b60006120d6602583612441565b91506120e182612a35565b604082019050919050565b60006120f9601183612452565b915061210482612a84565b601182019050919050565b600061211c602f83612441565b915061212782612aad565b604082019050919050565b600061213f601f83612441565b915061214a82612afc565b602082019050919050565b61215e816125b5565b82525050565b61216d816125bf565b82525050565b600061217e826120a6565b915061218a8285611ed1565b9150612195826120ec565b91506121a18284611ed1565b91508190509392505050565b60006020820190506121c26000830184611e6b565b92915050565b60006020820190506121dd6000830184611e7a565b92915050565b60006020820190506121f86000830184611e89565b92915050565b600060208201905081810360008301526122188184611e98565b905092915050565b6000602082019050818103600083015261223981611f02565b9050919050565b6000602082019050818103600083015261225981611f25565b9050919050565b6000602082019050818103600083015261227981611f48565b9050919050565b6000602082019050818103600083015261229981611f6b565b9050919050565b600060208201905081810360008301526122b981611f8e565b9050919050565b600060208201905081810360008301526122d981611fb1565b9050919050565b600060208201905081810360008301526122f981611fd4565b9050919050565b6000602082019050818103600083015261231981611ff7565b9050919050565b600060208201905081810360008301526123398161201a565b9050919050565b600060208201905081810360008301526123598161203d565b9050919050565b6000602082019050818103600083015261237981612060565b9050919050565b6000602082019050818103600083015261239981612083565b9050919050565b600060208201905081810360008301526123b9816120c9565b9050919050565b600060208201905081810360008301526123d98161210f565b9050919050565b600060208201905081810360008301526123f981612132565b9050919050565b60006020820190506124156000830184612155565b92915050565b60006020820190506124306000830184612164565b92915050565b600081519050919050565b600082825260208201905092915050565b600081905092915050565b6000612468826125b5565b9150612473836125b5565b9250827fffffffffffffffffffffffffffffffffffffffffffffffffffffffffffffffff038211156124a8576124a761265b565b5b828201905092915050565b60006124be826125b5565b91506124c9836125b5565b9250817fffffffffffffffffffffffffffffffffffffffffffffffffffffffffffffffff04831182151516156125025761250161265b565b5b828202905092915050565b6000612518826125b5565b9150612523836125b5565b9250828210156125365761253561265b565b5b828203905092915050565b600061254c82612595565b9050919050565b60008115159050919050565b6000819050919050565b60007fffffffff0000000000000000000000000000000000000000000000000000000082169050919050565b600073ffffffffffffffffffffffffffffffffffffffff82169050919050565b6000819050919050565b600060ff82169050919050565b60005b838110156125ea5780820151818401526020810190506125cf565b838111156125f9576000848401525b50505050565b600061260a826125b5565b9150600082141561261e5761261d61265b565b5b600182039050919050565b6000600282049050600182168061264157607f821691505b602082108114156126555761265461268a565b5b50919050565b7f4e487b7100000000000000000000000000000000000000000000000000000000600052601160045260246000fd5b7f4e487b7100000000000000000000000000000000000000000000000000000000600052602260045260246000fd5b6000601f19601f8301169050919050565b7f537472696e67733a20686578206c656e67746820696e73756666696369656e74600082015250565b7f45524332303a207472616e7366657220746f20746865207a65726f206164647260008201527f6573730000000000000000000000000000000000000000000000000000000000602082015250565b7f5061757361626c653a206e6f7420706175736564000000000000000000000000600082015250565b7f45524332303a206275726e20616d6f756e7420657863656564732062616c616e60008201527f6365000000000000000000000000000000000000000000000000000000000000602082015250565b7f45524332303a20617070726f766520746f20746865207a65726f20616464726560008201527f7373000000000000000000000000000000000000000000000000000000000000602082015250565b7f45524332303a207472616e7366657220616d6f756e742065786365656473206260008201527f616c616e63650000000000000000000000000000000000000000000000000000602082015250565b7f5061757361626c653a2070617573656400000000000000000000000000000000600082015250565b7f45524332303a207472616e7366657220616d6f756e742065786365656473206160008201527f6c6c6f77616e6365000000000000000000000000000000000000000000000000602082015250565b7f45524332303a206275726e20616d6f756e74206578636565647320616c6c6f7760008201527f616e636500000000000000000000000000000000000000000000000000000000602082015250565b7f45524332303a206275726e2066726f6d20746865207a65726f2061646472657360008201527f7300000000000000000000000000000000000000000000000000000000000000602082015250565b7f45524332303a207472616e736665722066726f6d20746865207a65726f20616460008201527f6472657373000000000000000000000000000000000000000000000000000000602082015250565b7f45524332303a20617070726f76652066726f6d20746865207a65726f2061646460008201527f7265737300000000000000000000000000000000000000000000000000000000602082015250565b7f416363657373436f6e74726f6c3a206163636f756e7420000000000000000000600082015250565b7f45524332303a2064656372656173656420616c6c6f77616e63652062656c6f7760008201527f207a65726f000000000000000000000000000000000000000000000000000000602082015250565b7f206973206d697373696e6720726f6c6520000000000000000000000000000000600082015250565b7f416363657373436f6e74726f6c3a2063616e206f6e6c792072656e6f756e636560008201527f20726f6c657320666f722073656c660000000000000000000000000000000000602082015250565b7f45524332303a206d696e7420746f20746865207a65726f206164647265737300600082015250565b612b2e81612541565b8114612b3957600080fd5b50565b612b458161255f565b8114612b5057600080fd5b50565b612b5c81612569565b8114612b6757600080fd5b50565b612b73816125b5565b8114612b7e57600080fd5b5056fea26469706673582212202eb92599db4b5092bf3a27dddc8b733add9ba185e7d743dd2f8e5eaa530874f164736f6c63430008020033",
  "linkReferences": {},
  "deployedLinkReferences": {}
}