{
  "_format": "hh-sol-artifact-1",
  "contractName": "Marketplace",
  "sourceName": "contracts/Marketplace.sol",
  "abi": [
    {
      "anonymous": false,
      "inputs": [
        {
          "indexed": false,
          "internalType": "address",
          "name": "previousAdmin",
          "type": "address"
        },
        {
          "indexed": false,
          "internalType": "address",
          "name": "newAdmin",
          "type": "address"
        }
      ],
      "name": "AdminChanged",
      "type": "event"
    },
    {
      "anonymous": false,
      "inputs": [
        {
          "indexed": true,
          "internalType": "address",
          "name": "beacon",
          "type": "address"
        }
      ],
      "name": "BeaconUpgraded",
      "type": "event"
    },
    {
      "anonymous": false,
      "inputs": [
        {
          "indexed": false,
          "internalType": "uint256",
          "name": "saleId",
          "type": "uint256"
        },
        {
          "indexed": false,
          "internalType": "uint256",
          "name": "tokenId",
          "type": "uint256"
        },
        {
          "indexed": false,
          "internalType": "address",
          "name": "seller",
          "type": "address"
        },
        {
          "indexed": false,
          "internalType": "address",
          "name": "buyer",
          "type": "address"
        },
        {
          "indexed": false,
          "internalType": "address",
          "name": "feeReceiver",
          "type": "address"
        },
        {
          "indexed": false,
          "internalType": "uint256",
          "name": "fee",
          "type": "uint256"
        },
        {
          "indexed": false,
          "internalType": "uint256",
          "name": "lastUpdated",
          "type": "uint256"
        }
      ],
      "name": "FeeTransfered",
      "type": "event"
    },
    {
      "anonymous": false,
      "inputs": [
        {
          "indexed": true,
          "internalType": "address",
          "name": "previousOwner",
          "type": "address"
        },
        {
          "indexed": true,
          "internalType": "address",
          "name": "newOwner",
          "type": "address"
        }
      ],
      "name": "OwnershipTransferred",
      "type": "event"
    },
    {
      "anonymous": false,
      "inputs": [
        {
          "indexed": true,
          "internalType": "uint256",
          "name": "saleId",
          "type": "uint256"
        },
        {
          "indexed": true,
          "internalType": "uint256",
          "name": "tokenId",
          "type": "uint256"
        },
        {
          "indexed": true,
          "internalType": "address",
          "name": "seller",
          "type": "address"
        },
        {
          "indexed": false,
          "internalType": "uint256",
          "name": "price",
          "type": "uint256"
        },
        {
          "indexed": false,
          "internalType": "uint256",
          "name": "lastUpdated",
          "type": "uint256"
        }
      ],
      "name": "SaleCanceled",
      "type": "event"
    },
    {
      "anonymous": false,
      "inputs": [
        {
          "indexed": true,
          "internalType": "uint256",
          "name": "saleId",
          "type": "uint256"
        },
        {
          "indexed": true,
          "internalType": "uint256",
          "name": "tokenId",
          "type": "uint256"
        },
        {
          "indexed": true,
          "internalType": "address",
          "name": "seller",
          "type": "address"
        },
        {
          "indexed": false,
          "internalType": "uint256",
          "name": "price",
          "type": "uint256"
        },
        {
          "indexed": false,
          "internalType": "bool",
          "name": "isSold",
          "type": "bool"
        },
        {
          "indexed": false,
          "internalType": "uint256",
          "name": "lastUpdated",
          "type": "uint256"
        }
      ],
      "name": "SaleCreated",
      "type": "event"
    },
    {
      "anonymous": false,
      "inputs": [
        {
          "indexed": true,
          "internalType": "uint256",
          "name": "saleId",
          "type": "uint256"
        },
        {
          "indexed": true,
          "internalType": "uint256",
          "name": "tokenId",
          "type": "uint256"
        },
        {
          "indexed": false,
          "internalType": "address",
          "name": "seller",
          "type": "address"
        },
        {
          "indexed": false,
          "internalType": "uint256",
          "name": "price",
          "type": "uint256"
        },
        {
          "indexed": false,
          "internalType": "bool",
          "name": "isSold",
          "type": "bool"
        },
        {
          "indexed": false,
          "internalType": "uint256",
          "name": "lastUpdated",
          "type": "uint256"
        }
      ],
      "name": "SaleSold",
      "type": "event"
    },
    {
      "anonymous": false,
      "inputs": [
        {
          "indexed": true,
          "internalType": "uint256",
          "name": "saleId",
          "type": "uint256"
        },
        {
          "indexed": true,
          "internalType": "uint256",
          "name": "tokenId",
          "type": "uint256"
        },
        {
          "indexed": true,
          "internalType": "address",
          "name": "seller",
          "type": "address"
        },
        {
          "indexed": false,
          "internalType": "uint256",
          "name": "price",
          "type": "uint256"
        },
        {
          "indexed": false,
          "internalType": "uint256",
          "name": "lastUpdated",
          "type": "uint256"
        }
      ],
      "name": "SaleUpdated",
      "type": "event"
    },
    {
      "anonymous": false,
      "inputs": [
        {
          "indexed": true,
          "internalType": "address",
          "name": "implementation",
          "type": "address"
        }
      ],
      "name": "Upgraded",
      "type": "event"
    },
    {
      "inputs": [
        {
          "internalType": "uint256",
          "name": "saleId",
          "type": "uint256"
        }
      ],
      "name": "cancelSale",
      "outputs": [],
      "stateMutability": "nonpayable",
      "type": "function"
    },
    {
      "inputs": [
        {
          "internalType": "uint256",
          "name": "saleId",
          "type": "uint256"
        },
        {
          "internalType": "uint256",
          "name": "newPrice",
          "type": "uint256"
        }
      ],
      "name": "changeSalePrice",
      "outputs": [],
      "stateMutability": "nonpayable",
      "type": "function"
    },
    {
      "inputs": [
        {
          "internalType": "uint256",
          "name": "tokenId",
          "type": "uint256"
        },
        {
          "internalType": "uint256",
          "name": "price",
          "type": "uint256"
        }
      ],
      "name": "createSale",
      "outputs": [],
      "stateMutability": "nonpayable",
      "type": "function"
    },
    {
      "inputs": [],
      "name": "feePercentX10",
      "outputs": [
        {
          "internalType": "uint256",
          "name": "",
          "type": "uint256"
        }
      ],
      "stateMutability": "view",
      "type": "function"
    },
    {
      "inputs": [],
      "name": "feeReceiver",
      "outputs": [
        {
          "internalType": "address",
          "name": "",
          "type": "address"
        }
      ],
      "stateMutability": "view",
      "type": "function"
    },
    {
      "inputs": [],
      "name": "gameitem",
      "outputs": [
        {
          "internalType": "contract IERC721",
          "name": "",
          "type": "address"
        }
      ],
      "stateMutability": "view",
      "type": "function"
    },
    {
      "inputs": [
        {
          "internalType": "uint256",
          "name": "page",
          "type": "uint256"
        },
        {
          "internalType": "uint256",
          "name": "size",
          "type": "uint256"
        }
      ],
      "name": "getActiveSalesByPage",
      "outputs": [
        {
          "components": [
            {
              "internalType": "uint256",
              "name": "saleId",
              "type": "uint256"
            },
            {
              "internalType": "uint256",
              "name": "tokenId",
              "type": "uint256"
            },
            {
              "internalType": "address",
              "name": "seller",
              "type": "address"
            },
            {
              "internalType": "address",
              "name": "buyer",
              "type": "address"
            },
            {
              "internalType": "uint256",
              "name": "price",
              "type": "uint256"
            },
            {
              "internalType": "bool",
              "name": "isSold",
              "type": "bool"
            },
            {
              "internalType": "bool",
              "name": "isActive",
              "type": "bool"
            },
            {
              "internalType": "uint256",
              "name": "lastUpdated",
              "type": "uint256"
            }
          ],
          "internalType": "struct Marketplace.Sale[]",
          "name": "",
          "type": "tuple[]"
        }
      ],
      "stateMutability": "view",
      "type": "function"
    },
    {
      "inputs": [],
      "name": "getUserCreatedSales",
      "outputs": [
        {
          "components": [
            {
              "internalType": "uint256",
              "name": "saleId",
              "type": "uint256"
            },
            {
              "internalType": "uint256",
              "name": "tokenId",
              "type": "uint256"
            },
            {
              "internalType": "address",
              "name": "seller",
              "type": "address"
            },
            {
              "internalType": "address",
              "name": "buyer",
              "type": "address"
            },
            {
              "internalType": "uint256",
              "name": "price",
              "type": "uint256"
            },
            {
              "internalType": "bool",
              "name": "isSold",
              "type": "bool"
            },
            {
              "internalType": "bool",
              "name": "isActive",
              "type": "bool"
            },
            {
              "internalType": "uint256",
              "name": "lastUpdated",
              "type": "uint256"
            }
          ],
          "internalType": "struct Marketplace.Sale[]",
          "name": "",
          "type": "tuple[]"
        }
      ],
      "stateMutability": "view",
      "type": "function"
    },
    {
      "inputs": [],
      "name": "getUserNFTs",
      "outputs": [
        {
          "components": [
            {
              "internalType": "uint256",
              "name": "tokenId",
              "type": "uint256"
            },
            {
              "internalType": "address",
              "name": "contractAddress",
              "type": "address"
            },
            {
              "internalType": "string",
              "name": "URI",
              "type": "string"
            }
          ],
          "internalType": "struct Marketplace.TokenInfo[]",
          "name": "",
          "type": "tuple[]"
        }
      ],
      "stateMutability": "view",
      "type": "function"
    },
    {
      "inputs": [],
      "name": "getUserPurchasedSales",
      "outputs": [
        {
          "components": [
            {
              "internalType": "uint256",
              "name": "saleId",
              "type": "uint256"
            },
            {
              "internalType": "uint256",
              "name": "tokenId",
              "type": "uint256"
            },
            {
              "internalType": "address",
              "name": "seller",
              "type": "address"
            },
            {
              "internalType": "address",
              "name": "buyer",
              "type": "address"
            },
            {
              "internalType": "uint256",
              "name": "price",
              "type": "uint256"
            },
            {
              "internalType": "bool",
              "name": "isSold",
              "type": "bool"
            },
            {
              "internalType": "bool",
              "name": "isActive",
              "type": "bool"
            },
            {
              "internalType": "uint256",
              "name": "lastUpdated",
              "type": "uint256"
            }
          ],
          "internalType": "struct Marketplace.Sale[]",
          "name": "",
          "type": "tuple[]"
        }
      ],
      "stateMutability": "view",
      "type": "function"
    },
    {
      "inputs": [],
      "name": "howl",
      "outputs": [
        {
          "internalType": "contract IERC20",
          "name": "",
          "type": "address"
        }
      ],
      "stateMutability": "view",
      "type": "function"
    },
    {
      "inputs": [
        {
          "internalType": "address",
          "name": "erc20",
          "type": "address"
        },
        {
          "internalType": "address",
          "name": "erc721",
          "type": "address"
        }
      ],
      "name": "initialize",
      "outputs": [],
      "stateMutability": "nonpayable",
      "type": "function"
    },
    {
      "inputs": [
        {
          "internalType": "address",
          "name": "operator",
          "type": "address"
        },
        {
          "internalType": "address",
          "name": "from",
          "type": "address"
        },
        {
          "internalType": "uint256",
          "name": "tokenId",
          "type": "uint256"
        },
        {
          "internalType": "bytes",
          "name": "data",
          "type": "bytes"
        }
      ],
      "name": "onERC721Received",
      "outputs": [
        {
          "internalType": "bytes4",
          "name": "",
          "type": "bytes4"
        }
      ],
      "stateMutability": "pure",
      "type": "function"
    },
    {
      "inputs": [],
      "name": "owner",
      "outputs": [
        {
          "internalType": "address",
          "name": "",
          "type": "address"
        }
      ],
      "stateMutability": "view",
      "type": "function"
    },
    {
      "inputs": [
        {
          "internalType": "uint256",
          "name": "saleId",
          "type": "uint256"
        }
      ],
      "name": "purchaseSale",
      "outputs": [],
      "stateMutability": "nonpayable",
      "type": "function"
    },
    {
      "inputs": [],
      "name": "renounceOwnership",
      "outputs": [],
      "stateMutability": "nonpayable",
      "type": "function"
    },
    {
      "inputs": [
        {
          "internalType": "uint256",
          "name": "newFee",
          "type": "uint256"
        }
      ],
      "name": "setFee",
      "outputs": [],
      "stateMutability": "nonpayable",
      "type": "function"
    },
    {
      "inputs": [
        {
          "internalType": "address",
          "name": "newFeeReceiver",
          "type": "address"
        }
      ],
      "name": "setFeeReceiver",
      "outputs": [],
      "stateMutability": "nonpayable",
      "type": "function"
    },
    {
      "inputs": [
        {
          "internalType": "address",
          "name": "newOwner",
          "type": "address"
        }
      ],
      "name": "transferOwnership",
      "outputs": [],
      "stateMutability": "nonpayable",
      "type": "function"
    },
    {
      "inputs": [
        {
          "internalType": "address",
          "name": "newImplementation",
          "type": "address"
        }
      ],
      "name": "upgradeTo",
      "outputs": [],
      "stateMutability": "nonpayable",
      "type": "function"
    },
    {
      "inputs": [
        {
          "internalType": "address",
          "name": "newImplementation",
          "type": "address"
        },
        {
          "internalType": "bytes",
          "name": "data",
          "type": "bytes"
        }
      ],
      "name": "upgradeToAndCall",
      "outputs": [],
      "stateMutability": "payable",
      "type": "function"
    }
  ],
  "bytecode": "0x60a06040523073ffffffffffffffffffffffffffffffffffffffff1660809073ffffffffffffffffffffffffffffffffffffffff1660601b81525034801561004657600080fd5b5060805160601c614e2561007a60003960008181610f4601528181610fd5015281816112cc015261135b0152614e256000f3fe60806040526004361061012a5760003560e01c806369fe0e2d116100ab578063c05a6a2d1161006f578063c05a6a2d146103ab578063c82e474b146103d6578063efdcd974146103ff578063f2fde38b14610428578063f47cf5da14610451578063fdc5ab8e1461047a5761012a565b806369fe0e2d146102ec578063715018a6146103155780638da5cb5b1461032c578063b3f0067414610357578063bd94b005146103825761012a565b8063383644ab116100f2578063383644ab14610228578063485cc955146102535780634f1ef2861461027c5780636019061b146102985780636803c78d146102c15761012a565b80630974ed4b1461012f578063150b7a021461015a57806321b7e7e114610197578063355ddccf146101c25780633659cfe6146101ff575b600080fd5b34801561013b57600080fd5b506101446104a5565b6040516101519190613f21565b60405180910390f35b34801561016657600080fd5b50610181600480360381019061017c9190613660565b6107eb565b60405161018e9190613f65565b60405180910390f35b3480156101a357600080fd5b506101ac610800565b6040516101b99190613f21565b60405180910390f35b3480156101ce57600080fd5b506101e960048036038101906101e491906137f0565b610b46565b6040516101f69190613f21565b60405180910390f35b34801561020b57600080fd5b50610226600480360381019061022191906135d2565b610f44565b005b34801561023457600080fd5b5061023d6110f3565b60405161024a9190613f9b565b60405180910390f35b34801561025f57600080fd5b5061027a60048036038101906102759190613624565b61111a565b005b610296600480360381019061029191906136e0565b6112ca565b005b3480156102a457600080fd5b506102bf60048036038101906102ba91906137f0565b611407565b005b3480156102cd57600080fd5b506102d6611837565b6040516102e39190613f80565b60405180910390f35b3480156102f857600080fd5b50610313600480360381019061030e919061379e565b61185e565b005b34801561032157600080fd5b5061032a611928565b005b34801561033857600080fd5b506103416119b0565b60405161034e9190613e61565b60405180910390f35b34801561036357600080fd5b5061036c6119da565b6040516103799190613e61565b60405180910390f35b34801561038e57600080fd5b506103a960048036038101906103a4919061379e565b611a00565b005b3480156103b757600080fd5b506103c0611ca5565b6040516103cd9190614298565b60405180910390f35b3480156103e257600080fd5b506103fd60048036038101906103f891906137f0565b611cab565b005b34801561040b57600080fd5b50610426600480360381019061042191906135d2565b611ea5565b005b34801561043457600080fd5b5061044f600480360381019061044a91906135d2565b611fd5565b005b34801561045d57600080fd5b506104786004803603810190610473919061379e565b6120cd565b005b34801561048657600080fd5b5061048f612761565b60405161049c9190613f43565b60405180910390f35b606060006104b360fb612ab9565b90506000806000600190505b838111610554573373ffffffffffffffffffffffffffffffffffffffff16610102600083815260200190815260200160002060030160009054906101000a900473ffffffffffffffffffffffffffffffffffffffff1673ffffffffffffffffffffffffffffffffffffffff1614156105415760018361053e91906144be565b92505b808061054c90614702565b9150506104bf565b5060008267ffffffffffffffff811115610597577f4e487b7100000000000000000000000000000000000000000000000000000000600052604160045260246000fd5b6040519080825280602002602001820160405280156105d057816020015b6105bd6133a3565b8152602001906001900390816105b55790505b5090506000600190505b8481116107e0573373ffffffffffffffffffffffffffffffffffffffff16610102600083815260200190815260200160002060030160009054906101000a900473ffffffffffffffffffffffffffffffffffffffff1673ffffffffffffffffffffffffffffffffffffffff1614156107cd57600061010260008381526020019081526020016000209050806040518061010001604052908160008201548152602001600182015481526020016002820160009054906101000a900473ffffffffffffffffffffffffffffffffffffffff1673ffffffffffffffffffffffffffffffffffffffff1673ffffffffffffffffffffffffffffffffffffffff1681526020016003820160009054906101000a900473ffffffffffffffffffffffffffffffffffffffff1673ffffffffffffffffffffffffffffffffffffffff1673ffffffffffffffffffffffffffffffffffffffff168152602001600482015481526020016005820160009054906101000a900460ff161515151581526020016005820160019054906101000a900460ff1615151515815260200160068201548152505083858061078790614702565b9650815181106107c0577f4e487b7100000000000000000000000000000000000000000000000000000000600052603260045260246000fd5b6020026020010181905250505b80806107d890614702565b9150506105da565b508094505050505090565b600063150b7a0260e01b905095945050505050565b6060600061080e60fb612ab9565b90506000806000600190505b8381116108af573373ffffffffffffffffffffffffffffffffffffffff16610102600083815260200190815260200160002060020160009054906101000a900473ffffffffffffffffffffffffffffffffffffffff1673ffffffffffffffffffffffffffffffffffffffff16141561089c5760018361089991906144be565b92505b80806108a790614702565b91505061081a565b5060008267ffffffffffffffff8111156108f2577f4e487b7100000000000000000000000000000000000000000000000000000000600052604160045260246000fd5b60405190808252806020026020018201604052801561092b57816020015b6109186133a3565b8152602001906001900390816109105790505b5090506000600190505b848111610b3b573373ffffffffffffffffffffffffffffffffffffffff16610102600083815260200190815260200160002060020160009054906101000a900473ffffffffffffffffffffffffffffffffffffffff1673ffffffffffffffffffffffffffffffffffffffff161415610b2857600061010260008381526020019081526020016000209050806040518061010001604052908160008201548152602001600182015481526020016002820160009054906101000a900473ffffffffffffffffffffffffffffffffffffffff1673ffffffffffffffffffffffffffffffffffffffff1673ffffffffffffffffffffffffffffffffffffffff1681526020016003820160009054906101000a900473ffffffffffffffffffffffffffffffffffffffff1673ffffffffffffffffffffffffffffffffffffffff1673ffffffffffffffffffffffffffffffffffffffff168152602001600482015481526020016005820160009054906101000a900460ff161515151581526020016005820160019054906101000a900460ff16151515158152602001600682015481525050838580610ae290614702565b965081518110610b1b577f4e487b7100000000000000000000000000000000000000000000000000000000600052603260045260246000fd5b6020026020010181905250505b8080610b3390614702565b915050610935565b508094505050505090565b606060008310158015610b595750600082115b610b98576040517f08c379a0000000000000000000000000000000000000000000000000000000008152600401610b8f906141d8565b60405180910390fd5b6000610ba460fb612ab9565b90506000610bb260fc612ab9565b610bbc60fd612ab9565b83610bc7919061459f565b610bd1919061459f565b90508385610bdf9190614545565b811015610c6a57600067ffffffffffffffff811115610c27577f4e487b7100000000000000000000000000000000000000000000000000000000600052604160045260246000fd5b604051908082528060200260200182016040528015610c6057816020015b610c4d6133a3565b815260200190600190039081610c455790505b5092505050610f3e565b6000806000838760018a610c7e91906144be565b610c889190614545565b11610c935786610cab565b8688610c9f9190614545565b84610caa919061459f565b5b905060008167ffffffffffffffff811115610cef577f4e487b7100000000000000000000000000000000000000000000000000000000600052604160045260246000fd5b604051908082528060200260200182016040528015610d2857816020015b610d156133a3565b815260200190600190039081610d0d5790505b5090506000600190505b868111610f3357610102600082815260200190815260200160002060050160019054906101000a900460ff1615610f20578380610d6e90614702565b945050888a610d7d9190614545565b841115610f1f57600061010260008381526020019081526020016000209050806040518061010001604052908160008201548152602001600182015481526020016002820160009054906101000a900473ffffffffffffffffffffffffffffffffffffffff1673ffffffffffffffffffffffffffffffffffffffff1673ffffffffffffffffffffffffffffffffffffffff1681526020016003820160009054906101000a900473ffffffffffffffffffffffffffffffffffffffff1673ffffffffffffffffffffffffffffffffffffffff1673ffffffffffffffffffffffffffffffffffffffff168152602001600482015481526020016005820160009054906101000a900460ff161515151581526020016005820160019054906101000a900460ff16151515158152602001600682015481525050838781518110610eec577f4e487b7100000000000000000000000000000000000000000000000000000000600052603260045260246000fd5b602002602001018190525060018a610f04919061459f565b8680610f0f90614702565b97501415610f1d5750610f33565b505b5b8080610f2b90614702565b915050610d32565b508096505050505050505b92915050565b7f000000000000000000000000000000000000000000000000000000000000000073ffffffffffffffffffffffffffffffffffffffff163073ffffffffffffffffffffffffffffffffffffffff161415610fd3576040517f08c379a0000000000000000000000000000000000000000000000000000000008152600401610fca90614058565b60405180910390fd5b7f000000000000000000000000000000000000000000000000000000000000000073ffffffffffffffffffffffffffffffffffffffff16611012612ac7565b73ffffffffffffffffffffffffffffffffffffffff1614611068576040517f08c379a000000000000000000000000000000000000000000000000000000000815260040161105f906140f8565b60405180910390fd5b61107181612b1e565b6110f081600067ffffffffffffffff8111156110b6577f4e487b7100000000000000000000000000000000000000000000000000000000600052604160045260246000fd5b6040519080825280601f01601f1916602001820160405280156110e85781602001600182028036833780820191505090505b506000612b9d565b50565b61010160009054906101000a900473ffffffffffffffffffffffffffffffffffffffff1681565b600060019054906101000a900460ff1680611140575060008054906101000a900460ff16155b61117f576040517f08c379a000000000000000000000000000000000000000000000000000000000815260040161117690614138565b60405180910390fd5b60008060019054906101000a900460ff1615905080156111cf576001600060016101000a81548160ff02191690831515021790555060016000806101000a81548160ff0219169083151502179055505b6111d7612d6e565b8261010060006101000a81548173ffffffffffffffffffffffffffffffffffffffff021916908373ffffffffffffffffffffffffffffffffffffffff1602179055508161010160006101000a81548173ffffffffffffffffffffffffffffffffffffffff021916908373ffffffffffffffffffffffffffffffffffffffff160217905550600a60fe819055503360ff60006101000a81548173ffffffffffffffffffffffffffffffffffffffff021916908373ffffffffffffffffffffffffffffffffffffffff16021790555080156112c55760008060016101000a81548160ff0219169083151502179055505b505050565b7f000000000000000000000000000000000000000000000000000000000000000073ffffffffffffffffffffffffffffffffffffffff163073ffffffffffffffffffffffffffffffffffffffff161415611359576040517f08c379a000000000000000000000000000000000000000000000000000000000815260040161135090614058565b60405180910390fd5b7f000000000000000000000000000000000000000000000000000000000000000073ffffffffffffffffffffffffffffffffffffffff16611398612ac7565b73ffffffffffffffffffffffffffffffffffffffff16146113ee576040517f08c379a00000000000000000000000000000000000000000000000000000000081526004016113e5906140f8565b60405180910390fd5b6113f782612b1e565b61140382826001612b9d565b5050565b6002606554141561144d576040517f08c379a000000000000000000000000000000000000000000000000000000000815260040161144490614278565b60405180910390fd5b600260658190555060008111611498576040517f08c379a000000000000000000000000000000000000000000000000000000000815260040161148f90613fd8565b60405180910390fd5b3373ffffffffffffffffffffffffffffffffffffffff1661010160009054906101000a900473ffffffffffffffffffffffffffffffffffffffff1673ffffffffffffffffffffffffffffffffffffffff16636352211e846040518263ffffffff1660e01b815260040161150b9190614298565b60206040518083038186803b15801561152357600080fd5b505afa158015611537573d6000803e3d6000fd5b505050506040513d601f19601f8201168201806040525081019061155b91906135fb565b73ffffffffffffffffffffffffffffffffffffffff16146115b1576040517f08c379a00000000000000000000000000000000000000000000000000000000081526004016115a890614158565b60405180910390fd5b6115bb60fb612e57565b60006115c760fb612ab9565b905061010160009054906101000a900473ffffffffffffffffffffffffffffffffffffffff1673ffffffffffffffffffffffffffffffffffffffff166342842e0e3330866040518463ffffffff1660e01b815260040161162993929190613e7c565b600060405180830381600087803b15801561164357600080fd5b505af1158015611657573d6000803e3d6000fd5b505050506040518061010001604052808281526020018481526020013373ffffffffffffffffffffffffffffffffffffffff168152602001600073ffffffffffffffffffffffffffffffffffffffff168152602001838152602001600015158152602001600115158152602001428152506101026000838152602001908152602001600020600082015181600001556020820151816001015560408201518160020160006101000a81548173ffffffffffffffffffffffffffffffffffffffff021916908373ffffffffffffffffffffffffffffffffffffffff16021790555060608201518160030160006101000a81548173ffffffffffffffffffffffffffffffffffffffff021916908373ffffffffffffffffffffffffffffffffffffffff1602179055506080820151816004015560a08201518160050160006101000a81548160ff02191690831515021790555060c08201518160050160016101000a81548160ff02191690831515021790555060e082015181600601559050503373ffffffffffffffffffffffffffffffffffffffff1683827fd035e36eed79dc051f4a1821b06d9defcfe2a74be16adb4991291117112a50f085600042604051611822939291906142b3565b60405180910390a45060016065819055505050565b61010060009054906101000a900473ffffffffffffffffffffffffffffffffffffffff1681565b611866612e6d565b73ffffffffffffffffffffffffffffffffffffffff166118846119b0565b73ffffffffffffffffffffffffffffffffffffffff16146118da576040517f08c379a00000000000000000000000000000000000000000000000000000000081526004016118d1906141b8565b60405180910390fd5b606481111561191e576040517f08c379a000000000000000000000000000000000000000000000000000000000815260040161191590614258565b60405180910390fd5b8060fe8190555050565b611930612e6d565b73ffffffffffffffffffffffffffffffffffffffff1661194e6119b0565b73ffffffffffffffffffffffffffffffffffffffff16146119a4576040517f08c379a000000000000000000000000000000000000000000000000000000000815260040161199b906141b8565b60405180910390fd5b6119ae6000612e75565b565b600060c960009054906101000a900473ffffffffffffffffffffffffffffffffffffffff16905090565b60ff60009054906101000a900473ffffffffffffffffffffffffffffffffffffffff1681565b60026065541415611a46576040517f08c379a0000000000000000000000000000000000000000000000000000000008152600401611a3d90614278565b60405180910390fd5b600260658190555080610102600082815260200190815260200160002060020160009054906101000a900473ffffffffffffffffffffffffffffffffffffffff1673ffffffffffffffffffffffffffffffffffffffff163373ffffffffffffffffffffffffffffffffffffffff1614611af4576040517f08c379a0000000000000000000000000000000000000000000000000000000008152600401611aeb90614098565b60405180910390fd5b6000610102600084815260200190815260200160002090508060050160019054906101000a900460ff16611b5d576040517f08c379a0000000000000000000000000000000000000000000000000000000008152600401611b5490613ff8565b60405180910390fd5b61010160009054906101000a900473ffffffffffffffffffffffffffffffffffffffff1673ffffffffffffffffffffffffffffffffffffffff166323b872dd303384600101546040518463ffffffff1660e01b8152600401611bc193929190613e7c565b600060405180830381600087803b158015611bdb57600080fd5b505af1158015611bef573d6000803e3d6000fd5b5050505060008160050160016101000a81548160ff021916908315150217905550611c1a60fd612e57565b8060020160009054906101000a900473ffffffffffffffffffffffffffffffffffffffff1673ffffffffffffffffffffffffffffffffffffffff168160010154847f9cf3aa3c21065a435a0fd60111abd0ae5148ec0805525a8ade76e8c0632b89cd846004015442604051611c909291906142ea565b60405180910390a45050600160658190555050565b60fe5481565b81610102600082815260200190815260200160002060020160009054906101000a900473ffffffffffffffffffffffffffffffffffffffff1673ffffffffffffffffffffffffffffffffffffffff163373ffffffffffffffffffffffffffffffffffffffff1614611d51576040517f08c379a0000000000000000000000000000000000000000000000000000000008152600401611d4890614098565b60405180910390fd5b6000610102600085815260200190815260200160002090508060050160019054906101000a900460ff168015611d9657508060050160009054906101000a900460ff16155b611dd5576040517f08c379a0000000000000000000000000000000000000000000000000000000008152600401611dcc90614118565b60405180910390fd5b60008311611e18576040517f08c379a0000000000000000000000000000000000000000000000000000000008152600401611e0f90614178565b60405180910390fd5b8281600401819055508060020160009054906101000a900473ffffffffffffffffffffffffffffffffffffffff1673ffffffffffffffffffffffffffffffffffffffff168160010154857fb5ff818b1e47858abe4b8dbeee7509d67cc6b3e461dc17faf8340a2defdaa8d7846004015442604051611e979291906142ea565b60405180910390a450505050565b611ead612e6d565b73ffffffffffffffffffffffffffffffffffffffff16611ecb6119b0565b73ffffffffffffffffffffffffffffffffffffffff1614611f21576040517f08c379a0000000000000000000000000000000000000000000000000000000008152600401611f18906141b8565b60405180910390fd5b600073ffffffffffffffffffffffffffffffffffffffff168173ffffffffffffffffffffffffffffffffffffffff161415611f91576040517f08c379a0000000000000000000000000000000000000000000000000000000008152600401611f8890614238565b60405180910390fd5b8060ff60006101000a81548173ffffffffffffffffffffffffffffffffffffffff021916908373ffffffffffffffffffffffffffffffffffffffff16021790555050565b611fdd612e6d565b73ffffffffffffffffffffffffffffffffffffffff16611ffb6119b0565b73ffffffffffffffffffffffffffffffffffffffff1614612051576040517f08c379a0000000000000000000000000000000000000000000000000000000008152600401612048906141b8565b60405180910390fd5b600073ffffffffffffffffffffffffffffffffffffffff168173ffffffffffffffffffffffffffffffffffffffff1614156120c1576040517f08c379a00000000000000000000000000000000000000000000000000000000081526004016120b890614038565b60405180910390fd5b6120ca81612e75565b50565b60026065541415612113576040517f08c379a000000000000000000000000000000000000000000000000000000000815260040161210a90614278565b60405180910390fd5b6002606581905550600061010260008381526020019081526020016000209050600081600401549050600115158260050160019054906101000a900460ff1615151480156121765750600015158260050160009054906101000a900460ff161515145b6121b5576040517f08c379a00000000000000000000000000000000000000000000000000000000081526004016121ac90614078565b60405180910390fd5b8160020160009054906101000a900473ffffffffffffffffffffffffffffffffffffffff1673ffffffffffffffffffffffffffffffffffffffff163373ffffffffffffffffffffffffffffffffffffffff161415612248576040517f08c379a000000000000000000000000000000000000000000000000000000000815260040161223f906140b8565b60405180910390fd5b600061010060009054906101000a900473ffffffffffffffffffffffffffffffffffffffff1673ffffffffffffffffffffffffffffffffffffffff166323b872dd3360ff60009054906101000a900473ffffffffffffffffffffffffffffffffffffffff166122d66103e86122c860fe5489612f3b90919063ffffffff16565b612f5190919063ffffffff16565b6040518463ffffffff1660e01b81526004016122f493929190613e7c565b602060405180830381600087803b15801561230e57600080fd5b505af1158015612322573d6000803e3d6000fd5b505050506040513d601f19601f820116820180604052508101906123469190613734565b905080612388576040517f08c379a000000000000000000000000000000000000000000000000000000000815260040161237f90614218565b60405180910390fd5b600061010060009054906101000a900473ffffffffffffffffffffffffffffffffffffffff1673ffffffffffffffffffffffffffffffffffffffff166323b872dd338660020160009054906101000a900473ffffffffffffffffffffffffffffffffffffffff166124256103e861241760fe546103e8612408919061459f565b8a612f3b90919063ffffffff16565b612f5190919063ffffffff16565b6040518463ffffffff1660e01b815260040161244393929190613e7c565b602060405180830381600087803b15801561245d57600080fd5b505af1158015612471573d6000803e3d6000fd5b505050506040513d601f19601f820116820180604052508101906124959190613734565b9050806124d7576040517f08c379a00000000000000000000000000000000000000000000000000000000081526004016124ce906140d8565b60405180910390fd5b60008460010154905061010160009054906101000a900473ffffffffffffffffffffffffffffffffffffffff1673ffffffffffffffffffffffffffffffffffffffff166323b872dd3033846040518463ffffffff1660e01b815260040161254093929190613e7c565b600060405180830381600087803b15801561255a57600080fd5b505af115801561256e573d6000803e3d6000fd5b50505050600042905060018660050160006101000a81548160ff02191690831515021790555060008660050160016101000a81548160ff021916908315150217905550338660030160006101000a81548173ffffffffffffffffffffffffffffffffffffffff021916908373ffffffffffffffffffffffffffffffffffffffff16021790555080866006018190555061260760fc612e57565b81877fa1ffbf809f5113e0312f081bb16d51434d610320b7ea557250fdcbded2fbd4478860020160009054906101000a900473ffffffffffffffffffffffffffffffffffffffff16888a60050160009054906101000a900460ff16866040516126739493929190613edc565b60405180910390a37f7c8ecd76e70d007ea55274b3222da38779706d055ca4fe9a1e61dfc2a7e0c1e387838860020160009054906101000a900473ffffffffffffffffffffffffffffffffffffffff168960030160009054906101000a900473ffffffffffffffffffffffffffffffffffffffff1660ff60009054906101000a900473ffffffffffffffffffffffffffffffffffffffff166127346103e861272660fe548e612f3b90919063ffffffff16565b612f5190919063ffffffff16565b876040516127489796959493929190614313565b60405180910390a1505050505050600160658190555050565b6060600061010160009054906101000a900473ffffffffffffffffffffffffffffffffffffffff1673ffffffffffffffffffffffffffffffffffffffff166370a08231336040518263ffffffff1660e01b81526004016127c19190613e61565b60206040518083038186803b1580156127d957600080fd5b505afa1580156127ed573d6000803e3d6000fd5b505050506040513d601f19601f8201168201806040525081019061281191906137c7565b905060008167ffffffffffffffff811115612855577f4e487b7100000000000000000000000000000000000000000000000000000000600052604160045260246000fd5b60405190808252806020026020018201604052801561288e57816020015b61287b613418565b8152602001906001900390816128735790505b50905060005b82811015612ab057600061010160009054906101000a900473ffffffffffffffffffffffffffffffffffffffff1673ffffffffffffffffffffffffffffffffffffffff16632f745c5933846040518363ffffffff1660e01b81526004016128fc929190613eb3565b60206040518083038186803b15801561291457600080fd5b505afa158015612928573d6000803e3d6000fd5b505050506040513d601f19601f8201168201806040525081019061294c91906137c7565b9050600061010160009054906101000a900473ffffffffffffffffffffffffffffffffffffffff1673ffffffffffffffffffffffffffffffffffffffff1663c87b56dd836040518263ffffffff1660e01b81526004016129ac9190614298565b60006040518083038186803b1580156129c457600080fd5b505afa1580156129d8573d6000803e3d6000fd5b505050506040513d6000823e3d601f19601f82011682018060405250810190612a01919061375d565b9050604051806060016040528083815260200161010160009054906101000a900473ffffffffffffffffffffffffffffffffffffffff1673ffffffffffffffffffffffffffffffffffffffff16815260200182815250848481518110612a90577f4e487b7100000000000000000000000000000000000000000000000000000000600052603260045260246000fd5b602002602001018190525050508080612aa890614702565b915050612894565b50809250505090565b600081600001549050919050565b6000612af57f360894a13ba1a3210667c828492db98dca3e2076cc3735a920a3ca505d382bbc60001b612f67565b60000160009054906101000a900473ffffffffffffffffffffffffffffffffffffffff16905090565b612b26612e6d565b73ffffffffffffffffffffffffffffffffffffffff16612b446119b0565b73ffffffffffffffffffffffffffffffffffffffff1614612b9a576040517f08c379a0000000000000000000000000000000000000000000000000000000008152600401612b91906141b8565b60405180910390fd5b50565b6000612ba7612ac7565b9050612bb284612f71565b600083511180612bbf5750815b15612bd057612bce848461302a565b505b6000612bfe7f4910fdfa16fed3260ed0e7147f7cc6da11a60208b5b9406d12a635614ffd914360001b61310e565b90508060000160009054906101000a900460ff16612d675760018160000160006101000a81548160ff021916908315150217905550612cca8583604051602401612c489190613e61565b6040516020818303038152906040527f3659cfe6000000000000000000000000000000000000000000000000000000007bffffffffffffffffffffffffffffffffffffffffffffffffffffffff19166020820180517bffffffffffffffffffffffffffffffffffffffffffffffffffffffff838183161783525050505061302a565b5060008160000160006101000a81548160ff021916908315150217905550612cf0612ac7565b73ffffffffffffffffffffffffffffffffffffffff168273ffffffffffffffffffffffffffffffffffffffff1614612d5d576040517f08c379a0000000000000000000000000000000000000000000000000000000008152600401612d5490614018565b60405180910390fd5b612d6685613118565b5b5050505050565b600060019054906101000a900460ff1680612d94575060008054906101000a900460ff16155b612dd3576040517f08c379a0000000000000000000000000000000000000000000000000000000008152600401612dca90614138565b60405180910390fd5b60008060019054906101000a900460ff161590508015612e23576001600060016101000a81548160ff02191690831515021790555060016000806101000a81548160ff0219169083151502179055505b612e2b613167565b612e33613240565b8015612e545760008060016101000a81548160ff0219169083151502179055505b50565b6001816000016000828254019250508190555050565b600033905090565b600060c960009054906101000a900473ffffffffffffffffffffffffffffffffffffffff1690508160c960006101000a81548173ffffffffffffffffffffffffffffffffffffffff021916908373ffffffffffffffffffffffffffffffffffffffff1602179055508173ffffffffffffffffffffffffffffffffffffffff168173ffffffffffffffffffffffffffffffffffffffff167f8be0079c531659141344cd1fd0a4f28419497f9722a3daafe3b4186f6b6457e060405160405180910390a35050565b60008183612f499190614545565b905092915050565b60008183612f5f9190614514565b905092915050565b6000819050919050565b612f7a81613329565b612fb9576040517f08c379a0000000000000000000000000000000000000000000000000000000008152600401612fb090614198565b60405180910390fd5b80612fe67f360894a13ba1a3210667c828492db98dca3e2076cc3735a920a3ca505d382bbc60001b612f67565b60000160006101000a81548173ffffffffffffffffffffffffffffffffffffffff021916908373ffffffffffffffffffffffffffffffffffffffff16021790555050565b606061303583613329565b613074576040517f08c379a000000000000000000000000000000000000000000000000000000000815260040161306b906141f8565b60405180910390fd5b6000808473ffffffffffffffffffffffffffffffffffffffff168460405161309c9190613e4a565b600060405180830381855af49150503d80600081146130d7576040519150601f19603f3d011682016040523d82523d6000602084013e6130dc565b606091505b50915091506131048282604051806060016040528060278152602001614dc96027913961333c565b9250505092915050565b6000819050919050565b61312181612f71565b8073ffffffffffffffffffffffffffffffffffffffff167fbc7cd75a20ee27fd9adebab32041f755214dbc6bffa90cc0225b39da2e5c2d3b60405160405180910390a250565b600060019054906101000a900460ff168061318d575060008054906101000a900460ff16155b6131cc576040517f08c379a00000000000000000000000000000000000000000000000000000000081526004016131c390614138565b60405180910390fd5b60008060019054906101000a900460ff16159050801561321c576001600060016101000a81548160ff02191690831515021790555060016000806101000a81548160ff0219169083151502179055505b801561323d5760008060016101000a81548160ff0219169083151502179055505b50565b600060019054906101000a900460ff1680613266575060008054906101000a900460ff16155b6132a5576040517f08c379a000000000000000000000000000000000000000000000000000000000815260040161329c90614138565b60405180910390fd5b60008060019054906101000a900460ff1615905080156132f5576001600060016101000a81548160ff02191690831515021790555060016000806101000a81548160ff0219169083151502179055505b613305613300612e6d565b612e75565b80156133265760008060016101000a81548160ff0219169083151502179055505b50565b600080823b905060008111915050919050565b6060831561334c5782905061339c565b60008351111561335f5782518084602001fd5b816040517f08c379a00000000000000000000000000000000000000000000000000000000081526004016133939190613fb6565b60405180910390fd5b9392505050565b6040518061010001604052806000815260200160008152602001600073ffffffffffffffffffffffffffffffffffffffff168152602001600073ffffffffffffffffffffffffffffffffffffffff16815260200160008152602001600015158152602001600015158152602001600081525090565b604051806060016040528060008152602001600073ffffffffffffffffffffffffffffffffffffffff168152602001606081525090565b600061346261345d846143a7565b614382565b90508281526020810184848401111561347a57600080fd5b61348584828561468f565b509392505050565b60006134a061349b846143d8565b614382565b9050828152602081018484840111156134b857600080fd5b6134c384828561469e565b509392505050565b6000813590506134da81614d83565b92915050565b6000815190506134ef81614d83565b92915050565b60008151905061350481614d9a565b92915050565b60008083601f84011261351c57600080fd5b8235905067ffffffffffffffff81111561353557600080fd5b60208301915083600182028301111561354d57600080fd5b9250929050565b600082601f83011261356557600080fd5b813561357584826020860161344f565b91505092915050565b600082601f83011261358f57600080fd5b815161359f84826020860161348d565b91505092915050565b6000813590506135b781614db1565b92915050565b6000815190506135cc81614db1565b92915050565b6000602082840312156135e457600080fd5b60006135f2848285016134cb565b91505092915050565b60006020828403121561360d57600080fd5b600061361b848285016134e0565b91505092915050565b6000806040838503121561363757600080fd5b6000613645858286016134cb565b9250506020613656858286016134cb565b9150509250929050565b60008060008060006080868803121561367857600080fd5b6000613686888289016134cb565b9550506020613697888289016134cb565b94505060406136a8888289016135a8565b935050606086013567ffffffffffffffff8111156136c557600080fd5b6136d18882890161350a565b92509250509295509295909350565b600080604083850312156136f357600080fd5b6000613701858286016134cb565b925050602083013567ffffffffffffffff81111561371e57600080fd5b61372a85828601613554565b9150509250929050565b60006020828403121561374657600080fd5b6000613754848285016134f5565b91505092915050565b60006020828403121561376f57600080fd5b600082015167ffffffffffffffff81111561378957600080fd5b6137958482850161357e565b91505092915050565b6000602082840312156137b057600080fd5b60006137be848285016135a8565b91505092915050565b6000602082840312156137d957600080fd5b60006137e7848285016135bd565b91505092915050565b6000806040838503121561380357600080fd5b6000613811858286016135a8565b9250506020613822858286016135a8565b9150509250929050565b60006138388383613d3a565b6101008301905092915050565b60006138518383613ddc565b905092915050565b613862816145d3565b82525050565b613871816145d3565b82525050565b600061388282614429565b61388c818561446f565b935061389783614409565b8060005b838110156138c85781516138af888261382c565b97506138ba83614455565b92505060018101905061389b565b5085935050505092915050565b60006138e082614434565b6138ea8185614480565b9350836020820285016138fc85614419565b8060005b8581101561393857848403895281516139198582613845565b945061392483614462565b925060208a01995050600181019050613900565b50829750879550505050505092915050565b613953816145e5565b82525050565b613962816145e5565b82525050565b613971816145f1565b82525050565b60006139828261443f565b61398c8185614491565b935061399c81856020860161469e565b80840191505092915050565b6139b181614647565b82525050565b6139c08161466b565b82525050565b60006139d18261444a565b6139db818561449c565b93506139eb81856020860161469e565b6139f4816147d8565b840191505092915050565b6000613a0a8261444a565b613a1481856144ad565b9350613a2481856020860161469e565b613a2d816147d8565b840191505092915050565b6000613a456028836144ad565b9150613a50826147e9565b604082019050919050565b6000613a68601b836144ad565b9150613a7382614838565b602082019050919050565b6000613a8b602f836144ad565b9150613a9682614861565b604082019050919050565b6000613aae6026836144ad565b9150613ab9826148b0565b604082019050919050565b6000613ad1602c836144ad565b9150613adc826148ff565b604082019050919050565b6000613af46019836144ad565b9150613aff8261494e565b602082019050919050565b6000613b176013836144ad565b9150613b2282614977565b602082019050919050565b6000613b3a602b836144ad565b9150613b45826149a0565b604082019050919050565b6000613b5d6018836144ad565b9150613b68826149ef565b602082019050919050565b6000613b80602c836144ad565b9150613b8b82614a18565b604082019050919050565b6000613ba36020836144ad565b9150613bae82614a67565b602082019050919050565b6000613bc6602e836144ad565b9150613bd182614a90565b604082019050919050565b6000613be96025836144ad565b9150613bf482614adf565b604082019050919050565b6000613c0c602d836144ad565b9150613c1782614b2e565b604082019050919050565b6000613c2f602d836144ad565b9150613c3a82614b7d565b604082019050919050565b6000613c526020836144ad565b9150613c5d82614bcc565b602082019050919050565b6000613c75603a836144ad565b9150613c8082614bf5565b604082019050919050565b6000613c986026836144ad565b9150613ca382614c44565b604082019050919050565b6000613cbb6024836144ad565b9150613cc682614c93565b604082019050919050565b6000613cde601c836144ad565b9150613ce982614ce2565b602082019050919050565b6000613d01602c836144ad565b9150613d0c82614d0b565b604082019050919050565b6000613d24601f836144ad565b9150613d2f82614d5a565b602082019050919050565b61010082016000820151613d516000850182613e2c565b506020820151613d646020850182613e2c565b506040820151613d776040850182613859565b506060820151613d8a6060850182613859565b506080820151613d9d6080850182613e2c565b5060a0820151613db060a085018261394a565b5060c0820151613dc360c085018261394a565b5060e0820151613dd660e0850182613e2c565b50505050565b6000606083016000830151613df46000860182613e2c565b506020830151613e076020860182613859565b5060408301518482036040860152613e1f82826139c6565b9150508091505092915050565b613e358161463d565b82525050565b613e448161463d565b82525050565b6000613e568284613977565b915081905092915050565b6000602082019050613e766000830184613868565b92915050565b6000606082019050613e916000830186613868565b613e9e6020830185613868565b613eab6040830184613e3b565b949350505050565b6000604082019050613ec86000830185613868565b613ed56020830184613e3b565b9392505050565b6000608082019050613ef16000830187613868565b613efe6020830186613e3b565b613f0b6040830185613959565b613f186060830184613e3b565b95945050505050565b60006020820190508181036000830152613f3b8184613877565b905092915050565b60006020820190508181036000830152613f5d81846138d5565b905092915050565b6000602082019050613f7a6000830184613968565b92915050565b6000602082019050613f9560008301846139a8565b92915050565b6000602082019050613fb060008301846139b7565b92915050565b60006020820190508181036000830152613fd081846139ff565b905092915050565b60006020820190508181036000830152613ff181613a38565b9050919050565b6000602082019050818103600083015261401181613a5b565b9050919050565b6000602082019050818103600083015261403181613a7e565b9050919050565b6000602082019050818103600083015261405181613aa1565b9050919050565b6000602082019050818103600083015261407181613ac4565b9050919050565b6000602082019050818103600083015261409181613ae7565b9050919050565b600060208201905081810360008301526140b181613b0a565b9050919050565b600060208201905081810360008301526140d181613b2d565b9050919050565b600060208201905081810360008301526140f181613b50565b9050919050565b6000602082019050818103600083015261411181613b73565b9050919050565b6000602082019050818103600083015261413181613b96565b9050919050565b6000602082019050818103600083015261415181613bb9565b9050919050565b6000602082019050818103600083015261417181613bdc565b9050919050565b6000602082019050818103600083015261419181613bff565b9050919050565b600060208201905081810360008301526141b181613c22565b9050919050565b600060208201905081810360008301526141d181613c45565b9050919050565b600060208201905081810360008301526141f181613c68565b9050919050565b6000602082019050818103600083015261421181613c8b565b9050919050565b6000602082019050818103600083015261423181613cae565b9050919050565b6000602082019050818103600083015261425181613cd1565b9050919050565b6000602082019050818103600083015261427181613cf4565b9050919050565b6000602082019050818103600083015261429181613d17565b9050919050565b60006020820190506142ad6000830184613e3b565b92915050565b60006060820190506142c86000830186613e3b565b6142d56020830185613959565b6142e26040830184613e3b565b949350505050565b60006040820190506142ff6000830185613e3b565b61430c6020830184613e3b565b9392505050565b600060e082019050614328600083018a613e3b565b6143356020830189613e3b565b6143426040830188613868565b61434f6060830187613868565b61435c6080830186613868565b61436960a0830185613e3b565b61437660c0830184613e3b565b98975050505050505050565b600061438c61439d565b905061439882826146d1565b919050565b6000604051905090565b600067ffffffffffffffff8211156143c2576143c16147a9565b5b6143cb826147d8565b9050602081019050919050565b600067ffffffffffffffff8211156143f3576143f26147a9565b5b6143fc826147d8565b9050602081019050919050565b6000819050602082019050919050565b6000819050602082019050919050565b600081519050919050565b600081519050919050565b600081519050919050565b600081519050919050565b6000602082019050919050565b6000602082019050919050565b600082825260208201905092915050565b600082825260208201905092915050565b600081905092915050565b600082825260208201905092915050565b600082825260208201905092915050565b60006144c98261463d565b91506144d48361463d565b9250827fffffffffffffffffffffffffffffffffffffffffffffffffffffffffffffffff038211156145095761450861474b565b5b828201905092915050565b600061451f8261463d565b915061452a8361463d565b92508261453a5761453961477a565b5b828204905092915050565b60006145508261463d565b915061455b8361463d565b9250817fffffffffffffffffffffffffffffffffffffffffffffffffffffffffffffffff04831182151516156145945761459361474b565b5b828202905092915050565b60006145aa8261463d565b91506145b58361463d565b9250828210156145c8576145c761474b565b5b828203905092915050565b60006145de8261461d565b9050919050565b60008115159050919050565b60007fffffffff0000000000000000000000000000000000000000000000000000000082169050919050565b600073ffffffffffffffffffffffffffffffffffffffff82169050919050565b6000819050919050565b600061465282614659565b9050919050565b60006146648261461d565b9050919050565b60006146768261467d565b9050919050565b60006146888261461d565b9050919050565b82818337600083830152505050565b60005b838110156146bc5780820151818401526020810190506146a1565b838111156146cb576000848401525b50505050565b6146da826147d8565b810181811067ffffffffffffffff821117156146f9576146f86147a9565b5b80604052505050565b600061470d8261463d565b91507fffffffffffffffffffffffffffffffffffffffffffffffffffffffffffffffff8214156147405761473f61474b565b5b600182019050919050565b7f4e487b7100000000000000000000000000000000000000000000000000000000600052601160045260246000fd5b7f4e487b7100000000000000000000000000000000000000000000000000000000600052601260045260246000fd5b7f4e487b7100000000000000000000000000000000000000000000000000000000600052604160045260246000fd5b6000601f19601f8301169050919050565b7f63726561746553616c653a205072696365206d757374206265206174206c656160008201527f7374203120776569000000000000000000000000000000000000000000000000602082015250565b7f63616e63656c53616c653a2053616c652077617320656e6465642e0000000000600082015250565b7f45524331393637557067726164653a207570677261646520627265616b73206660008201527f7572746865722075706772616465730000000000000000000000000000000000602082015250565b7f4f776e61626c653a206e6577206f776e657220697320746865207a65726f206160008201527f6464726573730000000000000000000000000000000000000000000000000000602082015250565b7f46756e6374696f6e206d7573742062652063616c6c6564207468726f7567682060008201527f64656c656761746563616c6c0000000000000000000000000000000000000000602082015250565b7f70757263686173653a2053616c652077617320656e6465642e00000000000000600082015250565b7f496e76616c69642073616c652073656c6c657200000000000000000000000000600082015250565b7f707572636861736553616c653a2042757965722069732073656c6c6572206f6660008201527f2074686973206974656d2e000000000000000000000000000000000000000000602082015250565b7f4661696c656420746f207472616e7366657220746f6b656e0000000000000000600082015250565b7f46756e6374696f6e206d7573742062652063616c6c6564207468726f7567682060008201527f6163746976652070726f78790000000000000000000000000000000000000000602082015250565b7f6368616e676553616c6550726963653a2053616c652077617320656e6465642e600082015250565b7f496e697469616c697a61626c653a20636f6e747261637420697320616c72656160008201527f647920696e697469616c697a6564000000000000000000000000000000000000602082015250565b7f63726561746553616c653a20596f7520646f206e6f74206f776e20746869732060008201527f746f6b656e000000000000000000000000000000000000000000000000000000602082015250565b7f6368616e676553616c6550726963653a205072696365206d757374206265206160008201527f74206c6561737420312077656900000000000000000000000000000000000000602082015250565b7f455243313936373a206e657720696d706c656d656e746174696f6e206973206e60008201527f6f74206120636f6e747261637400000000000000000000000000000000000000602082015250565b7f4f776e61626c653a2063616c6c6572206973206e6f7420746865206f776e6572600082015250565b7f67657441637469766553616c65734279506167653a205061676520616e64207360008201527f697a65206d7573742062652067726561746572207468616e2030000000000000602082015250565b7f416464726573733a2064656c65676174652063616c6c20746f206e6f6e2d636f60008201527f6e74726163740000000000000000000000000000000000000000000000000000602082015250565b7f707572636861736553616c653a204661696c656420746f207472616e7366657260008201527f2066656500000000000000000000000000000000000000000000000000000000602082015250565b7f73657446656552656365697665723a206e756c6c206164647265737300000000600082015250565b7f7365744665653a204665652070657263656e74206d75737420626520736d616c60008201527f6c6572207468616e203130250000000000000000000000000000000000000000602082015250565b7f5265656e7472616e637947756172643a207265656e7472616e742063616c6c00600082015250565b614d8c816145d3565b8114614d9757600080fd5b50565b614da3816145e5565b8114614dae57600080fd5b50565b614dba8161463d565b8114614dc557600080fd5b5056fe416464726573733a206c6f772d6c6576656c2064656c65676174652063616c6c206661696c6564a2646970667358221220446c3254c851ce572a5d6df6bb4858cfe0baf8f3485e028f59f02c3909b66a1364736f6c63430008020033",
  "linkReferences": {},
  "deployedLinkReferences": {}
}