{
  "_format": "hh-sol-artifact-1",
  "contractName": "Marketplace",
  "sourceName": "contracts/Marketplace.sol",
  "abi": [
    {
      "anonymous": false,
      "inputs": [
        {
          "indexed": false,
          "internalType": "address",
          "name": "previousAdmin",
          "type": "address"
        },
        {
          "indexed": false,
          "internalType": "address",
          "name": "newAdmin",
          "type": "address"
        }
      ],
      "name": "AdminChanged",
      "type": "event"
    },
    {
      "anonymous": false,
      "inputs": [
        {
          "indexed": true,
          "internalType": "address",
          "name": "beacon",
          "type": "address"
        }
      ],
      "name": "BeaconUpgraded",
      "type": "event"
    },
    {
      "anonymous": false,
      "inputs": [
        {
          "indexed": false,
          "internalType": "uint256",
          "name": "saleId",
          "type": "uint256"
        },
        {
          "indexed": false,
          "internalType": "uint256",
          "name": "tokenId",
          "type": "uint256"
        },
        {
          "indexed": false,
          "internalType": "address",
          "name": "seller",
          "type": "address"
        },
        {
          "indexed": false,
          "internalType": "address",
          "name": "buyer",
          "type": "address"
        },
        {
          "indexed": false,
          "internalType": "address",
          "name": "feeReceiver",
          "type": "address"
        },
        {
          "indexed": false,
          "internalType": "uint256",
          "name": "fee",
          "type": "uint256"
        },
        {
          "indexed": false,
          "internalType": "uint256",
          "name": "lastUpdated",
          "type": "uint256"
        }
      ],
      "name": "FeeTransfered",
      "type": "event"
    },
    {
      "anonymous": false,
      "inputs": [
        {
          "indexed": true,
          "internalType": "address",
          "name": "previousOwner",
          "type": "address"
        },
        {
          "indexed": true,
          "internalType": "address",
          "name": "newOwner",
          "type": "address"
        }
      ],
      "name": "OwnershipTransferred",
      "type": "event"
    },
    {
      "anonymous": false,
      "inputs": [
        {
          "indexed": true,
          "internalType": "uint256",
          "name": "saleId",
          "type": "uint256"
        },
        {
          "indexed": true,
          "internalType": "uint256",
          "name": "tokenId",
          "type": "uint256"
        },
        {
          "indexed": true,
          "internalType": "address",
          "name": "seller",
          "type": "address"
        },
        {
          "indexed": false,
          "internalType": "uint256",
          "name": "price",
          "type": "uint256"
        },
        {
          "indexed": false,
          "internalType": "uint256",
          "name": "lastUpdated",
          "type": "uint256"
        }
      ],
      "name": "SaleCanceled",
      "type": "event"
    },
    {
      "anonymous": false,
      "inputs": [
        {
          "indexed": true,
          "internalType": "uint256",
          "name": "saleId",
          "type": "uint256"
        },
        {
          "indexed": true,
          "internalType": "uint256",
          "name": "tokenId",
          "type": "uint256"
        },
        {
          "indexed": true,
          "internalType": "address",
          "name": "seller",
          "type": "address"
        },
        {
          "indexed": false,
          "internalType": "uint256",
          "name": "price",
          "type": "uint256"
        },
        {
          "indexed": false,
          "internalType": "bool",
          "name": "isSold",
          "type": "bool"
        },
        {
          "indexed": false,
          "internalType": "uint256",
          "name": "lastUpdated",
          "type": "uint256"
        }
      ],
      "name": "SaleCreated",
      "type": "event"
    },
    {
      "anonymous": false,
      "inputs": [
        {
          "indexed": true,
          "internalType": "uint256",
          "name": "saleId",
          "type": "uint256"
        },
        {
          "indexed": true,
          "internalType": "uint256",
          "name": "tokenId",
          "type": "uint256"
        },
        {
          "indexed": false,
          "internalType": "address",
          "name": "seller",
          "type": "address"
        },
        {
          "indexed": false,
          "internalType": "uint256",
          "name": "price",
          "type": "uint256"
        },
        {
          "indexed": false,
          "internalType": "bool",
          "name": "isSold",
          "type": "bool"
        },
        {
          "indexed": false,
          "internalType": "uint256",
          "name": "lastUpdated",
          "type": "uint256"
        }
      ],
      "name": "SaleSold",
      "type": "event"
    },
    {
      "anonymous": false,
      "inputs": [
        {
          "indexed": true,
          "internalType": "uint256",
          "name": "saleId",
          "type": "uint256"
        },
        {
          "indexed": true,
          "internalType": "uint256",
          "name": "tokenId",
          "type": "uint256"
        },
        {
          "indexed": true,
          "internalType": "address",
          "name": "seller",
          "type": "address"
        },
        {
          "indexed": false,
          "internalType": "uint256",
          "name": "price",
          "type": "uint256"
        },
        {
          "indexed": false,
          "internalType": "uint256",
          "name": "lastUpdated",
          "type": "uint256"
        }
      ],
      "name": "SaleUpdated",
      "type": "event"
    },
    {
      "anonymous": false,
      "inputs": [
        {
          "indexed": true,
          "internalType": "address",
          "name": "implementation",
          "type": "address"
        }
      ],
      "name": "Upgraded",
      "type": "event"
    },
    {
      "inputs": [
        {
          "internalType": "uint256",
          "name": "saleId",
          "type": "uint256"
        }
      ],
      "name": "cancelSale",
      "outputs": [],
      "stateMutability": "nonpayable",
      "type": "function"
    },
    {
      "inputs": [
        {
          "internalType": "uint256",
          "name": "saleId",
          "type": "uint256"
        },
        {
          "internalType": "uint256",
          "name": "newPrice",
          "type": "uint256"
        }
      ],
      "name": "changeSalePrice",
      "outputs": [],
      "stateMutability": "nonpayable",
      "type": "function"
    },
    {
      "inputs": [
        {
          "internalType": "uint256",
          "name": "tokenId",
          "type": "uint256"
        },
        {
          "internalType": "uint256",
          "name": "price",
          "type": "uint256"
        }
      ],
      "name": "createSale",
      "outputs": [],
      "stateMutability": "nonpayable",
      "type": "function"
    },
    {
      "inputs": [],
      "name": "getActiveSales",
      "outputs": [
        {
          "components": [
            {
              "internalType": "uint256",
              "name": "saleId",
              "type": "uint256"
            },
            {
              "internalType": "uint256",
              "name": "tokenId",
              "type": "uint256"
            },
            {
              "internalType": "address",
              "name": "seller",
              "type": "address"
            },
            {
              "internalType": "address",
              "name": "buyer",
              "type": "address"
            },
            {
              "internalType": "uint256",
              "name": "price",
              "type": "uint256"
            },
            {
              "internalType": "bool",
              "name": "isSold",
              "type": "bool"
            },
            {
              "internalType": "bool",
              "name": "isActive",
              "type": "bool"
            },
            {
              "internalType": "uint256",
              "name": "lastUpdated",
              "type": "uint256"
            }
          ],
          "internalType": "struct Marketplace.Sale[]",
          "name": "",
          "type": "tuple[]"
        }
      ],
      "stateMutability": "view",
      "type": "function"
    },
    {
      "inputs": [
        {
          "internalType": "uint256",
          "name": "page",
          "type": "uint256"
        },
        {
          "internalType": "uint256",
          "name": "size",
          "type": "uint256"
        }
      ],
      "name": "getActiveSalesByPage",
      "outputs": [
        {
          "components": [
            {
              "internalType": "uint256",
              "name": "saleId",
              "type": "uint256"
            },
            {
              "internalType": "uint256",
              "name": "tokenId",
              "type": "uint256"
            },
            {
              "internalType": "address",
              "name": "seller",
              "type": "address"
            },
            {
              "internalType": "address",
              "name": "buyer",
              "type": "address"
            },
            {
              "internalType": "uint256",
              "name": "price",
              "type": "uint256"
            },
            {
              "internalType": "bool",
              "name": "isSold",
              "type": "bool"
            },
            {
              "internalType": "bool",
              "name": "isActive",
              "type": "bool"
            },
            {
              "internalType": "uint256",
              "name": "lastUpdated",
              "type": "uint256"
            }
          ],
          "internalType": "struct Marketplace.Sale[]",
          "name": "",
          "type": "tuple[]"
        }
      ],
      "stateMutability": "view",
      "type": "function"
    },
    {
      "inputs": [],
      "name": "getFee",
      "outputs": [
        {
          "internalType": "uint256",
          "name": "",
          "type": "uint256"
        }
      ],
      "stateMutability": "view",
      "type": "function"
    },
    {
      "inputs": [],
      "name": "getFeeReceiver",
      "outputs": [
        {
          "internalType": "address",
          "name": "",
          "type": "address"
        }
      ],
      "stateMutability": "view",
      "type": "function"
    },
    {
      "inputs": [],
      "name": "getUserCreatedSales",
      "outputs": [
        {
          "components": [
            {
              "internalType": "uint256",
              "name": "saleId",
              "type": "uint256"
            },
            {
              "internalType": "uint256",
              "name": "tokenId",
              "type": "uint256"
            },
            {
              "internalType": "address",
              "name": "seller",
              "type": "address"
            },
            {
              "internalType": "address",
              "name": "buyer",
              "type": "address"
            },
            {
              "internalType": "uint256",
              "name": "price",
              "type": "uint256"
            },
            {
              "internalType": "bool",
              "name": "isSold",
              "type": "bool"
            },
            {
              "internalType": "bool",
              "name": "isActive",
              "type": "bool"
            },
            {
              "internalType": "uint256",
              "name": "lastUpdated",
              "type": "uint256"
            }
          ],
          "internalType": "struct Marketplace.Sale[]",
          "name": "",
          "type": "tuple[]"
        }
      ],
      "stateMutability": "view",
      "type": "function"
    },
    {
      "inputs": [],
      "name": "getUserNFTs",
      "outputs": [
        {
          "components": [
            {
              "internalType": "uint256",
              "name": "tokenId",
              "type": "uint256"
            },
            {
              "internalType": "address",
              "name": "contractAddress",
              "type": "address"
            },
            {
              "internalType": "string",
              "name": "URI",
              "type": "string"
            }
          ],
          "internalType": "struct Marketplace.TokenInfo[]",
          "name": "",
          "type": "tuple[]"
        }
      ],
      "stateMutability": "view",
      "type": "function"
    },
    {
      "inputs": [],
      "name": "getUserPurchasedSales",
      "outputs": [
        {
          "components": [
            {
              "internalType": "uint256",
              "name": "saleId",
              "type": "uint256"
            },
            {
              "internalType": "uint256",
              "name": "tokenId",
              "type": "uint256"
            },
            {
              "internalType": "address",
              "name": "seller",
              "type": "address"
            },
            {
              "internalType": "address",
              "name": "buyer",
              "type": "address"
            },
            {
              "internalType": "uint256",
              "name": "price",
              "type": "uint256"
            },
            {
              "internalType": "bool",
              "name": "isSold",
              "type": "bool"
            },
            {
              "internalType": "bool",
              "name": "isActive",
              "type": "bool"
            },
            {
              "internalType": "uint256",
              "name": "lastUpdated",
              "type": "uint256"
            }
          ],
          "internalType": "struct Marketplace.Sale[]",
          "name": "",
          "type": "tuple[]"
        }
      ],
      "stateMutability": "view",
      "type": "function"
    },
    {
      "inputs": [],
      "name": "howl",
      "outputs": [
        {
          "internalType": "contract IERC20",
          "name": "",
          "type": "address"
        }
      ],
      "stateMutability": "view",
      "type": "function"
    },
    {
      "inputs": [
        {
          "internalType": "address",
          "name": "erc20",
          "type": "address"
        },
        {
          "internalType": "address",
          "name": "erc721",
          "type": "address"
        }
      ],
      "name": "initialize",
      "outputs": [],
      "stateMutability": "nonpayable",
      "type": "function"
    },
    {
      "inputs": [],
      "name": "nft",
      "outputs": [
        {
          "internalType": "contract IERC721",
          "name": "",
          "type": "address"
        }
      ],
      "stateMutability": "view",
      "type": "function"
    },
    {
      "inputs": [
        {
          "internalType": "address",
          "name": "operator",
          "type": "address"
        },
        {
          "internalType": "address",
          "name": "from",
          "type": "address"
        },
        {
          "internalType": "uint256",
          "name": "tokenId",
          "type": "uint256"
        },
        {
          "internalType": "bytes",
          "name": "data",
          "type": "bytes"
        }
      ],
      "name": "onERC721Received",
      "outputs": [
        {
          "internalType": "bytes4",
          "name": "",
          "type": "bytes4"
        }
      ],
      "stateMutability": "pure",
      "type": "function"
    },
    {
      "inputs": [],
      "name": "owner",
      "outputs": [
        {
          "internalType": "address",
          "name": "",
          "type": "address"
        }
      ],
      "stateMutability": "view",
      "type": "function"
    },
    {
      "inputs": [
        {
          "internalType": "uint256",
          "name": "saleId",
          "type": "uint256"
        }
      ],
      "name": "purchaseSale",
      "outputs": [],
      "stateMutability": "nonpayable",
      "type": "function"
    },
    {
      "inputs": [],
      "name": "renounceOwnership",
      "outputs": [],
      "stateMutability": "nonpayable",
      "type": "function"
    },
    {
      "inputs": [
        {
          "internalType": "uint256",
          "name": "newFee",
          "type": "uint256"
        }
      ],
      "name": "setFee",
      "outputs": [],
      "stateMutability": "nonpayable",
      "type": "function"
    },
    {
      "inputs": [
        {
          "internalType": "address",
          "name": "newFeeReceiver",
          "type": "address"
        }
      ],
      "name": "setFeeReceiver",
      "outputs": [],
      "stateMutability": "nonpayable",
      "type": "function"
    },
    {
      "inputs": [
        {
          "internalType": "address",
          "name": "newOwner",
          "type": "address"
        }
      ],
      "name": "transferOwnership",
      "outputs": [],
      "stateMutability": "nonpayable",
      "type": "function"
    },
    {
      "inputs": [
        {
          "internalType": "address",
          "name": "newImplementation",
          "type": "address"
        }
      ],
      "name": "upgradeTo",
      "outputs": [],
      "stateMutability": "nonpayable",
      "type": "function"
    },
    {
      "inputs": [
        {
          "internalType": "address",
          "name": "newImplementation",
          "type": "address"
        },
        {
          "internalType": "bytes",
          "name": "data",
          "type": "bytes"
        }
      ],
      "name": "upgradeToAndCall",
      "outputs": [],
      "stateMutability": "payable",
      "type": "function"
    }
  ],
  "bytecode": "0x60a06040523073ffffffffffffffffffffffffffffffffffffffff1660809073ffffffffffffffffffffffffffffffffffffffff1660601b81525034801561004657600080fd5b5060805160601c61507f61007a60003960008181610f7c0152818161100b015281816115950152611624015261507f6000f3fe6080604052600436106101355760003560e01c806369fe0e2d116100ab578063ced72f871161006f578063ced72f87146103df578063e8a353921461040a578063efdcd97414610435578063f2fde38b1461045e578063f47cf5da14610487578063fdc5ab8e146104b057610135565b806369fe0e2d14610322578063715018a61461034b5780638da5cb5b14610362578063bd94b0051461038d578063c82e474b146103b657610135565b8063436141d2116100fd578063436141d21461023357806347ccca021461025e578063485cc955146102895780634f1ef286146102b25780636019061b146102ce5780636803c78d146102f757610135565b80630974ed4b1461013a578063150b7a021461016557806321b7e7e1146101a2578063355ddccf146101cd5780633659cfe61461020a575b600080fd5b34801561014657600080fd5b5061014f6104db565b60405161015c91906142cb565b60405180910390f35b34801561017157600080fd5b5061018c60048036038101906101879190613a27565b610821565b604051610199919061430f565b60405180910390f35b3480156101ae57600080fd5b506101b7610836565b6040516101c491906142cb565b60405180910390f35b3480156101d957600080fd5b506101f460048036038101906101ef9190613bb7565b610b7c565b60405161020191906142cb565b60405180910390f35b34801561021657600080fd5b50610231600480360381019061022c9190613999565b610f7a565b005b34801561023f57600080fd5b50610248611129565b60405161025591906142cb565b60405180910390f35b34801561026a57600080fd5b506102736113bc565b6040516102809190614345565b60405180910390f35b34801561029557600080fd5b506102b060048036038101906102ab91906139eb565b6113e3565b005b6102cc60048036038101906102c79190613aa7565b611593565b005b3480156102da57600080fd5b506102f560048036038101906102f09190613bb7565b6116d0565b005b34801561030357600080fd5b5061030c611b00565b604051610319919061432a565b60405180910390f35b34801561032e57600080fd5b5061034960048036038101906103449190613b65565b611b27565b005b34801561035757600080fd5b50610360611bf1565b005b34801561036e57600080fd5b50610377611c79565b60405161038491906141e2565b60405180910390f35b34801561039957600080fd5b506103b460048036038101906103af9190613b65565b611ca3565b005b3480156103c257600080fd5b506103dd60048036038101906103d89190613bb7565b611f48565b005b3480156103eb57600080fd5b506103f4612142565b6040516104019190614602565b60405180910390f35b34801561041657600080fd5b5061041f61214c565b60405161042c91906141e2565b60405180910390f35b34801561044157600080fd5b5061045c60048036038101906104579190613999565b612176565b005b34801561046a57600080fd5b5061048560048036038101906104809190613999565b6122a6565b005b34801561049357600080fd5b506104ae60048036038101906104a99190613b65565b61239e565b005b3480156104bc57600080fd5b506104c5612b28565b6040516104d291906142ed565b60405180910390f35b606060006104e960fb612e80565b90506000806000600190505b83811161058a573373ffffffffffffffffffffffffffffffffffffffff16610102600083815260200190815260200160002060030160009054906101000a900473ffffffffffffffffffffffffffffffffffffffff1673ffffffffffffffffffffffffffffffffffffffff161415610577576001836105749190614828565b92505b808061058290614a6c565b9150506104f5565b5060008267ffffffffffffffff8111156105cd577f4e487b7100000000000000000000000000000000000000000000000000000000600052604160045260246000fd5b60405190808252806020026020018201604052801561060657816020015b6105f361376a565b8152602001906001900390816105eb5790505b5090506000600190505b848111610816573373ffffffffffffffffffffffffffffffffffffffff16610102600083815260200190815260200160002060030160009054906101000a900473ffffffffffffffffffffffffffffffffffffffff1673ffffffffffffffffffffffffffffffffffffffff16141561080357600061010260008381526020019081526020016000209050806040518061010001604052908160008201548152602001600182015481526020016002820160009054906101000a900473ffffffffffffffffffffffffffffffffffffffff1673ffffffffffffffffffffffffffffffffffffffff1673ffffffffffffffffffffffffffffffffffffffff1681526020016003820160009054906101000a900473ffffffffffffffffffffffffffffffffffffffff1673ffffffffffffffffffffffffffffffffffffffff1673ffffffffffffffffffffffffffffffffffffffff168152602001600482015481526020016005820160009054906101000a900460ff161515151581526020016005820160019054906101000a900460ff161515151581526020016006820154815250508385806107bd90614a6c565b9650815181106107f6577f4e487b7100000000000000000000000000000000000000000000000000000000600052603260045260246000fd5b6020026020010181905250505b808061080e90614a6c565b915050610610565b508094505050505090565b600063150b7a0260e01b905095945050505050565b6060600061084460fb612e80565b90506000806000600190505b8381116108e5573373ffffffffffffffffffffffffffffffffffffffff16610102600083815260200190815260200160002060020160009054906101000a900473ffffffffffffffffffffffffffffffffffffffff1673ffffffffffffffffffffffffffffffffffffffff1614156108d2576001836108cf9190614828565b92505b80806108dd90614a6c565b915050610850565b5060008267ffffffffffffffff811115610928577f4e487b7100000000000000000000000000000000000000000000000000000000600052604160045260246000fd5b60405190808252806020026020018201604052801561096157816020015b61094e61376a565b8152602001906001900390816109465790505b5090506000600190505b848111610b71573373ffffffffffffffffffffffffffffffffffffffff16610102600083815260200190815260200160002060020160009054906101000a900473ffffffffffffffffffffffffffffffffffffffff1673ffffffffffffffffffffffffffffffffffffffff161415610b5e57600061010260008381526020019081526020016000209050806040518061010001604052908160008201548152602001600182015481526020016002820160009054906101000a900473ffffffffffffffffffffffffffffffffffffffff1673ffffffffffffffffffffffffffffffffffffffff1673ffffffffffffffffffffffffffffffffffffffff1681526020016003820160009054906101000a900473ffffffffffffffffffffffffffffffffffffffff1673ffffffffffffffffffffffffffffffffffffffff1673ffffffffffffffffffffffffffffffffffffffff168152602001600482015481526020016005820160009054906101000a900460ff161515151581526020016005820160019054906101000a900460ff16151515158152602001600682015481525050838580610b1890614a6c565b965081518110610b51577f4e487b7100000000000000000000000000000000000000000000000000000000600052603260045260246000fd5b6020026020010181905250505b8080610b6990614a6c565b91505061096b565b508094505050505090565b606060008310158015610b8f5750600082115b610bce576040517f08c379a0000000000000000000000000000000000000000000000000000000008152600401610bc5906143c2565b60405180910390fd5b6000610bda60fb612e80565b90506000610be860fc612e80565b610bf260fd612e80565b83610bfd9190614909565b610c079190614909565b90508385610c1591906148af565b811015610ca057600067ffffffffffffffff811115610c5d577f4e487b7100000000000000000000000000000000000000000000000000000000600052604160045260246000fd5b604051908082528060200260200182016040528015610c9657816020015b610c8361376a565b815260200190600190039081610c7b5790505b5092505050610f74565b6000806000838760018a610cb49190614828565b610cbe91906148af565b11610cc95786610ce1565b8688610cd591906148af565b84610ce09190614909565b5b905060008167ffffffffffffffff811115610d25577f4e487b7100000000000000000000000000000000000000000000000000000000600052604160045260246000fd5b604051908082528060200260200182016040528015610d5e57816020015b610d4b61376a565b815260200190600190039081610d435790505b5090506000600190505b868111610f6957610102600082815260200190815260200160002060050160019054906101000a900460ff1615610f56578380610da490614a6c565b945050888a610db391906148af565b841115610f5557600061010260008381526020019081526020016000209050806040518061010001604052908160008201548152602001600182015481526020016002820160009054906101000a900473ffffffffffffffffffffffffffffffffffffffff1673ffffffffffffffffffffffffffffffffffffffff1673ffffffffffffffffffffffffffffffffffffffff1681526020016003820160009054906101000a900473ffffffffffffffffffffffffffffffffffffffff1673ffffffffffffffffffffffffffffffffffffffff1673ffffffffffffffffffffffffffffffffffffffff168152602001600482015481526020016005820160009054906101000a900460ff161515151581526020016005820160019054906101000a900460ff16151515158152602001600682015481525050838781518110610f22577f4e487b7100000000000000000000000000000000000000000000000000000000600052603260045260246000fd5b602002602001018190525060018a610f3a9190614909565b8680610f4590614a6c565b97501415610f535750610f69565b505b5b8080610f6190614a6c565b915050610d68565b508096505050505050505b92915050565b7f000000000000000000000000000000000000000000000000000000000000000073ffffffffffffffffffffffffffffffffffffffff163073ffffffffffffffffffffffffffffffffffffffff161415611009576040517f08c379a000000000000000000000000000000000000000000000000000000000815260040161100090614442565b60405180910390fd5b7f000000000000000000000000000000000000000000000000000000000000000073ffffffffffffffffffffffffffffffffffffffff16611048612e8e565b73ffffffffffffffffffffffffffffffffffffffff161461109e576040517f08c379a0000000000000000000000000000000000000000000000000000000008152600401611095906144a2565b60405180910390fd5b6110a781612ee5565b61112681600067ffffffffffffffff8111156110ec577f4e487b7100000000000000000000000000000000000000000000000000000000600052604160045260246000fd5b6040519080825280601f01601f19166020018201604052801561111e5781602001600182028036833780820191505090505b506000612f64565b50565b6060600061113760fb612e80565b9050600061114560fc612e80565b61114f60fd612e80565b8361115a9190614909565b6111649190614909565b90506000808267ffffffffffffffff8111156111a9577f4e487b7100000000000000000000000000000000000000000000000000000000600052604160045260246000fd5b6040519080825280602002602001820160405280156111e257816020015b6111cf61376a565b8152602001906001900390816111c75790505b5090506000600190505b8481116113b157610102600082815260200190815260200160002060050160019054906101000a900460ff161561139e57600061010260008381526020019081526020016000209050806040518061010001604052908160008201548152602001600182015481526020016002820160009054906101000a900473ffffffffffffffffffffffffffffffffffffffff1673ffffffffffffffffffffffffffffffffffffffff1673ffffffffffffffffffffffffffffffffffffffff1681526020016003820160009054906101000a900473ffffffffffffffffffffffffffffffffffffffff1673ffffffffffffffffffffffffffffffffffffffff1673ffffffffffffffffffffffffffffffffffffffff168152602001600482015481526020016005820160009054906101000a900460ff161515151581526020016005820160019054906101000a900460ff1615151515815260200160068201548152505083858061135890614a6c565b965081518110611391577f4e487b7100000000000000000000000000000000000000000000000000000000600052603260045260246000fd5b6020026020010181905250505b80806113a990614a6c565b9150506111ec565b508094505050505090565b61010160009054906101000a900473ffffffffffffffffffffffffffffffffffffffff1681565b600060019054906101000a900460ff1680611409575060008054906101000a900460ff16155b611448576040517f08c379a000000000000000000000000000000000000000000000000000000000815260040161143f906144c2565b60405180910390fd5b60008060019054906101000a900460ff161590508015611498576001600060016101000a81548160ff02191690831515021790555060016000806101000a81548160ff0219169083151502179055505b6114a0613135565b8261010060006101000a81548173ffffffffffffffffffffffffffffffffffffffff021916908373ffffffffffffffffffffffffffffffffffffffff1602179055508161010160006101000a81548173ffffffffffffffffffffffffffffffffffffffff021916908373ffffffffffffffffffffffffffffffffffffffff160217905550600a60fe819055503360ff60006101000a81548173ffffffffffffffffffffffffffffffffffffffff021916908373ffffffffffffffffffffffffffffffffffffffff160217905550801561158e5760008060016101000a81548160ff0219169083151502179055505b505050565b7f000000000000000000000000000000000000000000000000000000000000000073ffffffffffffffffffffffffffffffffffffffff163073ffffffffffffffffffffffffffffffffffffffff161415611622576040517f08c379a000000000000000000000000000000000000000000000000000000000815260040161161990614442565b60405180910390fd5b7f000000000000000000000000000000000000000000000000000000000000000073ffffffffffffffffffffffffffffffffffffffff16611661612e8e565b73ffffffffffffffffffffffffffffffffffffffff16146116b7576040517f08c379a00000000000000000000000000000000000000000000000000000000081526004016116ae906144a2565b60405180910390fd5b6116c082612ee5565b6116cc82826001612f64565b5050565b60026065541415611716576040517f08c379a000000000000000000000000000000000000000000000000000000000815260040161170d906145c2565b60405180910390fd5b600260658190555060008111611761576040517f08c379a0000000000000000000000000000000000000000000000000000000008152600401611758906145e2565b60405180910390fd5b3373ffffffffffffffffffffffffffffffffffffffff1661010160009054906101000a900473ffffffffffffffffffffffffffffffffffffffff1673ffffffffffffffffffffffffffffffffffffffff16636352211e846040518263ffffffff1660e01b81526004016117d49190614602565b60206040518083038186803b1580156117ec57600080fd5b505afa158015611800573d6000803e3d6000fd5b505050506040513d601f19601f8201168201806040525081019061182491906139c2565b73ffffffffffffffffffffffffffffffffffffffff161461187a576040517f08c379a000000000000000000000000000000000000000000000000000000000815260040161187190614382565b60405180910390fd5b61188460fb61321e565b600061189060fb612e80565b905061010160009054906101000a900473ffffffffffffffffffffffffffffffffffffffff1673ffffffffffffffffffffffffffffffffffffffff166342842e0e3330866040518463ffffffff1660e01b81526004016118f293929190614226565b600060405180830381600087803b15801561190c57600080fd5b505af1158015611920573d6000803e3d6000fd5b505050506040518061010001604052808281526020018481526020013373ffffffffffffffffffffffffffffffffffffffff168152602001600073ffffffffffffffffffffffffffffffffffffffff168152602001838152602001600015158152602001600115158152602001428152506101026000838152602001908152602001600020600082015181600001556020820151816001015560408201518160020160006101000a81548173ffffffffffffffffffffffffffffffffffffffff021916908373ffffffffffffffffffffffffffffffffffffffff16021790555060608201518160030160006101000a81548173ffffffffffffffffffffffffffffffffffffffff021916908373ffffffffffffffffffffffffffffffffffffffff1602179055506080820151816004015560a08201518160050160006101000a81548160ff02191690831515021790555060c08201518160050160016101000a81548160ff02191690831515021790555060e082015181600601559050503373ffffffffffffffffffffffffffffffffffffffff1683827fd035e36eed79dc051f4a1821b06d9defcfe2a74be16adb4991291117112a50f085600042604051611aeb9392919061461d565b60405180910390a45060016065819055505050565b61010060009054906101000a900473ffffffffffffffffffffffffffffffffffffffff1681565b611b2f613234565b73ffffffffffffffffffffffffffffffffffffffff16611b4d611c79565b73ffffffffffffffffffffffffffffffffffffffff1614611ba3576040517f08c379a0000000000000000000000000000000000000000000000000000000008152600401611b9a90614502565b60405180910390fd5b6064811115611be7576040517f08c379a0000000000000000000000000000000000000000000000000000000008152600401611bde90614422565b60405180910390fd5b8060fe8190555050565b611bf9613234565b73ffffffffffffffffffffffffffffffffffffffff16611c17611c79565b73ffffffffffffffffffffffffffffffffffffffff1614611c6d576040517f08c379a0000000000000000000000000000000000000000000000000000000008152600401611c6490614502565b60405180910390fd5b611c77600061323c565b565b600060c960009054906101000a900473ffffffffffffffffffffffffffffffffffffffff16905090565b60026065541415611ce9576040517f08c379a0000000000000000000000000000000000000000000000000000000008152600401611ce0906145c2565b60405180910390fd5b600260658190555080610102600082815260200190815260200160002060020160009054906101000a900473ffffffffffffffffffffffffffffffffffffffff1673ffffffffffffffffffffffffffffffffffffffff163373ffffffffffffffffffffffffffffffffffffffff1614611d97576040517f08c379a0000000000000000000000000000000000000000000000000000000008152600401611d8e90614462565b60405180910390fd5b6000610102600084815260200190815260200160002090508060050160019054906101000a900460ff16611e00576040517f08c379a0000000000000000000000000000000000000000000000000000000008152600401611df7906143a2565b60405180910390fd5b61010160009054906101000a900473ffffffffffffffffffffffffffffffffffffffff1673ffffffffffffffffffffffffffffffffffffffff166323b872dd303384600101546040518463ffffffff1660e01b8152600401611e6493929190614226565b600060405180830381600087803b158015611e7e57600080fd5b505af1158015611e92573d6000803e3d6000fd5b5050505060008160050160016101000a81548160ff021916908315150217905550611ebd60fd61321e565b8060020160009054906101000a900473ffffffffffffffffffffffffffffffffffffffff1673ffffffffffffffffffffffffffffffffffffffff168160010154847f9cf3aa3c21065a435a0fd60111abd0ae5148ec0805525a8ade76e8c0632b89cd846004015442604051611f33929190614654565b60405180910390a45050600160658190555050565b81610102600082815260200190815260200160002060020160009054906101000a900473ffffffffffffffffffffffffffffffffffffffff1673ffffffffffffffffffffffffffffffffffffffff163373ffffffffffffffffffffffffffffffffffffffff1614611fee576040517f08c379a0000000000000000000000000000000000000000000000000000000008152600401611fe590614462565b60405180910390fd5b6000610102600085815260200190815260200160002090508060050160019054906101000a900460ff16801561203357508060050160009054906101000a900460ff16155b612072576040517f08c379a0000000000000000000000000000000000000000000000000000000008152600401612069906143a2565b60405180910390fd5b600083116120b5576040517f08c379a00000000000000000000000000000000000000000000000000000000081526004016120ac906145e2565b60405180910390fd5b8281600401819055508060020160009054906101000a900473ffffffffffffffffffffffffffffffffffffffff1673ffffffffffffffffffffffffffffffffffffffff168160010154857fb5ff818b1e47858abe4b8dbeee7509d67cc6b3e461dc17faf8340a2defdaa8d7846004015442604051612134929190614654565b60405180910390a450505050565b600060fe54905090565b600060ff60009054906101000a900473ffffffffffffffffffffffffffffffffffffffff16905090565b61217e613234565b73ffffffffffffffffffffffffffffffffffffffff1661219c611c79565b73ffffffffffffffffffffffffffffffffffffffff16146121f2576040517f08c379a00000000000000000000000000000000000000000000000000000000081526004016121e990614502565b60405180910390fd5b600073ffffffffffffffffffffffffffffffffffffffff168173ffffffffffffffffffffffffffffffffffffffff161415612262576040517f08c379a0000000000000000000000000000000000000000000000000000000008152600401612259906145a2565b60405180910390fd5b8060ff60006101000a81548173ffffffffffffffffffffffffffffffffffffffff021916908373ffffffffffffffffffffffffffffffffffffffff16021790555050565b6122ae613234565b73ffffffffffffffffffffffffffffffffffffffff166122cc611c79565b73ffffffffffffffffffffffffffffffffffffffff1614612322576040517f08c379a000000000000000000000000000000000000000000000000000000000815260040161231990614502565b60405180910390fd5b600073ffffffffffffffffffffffffffffffffffffffff168173ffffffffffffffffffffffffffffffffffffffff161415612392576040517f08c379a000000000000000000000000000000000000000000000000000000000815260040161238990614402565b60405180910390fd5b61239b8161323c565b50565b600260655414156123e4576040517f08c379a00000000000000000000000000000000000000000000000000000000081526004016123db906145c2565b60405180910390fd5b6002606581905550600061010260008381526020019081526020016000209050600081600401549050600061010060009054906101000a900473ffffffffffffffffffffffffffffffffffffffff1673ffffffffffffffffffffffffffffffffffffffff1663dd62ed3e33306040518363ffffffff1660e01b815260040161246d9291906141fd565b60206040518083038186803b15801561248557600080fd5b505afa158015612499573d6000803e3d6000fd5b505050506040513d601f19601f820116820180604052508101906124bd9190613b8e565b905081811015612502576040517f08c379a00000000000000000000000000000000000000000000000000000000081526004016124f990614542565b60405180910390fd5b600115158360050160019054906101000a900460ff16151514801561253c5750600015158360050160009054906101000a900460ff161515145b61257b576040517f08c379a0000000000000000000000000000000000000000000000000000000008152600401612572906143a2565b60405180910390fd5b8260020160009054906101000a900473ffffffffffffffffffffffffffffffffffffffff1673ffffffffffffffffffffffffffffffffffffffff163373ffffffffffffffffffffffffffffffffffffffff16141561260e576040517f08c379a000000000000000000000000000000000000000000000000000000000815260040161260590614582565b60405180910390fd5b600061010060009054906101000a900473ffffffffffffffffffffffffffffffffffffffff1673ffffffffffffffffffffffffffffffffffffffff166323b872dd3360ff60009054906101000a900473ffffffffffffffffffffffffffffffffffffffff1661269c6103e861268e60fe548a61330290919063ffffffff16565b61331890919063ffffffff16565b6040518463ffffffff1660e01b81526004016126ba93929190614226565b602060405180830381600087803b1580156126d457600080fd5b505af11580156126e8573d6000803e3d6000fd5b505050506040513d601f19601f8201168201806040525081019061270c9190613afb565b90508061274e576040517f08c379a000000000000000000000000000000000000000000000000000000000815260040161274590614522565b60405180910390fd5b600061010060009054906101000a900473ffffffffffffffffffffffffffffffffffffffff1673ffffffffffffffffffffffffffffffffffffffff166323b872dd338760020160009054906101000a900473ffffffffffffffffffffffffffffffffffffffff166127eb6103e86127dd60fe546103e86127ce9190614909565b8b61330290919063ffffffff16565b61331890919063ffffffff16565b6040518463ffffffff1660e01b815260040161280993929190614226565b602060405180830381600087803b15801561282357600080fd5b505af1158015612837573d6000803e3d6000fd5b505050506040513d601f19601f8201168201806040525081019061285b9190613afb565b90508061289d576040517f08c379a000000000000000000000000000000000000000000000000000000000815260040161289490614482565b60405180910390fd5b60008560010154905061010160009054906101000a900473ffffffffffffffffffffffffffffffffffffffff1673ffffffffffffffffffffffffffffffffffffffff166323b872dd3033846040518463ffffffff1660e01b815260040161290693929190614226565b600060405180830381600087803b15801561292057600080fd5b505af1158015612934573d6000803e3d6000fd5b50505050600042905060018760050160006101000a81548160ff02191690831515021790555060008760050160016101000a81548160ff021916908315150217905550338760030160006101000a81548173ffffffffffffffffffffffffffffffffffffffff021916908373ffffffffffffffffffffffffffffffffffffffff1602179055508087600601819055506129cd60fc61321e565b81887fa1ffbf809f5113e0312f081bb16d51434d610320b7ea557250fdcbded2fbd4478960020160009054906101000a900473ffffffffffffffffffffffffffffffffffffffff16898b60050160009054906101000a900460ff1686604051612a399493929190614286565b60405180910390a37f7c8ecd76e70d007ea55274b3222da38779706d055ca4fe9a1e61dfc2a7e0c1e388838960020160009054906101000a900473ffffffffffffffffffffffffffffffffffffffff168a60030160009054906101000a900473ffffffffffffffffffffffffffffffffffffffff1660ff60009054906101000a900473ffffffffffffffffffffffffffffffffffffffff16612afa6103e8612aec60fe548f61330290919063ffffffff16565b61331890919063ffffffff16565b87604051612b0e979695949392919061467d565b60405180910390a150505050505050600160658190555050565b6060600061010160009054906101000a900473ffffffffffffffffffffffffffffffffffffffff1673ffffffffffffffffffffffffffffffffffffffff166370a08231336040518263ffffffff1660e01b8152600401612b8891906141e2565b60206040518083038186803b158015612ba057600080fd5b505afa158015612bb4573d6000803e3d6000fd5b505050506040513d601f19601f82011682018060405250810190612bd89190613b8e565b905060008167ffffffffffffffff811115612c1c577f4e487b7100000000000000000000000000000000000000000000000000000000600052604160045260246000fd5b604051908082528060200260200182016040528015612c5557816020015b612c426137df565b815260200190600190039081612c3a5790505b50905060005b82811015612e7757600061010160009054906101000a900473ffffffffffffffffffffffffffffffffffffffff1673ffffffffffffffffffffffffffffffffffffffff16632f745c5933846040518363ffffffff1660e01b8152600401612cc392919061425d565b60206040518083038186803b158015612cdb57600080fd5b505afa158015612cef573d6000803e3d6000fd5b505050506040513d601f19601f82011682018060405250810190612d139190613b8e565b9050600061010160009054906101000a900473ffffffffffffffffffffffffffffffffffffffff1673ffffffffffffffffffffffffffffffffffffffff1663c87b56dd836040518263ffffffff1660e01b8152600401612d739190614602565b60006040518083038186803b158015612d8b57600080fd5b505afa158015612d9f573d6000803e3d6000fd5b505050506040513d6000823e3d601f19601f82011682018060405250810190612dc89190613b24565b9050604051806060016040528083815260200161010160009054906101000a900473ffffffffffffffffffffffffffffffffffffffff1673ffffffffffffffffffffffffffffffffffffffff16815260200182815250848481518110612e57577f4e487b7100000000000000000000000000000000000000000000000000000000600052603260045260246000fd5b602002602001018190525050508080612e6f90614a6c565b915050612c5b565b50809250505090565b600081600001549050919050565b6000612ebc7f360894a13ba1a3210667c828492db98dca3e2076cc3735a920a3ca505d382bbc60001b61332e565b60000160009054906101000a900473ffffffffffffffffffffffffffffffffffffffff16905090565b612eed613234565b73ffffffffffffffffffffffffffffffffffffffff16612f0b611c79565b73ffffffffffffffffffffffffffffffffffffffff1614612f61576040517f08c379a0000000000000000000000000000000000000000000000000000000008152600401612f5890614502565b60405180910390fd5b50565b6000612f6e612e8e565b9050612f7984613338565b600083511180612f865750815b15612f9757612f9584846133f1565b505b6000612fc57f4910fdfa16fed3260ed0e7147f7cc6da11a60208b5b9406d12a635614ffd914360001b6134d5565b90508060000160009054906101000a900460ff1661312e5760018160000160006101000a81548160ff021916908315150217905550613091858360405160240161300f91906141e2565b6040516020818303038152906040527f3659cfe6000000000000000000000000000000000000000000000000000000007bffffffffffffffffffffffffffffffffffffffffffffffffffffffff19166020820180517bffffffffffffffffffffffffffffffffffffffffffffffffffffffff83818316178352505050506133f1565b5060008160000160006101000a81548160ff0219169083151502179055506130b7612e8e565b73ffffffffffffffffffffffffffffffffffffffff168273ffffffffffffffffffffffffffffffffffffffff1614613124576040517f08c379a000000000000000000000000000000000000000000000000000000000815260040161311b906143e2565b60405180910390fd5b61312d856134df565b5b5050505050565b600060019054906101000a900460ff168061315b575060008054906101000a900460ff16155b61319a576040517f08c379a0000000000000000000000000000000000000000000000000000000008152600401613191906144c2565b60405180910390fd5b60008060019054906101000a900460ff1615905080156131ea576001600060016101000a81548160ff02191690831515021790555060016000806101000a81548160ff0219169083151502179055505b6131f261352e565b6131fa613607565b801561321b5760008060016101000a81548160ff0219169083151502179055505b50565b6001816000016000828254019250508190555050565b600033905090565b600060c960009054906101000a900473ffffffffffffffffffffffffffffffffffffffff1690508160c960006101000a81548173ffffffffffffffffffffffffffffffffffffffff021916908373ffffffffffffffffffffffffffffffffffffffff1602179055508173ffffffffffffffffffffffffffffffffffffffff168173ffffffffffffffffffffffffffffffffffffffff167f8be0079c531659141344cd1fd0a4f28419497f9722a3daafe3b4186f6b6457e060405160405180910390a35050565b6000818361331091906148af565b905092915050565b60008183613326919061487e565b905092915050565b6000819050919050565b613341816136f0565b613380576040517f08c379a0000000000000000000000000000000000000000000000000000000008152600401613377906144e2565b60405180910390fd5b806133ad7f360894a13ba1a3210667c828492db98dca3e2076cc3735a920a3ca505d382bbc60001b61332e565b60000160006101000a81548173ffffffffffffffffffffffffffffffffffffffff021916908373ffffffffffffffffffffffffffffffffffffffff16021790555050565b60606133fc836136f0565b61343b576040517f08c379a000000000000000000000000000000000000000000000000000000000815260040161343290614562565b60405180910390fd5b6000808473ffffffffffffffffffffffffffffffffffffffff168460405161346391906141cb565b600060405180830381855af49150503d806000811461349e576040519150601f19603f3d011682016040523d82523d6000602084013e6134a3565b606091505b50915091506134cb828260405180606001604052806027815260200161502360279139613703565b9250505092915050565b6000819050919050565b6134e881613338565b8073ffffffffffffffffffffffffffffffffffffffff167fbc7cd75a20ee27fd9adebab32041f755214dbc6bffa90cc0225b39da2e5c2d3b60405160405180910390a250565b600060019054906101000a900460ff1680613554575060008054906101000a900460ff16155b613593576040517f08c379a000000000000000000000000000000000000000000000000000000000815260040161358a906144c2565b60405180910390fd5b60008060019054906101000a900460ff1615905080156135e3576001600060016101000a81548160ff02191690831515021790555060016000806101000a81548160ff0219169083151502179055505b80156136045760008060016101000a81548160ff0219169083151502179055505b50565b600060019054906101000a900460ff168061362d575060008054906101000a900460ff16155b61366c576040517f08c379a0000000000000000000000000000000000000000000000000000000008152600401613663906144c2565b60405180910390fd5b60008060019054906101000a900460ff1615905080156136bc576001600060016101000a81548160ff02191690831515021790555060016000806101000a81548160ff0219169083151502179055505b6136cc6136c7613234565b61323c565b80156136ed5760008060016101000a81548160ff0219169083151502179055505b50565b600080823b905060008111915050919050565b6060831561371357829050613763565b6000835111156137265782518084602001fd5b816040517f08c379a000000000000000000000000000000000000000000000000000000000815260040161375a9190614360565b60405180910390fd5b9392505050565b6040518061010001604052806000815260200160008152602001600073ffffffffffffffffffffffffffffffffffffffff168152602001600073ffffffffffffffffffffffffffffffffffffffff16815260200160008152602001600015158152602001600015158152602001600081525090565b604051806060016040528060008152602001600073ffffffffffffffffffffffffffffffffffffffff168152602001606081525090565b600061382961382484614711565b6146ec565b90508281526020810184848401111561384157600080fd5b61384c8482856149f9565b509392505050565b600061386761386284614742565b6146ec565b90508281526020810184848401111561387f57600080fd5b61388a848285614a08565b509392505050565b6000813590506138a181614fdd565b92915050565b6000815190506138b681614fdd565b92915050565b6000815190506138cb81614ff4565b92915050565b60008083601f8401126138e357600080fd5b8235905067ffffffffffffffff8111156138fc57600080fd5b60208301915083600182028301111561391457600080fd5b9250929050565b600082601f83011261392c57600080fd5b813561393c848260208601613816565b91505092915050565b600082601f83011261395657600080fd5b8151613966848260208601613854565b91505092915050565b60008135905061397e8161500b565b92915050565b6000815190506139938161500b565b92915050565b6000602082840312156139ab57600080fd5b60006139b984828501613892565b91505092915050565b6000602082840312156139d457600080fd5b60006139e2848285016138a7565b91505092915050565b600080604083850312156139fe57600080fd5b6000613a0c85828601613892565b9250506020613a1d85828601613892565b9150509250929050565b600080600080600060808688031215613a3f57600080fd5b6000613a4d88828901613892565b9550506020613a5e88828901613892565b9450506040613a6f8882890161396f565b935050606086013567ffffffffffffffff811115613a8c57600080fd5b613a98888289016138d1565b92509250509295509295909350565b60008060408385031215613aba57600080fd5b6000613ac885828601613892565b925050602083013567ffffffffffffffff811115613ae557600080fd5b613af18582860161391b565b9150509250929050565b600060208284031215613b0d57600080fd5b6000613b1b848285016138bc565b91505092915050565b600060208284031215613b3657600080fd5b600082015167ffffffffffffffff811115613b5057600080fd5b613b5c84828501613945565b91505092915050565b600060208284031215613b7757600080fd5b6000613b858482850161396f565b91505092915050565b600060208284031215613ba057600080fd5b6000613bae84828501613984565b91505092915050565b60008060408385031215613bca57600080fd5b6000613bd88582860161396f565b9250506020613be98582860161396f565b9150509250929050565b6000613bff83836140bb565b6101008301905092915050565b6000613c18838361415d565b905092915050565b613c298161493d565b82525050565b613c388161493d565b82525050565b6000613c4982614793565b613c5381856147d9565b9350613c5e83614773565b8060005b83811015613c8f578151613c768882613bf3565b9750613c81836147bf565b925050600181019050613c62565b5085935050505092915050565b6000613ca78261479e565b613cb181856147ea565b935083602082028501613cc385614783565b8060005b85811015613cff5784840389528151613ce08582613c0c565b9450613ceb836147cc565b925060208a01995050600181019050613cc7565b50829750879550505050505092915050565b613d1a8161494f565b82525050565b613d298161494f565b82525050565b613d388161495b565b82525050565b6000613d49826147a9565b613d5381856147fb565b9350613d63818560208601614a08565b80840191505092915050565b613d78816149b1565b82525050565b613d87816149d5565b82525050565b6000613d98826147b4565b613da28185614806565b9350613db2818560208601614a08565b613dbb81614b42565b840191505092915050565b6000613dd1826147b4565b613ddb8185614817565b9350613deb818560208601614a08565b613df481614b42565b840191505092915050565b6000613e0c601983614817565b9150613e1782614b53565b602082019050919050565b6000613e2f600f83614817565b9150613e3a82614b7c565b602082019050919050565b6000613e52602483614817565b9150613e5d82614ba5565b604082019050919050565b6000613e75602f83614817565b9150613e8082614bf4565b604082019050919050565b6000613e98602683614817565b9150613ea382614c43565b604082019050919050565b6000613ebb602483614817565b9150613ec682614c92565b604082019050919050565b6000613ede602c83614817565b9150613ee982614ce1565b604082019050919050565b6000613f01601383614817565b9150613f0c82614d30565b602082019050919050565b6000613f24601883614817565b9150613f2f82614d59565b602082019050919050565b6000613f47602c83614817565b9150613f5282614d82565b604082019050919050565b6000613f6a602e83614817565b9150613f7582614dd1565b604082019050919050565b6000613f8d602d83614817565b9150613f9882614e20565b604082019050919050565b6000613fb0602083614817565b9150613fbb82614e6f565b602082019050919050565b6000613fd3601683614817565b9150613fde82614e98565b602082019050919050565b6000613ff6601483614817565b915061400182614ec1565b602082019050919050565b6000614019602683614817565b915061402482614eea565b604082019050919050565b600061403c601d83614817565b915061404782614f39565b602082019050919050565b600061405f601c83614817565b915061406a82614f62565b602082019050919050565b6000614082601f83614817565b915061408d82614f8b565b602082019050919050565b60006140a5601c83614817565b91506140b082614fb4565b602082019050919050565b610100820160008201516140d260008501826141ad565b5060208201516140e560208501826141ad565b5060408201516140f86040850182613c20565b50606082015161410b6060850182613c20565b50608082015161411e60808501826141ad565b5060a082015161413160a0850182613d11565b5060c082015161414460c0850182613d11565b5060e082015161415760e08501826141ad565b50505050565b600060608301600083015161417560008601826141ad565b5060208301516141886020860182613c20565b50604083015184820360408601526141a08282613d8d565b9150508091505092915050565b6141b6816149a7565b82525050565b6141c5816149a7565b82525050565b60006141d78284613d3e565b915081905092915050565b60006020820190506141f76000830184613c2f565b92915050565b60006040820190506142126000830185613c2f565b61421f6020830184613c2f565b9392505050565b600060608201905061423b6000830186613c2f565b6142486020830185613c2f565b61425560408301846141bc565b949350505050565b60006040820190506142726000830185613c2f565b61427f60208301846141bc565b9392505050565b600060808201905061429b6000830187613c2f565b6142a860208301866141bc565b6142b56040830185613d20565b6142c260608301846141bc565b95945050505050565b600060208201905081810360008301526142e58184613c3e565b905092915050565b600060208201905081810360008301526143078184613c9c565b905092915050565b60006020820190506143246000830184613d2f565b92915050565b600060208201905061433f6000830184613d6f565b92915050565b600060208201905061435a6000830184613d7e565b92915050565b6000602082019050818103600083015261437a8184613dc6565b905092915050565b6000602082019050818103600083015261439b81613dff565b9050919050565b600060208201905081810360008301526143bb81613e22565b9050919050565b600060208201905081810360008301526143db81613e45565b9050919050565b600060208201905081810360008301526143fb81613e68565b9050919050565b6000602082019050818103600083015261441b81613e8b565b9050919050565b6000602082019050818103600083015261443b81613eae565b9050919050565b6000602082019050818103600083015261445b81613ed1565b9050919050565b6000602082019050818103600083015261447b81613ef4565b9050919050565b6000602082019050818103600083015261449b81613f17565b9050919050565b600060208201905081810360008301526144bb81613f3a565b9050919050565b600060208201905081810360008301526144db81613f5d565b9050919050565b600060208201905081810360008301526144fb81613f80565b9050919050565b6000602082019050818103600083015261451b81613fa3565b9050919050565b6000602082019050818103600083015261453b81613fc6565b9050919050565b6000602082019050818103600083015261455b81613fe9565b9050919050565b6000602082019050818103600083015261457b8161400c565b9050919050565b6000602082019050818103600083015261459b8161402f565b9050919050565b600060208201905081810360008301526145bb81614052565b9050919050565b600060208201905081810360008301526145db81614075565b9050919050565b600060208201905081810360008301526145fb81614098565b9050919050565b600060208201905061461760008301846141bc565b92915050565b600060608201905061463260008301866141bc565b61463f6020830185613d20565b61464c60408301846141bc565b949350505050565b600060408201905061466960008301856141bc565b61467660208301846141bc565b9392505050565b600060e082019050614692600083018a6141bc565b61469f60208301896141bc565b6146ac6040830188613c2f565b6146b96060830187613c2f565b6146c66080830186613c2f565b6146d360a08301856141bc565b6146e060c08301846141bc565b98975050505050505050565b60006146f6614707565b90506147028282614a3b565b919050565b6000604051905090565b600067ffffffffffffffff82111561472c5761472b614b13565b5b61473582614b42565b9050602081019050919050565b600067ffffffffffffffff82111561475d5761475c614b13565b5b61476682614b42565b9050602081019050919050565b6000819050602082019050919050565b6000819050602082019050919050565b600081519050919050565b600081519050919050565b600081519050919050565b600081519050919050565b6000602082019050919050565b6000602082019050919050565b600082825260208201905092915050565b600082825260208201905092915050565b600081905092915050565b600082825260208201905092915050565b600082825260208201905092915050565b6000614833826149a7565b915061483e836149a7565b9250827fffffffffffffffffffffffffffffffffffffffffffffffffffffffffffffffff0382111561487357614872614ab5565b5b828201905092915050565b6000614889826149a7565b9150614894836149a7565b9250826148a4576148a3614ae4565b5b828204905092915050565b60006148ba826149a7565b91506148c5836149a7565b9250817fffffffffffffffffffffffffffffffffffffffffffffffffffffffffffffffff04831182151516156148fe576148fd614ab5565b5b828202905092915050565b6000614914826149a7565b915061491f836149a7565b92508282101561493257614931614ab5565b5b828203905092915050565b600061494882614987565b9050919050565b60008115159050919050565b60007fffffffff0000000000000000000000000000000000000000000000000000000082169050919050565b600073ffffffffffffffffffffffffffffffffffffffff82169050919050565b6000819050919050565b60006149bc826149c3565b9050919050565b60006149ce82614987565b9050919050565b60006149e0826149e7565b9050919050565b60006149f282614987565b9050919050565b82818337600083830152505050565b60005b83811015614a26578082015181840152602081019050614a0b565b83811115614a35576000848401525b50505050565b614a4482614b42565b810181811067ffffffffffffffff82111715614a6357614a62614b13565b5b80604052505050565b6000614a77826149a7565b91507fffffffffffffffffffffffffffffffffffffffffffffffffffffffffffffffff821415614aaa57614aa9614ab5565b5b600182019050919050565b7f4e487b7100000000000000000000000000000000000000000000000000000000600052601160045260246000fd5b7f4e487b7100000000000000000000000000000000000000000000000000000000600052601260045260246000fd5b7f4e487b7100000000000000000000000000000000000000000000000000000000600052604160045260246000fd5b6000601f19601f8301169050919050565b7f596f7520646f206e6f74206f776e207468697320746f6b656e00000000000000600082015250565b7f53616c652077617320656e6465642e0000000000000000000000000000000000600082015250565b7f5061676520616e642073697a65206d757374206265206772656174657220746860008201527f616e203000000000000000000000000000000000000000000000000000000000602082015250565b7f45524331393637557067726164653a207570677261646520627265616b73206660008201527f7572746865722075706772616465730000000000000000000000000000000000602082015250565b7f4f776e61626c653a206e6577206f776e657220697320746865207a65726f206160008201527f6464726573730000000000000000000000000000000000000000000000000000602082015250565b7f4665652070657263656e74206d75737420626520736d616c6c6572207468616e60008201527f2031302500000000000000000000000000000000000000000000000000000000602082015250565b7f46756e6374696f6e206d7573742062652063616c6c6564207468726f7567682060008201527f64656c656761746563616c6c0000000000000000000000000000000000000000602082015250565b7f496e76616c69642073616c652073656c6c657200000000000000000000000000600082015250565b7f4661696c656420746f207472616e7366657220746f6b656e0000000000000000600082015250565b7f46756e6374696f6e206d7573742062652063616c6c6564207468726f7567682060008201527f6163746976652070726f78790000000000000000000000000000000000000000602082015250565b7f496e697469616c697a61626c653a20636f6e747261637420697320616c72656160008201527f647920696e697469616c697a6564000000000000000000000000000000000000602082015250565b7f455243313936373a206e657720696d706c656d656e746174696f6e206973206e60008201527f6f74206120636f6e747261637400000000000000000000000000000000000000602082015250565b7f4f776e61626c653a2063616c6c6572206973206e6f7420746865206f776e6572600082015250565b7f4661696c656420746f207472616e736665722066656500000000000000000000600082015250565b7f4e6f7420656e6f75676820616c6c6f77616e6365000000000000000000000000600082015250565b7f416464726573733a2064656c65676174652063616c6c20746f206e6f6e2d636f60008201527f6e74726163740000000000000000000000000000000000000000000000000000602082015250565b7f42757965722069732073656c6c6572206f662074686973206974656d2e000000600082015250565b7f73657446656552656365697665723a206e756c6c206164647265737300000000600082015250565b7f5265656e7472616e637947756172643a207265656e7472616e742063616c6c00600082015250565b7f5072696365206d757374206265206174206c6561737420312077656900000000600082015250565b614fe68161493d565b8114614ff157600080fd5b50565b614ffd8161494f565b811461500857600080fd5b50565b615014816149a7565b811461501f57600080fd5b5056fe416464726573733a206c6f772d6c6576656c2064656c65676174652063616c6c206661696c6564a26469706673582212208ed096c04f8e2cdaa7345a61852b4e0355f382aad77dafd0afdbf59b05a5276064736f6c63430008020033",
  "linkReferences": {},
  "deployedLinkReferences": {}
}