{
  "_format": "hh-sol-artifact-1",
  "contractName": "Marketplace",
  "sourceName": "contracts/Marketplace.sol",
  "abi": [
    {
      "anonymous": false,
      "inputs": [
        {
          "indexed": false,
          "internalType": "address",
          "name": "previousAdmin",
          "type": "address"
        },
        {
          "indexed": false,
          "internalType": "address",
          "name": "newAdmin",
          "type": "address"
        }
      ],
      "name": "AdminChanged",
      "type": "event"
    },
    {
      "anonymous": false,
      "inputs": [
        {
          "indexed": true,
          "internalType": "address",
          "name": "beacon",
          "type": "address"
        }
      ],
      "name": "BeaconUpgraded",
      "type": "event"
    },
    {
      "anonymous": false,
      "inputs": [
        {
          "indexed": false,
          "internalType": "uint256",
          "name": "saleId",
          "type": "uint256"
        },
        {
          "indexed": false,
          "internalType": "uint256",
          "name": "tokenId",
          "type": "uint256"
        },
        {
          "indexed": false,
          "internalType": "address",
          "name": "seller",
          "type": "address"
        },
        {
          "indexed": false,
          "internalType": "address",
          "name": "buyer",
          "type": "address"
        },
        {
          "indexed": false,
          "internalType": "address",
          "name": "feeReceiver",
          "type": "address"
        },
        {
          "indexed": false,
          "internalType": "uint256",
          "name": "fee",
          "type": "uint256"
        },
        {
          "indexed": false,
          "internalType": "uint256",
          "name": "lastUpdated",
          "type": "uint256"
        }
      ],
      "name": "FeeTransfered",
      "type": "event"
    },
    {
      "anonymous": false,
      "inputs": [
        {
          "indexed": true,
          "internalType": "address",
          "name": "previousOwner",
          "type": "address"
        },
        {
          "indexed": true,
          "internalType": "address",
          "name": "newOwner",
          "type": "address"
        }
      ],
      "name": "OwnershipTransferred",
      "type": "event"
    },
    {
      "anonymous": false,
      "inputs": [
        {
          "indexed": false,
          "internalType": "uint256",
          "name": "itemId",
          "type": "uint256"
        },
        {
          "indexed": false,
          "internalType": "uint256",
          "name": "quantity",
          "type": "uint256"
        }
      ],
      "name": "QuantitySet",
      "type": "event"
    },
    {
      "anonymous": false,
      "inputs": [
        {
          "indexed": true,
          "internalType": "uint256",
          "name": "saleId",
          "type": "uint256"
        },
        {
          "indexed": true,
          "internalType": "uint256",
          "name": "tokenId",
          "type": "uint256"
        },
        {
          "indexed": true,
          "internalType": "address",
          "name": "seller",
          "type": "address"
        },
        {
          "indexed": false,
          "internalType": "uint256",
          "name": "price",
          "type": "uint256"
        },
        {
          "indexed": false,
          "internalType": "uint256",
          "name": "lastUpdated",
          "type": "uint256"
        }
      ],
      "name": "SaleCanceled",
      "type": "event"
    },
    {
      "anonymous": false,
      "inputs": [
        {
          "indexed": true,
          "internalType": "uint256",
          "name": "saleId",
          "type": "uint256"
        },
        {
          "indexed": true,
          "internalType": "uint256",
          "name": "tokenId",
          "type": "uint256"
        },
        {
          "indexed": true,
          "internalType": "address",
          "name": "seller",
          "type": "address"
        },
        {
          "indexed": false,
          "internalType": "uint256",
          "name": "price",
          "type": "uint256"
        },
        {
          "indexed": false,
          "internalType": "bool",
          "name": "isSold",
          "type": "bool"
        },
        {
          "indexed": false,
          "internalType": "uint256",
          "name": "lastUpdated",
          "type": "uint256"
        }
      ],
      "name": "SaleCreated",
      "type": "event"
    },
    {
      "anonymous": false,
      "inputs": [
        {
          "indexed": true,
          "internalType": "uint256",
          "name": "saleId",
          "type": "uint256"
        },
        {
          "indexed": true,
          "internalType": "uint256",
          "name": "tokenId",
          "type": "uint256"
        },
        {
          "indexed": false,
          "internalType": "address",
          "name": "seller",
          "type": "address"
        },
        {
          "indexed": false,
          "internalType": "uint256",
          "name": "price",
          "type": "uint256"
        },
        {
          "indexed": false,
          "internalType": "bool",
          "name": "isSold",
          "type": "bool"
        },
        {
          "indexed": false,
          "internalType": "uint256",
          "name": "lastUpdated",
          "type": "uint256"
        }
      ],
      "name": "SaleSold",
      "type": "event"
    },
    {
      "anonymous": false,
      "inputs": [
        {
          "indexed": true,
          "internalType": "uint256",
          "name": "saleId",
          "type": "uint256"
        },
        {
          "indexed": true,
          "internalType": "uint256",
          "name": "tokenId",
          "type": "uint256"
        },
        {
          "indexed": true,
          "internalType": "address",
          "name": "seller",
          "type": "address"
        },
        {
          "indexed": false,
          "internalType": "uint256",
          "name": "price",
          "type": "uint256"
        },
        {
          "indexed": false,
          "internalType": "uint256",
          "name": "lastUpdated",
          "type": "uint256"
        }
      ],
      "name": "SaleUpdated",
      "type": "event"
    },
    {
      "anonymous": false,
      "inputs": [
        {
          "indexed": true,
          "internalType": "address",
          "name": "implementation",
          "type": "address"
        }
      ],
      "name": "Upgraded",
      "type": "event"
    },
    {
      "inputs": [
        {
          "internalType": "uint256",
          "name": "",
          "type": "uint256"
        }
      ],
      "name": "availableQuantity",
      "outputs": [
        {
          "internalType": "uint256",
          "name": "",
          "type": "uint256"
        }
      ],
      "stateMutability": "view",
      "type": "function"
    },
    {
      "inputs": [
        {
          "internalType": "string",
          "name": "uri",
          "type": "string"
        },
        {
          "internalType": "uint256",
          "name": "itemId",
          "type": "uint256"
        }
      ],
      "name": "buyGameItem",
      "outputs": [],
      "stateMutability": "nonpayable",
      "type": "function"
    },
    {
      "inputs": [
        {
          "internalType": "uint256",
          "name": "saleId",
          "type": "uint256"
        }
      ],
      "name": "cancelSale",
      "outputs": [],
      "stateMutability": "nonpayable",
      "type": "function"
    },
    {
      "inputs": [
        {
          "internalType": "uint256",
          "name": "saleId",
          "type": "uint256"
        },
        {
          "internalType": "uint256",
          "name": "newPrice",
          "type": "uint256"
        }
      ],
      "name": "changeSalePrice",
      "outputs": [],
      "stateMutability": "nonpayable",
      "type": "function"
    },
    {
      "inputs": [
        {
          "internalType": "uint256",
          "name": "tokenId",
          "type": "uint256"
        },
        {
          "internalType": "uint256",
          "name": "price",
          "type": "uint256"
        }
      ],
      "name": "createSale",
      "outputs": [],
      "stateMutability": "nonpayable",
      "type": "function"
    },
    {
      "inputs": [],
      "name": "feePercentX10",
      "outputs": [
        {
          "internalType": "uint256",
          "name": "",
          "type": "uint256"
        }
      ],
      "stateMutability": "view",
      "type": "function"
    },
    {
      "inputs": [],
      "name": "feeReceiver",
      "outputs": [
        {
          "internalType": "address",
          "name": "",
          "type": "address"
        }
      ],
      "stateMutability": "view",
      "type": "function"
    },
    {
      "inputs": [],
      "name": "getActiveSales",
      "outputs": [
        {
          "components": [
            {
              "internalType": "uint256",
              "name": "saleId",
              "type": "uint256"
            },
            {
              "internalType": "uint256",
              "name": "tokenId",
              "type": "uint256"
            },
            {
              "internalType": "address",
              "name": "seller",
              "type": "address"
            },
            {
              "internalType": "address",
              "name": "buyer",
              "type": "address"
            },
            {
              "internalType": "uint256",
              "name": "price",
              "type": "uint256"
            },
            {
              "internalType": "bool",
              "name": "isSold",
              "type": "bool"
            },
            {
              "internalType": "bool",
              "name": "isActive",
              "type": "bool"
            },
            {
              "internalType": "uint256",
              "name": "lastUpdated",
              "type": "uint256"
            }
          ],
          "internalType": "struct Marketplace.Sale[]",
          "name": "",
          "type": "tuple[]"
        }
      ],
      "stateMutability": "view",
      "type": "function"
    },
    {
      "inputs": [
        {
          "internalType": "uint256",
          "name": "page",
          "type": "uint256"
        },
        {
          "internalType": "uint256",
          "name": "size",
          "type": "uint256"
        }
      ],
      "name": "getActiveSalesByPage",
      "outputs": [
        {
          "components": [
            {
              "internalType": "uint256",
              "name": "saleId",
              "type": "uint256"
            },
            {
              "internalType": "uint256",
              "name": "tokenId",
              "type": "uint256"
            },
            {
              "internalType": "address",
              "name": "seller",
              "type": "address"
            },
            {
              "internalType": "address",
              "name": "buyer",
              "type": "address"
            },
            {
              "internalType": "uint256",
              "name": "price",
              "type": "uint256"
            },
            {
              "internalType": "bool",
              "name": "isSold",
              "type": "bool"
            },
            {
              "internalType": "bool",
              "name": "isActive",
              "type": "bool"
            },
            {
              "internalType": "uint256",
              "name": "lastUpdated",
              "type": "uint256"
            }
          ],
          "internalType": "struct Marketplace.Sale[]",
          "name": "",
          "type": "tuple[]"
        }
      ],
      "stateMutability": "view",
      "type": "function"
    },
    {
      "inputs": [],
      "name": "getUserCreatedSales",
      "outputs": [
        {
          "components": [
            {
              "internalType": "uint256",
              "name": "saleId",
              "type": "uint256"
            },
            {
              "internalType": "uint256",
              "name": "tokenId",
              "type": "uint256"
            },
            {
              "internalType": "address",
              "name": "seller",
              "type": "address"
            },
            {
              "internalType": "address",
              "name": "buyer",
              "type": "address"
            },
            {
              "internalType": "uint256",
              "name": "price",
              "type": "uint256"
            },
            {
              "internalType": "bool",
              "name": "isSold",
              "type": "bool"
            },
            {
              "internalType": "bool",
              "name": "isActive",
              "type": "bool"
            },
            {
              "internalType": "uint256",
              "name": "lastUpdated",
              "type": "uint256"
            }
          ],
          "internalType": "struct Marketplace.Sale[]",
          "name": "",
          "type": "tuple[]"
        }
      ],
      "stateMutability": "view",
      "type": "function"
    },
    {
      "inputs": [],
      "name": "getUserNFTs",
      "outputs": [
        {
          "components": [
            {
              "internalType": "uint256",
              "name": "tokenId",
              "type": "uint256"
            },
            {
              "internalType": "address",
              "name": "contractAddress",
              "type": "address"
            },
            {
              "internalType": "string",
              "name": "URI",
              "type": "string"
            }
          ],
          "internalType": "struct Marketplace.TokenInfo[]",
          "name": "",
          "type": "tuple[]"
        }
      ],
      "stateMutability": "view",
      "type": "function"
    },
    {
      "inputs": [],
      "name": "getUserPurchasedSales",
      "outputs": [
        {
          "components": [
            {
              "internalType": "uint256",
              "name": "saleId",
              "type": "uint256"
            },
            {
              "internalType": "uint256",
              "name": "tokenId",
              "type": "uint256"
            },
            {
              "internalType": "address",
              "name": "seller",
              "type": "address"
            },
            {
              "internalType": "address",
              "name": "buyer",
              "type": "address"
            },
            {
              "internalType": "uint256",
              "name": "price",
              "type": "uint256"
            },
            {
              "internalType": "bool",
              "name": "isSold",
              "type": "bool"
            },
            {
              "internalType": "bool",
              "name": "isActive",
              "type": "bool"
            },
            {
              "internalType": "uint256",
              "name": "lastUpdated",
              "type": "uint256"
            }
          ],
          "internalType": "struct Marketplace.Sale[]",
          "name": "",
          "type": "tuple[]"
        }
      ],
      "stateMutability": "view",
      "type": "function"
    },
    {
      "inputs": [],
      "name": "howl",
      "outputs": [
        {
          "internalType": "contract IERC20",
          "name": "",
          "type": "address"
        }
      ],
      "stateMutability": "view",
      "type": "function"
    },
    {
      "inputs": [
        {
          "internalType": "address",
          "name": "erc20",
          "type": "address"
        },
        {
          "internalType": "address",
          "name": "erc721",
          "type": "address"
        }
      ],
      "name": "initialize",
      "outputs": [],
      "stateMutability": "nonpayable",
      "type": "function"
    },
    {
      "inputs": [],
      "name": "nft",
      "outputs": [
        {
          "internalType": "contract IERC721",
          "name": "",
          "type": "address"
        }
      ],
      "stateMutability": "view",
      "type": "function"
    },
    {
      "inputs": [
        {
          "internalType": "address",
          "name": "operator",
          "type": "address"
        },
        {
          "internalType": "address",
          "name": "from",
          "type": "address"
        },
        {
          "internalType": "uint256",
          "name": "tokenId",
          "type": "uint256"
        },
        {
          "internalType": "bytes",
          "name": "data",
          "type": "bytes"
        }
      ],
      "name": "onERC721Received",
      "outputs": [
        {
          "internalType": "bytes4",
          "name": "",
          "type": "bytes4"
        }
      ],
      "stateMutability": "pure",
      "type": "function"
    },
    {
      "inputs": [],
      "name": "owner",
      "outputs": [
        {
          "internalType": "address",
          "name": "",
          "type": "address"
        }
      ],
      "stateMutability": "view",
      "type": "function"
    },
    {
      "inputs": [
        {
          "internalType": "uint256",
          "name": "saleId",
          "type": "uint256"
        }
      ],
      "name": "purchaseSale",
      "outputs": [],
      "stateMutability": "nonpayable",
      "type": "function"
    },
    {
      "inputs": [],
      "name": "renounceOwnership",
      "outputs": [],
      "stateMutability": "nonpayable",
      "type": "function"
    },
    {
      "inputs": [
        {
          "internalType": "uint256",
          "name": "newFee",
          "type": "uint256"
        }
      ],
      "name": "setFee",
      "outputs": [],
      "stateMutability": "nonpayable",
      "type": "function"
    },
    {
      "inputs": [
        {
          "internalType": "address",
          "name": "newFeeReceiver",
          "type": "address"
        }
      ],
      "name": "setFeeReceiver",
      "outputs": [],
      "stateMutability": "nonpayable",
      "type": "function"
    },
    {
      "inputs": [
        {
          "internalType": "uint256",
          "name": "itemId",
          "type": "uint256"
        },
        {
          "internalType": "uint256",
          "name": "quantity",
          "type": "uint256"
        }
      ],
      "name": "setItemQuantity",
      "outputs": [],
      "stateMutability": "nonpayable",
      "type": "function"
    },
    {
      "inputs": [
        {
          "internalType": "uint256",
          "name": "newStorePrice",
          "type": "uint256"
        }
      ],
      "name": "setStorePrice",
      "outputs": [],
      "stateMutability": "nonpayable",
      "type": "function"
    },
    {
      "inputs": [],
      "name": "storePrice",
      "outputs": [
        {
          "internalType": "uint256",
          "name": "",
          "type": "uint256"
        }
      ],
      "stateMutability": "view",
      "type": "function"
    },
    {
      "inputs": [
        {
          "internalType": "address",
          "name": "newOwner",
          "type": "address"
        }
      ],
      "name": "transferOwnership",
      "outputs": [],
      "stateMutability": "nonpayable",
      "type": "function"
    },
    {
      "inputs": [
        {
          "internalType": "address",
          "name": "newImplementation",
          "type": "address"
        }
      ],
      "name": "upgradeTo",
      "outputs": [],
      "stateMutability": "nonpayable",
      "type": "function"
    },
    {
      "inputs": [
        {
          "internalType": "address",
          "name": "newImplementation",
          "type": "address"
        },
        {
          "internalType": "bytes",
          "name": "data",
          "type": "bytes"
        }
      ],
      "name": "upgradeToAndCall",
      "outputs": [],
      "stateMutability": "payable",
      "type": "function"
    }
  ],
  "bytecode": "0x60a06040523073ffffffffffffffffffffffffffffffffffffffff1660809073ffffffffffffffffffffffffffffffffffffffff1660601b81525034801561004657600080fd5b5060805160601c6158016200007b600039600081816110c601528181611155015281816116ef015261177e01526158016000f3fe60806040526004361061019c5760003560e01c806369fe0e2d116100ec578063c05a6a2d1161008a578063f1103c9211610064578063f1103c921461057d578063f2fde38b146105a8578063f47cf5da146105d1578063fdc5ab8e146105fa5761019c565b8063c05a6a2d14610500578063c82e474b1461052b578063efdcd974146105545761019c565b80638eaa62e8116100c65780638eaa62e81461045a578063b3f0067414610483578063bb784776146104ae578063bd94b005146104d75761019c565b806369fe0e2d146103ef578063715018a6146104185780638da5cb5b1461042f5761019c565b806347ccca02116101595780636019061b116101335780636019061b1461033557806364a613d91461035e578063665275651461039b5780636803c78d146103c45761019c565b806347ccca02146102c5578063485cc955146102f05780634f1ef286146103195761019c565b80630974ed4b146101a1578063150b7a02146101cc57806321b7e7e114610209578063355ddccf146102345780633659cfe614610271578063436141d21461029a575b600080fd5b3480156101ad57600080fd5b506101b6610625565b6040516101c391906147d6565b60405180910390f35b3480156101d857600080fd5b506101f360048036038101906101ee9190613e20565b61096b565b604051610200919061481a565b60405180910390f35b34801561021557600080fd5b5061021e610980565b60405161022b91906147d6565b60405180910390f35b34801561024057600080fd5b5061025b60048036038101906102569190614004565b610cc6565b60405161026891906147d6565b60405180910390f35b34801561027d57600080fd5b5061029860048036038101906102939190613d92565b6110c4565b005b3480156102a657600080fd5b506102af611273565b6040516102bc91906147d6565b60405180910390f35b3480156102d157600080fd5b506102da611506565b6040516102e79190614850565b60405180910390f35b3480156102fc57600080fd5b5061031760048036038101906103129190613de4565b61152d565b005b610333600480360381019061032e9190613ea0565b6116ed565b005b34801561034157600080fd5b5061035c60048036038101906103579190614004565b61182a565b005b34801561036a57600080fd5b5061038560048036038101906103809190613fb2565b611c5a565b6040516103929190614b8d565b60405180910390f35b3480156103a757600080fd5b506103c260048036038101906103bd9190613fb2565b611c73565b005b3480156103d057600080fd5b506103d9611c7d565b6040516103e69190614835565b60405180910390f35b3480156103fb57600080fd5b5061041660048036038101906104119190613fb2565b611ca4565b005b34801561042457600080fd5b5061042d611d6e565b005b34801561043b57600080fd5b50610444611df6565b60405161045191906146ca565b60405180910390f35b34801561046657600080fd5b50610481600480360381019061047c9190613f5e565b611e20565b005b34801561048f57600080fd5b50610498612056565b6040516104a591906146ca565b60405180910390f35b3480156104ba57600080fd5b506104d560048036038101906104d09190614004565b61207d565b005b3480156104e357600080fd5b506104fe60048036038101906104f99190613fb2565b61214f565b005b34801561050c57600080fd5b506105156123f4565b6040516105229190614b8d565b60405180910390f35b34801561053757600080fd5b50610552600480360381019061054d9190614004565b6123fa565b005b34801561056057600080fd5b5061057b60048036038101906105769190613d92565b6125f4565b005b34801561058957600080fd5b50610592612725565b60405161059f9190614b8d565b60405180910390f35b3480156105b457600080fd5b506105cf60048036038101906105ca9190613d92565b61272b565b005b3480156105dd57600080fd5b506105f860048036038101906105f39190613fb2565b612823565b005b34801561060657600080fd5b5061060f612eb9565b60405161061c91906147f8565b60405180910390f35b6060600061063360fb613211565b90506000806000600190505b8381116106d4573373ffffffffffffffffffffffffffffffffffffffff16610103600083815260200190815260200160002060030160009054906101000a900473ffffffffffffffffffffffffffffffffffffffff1673ffffffffffffffffffffffffffffffffffffffff1614156106c1576001836106be9190614db3565b92505b80806106cc90615040565b91505061063f565b5060008267ffffffffffffffff811115610717577f4e487b7100000000000000000000000000000000000000000000000000000000600052604160045260246000fd5b60405190808252806020026020018201604052801561075057816020015b61073d613afb565b8152602001906001900390816107355790505b5090506000600190505b848111610960573373ffffffffffffffffffffffffffffffffffffffff16610103600083815260200190815260200160002060030160009054906101000a900473ffffffffffffffffffffffffffffffffffffffff1673ffffffffffffffffffffffffffffffffffffffff16141561094d57600061010360008381526020019081526020016000209050806040518061010001604052908160008201548152602001600182015481526020016002820160009054906101000a900473ffffffffffffffffffffffffffffffffffffffff1673ffffffffffffffffffffffffffffffffffffffff1673ffffffffffffffffffffffffffffffffffffffff1681526020016003820160009054906101000a900473ffffffffffffffffffffffffffffffffffffffff1673ffffffffffffffffffffffffffffffffffffffff1673ffffffffffffffffffffffffffffffffffffffff168152602001600482015481526020016005820160009054906101000a900460ff161515151581526020016005820160019054906101000a900460ff1615151515815260200160068201548152505083858061090790615040565b965081518110610940577f4e487b7100000000000000000000000000000000000000000000000000000000600052603260045260246000fd5b6020026020010181905250505b808061095890615040565b91505061075a565b508094505050505090565b600063150b7a0260e01b905095945050505050565b6060600061098e60fb613211565b90506000806000600190505b838111610a2f573373ffffffffffffffffffffffffffffffffffffffff16610103600083815260200190815260200160002060020160009054906101000a900473ffffffffffffffffffffffffffffffffffffffff1673ffffffffffffffffffffffffffffffffffffffff161415610a1c57600183610a199190614db3565b92505b8080610a2790615040565b91505061099a565b5060008267ffffffffffffffff811115610a72577f4e487b7100000000000000000000000000000000000000000000000000000000600052604160045260246000fd5b604051908082528060200260200182016040528015610aab57816020015b610a98613afb565b815260200190600190039081610a905790505b5090506000600190505b848111610cbb573373ffffffffffffffffffffffffffffffffffffffff16610103600083815260200190815260200160002060020160009054906101000a900473ffffffffffffffffffffffffffffffffffffffff1673ffffffffffffffffffffffffffffffffffffffff161415610ca857600061010360008381526020019081526020016000209050806040518061010001604052908160008201548152602001600182015481526020016002820160009054906101000a900473ffffffffffffffffffffffffffffffffffffffff1673ffffffffffffffffffffffffffffffffffffffff1673ffffffffffffffffffffffffffffffffffffffff1681526020016003820160009054906101000a900473ffffffffffffffffffffffffffffffffffffffff1673ffffffffffffffffffffffffffffffffffffffff1673ffffffffffffffffffffffffffffffffffffffff168152602001600482015481526020016005820160009054906101000a900460ff161515151581526020016005820160019054906101000a900460ff16151515158152602001600682015481525050838580610c6290615040565b965081518110610c9b577f4e487b7100000000000000000000000000000000000000000000000000000000600052603260045260246000fd5b6020026020010181905250505b8080610cb390615040565b915050610ab5565b508094505050505090565b606060008310158015610cd95750600082115b610d18576040517f08c379a0000000000000000000000000000000000000000000000000000000008152600401610d0f90614aad565b60405180910390fd5b6000610d2460fb613211565b90506000610d3260fc613211565b610d3c60fd613211565b83610d479190614e94565b610d519190614e94565b90508385610d5f9190614e3a565b811015610dea57600067ffffffffffffffff811115610da7577f4e487b7100000000000000000000000000000000000000000000000000000000600052604160045260246000fd5b604051908082528060200260200182016040528015610de057816020015b610dcd613afb565b815260200190600190039081610dc55790505b50925050506110be565b6000806000838760018a610dfe9190614db3565b610e089190614e3a565b11610e135786610e2b565b8688610e1f9190614e3a565b84610e2a9190614e94565b5b905060008167ffffffffffffffff811115610e6f577f4e487b7100000000000000000000000000000000000000000000000000000000600052604160045260246000fd5b604051908082528060200260200182016040528015610ea857816020015b610e95613afb565b815260200190600190039081610e8d5790505b5090506000600190505b8681116110b357610103600082815260200190815260200160002060050160019054906101000a900460ff16156110a0578380610eee90615040565b945050888a610efd9190614e3a565b84111561109f57600061010360008381526020019081526020016000209050806040518061010001604052908160008201548152602001600182015481526020016002820160009054906101000a900473ffffffffffffffffffffffffffffffffffffffff1673ffffffffffffffffffffffffffffffffffffffff1673ffffffffffffffffffffffffffffffffffffffff1681526020016003820160009054906101000a900473ffffffffffffffffffffffffffffffffffffffff1673ffffffffffffffffffffffffffffffffffffffff1673ffffffffffffffffffffffffffffffffffffffff168152602001600482015481526020016005820160009054906101000a900460ff161515151581526020016005820160019054906101000a900460ff1615151515815260200160068201548152505083878151811061106c577f4e487b7100000000000000000000000000000000000000000000000000000000600052603260045260246000fd5b602002602001018190525060018a6110849190614e94565b868061108f90615040565b9750141561109d57506110b3565b505b5b80806110ab90615040565b915050610eb2565b508096505050505050505b92915050565b7f000000000000000000000000000000000000000000000000000000000000000073ffffffffffffffffffffffffffffffffffffffff163073ffffffffffffffffffffffffffffffffffffffff161415611153576040517f08c379a000000000000000000000000000000000000000000000000000000000815260040161114a9061490d565b60405180910390fd5b7f000000000000000000000000000000000000000000000000000000000000000073ffffffffffffffffffffffffffffffffffffffff1661119261321f565b73ffffffffffffffffffffffffffffffffffffffff16146111e8576040517f08c379a00000000000000000000000000000000000000000000000000000000081526004016111df906149cd565b60405180910390fd5b6111f181613276565b61127081600067ffffffffffffffff811115611236577f4e487b7100000000000000000000000000000000000000000000000000000000600052604160045260246000fd5b6040519080825280601f01601f1916602001820160405280156112685781602001600182028036833780820191505090505b5060006132f5565b50565b6060600061128160fb613211565b9050600061128f60fc613211565b61129960fd613211565b836112a49190614e94565b6112ae9190614e94565b90506000808267ffffffffffffffff8111156112f3577f4e487b7100000000000000000000000000000000000000000000000000000000600052604160045260246000fd5b60405190808252806020026020018201604052801561132c57816020015b611319613afb565b8152602001906001900390816113115790505b5090506000600190505b8481116114fb57610103600082815260200190815260200160002060050160019054906101000a900460ff16156114e857600061010360008381526020019081526020016000209050806040518061010001604052908160008201548152602001600182015481526020016002820160009054906101000a900473ffffffffffffffffffffffffffffffffffffffff1673ffffffffffffffffffffffffffffffffffffffff1673ffffffffffffffffffffffffffffffffffffffff1681526020016003820160009054906101000a900473ffffffffffffffffffffffffffffffffffffffff1673ffffffffffffffffffffffffffffffffffffffff1673ffffffffffffffffffffffffffffffffffffffff168152602001600482015481526020016005820160009054906101000a900460ff161515151581526020016005820160019054906101000a900460ff161515151581526020016006820154815250508385806114a290615040565b9650815181106114db577f4e487b7100000000000000000000000000000000000000000000000000000000600052603260045260246000fd5b6020026020010181905250505b80806114f390615040565b915050611336565b508094505050505090565b61010260009054906101000a900473ffffffffffffffffffffffffffffffffffffffff1681565b600060019054906101000a900460ff1680611553575060008054906101000a900460ff16155b611592576040517f08c379a000000000000000000000000000000000000000000000000000000000815260040161158990614a0d565b60405180910390fd5b60008060019054906101000a900460ff1615905080156115e2576001600060016101000a81548160ff02191690831515021790555060016000806101000a81548160ff0219169083151502179055505b6115ea6134c6565b8261010160006101000a81548173ffffffffffffffffffffffffffffffffffffffff021916908373ffffffffffffffffffffffffffffffffffffffff1602179055508161010260006101000a81548173ffffffffffffffffffffffffffffffffffffffff021916908373ffffffffffffffffffffffffffffffffffffffff160217905550600a60ff819055503361010060006101000a81548173ffffffffffffffffffffffffffffffffffffffff021916908373ffffffffffffffffffffffffffffffffffffffff160217905550678ac7230489e8000060fe8190555080156116e85760008060016101000a81548160ff0219169083151502179055505b505050565b7f000000000000000000000000000000000000000000000000000000000000000073ffffffffffffffffffffffffffffffffffffffff163073ffffffffffffffffffffffffffffffffffffffff16141561177c576040517f08c379a00000000000000000000000000000000000000000000000000000000081526004016117739061490d565b60405180910390fd5b7f000000000000000000000000000000000000000000000000000000000000000073ffffffffffffffffffffffffffffffffffffffff166117bb61321f565b73ffffffffffffffffffffffffffffffffffffffff1614611811576040517f08c379a0000000000000000000000000000000000000000000000000000000008152600401611808906149cd565b60405180910390fd5b61181a82613276565b611826828260016132f5565b5050565b60026065541415611870576040517f08c379a000000000000000000000000000000000000000000000000000000000815260040161186790614b6d565b60405180910390fd5b6002606581905550600081116118bb576040517f08c379a00000000000000000000000000000000000000000000000000000000081526004016118b29061488d565b60405180910390fd5b3373ffffffffffffffffffffffffffffffffffffffff1661010260009054906101000a900473ffffffffffffffffffffffffffffffffffffffff1673ffffffffffffffffffffffffffffffffffffffff16636352211e846040518263ffffffff1660e01b815260040161192e9190614b8d565b60206040518083038186803b15801561194657600080fd5b505afa15801561195a573d6000803e3d6000fd5b505050506040513d601f19601f8201168201806040525081019061197e9190613dbb565b73ffffffffffffffffffffffffffffffffffffffff16146119d4576040517f08c379a00000000000000000000000000000000000000000000000000000000081526004016119cb90614a2d565b60405180910390fd5b6119de60fb6135af565b60006119ea60fb613211565b905061010260009054906101000a900473ffffffffffffffffffffffffffffffffffffffff1673ffffffffffffffffffffffffffffffffffffffff166342842e0e3330866040518463ffffffff1660e01b8152600401611a4c939291906146e5565b600060405180830381600087803b158015611a6657600080fd5b505af1158015611a7a573d6000803e3d6000fd5b505050506040518061010001604052808281526020018481526020013373ffffffffffffffffffffffffffffffffffffffff168152602001600073ffffffffffffffffffffffffffffffffffffffff168152602001838152602001600015158152602001600115158152602001428152506101036000838152602001908152602001600020600082015181600001556020820151816001015560408201518160020160006101000a81548173ffffffffffffffffffffffffffffffffffffffff021916908373ffffffffffffffffffffffffffffffffffffffff16021790555060608201518160030160006101000a81548173ffffffffffffffffffffffffffffffffffffffff021916908373ffffffffffffffffffffffffffffffffffffffff1602179055506080820151816004015560a08201518160050160006101000a81548160ff02191690831515021790555060c08201518160050160016101000a81548160ff02191690831515021790555060e082015181600601559050503373ffffffffffffffffffffffffffffffffffffffff1683827fd035e36eed79dc051f4a1821b06d9defcfe2a74be16adb4991291117112a50f085600042604051611c4593929190614ba8565b60405180910390a45060016065819055505050565b6101046020528060005260406000206000915090505481565b8060fe8190555050565b61010160009054906101000a900473ffffffffffffffffffffffffffffffffffffffff1681565b611cac6135c5565b73ffffffffffffffffffffffffffffffffffffffff16611cca611df6565b73ffffffffffffffffffffffffffffffffffffffff1614611d20576040517f08c379a0000000000000000000000000000000000000000000000000000000008152600401611d1790614a8d565b60405180910390fd5b6064811115611d64576040517f08c379a0000000000000000000000000000000000000000000000000000000008152600401611d5b90614b4d565b60405180910390fd5b8060ff8190555050565b611d766135c5565b73ffffffffffffffffffffffffffffffffffffffff16611d94611df6565b73ffffffffffffffffffffffffffffffffffffffff1614611dea576040517f08c379a0000000000000000000000000000000000000000000000000000000008152600401611de190614a8d565b60405180910390fd5b611df460006135cd565b565b600060c960009054906101000a900473ffffffffffffffffffffffffffffffffffffffff16905090565b600061010460008381526020019081526020016000205411611e77576040517f08c379a0000000000000000000000000000000000000000000000000000000008152600401611e6e90614b0d565b60405180910390fd5b600061010160009054906101000a900473ffffffffffffffffffffffffffffffffffffffff1673ffffffffffffffffffffffffffffffffffffffff166323b872dd3361010060009054906101000a900473ffffffffffffffffffffffffffffffffffffffff1660fe546040518463ffffffff1660e01b8152600401611efe939291906146e5565b602060405180830381600087803b158015611f1857600080fd5b505af1158015611f2c573d6000803e3d6000fd5b505050506040513d601f19601f82011682018060405250810190611f509190613ef4565b905080611f92576040517f08c379a0000000000000000000000000000000000000000000000000000000008152600401611f899061494d565b60405180910390fd5b61010260009054906101000a900473ffffffffffffffffffffffffffffffffffffffff1673ffffffffffffffffffffffffffffffffffffffff16632a654e5633858560036040518563ffffffff1660e01b8152600401611ff5949392919061471c565b600060405180830381600087803b15801561200f57600080fd5b505af1158015612023573d6000803e3d6000fd5b505050506101046000838152602001908152602001600020600081548092919061204c90614fe5565b9190505550505050565b61010060009054906101000a900473ffffffffffffffffffffffffffffffffffffffff1681565b6120856135c5565b73ffffffffffffffffffffffffffffffffffffffff166120a3611df6565b73ffffffffffffffffffffffffffffffffffffffff16146120f9576040517f08c379a00000000000000000000000000000000000000000000000000000000081526004016120f090614a8d565b60405180910390fd5b806101046000848152602001908152602001600020819055507ff66209169e22f4f59dad29f7c4fb1aebcbc5e0081f9dad5775461c3cdcd030cc8282604051612143929190614bdf565b60405180910390a15050565b60026065541415612195576040517f08c379a000000000000000000000000000000000000000000000000000000000815260040161218c90614b6d565b60405180910390fd5b600260658190555080610103600082815260200190815260200160002060020160009054906101000a900473ffffffffffffffffffffffffffffffffffffffff1673ffffffffffffffffffffffffffffffffffffffff163373ffffffffffffffffffffffffffffffffffffffff1614612243576040517f08c379a000000000000000000000000000000000000000000000000000000000815260040161223a9061496d565b60405180910390fd5b6000610103600084815260200190815260200160002090508060050160019054906101000a900460ff166122ac576040517f08c379a00000000000000000000000000000000000000000000000000000000081526004016122a3906148ad565b60405180910390fd5b61010260009054906101000a900473ffffffffffffffffffffffffffffffffffffffff1673ffffffffffffffffffffffffffffffffffffffff166323b872dd303384600101546040518463ffffffff1660e01b8152600401612310939291906146e5565b600060405180830381600087803b15801561232a57600080fd5b505af115801561233e573d6000803e3d6000fd5b5050505060008160050160016101000a81548160ff02191690831515021790555061236960fd6135af565b8060020160009054906101000a900473ffffffffffffffffffffffffffffffffffffffff1673ffffffffffffffffffffffffffffffffffffffff168160010154847f9cf3aa3c21065a435a0fd60111abd0ae5148ec0805525a8ade76e8c0632b89cd8460040154426040516123df929190614bdf565b60405180910390a45050600160658190555050565b60ff5481565b81610103600082815260200190815260200160002060020160009054906101000a900473ffffffffffffffffffffffffffffffffffffffff1673ffffffffffffffffffffffffffffffffffffffff163373ffffffffffffffffffffffffffffffffffffffff16146124a0576040517f08c379a00000000000000000000000000000000000000000000000000000000081526004016124979061496d565b60405180910390fd5b6000610103600085815260200190815260200160002090508060050160019054906101000a900460ff1680156124e557508060050160009054906101000a900460ff16155b612524576040517f08c379a000000000000000000000000000000000000000000000000000000000815260040161251b906149ed565b60405180910390fd5b60008311612567576040517f08c379a000000000000000000000000000000000000000000000000000000000815260040161255e90614a4d565b60405180910390fd5b8281600401819055508060020160009054906101000a900473ffffffffffffffffffffffffffffffffffffffff1673ffffffffffffffffffffffffffffffffffffffff168160010154857fb5ff818b1e47858abe4b8dbeee7509d67cc6b3e461dc17faf8340a2defdaa8d78460040154426040516125e6929190614bdf565b60405180910390a450505050565b6125fc6135c5565b73ffffffffffffffffffffffffffffffffffffffff1661261a611df6565b73ffffffffffffffffffffffffffffffffffffffff1614612670576040517f08c379a000000000000000000000000000000000000000000000000000000000815260040161266790614a8d565b60405180910390fd5b600073ffffffffffffffffffffffffffffffffffffffff168173ffffffffffffffffffffffffffffffffffffffff1614156126e0576040517f08c379a00000000000000000000000000000000000000000000000000000000081526004016126d790614b2d565b60405180910390fd5b8061010060006101000a81548173ffffffffffffffffffffffffffffffffffffffff021916908373ffffffffffffffffffffffffffffffffffffffff16021790555050565b60fe5481565b6127336135c5565b73ffffffffffffffffffffffffffffffffffffffff16612751611df6565b73ffffffffffffffffffffffffffffffffffffffff16146127a7576040517f08c379a000000000000000000000000000000000000000000000000000000000815260040161279e90614a8d565b60405180910390fd5b600073ffffffffffffffffffffffffffffffffffffffff168173ffffffffffffffffffffffffffffffffffffffff161415612817576040517f08c379a000000000000000000000000000000000000000000000000000000000815260040161280e906148ed565b60405180910390fd5b612820816135cd565b50565b60026065541415612869576040517f08c379a000000000000000000000000000000000000000000000000000000000815260040161286090614b6d565b60405180910390fd5b6002606581905550600061010360008381526020019081526020016000209050600081600401549050600115158260050160019054906101000a900460ff1615151480156128cc5750600015158260050160009054906101000a900460ff161515145b61290b576040517f08c379a00000000000000000000000000000000000000000000000000000000081526004016129029061492d565b60405180910390fd5b8160020160009054906101000a900473ffffffffffffffffffffffffffffffffffffffff1673ffffffffffffffffffffffffffffffffffffffff163373ffffffffffffffffffffffffffffffffffffffff16141561299e576040517f08c379a00000000000000000000000000000000000000000000000000000000081526004016129959061498d565b60405180910390fd5b600061010160009054906101000a900473ffffffffffffffffffffffffffffffffffffffff1673ffffffffffffffffffffffffffffffffffffffff166323b872dd3361010060009054906101000a900473ffffffffffffffffffffffffffffffffffffffff16612a2d6103e8612a1f60ff548961369390919063ffffffff16565b6136a990919063ffffffff16565b6040518463ffffffff1660e01b8152600401612a4b939291906146e5565b602060405180830381600087803b158015612a6557600080fd5b505af1158015612a79573d6000803e3d6000fd5b505050506040513d601f19601f82011682018060405250810190612a9d9190613ef4565b905080612adf576040517f08c379a0000000000000000000000000000000000000000000000000000000008152600401612ad690614aed565b60405180910390fd5b600061010160009054906101000a900473ffffffffffffffffffffffffffffffffffffffff1673ffffffffffffffffffffffffffffffffffffffff166323b872dd338660020160009054906101000a900473ffffffffffffffffffffffffffffffffffffffff16612b7c6103e8612b6e60ff546103e8612b5f9190614e94565b8a61369390919063ffffffff16565b6136a990919063ffffffff16565b6040518463ffffffff1660e01b8152600401612b9a939291906146e5565b602060405180830381600087803b158015612bb457600080fd5b505af1158015612bc8573d6000803e3d6000fd5b505050506040513d601f19601f82011682018060405250810190612bec9190613ef4565b905080612c2e576040517f08c379a0000000000000000000000000000000000000000000000000000000008152600401612c25906149ad565b60405180910390fd5b60008460010154905061010260009054906101000a900473ffffffffffffffffffffffffffffffffffffffff1673ffffffffffffffffffffffffffffffffffffffff166323b872dd3033846040518463ffffffff1660e01b8152600401612c97939291906146e5565b600060405180830381600087803b158015612cb157600080fd5b505af1158015612cc5573d6000803e3d6000fd5b50505050600042905060018660050160006101000a81548160ff02191690831515021790555060008660050160016101000a81548160ff021916908315150217905550338660030160006101000a81548173ffffffffffffffffffffffffffffffffffffffff021916908373ffffffffffffffffffffffffffffffffffffffff160217905550808660060181905550612d5e60fc6135af565b81877fa1ffbf809f5113e0312f081bb16d51434d610320b7ea557250fdcbded2fbd4478860020160009054906101000a900473ffffffffffffffffffffffffffffffffffffffff16888a60050160009054906101000a900460ff1686604051612dca9493929190614791565b60405180910390a37f7c8ecd76e70d007ea55274b3222da38779706d055ca4fe9a1e61dfc2a7e0c1e387838860020160009054906101000a900473ffffffffffffffffffffffffffffffffffffffff168960030160009054906101000a900473ffffffffffffffffffffffffffffffffffffffff1661010060009054906101000a900473ffffffffffffffffffffffffffffffffffffffff16612e8c6103e8612e7e60ff548e61369390919063ffffffff16565b6136a990919063ffffffff16565b87604051612ea09796959493929190614c08565b60405180910390a1505050505050600160658190555050565b6060600061010260009054906101000a900473ffffffffffffffffffffffffffffffffffffffff1673ffffffffffffffffffffffffffffffffffffffff166370a08231336040518263ffffffff1660e01b8152600401612f1991906146ca565b60206040518083038186803b158015612f3157600080fd5b505afa158015612f45573d6000803e3d6000fd5b505050506040513d601f19601f82011682018060405250810190612f699190613fdb565b905060008167ffffffffffffffff811115612fad577f4e487b7100000000000000000000000000000000000000000000000000000000600052604160045260246000fd5b604051908082528060200260200182016040528015612fe657816020015b612fd3613b70565b815260200190600190039081612fcb5790505b50905060005b8281101561320857600061010260009054906101000a900473ffffffffffffffffffffffffffffffffffffffff1673ffffffffffffffffffffffffffffffffffffffff16632f745c5933846040518363ffffffff1660e01b8152600401613054929190614768565b60206040518083038186803b15801561306c57600080fd5b505afa158015613080573d6000803e3d6000fd5b505050506040513d601f19601f820116820180604052508101906130a49190613fdb565b9050600061010260009054906101000a900473ffffffffffffffffffffffffffffffffffffffff1673ffffffffffffffffffffffffffffffffffffffff1663c87b56dd836040518263ffffffff1660e01b81526004016131049190614b8d565b60006040518083038186803b15801561311c57600080fd5b505afa158015613130573d6000803e3d6000fd5b505050506040513d6000823e3d601f19601f820116820180604052508101906131599190613f1d565b9050604051806060016040528083815260200161010260009054906101000a900473ffffffffffffffffffffffffffffffffffffffff1673ffffffffffffffffffffffffffffffffffffffff168152602001828152508484815181106131e8577f4e487b7100000000000000000000000000000000000000000000000000000000600052603260045260246000fd5b60200260200101819052505050808061320090615040565b915050612fec565b50809250505090565b600081600001549050919050565b600061324d7f360894a13ba1a3210667c828492db98dca3e2076cc3735a920a3ca505d382bbc60001b6136bf565b60000160009054906101000a900473ffffffffffffffffffffffffffffffffffffffff16905090565b61327e6135c5565b73ffffffffffffffffffffffffffffffffffffffff1661329c611df6565b73ffffffffffffffffffffffffffffffffffffffff16146132f2576040517f08c379a00000000000000000000000000000000000000000000000000000000081526004016132e990614a8d565b60405180910390fd5b50565b60006132ff61321f565b905061330a846136c9565b6000835111806133175750815b15613328576133268484613782565b505b60006133567f4910fdfa16fed3260ed0e7147f7cc6da11a60208b5b9406d12a635614ffd914360001b613866565b90508060000160009054906101000a900460ff166134bf5760018160000160006101000a81548160ff02191690831515021790555061342285836040516024016133a091906146ca565b6040516020818303038152906040527f3659cfe6000000000000000000000000000000000000000000000000000000007bffffffffffffffffffffffffffffffffffffffffffffffffffffffff19166020820180517bffffffffffffffffffffffffffffffffffffffffffffffffffffffff8381831617835250505050613782565b5060008160000160006101000a81548160ff02191690831515021790555061344861321f565b73ffffffffffffffffffffffffffffffffffffffff168273ffffffffffffffffffffffffffffffffffffffff16146134b5576040517f08c379a00000000000000000000000000000000000000000000000000000000081526004016134ac906148cd565b60405180910390fd5b6134be85613870565b5b5050505050565b600060019054906101000a900460ff16806134ec575060008054906101000a900460ff16155b61352b576040517f08c379a000000000000000000000000000000000000000000000000000000000815260040161352290614a0d565b60405180910390fd5b60008060019054906101000a900460ff16159050801561357b576001600060016101000a81548160ff02191690831515021790555060016000806101000a81548160ff0219169083151502179055505b6135836138bf565b61358b613998565b80156135ac5760008060016101000a81548160ff0219169083151502179055505b50565b6001816000016000828254019250508190555050565b600033905090565b600060c960009054906101000a900473ffffffffffffffffffffffffffffffffffffffff1690508160c960006101000a81548173ffffffffffffffffffffffffffffffffffffffff021916908373ffffffffffffffffffffffffffffffffffffffff1602179055508173ffffffffffffffffffffffffffffffffffffffff168173ffffffffffffffffffffffffffffffffffffffff167f8be0079c531659141344cd1fd0a4f28419497f9722a3daafe3b4186f6b6457e060405160405180910390a35050565b600081836136a19190614e3a565b905092915050565b600081836136b79190614e09565b905092915050565b6000819050919050565b6136d281613a81565b613711576040517f08c379a000000000000000000000000000000000000000000000000000000000815260040161370890614a6d565b60405180910390fd5b8061373e7f360894a13ba1a3210667c828492db98dca3e2076cc3735a920a3ca505d382bbc60001b6136bf565b60000160006101000a81548173ffffffffffffffffffffffffffffffffffffffff021916908373ffffffffffffffffffffffffffffffffffffffff16021790555050565b606061378d83613a81565b6137cc576040517f08c379a00000000000000000000000000000000000000000000000000000000081526004016137c390614acd565b60405180910390fd5b6000808473ffffffffffffffffffffffffffffffffffffffff16846040516137f491906146b3565b600060405180830381855af49150503d806000811461382f576040519150601f19603f3d011682016040523d82523d6000602084013e613834565b606091505b509150915061385c82826040518060600160405280602781526020016157a560279139613a94565b9250505092915050565b6000819050919050565b613879816136c9565b8073ffffffffffffffffffffffffffffffffffffffff167fbc7cd75a20ee27fd9adebab32041f755214dbc6bffa90cc0225b39da2e5c2d3b60405160405180910390a250565b600060019054906101000a900460ff16806138e5575060008054906101000a900460ff16155b613924576040517f08c379a000000000000000000000000000000000000000000000000000000000815260040161391b90614a0d565b60405180910390fd5b60008060019054906101000a900460ff161590508015613974576001600060016101000a81548160ff02191690831515021790555060016000806101000a81548160ff0219169083151502179055505b80156139955760008060016101000a81548160ff0219169083151502179055505b50565b600060019054906101000a900460ff16806139be575060008054906101000a900460ff16155b6139fd576040517f08c379a00000000000000000000000000000000000000000000000000000000081526004016139f490614a0d565b60405180910390fd5b60008060019054906101000a900460ff161590508015613a4d576001600060016101000a81548160ff02191690831515021790555060016000806101000a81548160ff0219169083151502179055505b613a5d613a586135c5565b6135cd565b8015613a7e5760008060016101000a81548160ff0219169083151502179055505b50565b600080823b905060008111915050919050565b60608315613aa457829050613af4565b600083511115613ab75782518084602001fd5b816040517f08c379a0000000000000000000000000000000000000000000000000000000008152600401613aeb919061486b565b60405180910390fd5b9392505050565b6040518061010001604052806000815260200160008152602001600073ffffffffffffffffffffffffffffffffffffffff168152602001600073ffffffffffffffffffffffffffffffffffffffff16815260200160008152602001600015158152602001600015158152602001600081525090565b604051806060016040528060008152602001600073ffffffffffffffffffffffffffffffffffffffff168152602001606081525090565b6000613bba613bb584614c9c565b614c77565b905082815260208101848484011115613bd257600080fd5b613bdd848285614fa3565b509392505050565b6000613bf8613bf384614ccd565b614c77565b905082815260208101848484011115613c1057600080fd5b613c1b848285614fa3565b509392505050565b6000613c36613c3184614ccd565b614c77565b905082815260208101848484011115613c4e57600080fd5b613c59848285614fb2565b509392505050565b600081359050613c708161575f565b92915050565b600081519050613c858161575f565b92915050565b600081519050613c9a81615776565b92915050565b60008083601f840112613cb257600080fd5b8235905067ffffffffffffffff811115613ccb57600080fd5b602083019150836001820283011115613ce357600080fd5b9250929050565b600082601f830112613cfb57600080fd5b8135613d0b848260208601613ba7565b91505092915050565b600082601f830112613d2557600080fd5b8135613d35848260208601613be5565b91505092915050565b600082601f830112613d4f57600080fd5b8151613d5f848260208601613c23565b91505092915050565b600081359050613d778161578d565b92915050565b600081519050613d8c8161578d565b92915050565b600060208284031215613da457600080fd5b6000613db284828501613c61565b91505092915050565b600060208284031215613dcd57600080fd5b6000613ddb84828501613c76565b91505092915050565b60008060408385031215613df757600080fd5b6000613e0585828601613c61565b9250506020613e1685828601613c61565b9150509250929050565b600080600080600060808688031215613e3857600080fd5b6000613e4688828901613c61565b9550506020613e5788828901613c61565b9450506040613e6888828901613d68565b935050606086013567ffffffffffffffff811115613e8557600080fd5b613e9188828901613ca0565b92509250509295509295909350565b60008060408385031215613eb357600080fd5b6000613ec185828601613c61565b925050602083013567ffffffffffffffff811115613ede57600080fd5b613eea85828601613cea565b9150509250929050565b600060208284031215613f0657600080fd5b6000613f1484828501613c8b565b91505092915050565b600060208284031215613f2f57600080fd5b600082015167ffffffffffffffff811115613f4957600080fd5b613f5584828501613d3e565b91505092915050565b60008060408385031215613f7157600080fd5b600083013567ffffffffffffffff811115613f8b57600080fd5b613f9785828601613d14565b9250506020613fa885828601613d68565b9150509250929050565b600060208284031215613fc457600080fd5b6000613fd284828501613d68565b91505092915050565b600060208284031215613fed57600080fd5b6000613ffb84828501613d7d565b91505092915050565b6000806040838503121561401757600080fd5b600061402585828601613d68565b925050602061403685828601613d68565b9150509250929050565b600061404c83836145a3565b6101008301905092915050565b60006140658383614645565b905092915050565b61407681614ec8565b82525050565b61408581614ec8565b82525050565b600061409682614d1e565b6140a08185614d64565b93506140ab83614cfe565b8060005b838110156140dc5781516140c38882614040565b97506140ce83614d4a565b9250506001810190506140af565b5085935050505092915050565b60006140f482614d29565b6140fe8185614d75565b93508360208202850161411085614d0e565b8060005b8581101561414c578484038952815161412d8582614059565b945061413883614d57565b925060208a01995050600181019050614114565b50829750879550505050505092915050565b61416781614eda565b82525050565b61417681614eda565b82525050565b61418581614ee6565b82525050565b600061419682614d34565b6141a08185614d86565b93506141b0818560208601614fb2565b80840191505092915050565b6141c581614f49565b82525050565b6141d481614f6d565b82525050565b6141e381614f91565b82525050565b60006141f482614d3f565b6141fe8185614d91565b935061420e818560208601614fb2565b61421781615116565b840191505092915050565b600061422d82614d3f565b6142378185614da2565b9350614247818560208601614fb2565b61425081615116565b840191505092915050565b6000614268602883614da2565b915061427382615127565b604082019050919050565b600061428b601b83614da2565b915061429682615176565b602082019050919050565b60006142ae602f83614da2565b91506142b98261519f565b604082019050919050565b60006142d1602683614da2565b91506142dc826151ee565b604082019050919050565b60006142f4602c83614da2565b91506142ff8261523d565b604082019050919050565b6000614317601983614da2565b91506143228261528c565b602082019050919050565b600061433a602383614da2565b9150614345826152b5565b604082019050919050565b600061435d601383614da2565b915061436882615304565b602082019050919050565b6000614380602b83614da2565b915061438b8261532d565b604082019050919050565b60006143a3601883614da2565b91506143ae8261537c565b602082019050919050565b60006143c6602c83614da2565b91506143d1826153a5565b604082019050919050565b60006143e9602083614da2565b91506143f4826153f4565b602082019050919050565b600061440c602e83614da2565b91506144178261541d565b604082019050919050565b600061442f602583614da2565b915061443a8261546c565b604082019050919050565b6000614452602d83614da2565b915061445d826154bb565b604082019050919050565b6000614475602d83614da2565b91506144808261550a565b604082019050919050565b6000614498602083614da2565b91506144a382615559565b602082019050919050565b60006144bb603a83614da2565b91506144c682615582565b604082019050919050565b60006144de602683614da2565b91506144e9826155d1565b604082019050919050565b6000614501602483614da2565b915061450c82615620565b604082019050919050565b6000614524602783614da2565b915061452f8261566f565b604082019050919050565b6000614547601c83614da2565b9150614552826156be565b602082019050919050565b600061456a602c83614da2565b9150614575826156e7565b604082019050919050565b600061458d601f83614da2565b915061459882615736565b602082019050919050565b610100820160008201516145ba6000850182614695565b5060208201516145cd6020850182614695565b5060408201516145e0604085018261406d565b5060608201516145f3606085018261406d565b5060808201516146066080850182614695565b5060a082015161461960a085018261415e565b5060c082015161462c60c085018261415e565b5060e082015161463f60e0850182614695565b50505050565b600060608301600083015161465d6000860182614695565b506020830151614670602086018261406d565b506040830151848203604086015261468882826141e9565b9150508091505092915050565b61469e81614f32565b82525050565b6146ad81614f32565b82525050565b60006146bf828461418b565b915081905092915050565b60006020820190506146df600083018461407c565b92915050565b60006060820190506146fa600083018661407c565b614707602083018561407c565b61471460408301846146a4565b949350505050565b6000608082019050614731600083018761407c565b81810360208301526147438186614222565b905061475260408301856146a4565b61475f60608301846141da565b95945050505050565b600060408201905061477d600083018561407c565b61478a60208301846146a4565b9392505050565b60006080820190506147a6600083018761407c565b6147b360208301866146a4565b6147c0604083018561416d565b6147cd60608301846146a4565b95945050505050565b600060208201905081810360008301526147f0818461408b565b905092915050565b6000602082019050818103600083015261481281846140e9565b905092915050565b600060208201905061482f600083018461417c565b92915050565b600060208201905061484a60008301846141bc565b92915050565b600060208201905061486560008301846141cb565b92915050565b600060208201905081810360008301526148858184614222565b905092915050565b600060208201905081810360008301526148a68161425b565b9050919050565b600060208201905081810360008301526148c68161427e565b9050919050565b600060208201905081810360008301526148e6816142a1565b9050919050565b60006020820190508181036000830152614906816142c4565b9050919050565b60006020820190508181036000830152614926816142e7565b9050919050565b600060208201905081810360008301526149468161430a565b9050919050565b600060208201905081810360008301526149668161432d565b9050919050565b6000602082019050818103600083015261498681614350565b9050919050565b600060208201905081810360008301526149a681614373565b9050919050565b600060208201905081810360008301526149c681614396565b9050919050565b600060208201905081810360008301526149e6816143b9565b9050919050565b60006020820190508181036000830152614a06816143dc565b9050919050565b60006020820190508181036000830152614a26816143ff565b9050919050565b60006020820190508181036000830152614a4681614422565b9050919050565b60006020820190508181036000830152614a6681614445565b9050919050565b60006020820190508181036000830152614a8681614468565b9050919050565b60006020820190508181036000830152614aa68161448b565b9050919050565b60006020820190508181036000830152614ac6816144ae565b9050919050565b60006020820190508181036000830152614ae6816144d1565b9050919050565b60006020820190508181036000830152614b06816144f4565b9050919050565b60006020820190508181036000830152614b2681614517565b9050919050565b60006020820190508181036000830152614b468161453a565b9050919050565b60006020820190508181036000830152614b668161455d565b9050919050565b60006020820190508181036000830152614b8681614580565b9050919050565b6000602082019050614ba260008301846146a4565b92915050565b6000606082019050614bbd60008301866146a4565b614bca602083018561416d565b614bd760408301846146a4565b949350505050565b6000604082019050614bf460008301856146a4565b614c0160208301846146a4565b9392505050565b600060e082019050614c1d600083018a6146a4565b614c2a60208301896146a4565b614c37604083018861407c565b614c44606083018761407c565b614c51608083018661407c565b614c5e60a08301856146a4565b614c6b60c08301846146a4565b98975050505050505050565b6000614c81614c92565b9050614c8d828261500f565b919050565b6000604051905090565b600067ffffffffffffffff821115614cb757614cb66150e7565b5b614cc082615116565b9050602081019050919050565b600067ffffffffffffffff821115614ce857614ce76150e7565b5b614cf182615116565b9050602081019050919050565b6000819050602082019050919050565b6000819050602082019050919050565b600081519050919050565b600081519050919050565b600081519050919050565b600081519050919050565b6000602082019050919050565b6000602082019050919050565b600082825260208201905092915050565b600082825260208201905092915050565b600081905092915050565b600082825260208201905092915050565b600082825260208201905092915050565b6000614dbe82614f32565b9150614dc983614f32565b9250827fffffffffffffffffffffffffffffffffffffffffffffffffffffffffffffffff03821115614dfe57614dfd615089565b5b828201905092915050565b6000614e1482614f32565b9150614e1f83614f32565b925082614e2f57614e2e6150b8565b5b828204905092915050565b6000614e4582614f32565b9150614e5083614f32565b9250817fffffffffffffffffffffffffffffffffffffffffffffffffffffffffffffffff0483118215151615614e8957614e88615089565b5b828202905092915050565b6000614e9f82614f32565b9150614eaa83614f32565b925082821015614ebd57614ebc615089565b5b828203905092915050565b6000614ed382614f12565b9050919050565b60008115159050919050565b60007fffffffff0000000000000000000000000000000000000000000000000000000082169050919050565b600073ffffffffffffffffffffffffffffffffffffffff82169050919050565b6000819050919050565b600060ff82169050919050565b6000614f5482614f5b565b9050919050565b6000614f6682614f12565b9050919050565b6000614f7882614f7f565b9050919050565b6000614f8a82614f12565b9050919050565b6000614f9c82614f3c565b9050919050565b82818337600083830152505050565b60005b83811015614fd0578082015181840152602081019050614fb5565b83811115614fdf576000848401525b50505050565b6000614ff082614f32565b9150600082141561500457615003615089565b5b600182039050919050565b61501882615116565b810181811067ffffffffffffffff82111715615037576150366150e7565b5b80604052505050565b600061504b82614f32565b91507fffffffffffffffffffffffffffffffffffffffffffffffffffffffffffffffff82141561507e5761507d615089565b5b600182019050919050565b7f4e487b7100000000000000000000000000000000000000000000000000000000600052601160045260246000fd5b7f4e487b7100000000000000000000000000000000000000000000000000000000600052601260045260246000fd5b7f4e487b7100000000000000000000000000000000000000000000000000000000600052604160045260246000fd5b6000601f19601f8301169050919050565b7f63726561746553616c653a205072696365206d757374206265206174206c656160008201527f7374203120776569000000000000000000000000000000000000000000000000602082015250565b7f63616e63656c53616c653a2053616c652077617320656e6465642e0000000000600082015250565b7f45524331393637557067726164653a207570677261646520627265616b73206660008201527f7572746865722075706772616465730000000000000000000000000000000000602082015250565b7f4f776e61626c653a206e6577206f776e657220697320746865207a65726f206160008201527f6464726573730000000000000000000000000000000000000000000000000000602082015250565b7f46756e6374696f6e206d7573742062652063616c6c6564207468726f7567682060008201527f64656c656761746563616c6c0000000000000000000000000000000000000000602082015250565b7f70757263686173653a2053616c652077617320656e6465642e00000000000000600082015250565b7f62757947616d654974656d3a204661696c656420746f207472616e736665722060008201527f6665650000000000000000000000000000000000000000000000000000000000602082015250565b7f496e76616c69642073616c652073656c6c657200000000000000000000000000600082015250565b7f707572636861736553616c653a2042757965722069732073656c6c6572206f6660008201527f2074686973206974656d2e000000000000000000000000000000000000000000602082015250565b7f4661696c656420746f207472616e7366657220746f6b656e0000000000000000600082015250565b7f46756e6374696f6e206d7573742062652063616c6c6564207468726f7567682060008201527f6163746976652070726f78790000000000000000000000000000000000000000602082015250565b7f6368616e676553616c6550726963653a2053616c652077617320656e6465642e600082015250565b7f496e697469616c697a61626c653a20636f6e747261637420697320616c72656160008201527f647920696e697469616c697a6564000000000000000000000000000000000000602082015250565b7f63726561746553616c653a20596f7520646f206e6f74206f776e20746869732060008201527f746f6b656e000000000000000000000000000000000000000000000000000000602082015250565b7f6368616e676553616c6550726963653a205072696365206d757374206265206160008201527f74206c6561737420312077656900000000000000000000000000000000000000602082015250565b7f455243313936373a206e657720696d706c656d656e746174696f6e206973206e60008201527f6f74206120636f6e747261637400000000000000000000000000000000000000602082015250565b7f4f776e61626c653a2063616c6c6572206973206e6f7420746865206f776e6572600082015250565b7f67657441637469766553616c65734279506167653a205061676520616e64207360008201527f697a65206d7573742062652067726561746572207468616e2030000000000000602082015250565b7f416464726573733a2064656c65676174652063616c6c20746f206e6f6e2d636f60008201527f6e74726163740000000000000000000000000000000000000000000000000000602082015250565b7f707572636861736553616c653a204661696c656420746f207472616e7366657260008201527f2066656500000000000000000000000000000000000000000000000000000000602082015250565b7f62757947616d654974656d3a2074686973206974656d206973206e6f7420617660008201527f61696c61626c6500000000000000000000000000000000000000000000000000602082015250565b7f73657446656552656365697665723a206e756c6c206164647265737300000000600082015250565b7f7365744665653a204665652070657263656e74206d75737420626520736d616c60008201527f6c6572207468616e203130250000000000000000000000000000000000000000602082015250565b7f5265656e7472616e637947756172643a207265656e7472616e742063616c6c00600082015250565b61576881614ec8565b811461577357600080fd5b50565b61577f81614eda565b811461578a57600080fd5b50565b61579681614f32565b81146157a157600080fd5b5056fe416464726573733a206c6f772d6c6576656c2064656c65676174652063616c6c206661696c6564a2646970667358221220851a778c8f291650952afd7bbd8ab8398c88a16e618b168cd220fdad166ef67c64736f6c63430008020033",
  "linkReferences": {},
  "deployedLinkReferences": {}
}