{
  "_format": "hh-sol-artifact-1",
  "contractName": "Marketplace",
  "sourceName": "contracts/Marketplace.sol",
  "abi": [
    {
      "anonymous": false,
      "inputs": [
        {
          "indexed": false,
          "internalType": "address",
          "name": "previousAdmin",
          "type": "address"
        },
        {
          "indexed": false,
          "internalType": "address",
          "name": "newAdmin",
          "type": "address"
        }
      ],
      "name": "AdminChanged",
      "type": "event"
    },
    {
      "anonymous": false,
      "inputs": [
        {
          "indexed": true,
          "internalType": "address",
          "name": "beacon",
          "type": "address"
        }
      ],
      "name": "BeaconUpgraded",
      "type": "event"
    },
    {
      "anonymous": false,
      "inputs": [
        {
          "indexed": false,
          "internalType": "uint256",
          "name": "saleId",
          "type": "uint256"
        },
        {
          "indexed": false,
          "internalType": "uint256",
          "name": "tokenId",
          "type": "uint256"
        },
        {
          "indexed": false,
          "internalType": "address",
          "name": "seller",
          "type": "address"
        },
        {
          "indexed": false,
          "internalType": "address",
          "name": "buyer",
          "type": "address"
        },
        {
          "indexed": false,
          "internalType": "address",
          "name": "feeReceiver",
          "type": "address"
        },
        {
          "indexed": false,
          "internalType": "uint256",
          "name": "fee",
          "type": "uint256"
        },
        {
          "indexed": false,
          "internalType": "uint256",
          "name": "lastUpdated",
          "type": "uint256"
        }
      ],
      "name": "FeeTransfered",
      "type": "event"
    },
    {
      "anonymous": false,
      "inputs": [
        {
          "indexed": true,
          "internalType": "address",
          "name": "previousOwner",
          "type": "address"
        },
        {
          "indexed": true,
          "internalType": "address",
          "name": "newOwner",
          "type": "address"
        }
      ],
      "name": "OwnershipTransferred",
      "type": "event"
    },
    {
      "anonymous": false,
      "inputs": [
        {
          "indexed": true,
          "internalType": "uint256",
          "name": "saleId",
          "type": "uint256"
        },
        {
          "indexed": true,
          "internalType": "uint256",
          "name": "tokenId",
          "type": "uint256"
        },
        {
          "indexed": true,
          "internalType": "address",
          "name": "seller",
          "type": "address"
        },
        {
          "indexed": false,
          "internalType": "uint256",
          "name": "price",
          "type": "uint256"
        },
        {
          "indexed": false,
          "internalType": "uint256",
          "name": "lastUpdated",
          "type": "uint256"
        }
      ],
      "name": "SaleCanceled",
      "type": "event"
    },
    {
      "anonymous": false,
      "inputs": [
        {
          "indexed": true,
          "internalType": "uint256",
          "name": "saleId",
          "type": "uint256"
        },
        {
          "indexed": true,
          "internalType": "uint256",
          "name": "tokenId",
          "type": "uint256"
        },
        {
          "indexed": true,
          "internalType": "address",
          "name": "seller",
          "type": "address"
        },
        {
          "indexed": false,
          "internalType": "uint256",
          "name": "price",
          "type": "uint256"
        },
        {
          "indexed": false,
          "internalType": "bool",
          "name": "isSold",
          "type": "bool"
        },
        {
          "indexed": false,
          "internalType": "uint256",
          "name": "lastUpdated",
          "type": "uint256"
        }
      ],
      "name": "SaleCreated",
      "type": "event"
    },
    {
      "anonymous": false,
      "inputs": [
        {
          "indexed": true,
          "internalType": "uint256",
          "name": "saleId",
          "type": "uint256"
        },
        {
          "indexed": true,
          "internalType": "uint256",
          "name": "tokenId",
          "type": "uint256"
        },
        {
          "indexed": false,
          "internalType": "address",
          "name": "seller",
          "type": "address"
        },
        {
          "indexed": false,
          "internalType": "uint256",
          "name": "price",
          "type": "uint256"
        },
        {
          "indexed": false,
          "internalType": "bool",
          "name": "isSold",
          "type": "bool"
        },
        {
          "indexed": false,
          "internalType": "uint256",
          "name": "lastUpdated",
          "type": "uint256"
        }
      ],
      "name": "SaleSold",
      "type": "event"
    },
    {
      "anonymous": false,
      "inputs": [
        {
          "indexed": true,
          "internalType": "uint256",
          "name": "saleId",
          "type": "uint256"
        },
        {
          "indexed": true,
          "internalType": "uint256",
          "name": "tokenId",
          "type": "uint256"
        },
        {
          "indexed": true,
          "internalType": "address",
          "name": "seller",
          "type": "address"
        },
        {
          "indexed": false,
          "internalType": "uint256",
          "name": "price",
          "type": "uint256"
        },
        {
          "indexed": false,
          "internalType": "uint256",
          "name": "lastUpdated",
          "type": "uint256"
        }
      ],
      "name": "SaleUpdated",
      "type": "event"
    },
    {
      "anonymous": false,
      "inputs": [
        {
          "indexed": true,
          "internalType": "address",
          "name": "implementation",
          "type": "address"
        }
      ],
      "name": "Upgraded",
      "type": "event"
    },
    {
      "inputs": [
        {
          "internalType": "uint256",
          "name": "saleId",
          "type": "uint256"
        }
      ],
      "name": "cancelSale",
      "outputs": [],
      "stateMutability": "nonpayable",
      "type": "function"
    },
    {
      "inputs": [
        {
          "internalType": "uint256",
          "name": "saleId",
          "type": "uint256"
        },
        {
          "internalType": "uint256",
          "name": "newPrice",
          "type": "uint256"
        }
      ],
      "name": "changeSalePrice",
      "outputs": [],
      "stateMutability": "nonpayable",
      "type": "function"
    },
    {
      "inputs": [
        {
          "internalType": "uint256",
          "name": "tokenId",
          "type": "uint256"
        },
        {
          "internalType": "uint256",
          "name": "price",
          "type": "uint256"
        }
      ],
      "name": "createSale",
      "outputs": [],
      "stateMutability": "nonpayable",
      "type": "function"
    },
    {
      "inputs": [],
      "name": "getActiveSales",
      "outputs": [
        {
          "components": [
            {
              "internalType": "uint256",
              "name": "saleId",
              "type": "uint256"
            },
            {
              "internalType": "uint256",
              "name": "tokenId",
              "type": "uint256"
            },
            {
              "internalType": "address",
              "name": "seller",
              "type": "address"
            },
            {
              "internalType": "address",
              "name": "buyer",
              "type": "address"
            },
            {
              "internalType": "uint256",
              "name": "price",
              "type": "uint256"
            },
            {
              "internalType": "bool",
              "name": "isSold",
              "type": "bool"
            },
            {
              "internalType": "bool",
              "name": "isActive",
              "type": "bool"
            },
            {
              "internalType": "uint256",
              "name": "lastUpdated",
              "type": "uint256"
            }
          ],
          "internalType": "struct Marketplace.Sale[]",
          "name": "",
          "type": "tuple[]"
        }
      ],
      "stateMutability": "view",
      "type": "function"
    },
    {
      "inputs": [],
      "name": "getFee",
      "outputs": [
        {
          "internalType": "uint256",
          "name": "",
          "type": "uint256"
        }
      ],
      "stateMutability": "view",
      "type": "function"
    },
    {
      "inputs": [],
      "name": "getFeeReceiver",
      "outputs": [
        {
          "internalType": "address",
          "name": "",
          "type": "address"
        }
      ],
      "stateMutability": "view",
      "type": "function"
    },
    {
      "inputs": [],
      "name": "getUserCreatedSales",
      "outputs": [
        {
          "components": [
            {
              "internalType": "uint256",
              "name": "saleId",
              "type": "uint256"
            },
            {
              "internalType": "uint256",
              "name": "tokenId",
              "type": "uint256"
            },
            {
              "internalType": "address",
              "name": "seller",
              "type": "address"
            },
            {
              "internalType": "address",
              "name": "buyer",
              "type": "address"
            },
            {
              "internalType": "uint256",
              "name": "price",
              "type": "uint256"
            },
            {
              "internalType": "bool",
              "name": "isSold",
              "type": "bool"
            },
            {
              "internalType": "bool",
              "name": "isActive",
              "type": "bool"
            },
            {
              "internalType": "uint256",
              "name": "lastUpdated",
              "type": "uint256"
            }
          ],
          "internalType": "struct Marketplace.Sale[]",
          "name": "",
          "type": "tuple[]"
        }
      ],
      "stateMutability": "view",
      "type": "function"
    },
    {
      "inputs": [],
      "name": "getUserNFTs",
      "outputs": [
        {
          "components": [
            {
              "internalType": "uint256",
              "name": "tokenId",
              "type": "uint256"
            },
            {
              "internalType": "address",
              "name": "contractAddress",
              "type": "address"
            },
            {
              "internalType": "string",
              "name": "URI",
              "type": "string"
            }
          ],
          "internalType": "struct Marketplace.TokenInfo[]",
          "name": "",
          "type": "tuple[]"
        }
      ],
      "stateMutability": "view",
      "type": "function"
    },
    {
      "inputs": [],
      "name": "getUserPurchasedSales",
      "outputs": [
        {
          "components": [
            {
              "internalType": "uint256",
              "name": "saleId",
              "type": "uint256"
            },
            {
              "internalType": "uint256",
              "name": "tokenId",
              "type": "uint256"
            },
            {
              "internalType": "address",
              "name": "seller",
              "type": "address"
            },
            {
              "internalType": "address",
              "name": "buyer",
              "type": "address"
            },
            {
              "internalType": "uint256",
              "name": "price",
              "type": "uint256"
            },
            {
              "internalType": "bool",
              "name": "isSold",
              "type": "bool"
            },
            {
              "internalType": "bool",
              "name": "isActive",
              "type": "bool"
            },
            {
              "internalType": "uint256",
              "name": "lastUpdated",
              "type": "uint256"
            }
          ],
          "internalType": "struct Marketplace.Sale[]",
          "name": "",
          "type": "tuple[]"
        }
      ],
      "stateMutability": "view",
      "type": "function"
    },
    {
      "inputs": [],
      "name": "howl",
      "outputs": [
        {
          "internalType": "contract IERC20",
          "name": "",
          "type": "address"
        }
      ],
      "stateMutability": "view",
      "type": "function"
    },
    {
      "inputs": [
        {
          "internalType": "address",
          "name": "erc20",
          "type": "address"
        },
        {
          "internalType": "address",
          "name": "erc721",
          "type": "address"
        }
      ],
      "name": "initialize",
      "outputs": [],
      "stateMutability": "nonpayable",
      "type": "function"
    },
    {
      "inputs": [],
      "name": "nft",
      "outputs": [
        {
          "internalType": "contract IERC721",
          "name": "",
          "type": "address"
        }
      ],
      "stateMutability": "view",
      "type": "function"
    },
    {
      "inputs": [
        {
          "internalType": "address",
          "name": "operator",
          "type": "address"
        },
        {
          "internalType": "address",
          "name": "from",
          "type": "address"
        },
        {
          "internalType": "uint256",
          "name": "tokenId",
          "type": "uint256"
        },
        {
          "internalType": "bytes",
          "name": "data",
          "type": "bytes"
        }
      ],
      "name": "onERC721Received",
      "outputs": [
        {
          "internalType": "bytes4",
          "name": "",
          "type": "bytes4"
        }
      ],
      "stateMutability": "pure",
      "type": "function"
    },
    {
      "inputs": [],
      "name": "owner",
      "outputs": [
        {
          "internalType": "address",
          "name": "",
          "type": "address"
        }
      ],
      "stateMutability": "view",
      "type": "function"
    },
    {
      "inputs": [
        {
          "internalType": "uint256",
          "name": "saleId",
          "type": "uint256"
        }
      ],
      "name": "purchaseSale",
      "outputs": [],
      "stateMutability": "nonpayable",
      "type": "function"
    },
    {
      "inputs": [],
      "name": "renounceOwnership",
      "outputs": [],
      "stateMutability": "nonpayable",
      "type": "function"
    },
    {
      "inputs": [
        {
          "internalType": "uint256",
          "name": "newFee",
          "type": "uint256"
        }
      ],
      "name": "setFee",
      "outputs": [],
      "stateMutability": "nonpayable",
      "type": "function"
    },
    {
      "inputs": [
        {
          "internalType": "address",
          "name": "newFeeReceiver",
          "type": "address"
        }
      ],
      "name": "setFeeReceiver",
      "outputs": [],
      "stateMutability": "nonpayable",
      "type": "function"
    },
    {
      "inputs": [
        {
          "internalType": "address",
          "name": "newOwner",
          "type": "address"
        }
      ],
      "name": "transferOwnership",
      "outputs": [],
      "stateMutability": "nonpayable",
      "type": "function"
    },
    {
      "inputs": [
        {
          "internalType": "address",
          "name": "newImplementation",
          "type": "address"
        }
      ],
      "name": "upgradeTo",
      "outputs": [],
      "stateMutability": "nonpayable",
      "type": "function"
    },
    {
      "inputs": [
        {
          "internalType": "address",
          "name": "newImplementation",
          "type": "address"
        },
        {
          "internalType": "bytes",
          "name": "data",
          "type": "bytes"
        }
      ],
      "name": "upgradeToAndCall",
      "outputs": [],
      "stateMutability": "payable",
      "type": "function"
    }
  ],
  "bytecode": "0x60a06040523073ffffffffffffffffffffffffffffffffffffffff1660809073ffffffffffffffffffffffffffffffffffffffff1660601b81525034801561004657600080fd5b5060805160601c614ba761007a60003960008181610b3601528181610bc50152818161114f01526111de0152614ba76000f3fe60806040526004361061012a5760003560e01c806369fe0e2d116100ab578063ced72f871161006f578063ced72f8714610397578063e8a35392146103c2578063efdcd974146103ed578063f2fde38b14610416578063f47cf5da1461043f578063fdc5ab8e146104685761012a565b806369fe0e2d146102da578063715018a6146103035780638da5cb5b1461031a578063bd94b00514610345578063c82e474b1461036e5761012a565b806347ccca02116100f257806347ccca0214610216578063485cc955146102415780634f1ef2861461026a5780636019061b146102865780636803c78d146102af5761012a565b80630974ed4b1461012f578063150b7a021461015a57806321b7e7e1146101975780633659cfe6146101c2578063436141d2146101eb575b600080fd5b34801561013b57600080fd5b50610144610493565b6040516101519190613e62565b60405180910390f35b34801561016657600080fd5b50610181600480360381019061017c91906135e1565b6107d9565b60405161018e9190613ea6565b60405180910390f35b3480156101a357600080fd5b506101ac6107ee565b6040516101b99190613e62565b60405180910390f35b3480156101ce57600080fd5b506101e960048036038101906101e49190613553565b610b34565b005b3480156101f757600080fd5b50610200610ce3565b60405161020d9190613e62565b60405180910390f35b34801561022257600080fd5b5061022b610f76565b6040516102389190613edc565b60405180910390f35b34801561024d57600080fd5b50610268600480360381019061026391906135a5565b610f9d565b005b610284600480360381019061027f9190613661565b61114d565b005b34801561029257600080fd5b506102ad60048036038101906102a89190613771565b61128a565b005b3480156102bb57600080fd5b506102c46116ba565b6040516102d19190613ec1565b60405180910390f35b3480156102e657600080fd5b5061030160048036038101906102fc919061371f565b6116e1565b005b34801561030f57600080fd5b506103186117ab565b005b34801561032657600080fd5b5061032f611833565b60405161033c9190613d79565b60405180910390f35b34801561035157600080fd5b5061036c6004803603810190610367919061371f565b61185d565b005b34801561037a57600080fd5b5061039560048036038101906103909190613771565b611b02565b005b3480156103a357600080fd5b506103ac611cfc565b6040516103b99190614179565b60405180910390f35b3480156103ce57600080fd5b506103d7611d06565b6040516103e49190613d79565b60405180910390f35b3480156103f957600080fd5b50610414600480360381019061040f9190613553565b611d30565b005b34801561042257600080fd5b5061043d60048036038101906104389190613553565b611e60565b005b34801561044b57600080fd5b506104666004803603810190610461919061371f565b611f58565b005b34801561047457600080fd5b5061047d6126e2565b60405161048a9190613e84565b60405180910390f35b606060006104a160fb612a3a565b90506000806000600190505b838111610542573373ffffffffffffffffffffffffffffffffffffffff16610102600083815260200190815260200160002060030160009054906101000a900473ffffffffffffffffffffffffffffffffffffffff1673ffffffffffffffffffffffffffffffffffffffff16141561052f5760018361052c919061439f565b92505b808061053a906145e3565b9150506104ad565b5060008267ffffffffffffffff811115610585577f4e487b7100000000000000000000000000000000000000000000000000000000600052604160045260246000fd5b6040519080825280602002602001820160405280156105be57816020015b6105ab613324565b8152602001906001900390816105a35790505b5090506000600190505b8481116107ce573373ffffffffffffffffffffffffffffffffffffffff16610102600083815260200190815260200160002060030160009054906101000a900473ffffffffffffffffffffffffffffffffffffffff1673ffffffffffffffffffffffffffffffffffffffff1614156107bb57600061010260008381526020019081526020016000209050806040518061010001604052908160008201548152602001600182015481526020016002820160009054906101000a900473ffffffffffffffffffffffffffffffffffffffff1673ffffffffffffffffffffffffffffffffffffffff1673ffffffffffffffffffffffffffffffffffffffff1681526020016003820160009054906101000a900473ffffffffffffffffffffffffffffffffffffffff1673ffffffffffffffffffffffffffffffffffffffff1673ffffffffffffffffffffffffffffffffffffffff168152602001600482015481526020016005820160009054906101000a900460ff161515151581526020016005820160019054906101000a900460ff16151515158152602001600682015481525050838580610775906145e3565b9650815181106107ae577f4e487b7100000000000000000000000000000000000000000000000000000000600052603260045260246000fd5b6020026020010181905250505b80806107c6906145e3565b9150506105c8565b508094505050505090565b600063150b7a0260e01b905095945050505050565b606060006107fc60fb612a3a565b90506000806000600190505b83811161089d573373ffffffffffffffffffffffffffffffffffffffff16610102600083815260200190815260200160002060020160009054906101000a900473ffffffffffffffffffffffffffffffffffffffff1673ffffffffffffffffffffffffffffffffffffffff16141561088a57600183610887919061439f565b92505b8080610895906145e3565b915050610808565b5060008267ffffffffffffffff8111156108e0577f4e487b7100000000000000000000000000000000000000000000000000000000600052604160045260246000fd5b60405190808252806020026020018201604052801561091957816020015b610906613324565b8152602001906001900390816108fe5790505b5090506000600190505b848111610b29573373ffffffffffffffffffffffffffffffffffffffff16610102600083815260200190815260200160002060020160009054906101000a900473ffffffffffffffffffffffffffffffffffffffff1673ffffffffffffffffffffffffffffffffffffffff161415610b1657600061010260008381526020019081526020016000209050806040518061010001604052908160008201548152602001600182015481526020016002820160009054906101000a900473ffffffffffffffffffffffffffffffffffffffff1673ffffffffffffffffffffffffffffffffffffffff1673ffffffffffffffffffffffffffffffffffffffff1681526020016003820160009054906101000a900473ffffffffffffffffffffffffffffffffffffffff1673ffffffffffffffffffffffffffffffffffffffff1673ffffffffffffffffffffffffffffffffffffffff168152602001600482015481526020016005820160009054906101000a900460ff161515151581526020016005820160019054906101000a900460ff16151515158152602001600682015481525050838580610ad0906145e3565b965081518110610b09577f4e487b7100000000000000000000000000000000000000000000000000000000600052603260045260246000fd5b6020026020010181905250505b8080610b21906145e3565b915050610923565b508094505050505090565b7f000000000000000000000000000000000000000000000000000000000000000073ffffffffffffffffffffffffffffffffffffffff163073ffffffffffffffffffffffffffffffffffffffff161415610bc3576040517f08c379a0000000000000000000000000000000000000000000000000000000008152600401610bba90613fb9565b60405180910390fd5b7f000000000000000000000000000000000000000000000000000000000000000073ffffffffffffffffffffffffffffffffffffffff16610c02612a48565b73ffffffffffffffffffffffffffffffffffffffff1614610c58576040517f08c379a0000000000000000000000000000000000000000000000000000000008152600401610c4f90614019565b60405180910390fd5b610c6181612a9f565b610ce081600067ffffffffffffffff811115610ca6577f4e487b7100000000000000000000000000000000000000000000000000000000600052604160045260246000fd5b6040519080825280601f01601f191660200182016040528015610cd85781602001600182028036833780820191505090505b506000612b1e565b50565b60606000610cf160fb612a3a565b90506000610cff60fc612a3a565b610d0960fd612a3a565b83610d149190614480565b610d1e9190614480565b90506000808267ffffffffffffffff811115610d63577f4e487b7100000000000000000000000000000000000000000000000000000000600052604160045260246000fd5b604051908082528060200260200182016040528015610d9c57816020015b610d89613324565b815260200190600190039081610d815790505b5090506000600190505b848111610f6b57610102600082815260200190815260200160002060050160019054906101000a900460ff1615610f5857600061010260008381526020019081526020016000209050806040518061010001604052908160008201548152602001600182015481526020016002820160009054906101000a900473ffffffffffffffffffffffffffffffffffffffff1673ffffffffffffffffffffffffffffffffffffffff1673ffffffffffffffffffffffffffffffffffffffff1681526020016003820160009054906101000a900473ffffffffffffffffffffffffffffffffffffffff1673ffffffffffffffffffffffffffffffffffffffff1673ffffffffffffffffffffffffffffffffffffffff168152602001600482015481526020016005820160009054906101000a900460ff161515151581526020016005820160019054906101000a900460ff16151515158152602001600682015481525050838580610f12906145e3565b965081518110610f4b577f4e487b7100000000000000000000000000000000000000000000000000000000600052603260045260246000fd5b6020026020010181905250505b8080610f63906145e3565b915050610da6565b508094505050505090565b61010160009054906101000a900473ffffffffffffffffffffffffffffffffffffffff1681565b600060019054906101000a900460ff1680610fc3575060008054906101000a900460ff16155b611002576040517f08c379a0000000000000000000000000000000000000000000000000000000008152600401610ff990614039565b60405180910390fd5b60008060019054906101000a900460ff161590508015611052576001600060016101000a81548160ff02191690831515021790555060016000806101000a81548160ff0219169083151502179055505b61105a612cef565b8261010060006101000a81548173ffffffffffffffffffffffffffffffffffffffff021916908373ffffffffffffffffffffffffffffffffffffffff1602179055508161010160006101000a81548173ffffffffffffffffffffffffffffffffffffffff021916908373ffffffffffffffffffffffffffffffffffffffff160217905550600a60fe819055503360ff60006101000a81548173ffffffffffffffffffffffffffffffffffffffff021916908373ffffffffffffffffffffffffffffffffffffffff16021790555080156111485760008060016101000a81548160ff0219169083151502179055505b505050565b7f000000000000000000000000000000000000000000000000000000000000000073ffffffffffffffffffffffffffffffffffffffff163073ffffffffffffffffffffffffffffffffffffffff1614156111dc576040517f08c379a00000000000000000000000000000000000000000000000000000000081526004016111d390613fb9565b60405180910390fd5b7f000000000000000000000000000000000000000000000000000000000000000073ffffffffffffffffffffffffffffffffffffffff1661121b612a48565b73ffffffffffffffffffffffffffffffffffffffff1614611271576040517f08c379a000000000000000000000000000000000000000000000000000000000815260040161126890614019565b60405180910390fd5b61127a82612a9f565b61128682826001612b1e565b5050565b600260655414156112d0576040517f08c379a00000000000000000000000000000000000000000000000000000000081526004016112c790614139565b60405180910390fd5b60026065819055506000811161131b576040517f08c379a000000000000000000000000000000000000000000000000000000000815260040161131290614159565b60405180910390fd5b3373ffffffffffffffffffffffffffffffffffffffff1661010160009054906101000a900473ffffffffffffffffffffffffffffffffffffffff1673ffffffffffffffffffffffffffffffffffffffff16636352211e846040518263ffffffff1660e01b815260040161138e9190614179565b60206040518083038186803b1580156113a657600080fd5b505afa1580156113ba573d6000803e3d6000fd5b505050506040513d601f19601f820116820180604052508101906113de919061357c565b73ffffffffffffffffffffffffffffffffffffffff1614611434576040517f08c379a000000000000000000000000000000000000000000000000000000000815260040161142b90613f19565b60405180910390fd5b61143e60fb612dd8565b600061144a60fb612a3a565b905061010160009054906101000a900473ffffffffffffffffffffffffffffffffffffffff1673ffffffffffffffffffffffffffffffffffffffff166342842e0e3330866040518463ffffffff1660e01b81526004016114ac93929190613dbd565b600060405180830381600087803b1580156114c657600080fd5b505af11580156114da573d6000803e3d6000fd5b505050506040518061010001604052808281526020018481526020013373ffffffffffffffffffffffffffffffffffffffff168152602001600073ffffffffffffffffffffffffffffffffffffffff168152602001838152602001600015158152602001600115158152602001428152506101026000838152602001908152602001600020600082015181600001556020820151816001015560408201518160020160006101000a81548173ffffffffffffffffffffffffffffffffffffffff021916908373ffffffffffffffffffffffffffffffffffffffff16021790555060608201518160030160006101000a81548173ffffffffffffffffffffffffffffffffffffffff021916908373ffffffffffffffffffffffffffffffffffffffff1602179055506080820151816004015560a08201518160050160006101000a81548160ff02191690831515021790555060c08201518160050160016101000a81548160ff02191690831515021790555060e082015181600601559050503373ffffffffffffffffffffffffffffffffffffffff1683827fd035e36eed79dc051f4a1821b06d9defcfe2a74be16adb4991291117112a50f0856000426040516116a593929190614194565b60405180910390a45060016065819055505050565b61010060009054906101000a900473ffffffffffffffffffffffffffffffffffffffff1681565b6116e9612dee565b73ffffffffffffffffffffffffffffffffffffffff16611707611833565b73ffffffffffffffffffffffffffffffffffffffff161461175d576040517f08c379a000000000000000000000000000000000000000000000000000000000815260040161175490614079565b60405180910390fd5b60648111156117a1576040517f08c379a000000000000000000000000000000000000000000000000000000000815260040161179890613f99565b60405180910390fd5b8060fe8190555050565b6117b3612dee565b73ffffffffffffffffffffffffffffffffffffffff166117d1611833565b73ffffffffffffffffffffffffffffffffffffffff1614611827576040517f08c379a000000000000000000000000000000000000000000000000000000000815260040161181e90614079565b60405180910390fd5b6118316000612df6565b565b600060c960009054906101000a900473ffffffffffffffffffffffffffffffffffffffff16905090565b600260655414156118a3576040517f08c379a000000000000000000000000000000000000000000000000000000000815260040161189a90614139565b60405180910390fd5b600260658190555080610102600082815260200190815260200160002060020160009054906101000a900473ffffffffffffffffffffffffffffffffffffffff1673ffffffffffffffffffffffffffffffffffffffff163373ffffffffffffffffffffffffffffffffffffffff1614611951576040517f08c379a000000000000000000000000000000000000000000000000000000000815260040161194890613fd9565b60405180910390fd5b6000610102600084815260200190815260200160002090508060050160019054906101000a900460ff166119ba576040517f08c379a00000000000000000000000000000000000000000000000000000000081526004016119b190613f39565b60405180910390fd5b61010160009054906101000a900473ffffffffffffffffffffffffffffffffffffffff1673ffffffffffffffffffffffffffffffffffffffff166323b872dd303384600101546040518463ffffffff1660e01b8152600401611a1e93929190613dbd565b600060405180830381600087803b158015611a3857600080fd5b505af1158015611a4c573d6000803e3d6000fd5b5050505060008160050160016101000a81548160ff021916908315150217905550611a7760fd612dd8565b8060020160009054906101000a900473ffffffffffffffffffffffffffffffffffffffff1673ffffffffffffffffffffffffffffffffffffffff168160010154847f9cf3aa3c21065a435a0fd60111abd0ae5148ec0805525a8ade76e8c0632b89cd846004015442604051611aed9291906141cb565b60405180910390a45050600160658190555050565b81610102600082815260200190815260200160002060020160009054906101000a900473ffffffffffffffffffffffffffffffffffffffff1673ffffffffffffffffffffffffffffffffffffffff163373ffffffffffffffffffffffffffffffffffffffff1614611ba8576040517f08c379a0000000000000000000000000000000000000000000000000000000008152600401611b9f90613fd9565b60405180910390fd5b6000610102600085815260200190815260200160002090508060050160019054906101000a900460ff168015611bed57508060050160009054906101000a900460ff16155b611c2c576040517f08c379a0000000000000000000000000000000000000000000000000000000008152600401611c2390613f39565b60405180910390fd5b60008311611c6f576040517f08c379a0000000000000000000000000000000000000000000000000000000008152600401611c6690614159565b60405180910390fd5b8281600401819055508060020160009054906101000a900473ffffffffffffffffffffffffffffffffffffffff1673ffffffffffffffffffffffffffffffffffffffff168160010154857fb5ff818b1e47858abe4b8dbeee7509d67cc6b3e461dc17faf8340a2defdaa8d7846004015442604051611cee9291906141cb565b60405180910390a450505050565b600060fe54905090565b600060ff60009054906101000a900473ffffffffffffffffffffffffffffffffffffffff16905090565b611d38612dee565b73ffffffffffffffffffffffffffffffffffffffff16611d56611833565b73ffffffffffffffffffffffffffffffffffffffff1614611dac576040517f08c379a0000000000000000000000000000000000000000000000000000000008152600401611da390614079565b60405180910390fd5b600073ffffffffffffffffffffffffffffffffffffffff168173ffffffffffffffffffffffffffffffffffffffff161415611e1c576040517f08c379a0000000000000000000000000000000000000000000000000000000008152600401611e1390614119565b60405180910390fd5b8060ff60006101000a81548173ffffffffffffffffffffffffffffffffffffffff021916908373ffffffffffffffffffffffffffffffffffffffff16021790555050565b611e68612dee565b73ffffffffffffffffffffffffffffffffffffffff16611e86611833565b73ffffffffffffffffffffffffffffffffffffffff1614611edc576040517f08c379a0000000000000000000000000000000000000000000000000000000008152600401611ed390614079565b60405180910390fd5b600073ffffffffffffffffffffffffffffffffffffffff168173ffffffffffffffffffffffffffffffffffffffff161415611f4c576040517f08c379a0000000000000000000000000000000000000000000000000000000008152600401611f4390613f79565b60405180910390fd5b611f5581612df6565b50565b60026065541415611f9e576040517f08c379a0000000000000000000000000000000000000000000000000000000008152600401611f9590614139565b60405180910390fd5b6002606581905550600061010260008381526020019081526020016000209050600081600401549050600061010060009054906101000a900473ffffffffffffffffffffffffffffffffffffffff1673ffffffffffffffffffffffffffffffffffffffff1663dd62ed3e33306040518363ffffffff1660e01b8152600401612027929190613d94565b60206040518083038186803b15801561203f57600080fd5b505afa158015612053573d6000803e3d6000fd5b505050506040513d601f19601f820116820180604052508101906120779190613748565b9050818110156120bc576040517f08c379a00000000000000000000000000000000000000000000000000000000081526004016120b3906140b9565b60405180910390fd5b600115158360050160019054906101000a900460ff1615151480156120f65750600015158360050160009054906101000a900460ff161515145b612135576040517f08c379a000000000000000000000000000000000000000000000000000000000815260040161212c90613f39565b60405180910390fd5b8260020160009054906101000a900473ffffffffffffffffffffffffffffffffffffffff1673ffffffffffffffffffffffffffffffffffffffff163373ffffffffffffffffffffffffffffffffffffffff1614156121c8576040517f08c379a00000000000000000000000000000000000000000000000000000000081526004016121bf906140f9565b60405180910390fd5b600061010060009054906101000a900473ffffffffffffffffffffffffffffffffffffffff1673ffffffffffffffffffffffffffffffffffffffff166323b872dd3360ff60009054906101000a900473ffffffffffffffffffffffffffffffffffffffff166122566103e861224860fe548a612ebc90919063ffffffff16565b612ed290919063ffffffff16565b6040518463ffffffff1660e01b815260040161227493929190613dbd565b602060405180830381600087803b15801561228e57600080fd5b505af11580156122a2573d6000803e3d6000fd5b505050506040513d601f19601f820116820180604052508101906122c691906136b5565b905080612308576040517f08c379a00000000000000000000000000000000000000000000000000000000081526004016122ff90614099565b60405180910390fd5b600061010060009054906101000a900473ffffffffffffffffffffffffffffffffffffffff1673ffffffffffffffffffffffffffffffffffffffff166323b872dd338760020160009054906101000a900473ffffffffffffffffffffffffffffffffffffffff166123a56103e861239760fe546103e86123889190614480565b8b612ebc90919063ffffffff16565b612ed290919063ffffffff16565b6040518463ffffffff1660e01b81526004016123c393929190613dbd565b602060405180830381600087803b1580156123dd57600080fd5b505af11580156123f1573d6000803e3d6000fd5b505050506040513d601f19601f8201168201806040525081019061241591906136b5565b905080612457576040517f08c379a000000000000000000000000000000000000000000000000000000000815260040161244e90613ff9565b60405180910390fd5b60008560010154905061010160009054906101000a900473ffffffffffffffffffffffffffffffffffffffff1673ffffffffffffffffffffffffffffffffffffffff166323b872dd3033846040518463ffffffff1660e01b81526004016124c093929190613dbd565b600060405180830381600087803b1580156124da57600080fd5b505af11580156124ee573d6000803e3d6000fd5b50505050600042905060018760050160006101000a81548160ff02191690831515021790555060008760050160016101000a81548160ff021916908315150217905550338760030160006101000a81548173ffffffffffffffffffffffffffffffffffffffff021916908373ffffffffffffffffffffffffffffffffffffffff16021790555080876006018190555061258760fc612dd8565b81887fa1ffbf809f5113e0312f081bb16d51434d610320b7ea557250fdcbded2fbd4478960020160009054906101000a900473ffffffffffffffffffffffffffffffffffffffff16898b60050160009054906101000a900460ff16866040516125f39493929190613e1d565b60405180910390a37f7c8ecd76e70d007ea55274b3222da38779706d055ca4fe9a1e61dfc2a7e0c1e388838960020160009054906101000a900473ffffffffffffffffffffffffffffffffffffffff168a60030160009054906101000a900473ffffffffffffffffffffffffffffffffffffffff1660ff60009054906101000a900473ffffffffffffffffffffffffffffffffffffffff166126b46103e86126a660fe548f612ebc90919063ffffffff16565b612ed290919063ffffffff16565b876040516126c897969594939291906141f4565b60405180910390a150505050505050600160658190555050565b6060600061010160009054906101000a900473ffffffffffffffffffffffffffffffffffffffff1673ffffffffffffffffffffffffffffffffffffffff166370a08231336040518263ffffffff1660e01b81526004016127429190613d79565b60206040518083038186803b15801561275a57600080fd5b505afa15801561276e573d6000803e3d6000fd5b505050506040513d601f19601f820116820180604052508101906127929190613748565b905060008167ffffffffffffffff8111156127d6577f4e487b7100000000000000000000000000000000000000000000000000000000600052604160045260246000fd5b60405190808252806020026020018201604052801561280f57816020015b6127fc613399565b8152602001906001900390816127f45790505b50905060005b82811015612a3157600061010160009054906101000a900473ffffffffffffffffffffffffffffffffffffffff1673ffffffffffffffffffffffffffffffffffffffff16632f745c5933846040518363ffffffff1660e01b815260040161287d929190613df4565b60206040518083038186803b15801561289557600080fd5b505afa1580156128a9573d6000803e3d6000fd5b505050506040513d601f19601f820116820180604052508101906128cd9190613748565b9050600061010160009054906101000a900473ffffffffffffffffffffffffffffffffffffffff1673ffffffffffffffffffffffffffffffffffffffff1663c87b56dd836040518263ffffffff1660e01b815260040161292d9190614179565b60006040518083038186803b15801561294557600080fd5b505afa158015612959573d6000803e3d6000fd5b505050506040513d6000823e3d601f19601f8201168201806040525081019061298291906136de565b9050604051806060016040528083815260200161010160009054906101000a900473ffffffffffffffffffffffffffffffffffffffff1673ffffffffffffffffffffffffffffffffffffffff16815260200182815250848481518110612a11577f4e487b7100000000000000000000000000000000000000000000000000000000600052603260045260246000fd5b602002602001018190525050508080612a29906145e3565b915050612815565b50809250505090565b600081600001549050919050565b6000612a767f360894a13ba1a3210667c828492db98dca3e2076cc3735a920a3ca505d382bbc60001b612ee8565b60000160009054906101000a900473ffffffffffffffffffffffffffffffffffffffff16905090565b612aa7612dee565b73ffffffffffffffffffffffffffffffffffffffff16612ac5611833565b73ffffffffffffffffffffffffffffffffffffffff1614612b1b576040517f08c379a0000000000000000000000000000000000000000000000000000000008152600401612b1290614079565b60405180910390fd5b50565b6000612b28612a48565b9050612b3384612ef2565b600083511180612b405750815b15612b5157612b4f8484612fab565b505b6000612b7f7f4910fdfa16fed3260ed0e7147f7cc6da11a60208b5b9406d12a635614ffd914360001b61308f565b90508060000160009054906101000a900460ff16612ce85760018160000160006101000a81548160ff021916908315150217905550612c4b8583604051602401612bc99190613d79565b6040516020818303038152906040527f3659cfe6000000000000000000000000000000000000000000000000000000007bffffffffffffffffffffffffffffffffffffffffffffffffffffffff19166020820180517bffffffffffffffffffffffffffffffffffffffffffffffffffffffff8381831617835250505050612fab565b5060008160000160006101000a81548160ff021916908315150217905550612c71612a48565b73ffffffffffffffffffffffffffffffffffffffff168273ffffffffffffffffffffffffffffffffffffffff1614612cde576040517f08c379a0000000000000000000000000000000000000000000000000000000008152600401612cd590613f59565b60405180910390fd5b612ce785613099565b5b5050505050565b600060019054906101000a900460ff1680612d15575060008054906101000a900460ff16155b612d54576040517f08c379a0000000000000000000000000000000000000000000000000000000008152600401612d4b90614039565b60405180910390fd5b60008060019054906101000a900460ff161590508015612da4576001600060016101000a81548160ff02191690831515021790555060016000806101000a81548160ff0219169083151502179055505b612dac6130e8565b612db46131c1565b8015612dd55760008060016101000a81548160ff0219169083151502179055505b50565b6001816000016000828254019250508190555050565b600033905090565b600060c960009054906101000a900473ffffffffffffffffffffffffffffffffffffffff1690508160c960006101000a81548173ffffffffffffffffffffffffffffffffffffffff021916908373ffffffffffffffffffffffffffffffffffffffff1602179055508173ffffffffffffffffffffffffffffffffffffffff168173ffffffffffffffffffffffffffffffffffffffff167f8be0079c531659141344cd1fd0a4f28419497f9722a3daafe3b4186f6b6457e060405160405180910390a35050565b60008183612eca9190614426565b905092915050565b60008183612ee091906143f5565b905092915050565b6000819050919050565b612efb816132aa565b612f3a576040517f08c379a0000000000000000000000000000000000000000000000000000000008152600401612f3190614059565b60405180910390fd5b80612f677f360894a13ba1a3210667c828492db98dca3e2076cc3735a920a3ca505d382bbc60001b612ee8565b60000160006101000a81548173ffffffffffffffffffffffffffffffffffffffff021916908373ffffffffffffffffffffffffffffffffffffffff16021790555050565b6060612fb6836132aa565b612ff5576040517f08c379a0000000000000000000000000000000000000000000000000000000008152600401612fec906140d9565b60405180910390fd5b6000808473ffffffffffffffffffffffffffffffffffffffff168460405161301d9190613d62565b600060405180830381855af49150503d8060008114613058576040519150601f19603f3d011682016040523d82523d6000602084013e61305d565b606091505b50915091506130858282604051806060016040528060278152602001614b4b602791396132bd565b9250505092915050565b6000819050919050565b6130a281612ef2565b8073ffffffffffffffffffffffffffffffffffffffff167fbc7cd75a20ee27fd9adebab32041f755214dbc6bffa90cc0225b39da2e5c2d3b60405160405180910390a250565b600060019054906101000a900460ff168061310e575060008054906101000a900460ff16155b61314d576040517f08c379a000000000000000000000000000000000000000000000000000000000815260040161314490614039565b60405180910390fd5b60008060019054906101000a900460ff16159050801561319d576001600060016101000a81548160ff02191690831515021790555060016000806101000a81548160ff0219169083151502179055505b80156131be5760008060016101000a81548160ff0219169083151502179055505b50565b600060019054906101000a900460ff16806131e7575060008054906101000a900460ff16155b613226576040517f08c379a000000000000000000000000000000000000000000000000000000000815260040161321d90614039565b60405180910390fd5b60008060019054906101000a900460ff161590508015613276576001600060016101000a81548160ff02191690831515021790555060016000806101000a81548160ff0219169083151502179055505b613286613281612dee565b612df6565b80156132a75760008060016101000a81548160ff0219169083151502179055505b50565b600080823b905060008111915050919050565b606083156132cd5782905061331d565b6000835111156132e05782518084602001fd5b816040517f08c379a00000000000000000000000000000000000000000000000000000000081526004016133149190613ef7565b60405180910390fd5b9392505050565b6040518061010001604052806000815260200160008152602001600073ffffffffffffffffffffffffffffffffffffffff168152602001600073ffffffffffffffffffffffffffffffffffffffff16815260200160008152602001600015158152602001600015158152602001600081525090565b604051806060016040528060008152602001600073ffffffffffffffffffffffffffffffffffffffff168152602001606081525090565b60006133e36133de84614288565b614263565b9050828152602081018484840111156133fb57600080fd5b613406848285614570565b509392505050565b600061342161341c846142b9565b614263565b90508281526020810184848401111561343957600080fd5b61344484828561457f565b509392505050565b60008135905061345b81614b05565b92915050565b60008151905061347081614b05565b92915050565b60008151905061348581614b1c565b92915050565b60008083601f84011261349d57600080fd5b8235905067ffffffffffffffff8111156134b657600080fd5b6020830191508360018202830111156134ce57600080fd5b9250929050565b600082601f8301126134e657600080fd5b81356134f68482602086016133d0565b91505092915050565b600082601f83011261351057600080fd5b815161352084826020860161340e565b91505092915050565b60008135905061353881614b33565b92915050565b60008151905061354d81614b33565b92915050565b60006020828403121561356557600080fd5b60006135738482850161344c565b91505092915050565b60006020828403121561358e57600080fd5b600061359c84828501613461565b91505092915050565b600080604083850312156135b857600080fd5b60006135c68582860161344c565b92505060206135d78582860161344c565b9150509250929050565b6000806000806000608086880312156135f957600080fd5b60006136078882890161344c565b95505060206136188882890161344c565b945050604061362988828901613529565b935050606086013567ffffffffffffffff81111561364657600080fd5b6136528882890161348b565b92509250509295509295909350565b6000806040838503121561367457600080fd5b60006136828582860161344c565b925050602083013567ffffffffffffffff81111561369f57600080fd5b6136ab858286016134d5565b9150509250929050565b6000602082840312156136c757600080fd5b60006136d584828501613476565b91505092915050565b6000602082840312156136f057600080fd5b600082015167ffffffffffffffff81111561370a57600080fd5b613716848285016134ff565b91505092915050565b60006020828403121561373157600080fd5b600061373f84828501613529565b91505092915050565b60006020828403121561375a57600080fd5b60006137688482850161353e565b91505092915050565b6000806040838503121561378457600080fd5b600061379285828601613529565b92505060206137a385828601613529565b9150509250929050565b60006137b98383613c52565b6101008301905092915050565b60006137d28383613cf4565b905092915050565b6137e3816144b4565b82525050565b6137f2816144b4565b82525050565b60006138038261430a565b61380d8185614350565b9350613818836142ea565b8060005b8381101561384957815161383088826137ad565b975061383b83614336565b92505060018101905061381c565b5085935050505092915050565b600061386182614315565b61386b8185614361565b93508360208202850161387d856142fa565b8060005b858110156138b9578484038952815161389a85826137c6565b94506138a583614343565b925060208a01995050600181019050613881565b50829750879550505050505092915050565b6138d4816144c6565b82525050565b6138e3816144c6565b82525050565b6138f2816144d2565b82525050565b600061390382614320565b61390d8185614372565b935061391d81856020860161457f565b80840191505092915050565b61393281614528565b82525050565b6139418161454c565b82525050565b60006139528261432b565b61395c818561437d565b935061396c81856020860161457f565b613975816146b9565b840191505092915050565b600061398b8261432b565b613995818561438e565b93506139a581856020860161457f565b6139ae816146b9565b840191505092915050565b60006139c660198361438e565b91506139d1826146ca565b602082019050919050565b60006139e9600f8361438e565b91506139f4826146f3565b602082019050919050565b6000613a0c602f8361438e565b9150613a178261471c565b604082019050919050565b6000613a2f60268361438e565b9150613a3a8261476b565b604082019050919050565b6000613a5260248361438e565b9150613a5d826147ba565b604082019050919050565b6000613a75602c8361438e565b9150613a8082614809565b604082019050919050565b6000613a9860138361438e565b9150613aa382614858565b602082019050919050565b6000613abb60188361438e565b9150613ac682614881565b602082019050919050565b6000613ade602c8361438e565b9150613ae9826148aa565b604082019050919050565b6000613b01602e8361438e565b9150613b0c826148f9565b604082019050919050565b6000613b24602d8361438e565b9150613b2f82614948565b604082019050919050565b6000613b4760208361438e565b9150613b5282614997565b602082019050919050565b6000613b6a60168361438e565b9150613b75826149c0565b602082019050919050565b6000613b8d60148361438e565b9150613b98826149e9565b602082019050919050565b6000613bb060268361438e565b9150613bbb82614a12565b604082019050919050565b6000613bd3601d8361438e565b9150613bde82614a61565b602082019050919050565b6000613bf6601c8361438e565b9150613c0182614a8a565b602082019050919050565b6000613c19601f8361438e565b9150613c2482614ab3565b602082019050919050565b6000613c3c601c8361438e565b9150613c4782614adc565b602082019050919050565b61010082016000820151613c696000850182613d44565b506020820151613c7c6020850182613d44565b506040820151613c8f60408501826137da565b506060820151613ca260608501826137da565b506080820151613cb56080850182613d44565b5060a0820151613cc860a08501826138cb565b5060c0820151613cdb60c08501826138cb565b5060e0820151613cee60e0850182613d44565b50505050565b6000606083016000830151613d0c6000860182613d44565b506020830151613d1f60208601826137da565b5060408301518482036040860152613d378282613947565b9150508091505092915050565b613d4d8161451e565b82525050565b613d5c8161451e565b82525050565b6000613d6e82846138f8565b915081905092915050565b6000602082019050613d8e60008301846137e9565b92915050565b6000604082019050613da960008301856137e9565b613db660208301846137e9565b9392505050565b6000606082019050613dd260008301866137e9565b613ddf60208301856137e9565b613dec6040830184613d53565b949350505050565b6000604082019050613e0960008301856137e9565b613e166020830184613d53565b9392505050565b6000608082019050613e3260008301876137e9565b613e3f6020830186613d53565b613e4c60408301856138da565b613e596060830184613d53565b95945050505050565b60006020820190508181036000830152613e7c81846137f8565b905092915050565b60006020820190508181036000830152613e9e8184613856565b905092915050565b6000602082019050613ebb60008301846138e9565b92915050565b6000602082019050613ed66000830184613929565b92915050565b6000602082019050613ef16000830184613938565b92915050565b60006020820190508181036000830152613f118184613980565b905092915050565b60006020820190508181036000830152613f32816139b9565b9050919050565b60006020820190508181036000830152613f52816139dc565b9050919050565b60006020820190508181036000830152613f72816139ff565b9050919050565b60006020820190508181036000830152613f9281613a22565b9050919050565b60006020820190508181036000830152613fb281613a45565b9050919050565b60006020820190508181036000830152613fd281613a68565b9050919050565b60006020820190508181036000830152613ff281613a8b565b9050919050565b6000602082019050818103600083015261401281613aae565b9050919050565b6000602082019050818103600083015261403281613ad1565b9050919050565b6000602082019050818103600083015261405281613af4565b9050919050565b6000602082019050818103600083015261407281613b17565b9050919050565b6000602082019050818103600083015261409281613b3a565b9050919050565b600060208201905081810360008301526140b281613b5d565b9050919050565b600060208201905081810360008301526140d281613b80565b9050919050565b600060208201905081810360008301526140f281613ba3565b9050919050565b6000602082019050818103600083015261411281613bc6565b9050919050565b6000602082019050818103600083015261413281613be9565b9050919050565b6000602082019050818103600083015261415281613c0c565b9050919050565b6000602082019050818103600083015261417281613c2f565b9050919050565b600060208201905061418e6000830184613d53565b92915050565b60006060820190506141a96000830186613d53565b6141b660208301856138da565b6141c36040830184613d53565b949350505050565b60006040820190506141e06000830185613d53565b6141ed6020830184613d53565b9392505050565b600060e082019050614209600083018a613d53565b6142166020830189613d53565b61422360408301886137e9565b61423060608301876137e9565b61423d60808301866137e9565b61424a60a0830185613d53565b61425760c0830184613d53565b98975050505050505050565b600061426d61427e565b905061427982826145b2565b919050565b6000604051905090565b600067ffffffffffffffff8211156142a3576142a261468a565b5b6142ac826146b9565b9050602081019050919050565b600067ffffffffffffffff8211156142d4576142d361468a565b5b6142dd826146b9565b9050602081019050919050565b6000819050602082019050919050565b6000819050602082019050919050565b600081519050919050565b600081519050919050565b600081519050919050565b600081519050919050565b6000602082019050919050565b6000602082019050919050565b600082825260208201905092915050565b600082825260208201905092915050565b600081905092915050565b600082825260208201905092915050565b600082825260208201905092915050565b60006143aa8261451e565b91506143b58361451e565b9250827fffffffffffffffffffffffffffffffffffffffffffffffffffffffffffffffff038211156143ea576143e961462c565b5b828201905092915050565b60006144008261451e565b915061440b8361451e565b92508261441b5761441a61465b565b5b828204905092915050565b60006144318261451e565b915061443c8361451e565b9250817fffffffffffffffffffffffffffffffffffffffffffffffffffffffffffffffff04831182151516156144755761447461462c565b5b828202905092915050565b600061448b8261451e565b91506144968361451e565b9250828210156144a9576144a861462c565b5b828203905092915050565b60006144bf826144fe565b9050919050565b60008115159050919050565b60007fffffffff0000000000000000000000000000000000000000000000000000000082169050919050565b600073ffffffffffffffffffffffffffffffffffffffff82169050919050565b6000819050919050565b60006145338261453a565b9050919050565b6000614545826144fe565b9050919050565b60006145578261455e565b9050919050565b6000614569826144fe565b9050919050565b82818337600083830152505050565b60005b8381101561459d578082015181840152602081019050614582565b838111156145ac576000848401525b50505050565b6145bb826146b9565b810181811067ffffffffffffffff821117156145da576145d961468a565b5b80604052505050565b60006145ee8261451e565b91507fffffffffffffffffffffffffffffffffffffffffffffffffffffffffffffffff8214156146215761462061462c565b5b600182019050919050565b7f4e487b7100000000000000000000000000000000000000000000000000000000600052601160045260246000fd5b7f4e487b7100000000000000000000000000000000000000000000000000000000600052601260045260246000fd5b7f4e487b7100000000000000000000000000000000000000000000000000000000600052604160045260246000fd5b6000601f19601f8301169050919050565b7f596f7520646f206e6f74206f776e207468697320746f6b656e00000000000000600082015250565b7f53616c652077617320656e6465642e0000000000000000000000000000000000600082015250565b7f45524331393637557067726164653a207570677261646520627265616b73206660008201527f7572746865722075706772616465730000000000000000000000000000000000602082015250565b7f4f776e61626c653a206e6577206f776e657220697320746865207a65726f206160008201527f6464726573730000000000000000000000000000000000000000000000000000602082015250565b7f4665652070657263656e74206d75737420626520736d616c6c6572207468616e60008201527f2031302500000000000000000000000000000000000000000000000000000000602082015250565b7f46756e6374696f6e206d7573742062652063616c6c6564207468726f7567682060008201527f64656c656761746563616c6c0000000000000000000000000000000000000000602082015250565b7f496e76616c69642073616c652073656c6c657200000000000000000000000000600082015250565b7f4661696c656420746f207472616e7366657220746f6b656e0000000000000000600082015250565b7f46756e6374696f6e206d7573742062652063616c6c6564207468726f7567682060008201527f6163746976652070726f78790000000000000000000000000000000000000000602082015250565b7f496e697469616c697a61626c653a20636f6e747261637420697320616c72656160008201527f647920696e697469616c697a6564000000000000000000000000000000000000602082015250565b7f455243313936373a206e657720696d706c656d656e746174696f6e206973206e60008201527f6f74206120636f6e747261637400000000000000000000000000000000000000602082015250565b7f4f776e61626c653a2063616c6c6572206973206e6f7420746865206f776e6572600082015250565b7f4661696c656420746f207472616e736665722066656500000000000000000000600082015250565b7f4e6f7420656e6f75676820616c6c6f77616e6365000000000000000000000000600082015250565b7f416464726573733a2064656c65676174652063616c6c20746f206e6f6e2d636f60008201527f6e74726163740000000000000000000000000000000000000000000000000000602082015250565b7f42757965722069732073656c6c6572206f662074686973206974656d2e000000600082015250565b7f73657446656552656365697665723a206e756c6c206164647265737300000000600082015250565b7f5265656e7472616e637947756172643a207265656e7472616e742063616c6c00600082015250565b7f5072696365206d757374206265206174206c6561737420312077656900000000600082015250565b614b0e816144b4565b8114614b1957600080fd5b50565b614b25816144c6565b8114614b3057600080fd5b50565b614b3c8161451e565b8114614b4757600080fd5b5056fe416464726573733a206c6f772d6c6576656c2064656c65676174652063616c6c206661696c6564a2646970667358221220cf00bfa8009966e31bc3d46fb1cf667a4958593403fbfb104a5ed646012b523664736f6c63430008020033",
  "linkReferences": {},
  "deployedLinkReferences": {}
}