{
  "_format": "hh-sol-artifact-1",
  "contractName": "HOWLCapped",
  "sourceName": "contracts/HOWLCapped.sol",
  "abi": [
    {
      "inputs": [],
      "stateMutability": "nonpayable",
      "type": "constructor"
    },
    {
      "anonymous": false,
      "inputs": [
        {
          "indexed": true,
          "internalType": "address",
          "name": "owner",
          "type": "address"
        },
        {
          "indexed": true,
          "internalType": "address",
          "name": "spender",
          "type": "address"
        },
        {
          "indexed": false,
          "internalType": "uint256",
          "name": "value",
          "type": "uint256"
        }
      ],
      "name": "Approval",
      "type": "event"
    },
    {
      "anonymous": false,
      "inputs": [
        {
          "indexed": true,
          "internalType": "address",
          "name": "previousOwner",
          "type": "address"
        },
        {
          "indexed": true,
          "internalType": "address",
          "name": "newOwner",
          "type": "address"
        }
      ],
      "name": "OwnershipTransferred",
      "type": "event"
    },
    {
      "anonymous": false,
      "inputs": [
        {
          "indexed": false,
          "internalType": "address",
          "name": "account",
          "type": "address"
        }
      ],
      "name": "Paused",
      "type": "event"
    },
    {
      "anonymous": false,
      "inputs": [
        {
          "indexed": true,
          "internalType": "address",
          "name": "from",
          "type": "address"
        },
        {
          "indexed": true,
          "internalType": "address",
          "name": "to",
          "type": "address"
        },
        {
          "indexed": false,
          "internalType": "uint256",
          "name": "value",
          "type": "uint256"
        }
      ],
      "name": "Transfer",
      "type": "event"
    },
    {
      "anonymous": false,
      "inputs": [
        {
          "indexed": false,
          "internalType": "address",
          "name": "account",
          "type": "address"
        }
      ],
      "name": "Unpaused",
      "type": "event"
    },
    {
      "inputs": [
        {
          "internalType": "address",
          "name": "owner",
          "type": "address"
        },
        {
          "internalType": "address",
          "name": "spender",
          "type": "address"
        }
      ],
      "name": "allowance",
      "outputs": [
        {
          "internalType": "uint256",
          "name": "",
          "type": "uint256"
        }
      ],
      "stateMutability": "view",
      "type": "function"
    },
    {
      "inputs": [
        {
          "internalType": "address",
          "name": "spender",
          "type": "address"
        },
        {
          "internalType": "uint256",
          "name": "amount",
          "type": "uint256"
        }
      ],
      "name": "approve",
      "outputs": [
        {
          "internalType": "bool",
          "name": "",
          "type": "bool"
        }
      ],
      "stateMutability": "nonpayable",
      "type": "function"
    },
    {
      "inputs": [
        {
          "internalType": "address",
          "name": "account",
          "type": "address"
        }
      ],
      "name": "balanceOf",
      "outputs": [
        {
          "internalType": "uint256",
          "name": "",
          "type": "uint256"
        }
      ],
      "stateMutability": "view",
      "type": "function"
    },
    {
      "inputs": [
        {
          "internalType": "uint256",
          "name": "amount",
          "type": "uint256"
        }
      ],
      "name": "burn",
      "outputs": [],
      "stateMutability": "nonpayable",
      "type": "function"
    },
    {
      "inputs": [
        {
          "internalType": "address",
          "name": "account",
          "type": "address"
        },
        {
          "internalType": "uint256",
          "name": "amount",
          "type": "uint256"
        }
      ],
      "name": "burnFrom",
      "outputs": [],
      "stateMutability": "nonpayable",
      "type": "function"
    },
    {
      "inputs": [],
      "name": "cap",
      "outputs": [
        {
          "internalType": "uint256",
          "name": "",
          "type": "uint256"
        }
      ],
      "stateMutability": "view",
      "type": "function"
    },
    {
      "inputs": [],
      "name": "decimals",
      "outputs": [
        {
          "internalType": "uint8",
          "name": "",
          "type": "uint8"
        }
      ],
      "stateMutability": "view",
      "type": "function"
    },
    {
      "inputs": [
        {
          "internalType": "address",
          "name": "spender",
          "type": "address"
        },
        {
          "internalType": "uint256",
          "name": "subtractedValue",
          "type": "uint256"
        }
      ],
      "name": "decreaseAllowance",
      "outputs": [
        {
          "internalType": "bool",
          "name": "",
          "type": "bool"
        }
      ],
      "stateMutability": "nonpayable",
      "type": "function"
    },
    {
      "inputs": [
        {
          "internalType": "address",
          "name": "spender",
          "type": "address"
        },
        {
          "internalType": "uint256",
          "name": "addedValue",
          "type": "uint256"
        }
      ],
      "name": "increaseAllowance",
      "outputs": [
        {
          "internalType": "bool",
          "name": "",
          "type": "bool"
        }
      ],
      "stateMutability": "nonpayable",
      "type": "function"
    },
    {
      "inputs": [
        {
          "internalType": "address",
          "name": "to",
          "type": "address"
        },
        {
          "internalType": "uint256",
          "name": "amount",
          "type": "uint256"
        }
      ],
      "name": "mint",
      "outputs": [],
      "stateMutability": "nonpayable",
      "type": "function"
    },
    {
      "inputs": [],
      "name": "name",
      "outputs": [
        {
          "internalType": "string",
          "name": "",
          "type": "string"
        }
      ],
      "stateMutability": "view",
      "type": "function"
    },
    {
      "inputs": [],
      "name": "owner",
      "outputs": [
        {
          "internalType": "address",
          "name": "",
          "type": "address"
        }
      ],
      "stateMutability": "view",
      "type": "function"
    },
    {
      "inputs": [],
      "name": "pause",
      "outputs": [],
      "stateMutability": "nonpayable",
      "type": "function"
    },
    {
      "inputs": [],
      "name": "paused",
      "outputs": [
        {
          "internalType": "bool",
          "name": "",
          "type": "bool"
        }
      ],
      "stateMutability": "view",
      "type": "function"
    },
    {
      "inputs": [],
      "name": "renounceOwnership",
      "outputs": [],
      "stateMutability": "nonpayable",
      "type": "function"
    },
    {
      "inputs": [],
      "name": "symbol",
      "outputs": [
        {
          "internalType": "string",
          "name": "",
          "type": "string"
        }
      ],
      "stateMutability": "view",
      "type": "function"
    },
    {
      "inputs": [],
      "name": "totalSupply",
      "outputs": [
        {
          "internalType": "uint256",
          "name": "",
          "type": "uint256"
        }
      ],
      "stateMutability": "view",
      "type": "function"
    },
    {
      "inputs": [
        {
          "internalType": "address",
          "name": "recipient",
          "type": "address"
        },
        {
          "internalType": "uint256",
          "name": "amount",
          "type": "uint256"
        }
      ],
      "name": "transfer",
      "outputs": [
        {
          "internalType": "bool",
          "name": "",
          "type": "bool"
        }
      ],
      "stateMutability": "nonpayable",
      "type": "function"
    },
    {
      "inputs": [
        {
          "internalType": "address",
          "name": "sender",
          "type": "address"
        },
        {
          "internalType": "address",
          "name": "recipient",
          "type": "address"
        },
        {
          "internalType": "uint256",
          "name": "amount",
          "type": "uint256"
        }
      ],
      "name": "transferFrom",
      "outputs": [
        {
          "internalType": "bool",
          "name": "",
          "type": "bool"
        }
      ],
      "stateMutability": "nonpayable",
      "type": "function"
    },
    {
      "inputs": [
        {
          "internalType": "address",
          "name": "newOwner",
          "type": "address"
        }
      ],
      "name": "transferOwnership",
      "outputs": [],
      "stateMutability": "nonpayable",
      "type": "function"
    },
    {
      "inputs": [],
      "name": "unpause",
      "outputs": [],
      "stateMutability": "nonpayable",
      "type": "function"
    }
  ],
  "bytecode": "0x60a06040523480156200001157600080fd5b506040518060400160405280600481526020017f484f574c000000000000000000000000000000000000000000000000000000008152506040518060400160405280600381526020017f48574c000000000000000000000000000000000000000000000000000000000081525081600390805190602001906200009692919062000200565b508060049080519060200190620000af92919062000200565b5050506000600560006101000a81548160ff021916908315150217905550620000ed620000e16200012960201b60201c565b6200013160201b60201c565b620000fd620001f760201b60201c565b600a6200010b91906200030b565b63202fbf006200011c919062000448565b6080818152505062000561565b600033905090565b6000600560019054906101000a900473ffffffffffffffffffffffffffffffffffffffff16905081600560016101000a81548173ffffffffffffffffffffffffffffffffffffffff021916908373ffffffffffffffffffffffffffffffffffffffff1602179055508173ffffffffffffffffffffffffffffffffffffffff168173ffffffffffffffffffffffffffffffffffffffff167f8be0079c531659141344cd1fd0a4f28419497f9722a3daafe3b4186f6b6457e060405160405180910390a35050565b60006012905090565b8280546200020e90620004c0565b90600052602060002090601f0160209004810192826200023257600085556200027e565b82601f106200024d57805160ff19168380011785556200027e565b828001600101855582156200027e579182015b828111156200027d57825182559160200191906001019062000260565b5b5090506200028d919062000291565b5090565b5b80821115620002ac57600081600090555060010162000292565b5090565b6000808291508390505b60018511156200030257808604811115620002da57620002d9620004f6565b5b6001851615620002ea5780820291505b8081029050620002fa8562000554565b9450620002ba565b94509492505050565b60006200031882620004a9565b91506200032583620004b3565b9250620003547fffffffffffffffffffffffffffffffffffffffffffffffffffffffffffffffff84846200035c565b905092915050565b6000826200036e576001905062000441565b816200037e576000905062000441565b8160018114620003975760028114620003a257620003d8565b600191505062000441565b60ff841115620003b757620003b6620004f6565b5b8360020a915084821115620003d157620003d0620004f6565b5b5062000441565b5060208310610133831016604e8410600b8410161715620004125782820a9050838111156200040c576200040b620004f6565b5b62000441565b620004218484846001620002b0565b925090508184048111156200043b576200043a620004f6565b5b81810290505b9392505050565b60006200045582620004a9565b91506200046283620004a9565b9250817fffffffffffffffffffffffffffffffffffffffffffffffffffffffffffffffff04831182151516156200049e576200049d620004f6565b5b828202905092915050565b6000819050919050565b600060ff82169050919050565b60006002820490506001821680620004d957607f821691505b60208210811415620004f057620004ef62000525565b5b50919050565b7f4e487b7100000000000000000000000000000000000000000000000000000000600052601160045260246000fd5b7f4e487b7100000000000000000000000000000000000000000000000000000000600052602260045260246000fd5b60008160011c9050919050565b6080516124086200057d60003960006105ab01526124086000f3fe608060405234801561001057600080fd5b50600436106101375760003560e01c80635c975abb116100b85780638da5cb5b1161007c5780638da5cb5b1461030457806395d89b4114610322578063a457c2d714610340578063a9059cbb14610370578063dd62ed3e146103a0578063f2fde38b146103d057610137565b80635c975abb1461028657806370a08231146102a4578063715018a6146102d457806379cc6790146102de5780638456cb59146102fa57610137565b8063355274ea116100ff578063355274ea146101f657806339509351146102145780633f4ba83a1461024457806340c10f191461024e57806342966c681461026a57610137565b806306fdde031461013c578063095ea7b31461015a57806318160ddd1461018a57806323b872dd146101a8578063313ce567146101d8575b600080fd5b6101446103ec565b6040516101519190611b4b565b60405180910390f35b610174600480360381019061016f919061180b565b61047e565b6040516101819190611b30565b60405180910390f35b61019261049c565b60405161019f9190611d6d565b60405180910390f35b6101c260048036038101906101bd91906117bc565b6104a6565b6040516101cf9190611b30565b60405180910390f35b6101e061059e565b6040516101ed9190611d88565b60405180910390f35b6101fe6105a7565b60405161020b9190611d6d565b60405180910390f35b61022e6004803603810190610229919061180b565b6105cf565b60405161023b9190611b30565b60405180910390f35b61024c61067b565b005b6102686004803603810190610263919061180b565b610701565b005b610284600480360381019061027f9190611847565b61078b565b005b61028e61079f565b60405161029b9190611b30565b60405180910390f35b6102be60048036038101906102b99190611757565b6107b6565b6040516102cb9190611d6d565b60405180910390f35b6102dc6107fe565b005b6102f860048036038101906102f3919061180b565b610886565b005b610302610901565b005b61030c610987565b6040516103199190611b15565b60405180910390f35b61032a6109b1565b6040516103379190611b4b565b60405180910390f35b61035a6004803603810190610355919061180b565b610a43565b6040516103679190611b30565b60405180910390f35b61038a6004803603810190610385919061180b565b610b2e565b6040516103979190611b30565b60405180910390f35b6103ba60048036038101906103b59190611780565b610b4c565b6040516103c79190611d6d565b60405180910390f35b6103ea60048036038101906103e59190611757565b610bd3565b005b6060600380546103fb90611ed1565b80601f016020809104026020016040519081016040528092919081815260200182805461042790611ed1565b80156104745780601f1061044957610100808354040283529160200191610474565b820191906000526020600020905b81548152906001019060200180831161045757829003601f168201915b5050505050905090565b600061049261048b610ccb565b8484610cd3565b6001905092915050565b6000600254905090565b60006104b3848484610e9e565b6000600160008673ffffffffffffffffffffffffffffffffffffffff1673ffffffffffffffffffffffffffffffffffffffff16815260200190815260200160002060006104fe610ccb565b73ffffffffffffffffffffffffffffffffffffffff1673ffffffffffffffffffffffffffffffffffffffff1681526020019081526020016000205490508281101561057e576040517f08c379a000000000000000000000000000000000000000000000000000000000815260040161057590611c4d565b60405180910390fd5b6105928561058a610ccb565b858403610cd3565b60019150509392505050565b60006012905090565b60007f0000000000000000000000000000000000000000000000000000000000000000905090565b60006106716105dc610ccb565b8484600160006105ea610ccb565b73ffffffffffffffffffffffffffffffffffffffff1673ffffffffffffffffffffffffffffffffffffffff16815260200190815260200160002060008873ffffffffffffffffffffffffffffffffffffffff1673ffffffffffffffffffffffffffffffffffffffff1681526020019081526020016000205461066c9190611dbf565b610cd3565b6001905092915050565b610683610ccb565b73ffffffffffffffffffffffffffffffffffffffff166106a1610987565b73ffffffffffffffffffffffffffffffffffffffff16146106f7576040517f08c379a00000000000000000000000000000000000000000000000000000000081526004016106ee90611c6d565b60405180910390fd5b6106ff61111f565b565b610709610ccb565b73ffffffffffffffffffffffffffffffffffffffff16610727610987565b73ffffffffffffffffffffffffffffffffffffffff161461077d576040517f08c379a000000000000000000000000000000000000000000000000000000000815260040161077490611c6d565b60405180910390fd5b61078782826111c1565b5050565b61079c610796610ccb565b8261122b565b50565b6000600560009054906101000a900460ff16905090565b60008060008373ffffffffffffffffffffffffffffffffffffffff1673ffffffffffffffffffffffffffffffffffffffff168152602001908152602001600020549050919050565b610806610ccb565b73ffffffffffffffffffffffffffffffffffffffff16610824610987565b73ffffffffffffffffffffffffffffffffffffffff161461087a576040517f08c379a000000000000000000000000000000000000000000000000000000000815260040161087190611c6d565b60405180910390fd5b6108846000611402565b565b600061089983610894610ccb565b610b4c565b9050818110156108de576040517f08c379a00000000000000000000000000000000000000000000000000000000081526004016108d590611c8d565b60405180910390fd5b6108f2836108ea610ccb565b848403610cd3565b6108fc838361122b565b505050565b610909610ccb565b73ffffffffffffffffffffffffffffffffffffffff16610927610987565b73ffffffffffffffffffffffffffffffffffffffff161461097d576040517f08c379a000000000000000000000000000000000000000000000000000000000815260040161097490611c6d565b60405180910390fd5b6109856114c8565b565b6000600560019054906101000a900473ffffffffffffffffffffffffffffffffffffffff16905090565b6060600480546109c090611ed1565b80601f01602080910402602001604051908101604052809291908181526020018280546109ec90611ed1565b8015610a395780601f10610a0e57610100808354040283529160200191610a39565b820191906000526020600020905b815481529060010190602001808311610a1c57829003601f168201915b5050505050905090565b60008060016000610a52610ccb565b73ffffffffffffffffffffffffffffffffffffffff1673ffffffffffffffffffffffffffffffffffffffff16815260200190815260200160002060008573ffffffffffffffffffffffffffffffffffffffff1673ffffffffffffffffffffffffffffffffffffffff16815260200190815260200160002054905082811015610b0f576040517f08c379a0000000000000000000000000000000000000000000000000000000008152600401610b0690611d2d565b60405180910390fd5b610b23610b1a610ccb565b85858403610cd3565b600191505092915050565b6000610b42610b3b610ccb565b8484610e9e565b6001905092915050565b6000600160008473ffffffffffffffffffffffffffffffffffffffff1673ffffffffffffffffffffffffffffffffffffffff16815260200190815260200160002060008373ffffffffffffffffffffffffffffffffffffffff1673ffffffffffffffffffffffffffffffffffffffff16815260200190815260200160002054905092915050565b610bdb610ccb565b73ffffffffffffffffffffffffffffffffffffffff16610bf9610987565b73ffffffffffffffffffffffffffffffffffffffff1614610c4f576040517f08c379a0000000000000000000000000000000000000000000000000000000008152600401610c4690611c6d565b60405180910390fd5b600073ffffffffffffffffffffffffffffffffffffffff168173ffffffffffffffffffffffffffffffffffffffff161415610cbf576040517f08c379a0000000000000000000000000000000000000000000000000000000008152600401610cb690611bcd565b60405180910390fd5b610cc881611402565b50565b600033905090565b600073ffffffffffffffffffffffffffffffffffffffff168373ffffffffffffffffffffffffffffffffffffffff161415610d43576040517f08c379a0000000000000000000000000000000000000000000000000000000008152600401610d3a90611d0d565b60405180910390fd5b600073ffffffffffffffffffffffffffffffffffffffff168273ffffffffffffffffffffffffffffffffffffffff161415610db3576040517f08c379a0000000000000000000000000000000000000000000000000000000008152600401610daa90611bed565b60405180910390fd5b80600160008573ffffffffffffffffffffffffffffffffffffffff1673ffffffffffffffffffffffffffffffffffffffff16815260200190815260200160002060008473ffffffffffffffffffffffffffffffffffffffff1673ffffffffffffffffffffffffffffffffffffffff168152602001908152602001600020819055508173ffffffffffffffffffffffffffffffffffffffff168373ffffffffffffffffffffffffffffffffffffffff167f8c5be1e5ebec7d5bd14f71427d1e84f3dd0314c0f7b2291e5b200ac8c7c3b92583604051610e919190611d6d565b60405180910390a3505050565b600073ffffffffffffffffffffffffffffffffffffffff168373ffffffffffffffffffffffffffffffffffffffff161415610f0e576040517f08c379a0000000000000000000000000000000000000000000000000000000008152600401610f0590611ced565b60405180910390fd5b600073ffffffffffffffffffffffffffffffffffffffff168273ffffffffffffffffffffffffffffffffffffffff161415610f7e576040517f08c379a0000000000000000000000000000000000000000000000000000000008152600401610f7590611b6d565b60405180910390fd5b610f8983838361156b565b60008060008573ffffffffffffffffffffffffffffffffffffffff1673ffffffffffffffffffffffffffffffffffffffff1681526020019081526020016000205490508181101561100f576040517f08c379a000000000000000000000000000000000000000000000000000000000815260040161100690611c0d565b60405180910390fd5b8181036000808673ffffffffffffffffffffffffffffffffffffffff1673ffffffffffffffffffffffffffffffffffffffff16815260200190815260200160002081905550816000808573ffffffffffffffffffffffffffffffffffffffff1673ffffffffffffffffffffffffffffffffffffffff16815260200190815260200160002060008282546110a29190611dbf565b925050819055508273ffffffffffffffffffffffffffffffffffffffff168473ffffffffffffffffffffffffffffffffffffffff167fddf252ad1be2c89b69c2b068fc378daa952ba7f163c4a11628f55a4df523b3ef846040516111069190611d6d565b60405180910390a36111198484846115c3565b50505050565b61112761079f565b611166576040517f08c379a000000000000000000000000000000000000000000000000000000000815260040161115d90611b8d565b60405180910390fd5b6000600560006101000a81548160ff0219169083151502179055507f5db9ee0a495bf2e6ff9c91a7834c1ba4fdd244a5e8aa4e537bd38aeae4b073aa6111aa610ccb565b6040516111b79190611b15565b60405180910390a1565b6111c96105a7565b816111d261049c565b6111dc9190611dbf565b111561121d576040517f08c379a000000000000000000000000000000000000000000000000000000000815260040161121490611ccd565b60405180910390fd5b61122782826115c8565b5050565b600073ffffffffffffffffffffffffffffffffffffffff168273ffffffffffffffffffffffffffffffffffffffff16141561129b576040517f08c379a000000000000000000000000000000000000000000000000000000000815260040161129290611cad565b60405180910390fd5b6112a78260008361156b565b60008060008473ffffffffffffffffffffffffffffffffffffffff1673ffffffffffffffffffffffffffffffffffffffff1681526020019081526020016000205490508181101561132d576040517f08c379a000000000000000000000000000000000000000000000000000000000815260040161132490611bad565b60405180910390fd5b8181036000808573ffffffffffffffffffffffffffffffffffffffff1673ffffffffffffffffffffffffffffffffffffffff1681526020019081526020016000208190555081600260008282546113849190611e15565b92505081905550600073ffffffffffffffffffffffffffffffffffffffff168373ffffffffffffffffffffffffffffffffffffffff167fddf252ad1be2c89b69c2b068fc378daa952ba7f163c4a11628f55a4df523b3ef846040516113e99190611d6d565b60405180910390a36113fd836000846115c3565b505050565b6000600560019054906101000a900473ffffffffffffffffffffffffffffffffffffffff16905081600560016101000a81548173ffffffffffffffffffffffffffffffffffffffff021916908373ffffffffffffffffffffffffffffffffffffffff1602179055508173ffffffffffffffffffffffffffffffffffffffff168173ffffffffffffffffffffffffffffffffffffffff167f8be0079c531659141344cd1fd0a4f28419497f9722a3daafe3b4186f6b6457e060405160405180910390a35050565b6114d061079f565b15611510576040517f08c379a000000000000000000000000000000000000000000000000000000000815260040161150790611c2d565b60405180910390fd5b6001600560006101000a81548160ff0219169083151502179055507f62e78cea01bee320cd4e420270b5ea74000d11b0c9f74754ebdbfc544b05a258611554610ccb565b6040516115619190611b15565b60405180910390a1565b61157361079f565b156115b3576040517f08c379a00000000000000000000000000000000000000000000000000000000081526004016115aa90611c2d565b60405180910390fd5b6115be838383611728565b505050565b505050565b600073ffffffffffffffffffffffffffffffffffffffff168273ffffffffffffffffffffffffffffffffffffffff161415611638576040517f08c379a000000000000000000000000000000000000000000000000000000000815260040161162f90611d4d565b60405180910390fd5b6116446000838361156b565b80600260008282546116569190611dbf565b92505081905550806000808473ffffffffffffffffffffffffffffffffffffffff1673ffffffffffffffffffffffffffffffffffffffff16815260200190815260200160002060008282546116ab9190611dbf565b925050819055508173ffffffffffffffffffffffffffffffffffffffff16600073ffffffffffffffffffffffffffffffffffffffff167fddf252ad1be2c89b69c2b068fc378daa952ba7f163c4a11628f55a4df523b3ef836040516117109190611d6d565b60405180910390a3611724600083836115c3565b5050565b505050565b60008135905061173c816123a4565b92915050565b600081359050611751816123bb565b92915050565b60006020828403121561176957600080fd5b60006117778482850161172d565b91505092915050565b6000806040838503121561179357600080fd5b60006117a18582860161172d565b92505060206117b28582860161172d565b9150509250929050565b6000806000606084860312156117d157600080fd5b60006117df8682870161172d565b93505060206117f08682870161172d565b925050604061180186828701611742565b9150509250925092565b6000806040838503121561181e57600080fd5b600061182c8582860161172d565b925050602061183d85828601611742565b9150509250929050565b60006020828403121561185957600080fd5b600061186784828501611742565b91505092915050565b61187981611e49565b82525050565b61188881611e5b565b82525050565b600061189982611da3565b6118a38185611dae565b93506118b3818560208601611e9e565b6118bc81611f61565b840191505092915050565b60006118d4602383611dae565b91506118df82611f72565b604082019050919050565b60006118f7601483611dae565b915061190282611fc1565b602082019050919050565b600061191a602283611dae565b915061192582611fea565b604082019050919050565b600061193d602683611dae565b915061194882612039565b604082019050919050565b6000611960602283611dae565b915061196b82612088565b604082019050919050565b6000611983602683611dae565b915061198e826120d7565b604082019050919050565b60006119a6601083611dae565b91506119b182612126565b602082019050919050565b60006119c9602883611dae565b91506119d48261214f565b604082019050919050565b60006119ec602083611dae565b91506119f78261219e565b602082019050919050565b6000611a0f602483611dae565b9150611a1a826121c7565b604082019050919050565b6000611a32602183611dae565b9150611a3d82612216565b604082019050919050565b6000611a55601383611dae565b9150611a6082612265565b602082019050919050565b6000611a78602583611dae565b9150611a838261228e565b604082019050919050565b6000611a9b602483611dae565b9150611aa6826122dd565b604082019050919050565b6000611abe602583611dae565b9150611ac98261232c565b604082019050919050565b6000611ae1601f83611dae565b9150611aec8261237b565b602082019050919050565b611b0081611e87565b82525050565b611b0f81611e91565b82525050565b6000602082019050611b2a6000830184611870565b92915050565b6000602082019050611b45600083018461187f565b92915050565b60006020820190508181036000830152611b65818461188e565b905092915050565b60006020820190508181036000830152611b86816118c7565b9050919050565b60006020820190508181036000830152611ba6816118ea565b9050919050565b60006020820190508181036000830152611bc68161190d565b9050919050565b60006020820190508181036000830152611be681611930565b9050919050565b60006020820190508181036000830152611c0681611953565b9050919050565b60006020820190508181036000830152611c2681611976565b9050919050565b60006020820190508181036000830152611c4681611999565b9050919050565b60006020820190508181036000830152611c66816119bc565b9050919050565b60006020820190508181036000830152611c86816119df565b9050919050565b60006020820190508181036000830152611ca681611a02565b9050919050565b60006020820190508181036000830152611cc681611a25565b9050919050565b60006020820190508181036000830152611ce681611a48565b9050919050565b60006020820190508181036000830152611d0681611a6b565b9050919050565b60006020820190508181036000830152611d2681611a8e565b9050919050565b60006020820190508181036000830152611d4681611ab1565b9050919050565b60006020820190508181036000830152611d6681611ad4565b9050919050565b6000602082019050611d826000830184611af7565b92915050565b6000602082019050611d9d6000830184611b06565b92915050565b600081519050919050565b600082825260208201905092915050565b6000611dca82611e87565b9150611dd583611e87565b9250827fffffffffffffffffffffffffffffffffffffffffffffffffffffffffffffffff03821115611e0a57611e09611f03565b5b828201905092915050565b6000611e2082611e87565b9150611e2b83611e87565b925082821015611e3e57611e3d611f03565b5b828203905092915050565b6000611e5482611e67565b9050919050565b60008115159050919050565b600073ffffffffffffffffffffffffffffffffffffffff82169050919050565b6000819050919050565b600060ff82169050919050565b60005b83811015611ebc578082015181840152602081019050611ea1565b83811115611ecb576000848401525b50505050565b60006002820490506001821680611ee957607f821691505b60208210811415611efd57611efc611f32565b5b50919050565b7f4e487b7100000000000000000000000000000000000000000000000000000000600052601160045260246000fd5b7f4e487b7100000000000000000000000000000000000000000000000000000000600052602260045260246000fd5b6000601f19601f8301169050919050565b7f45524332303a207472616e7366657220746f20746865207a65726f206164647260008201527f6573730000000000000000000000000000000000000000000000000000000000602082015250565b7f5061757361626c653a206e6f7420706175736564000000000000000000000000600082015250565b7f45524332303a206275726e20616d6f756e7420657863656564732062616c616e60008201527f6365000000000000000000000000000000000000000000000000000000000000602082015250565b7f4f776e61626c653a206e6577206f776e657220697320746865207a65726f206160008201527f6464726573730000000000000000000000000000000000000000000000000000602082015250565b7f45524332303a20617070726f766520746f20746865207a65726f20616464726560008201527f7373000000000000000000000000000000000000000000000000000000000000602082015250565b7f45524332303a207472616e7366657220616d6f756e742065786365656473206260008201527f616c616e63650000000000000000000000000000000000000000000000000000602082015250565b7f5061757361626c653a2070617573656400000000000000000000000000000000600082015250565b7f45524332303a207472616e7366657220616d6f756e742065786365656473206160008201527f6c6c6f77616e6365000000000000000000000000000000000000000000000000602082015250565b7f4f776e61626c653a2063616c6c6572206973206e6f7420746865206f776e6572600082015250565b7f45524332303a206275726e20616d6f756e74206578636565647320616c6c6f7760008201527f616e636500000000000000000000000000000000000000000000000000000000602082015250565b7f45524332303a206275726e2066726f6d20746865207a65726f2061646472657360008201527f7300000000000000000000000000000000000000000000000000000000000000602082015250565b7f45524332303a2063617020657863656564656400000000000000000000000000600082015250565b7f45524332303a207472616e736665722066726f6d20746865207a65726f20616460008201527f6472657373000000000000000000000000000000000000000000000000000000602082015250565b7f45524332303a20617070726f76652066726f6d20746865207a65726f2061646460008201527f7265737300000000000000000000000000000000000000000000000000000000602082015250565b7f45524332303a2064656372656173656420616c6c6f77616e63652062656c6f7760008201527f207a65726f000000000000000000000000000000000000000000000000000000602082015250565b7f45524332303a206d696e7420746f20746865207a65726f206164647265737300600082015250565b6123ad81611e49565b81146123b857600080fd5b50565b6123c481611e87565b81146123cf57600080fd5b5056fea2646970667358221220b1931b583e3217e2b59c856b561669cb018358626b20057ecea2264c18f3e96764736f6c63430008020033",
  "linkReferences": {},
  "deployedLinkReferences": {}
}