{
  "_format": "hh-sol-artifact-1",
  "contractName": "Test",
  "sourceName": "contracts/Test.sol",
  "abi": [
    {
      "inputs": [],
      "stateMutability": "nonpayable",
      "type": "constructor"
    },
    {
      "inputs": [],
      "name": "add",
      "outputs": [],
      "stateMutability": "nonpayable",
      "type": "function"
    },
    {
      "inputs": [],
      "name": "getAddress",
      "outputs": [
        {
          "internalType": "address",
          "name": "",
          "type": "address"
        }
      ],
      "stateMutability": "view",
      "type": "function"
    },
    {
      "inputs": [],
      "name": "getTotal",
      "outputs": [
        {
          "internalType": "uint256",
          "name": "",
          "type": "uint256"
        }
      ],
      "stateMutability": "view",
      "type": "function"
    },
    {
      "inputs": [],
      "name": "total",
      "outputs": [
        {
          "internalType": "uint256",
          "name": "",
          "type": "uint256"
        }
      ],
      "stateMutability": "view",
      "type": "function"
    }
  ],
  "bytecode": "0x608060405234801561001057600080fd5b5060008081905550610232806100276000396000f3fe608060405234801561001057600080fd5b506004361061004c5760003560e01c80632ddbd13a1461005157806338cc48311461006f5780634f2be91f1461008d578063775a25e314610097575b600080fd5b6100596100b5565b6040516100669190610120565b60405180910390f35b6100776100bb565b6040516100849190610105565b60405180910390f35b6100956100c3565b005b61009f6100de565b6040516100ac9190610120565b60405180910390f35b60005481565b600033905090565b60016000808282546100d5919061013b565b92505081905550565b60008054905090565b6100f081610191565b82525050565b6100ff816101c3565b82525050565b600060208201905061011a60008301846100e7565b92915050565b600060208201905061013560008301846100f6565b92915050565b6000610146826101c3565b9150610151836101c3565b9250827fffffffffffffffffffffffffffffffffffffffffffffffffffffffffffffffff03821115610186576101856101cd565b5b828201905092915050565b600061019c826101a3565b9050919050565b600073ffffffffffffffffffffffffffffffffffffffff82169050919050565b6000819050919050565b7f4e487b7100000000000000000000000000000000000000000000000000000000600052601160045260246000fdfea26469706673582212203440717f593977f09b882e8ff4e45a104894c5087fe82a3b88352d9bb3dc3e6264736f6c63430008020033",
  "linkReferences": {},
  "deployedLinkReferences": {}
}